:020000040100F9
:10000000B00D0021B10F00013D3E00019D0F000128
:100010009D0F00019D0F00019D0F000100000000D9
:10002000000000000000000000000000551000016A
:100030009D0F0001000000009D0F00019D0F0001B9
:100040008D1100018D1100018D1100018D11000134
:100050008D1100018D1100018D1100018D11000124
:100060008D1100018D1100018D1100018D11000114
:100070008D1100018D1100018D1100018D11000104
:100080008D1100018D1100018D1100018D110001F4
:100090008D1100018D1100018D1100018D110001E4
:1000A0008D1100018D1100018D1100018D110001D4
:1000B0008D1100018D110001000000000000000002
:1000C0000000000000000000000000000000000030
:1000D0000000000000000000000000000000000020
:1000E0000000000000000000000000000000000010
:1000F0000000000000000000000000000000000000
:1001000000000000000000000000000000000000EF
:1001100000000000000000000000000000000000DF
:1001200000000000000000000000000000000000CF
:1001300000000000000000000000000000000000BF
:1001400000000000000000000000000000000000AF
:10015000000000000000000000000000000000009F
:10016000000000000000000000000000000000008F
:10017000000000000000000000000000000000007F
:10018000000000000000000000000000000000006F
:10019000000000000000000000000000000000005F
:1001A000000000000000000000000000000000004F
:1001B000000000000000000000000000000000003F
:1001C000000000000000000000000000000000002F
:1001D000000000000000000000000000000000001F
:1001E000000000000000000000000000000000000F
:1001F00000000000000000000000000000000000FF
:10020000DEE61E284CBBCE8F023500003C0000000D
:100210008851000001000000000000010000000102
:10022000FFFF02910000000000000000000000003D
:1002300000000000000000000000000030B44FF09B
:10024000000310F8014B11F8015B013A84EA050440
:1002500043EA0403F5D1A3F101034FEAD37030BCA4
:10026000704700BF4FF0000310F8012B013943EA3B
:100270000203F9D1A3F101034FEAD370704700BF25
:1002800030B411F8014B12F8015B6C4000F8014BDF
:10029000013BF6D130BC70472DE9F04F90E8F00FEC
:1002A00000F140004FF0040E59E0F0B4826BC36BD4
:1002B00004680525242687593C444FEA724787EA9B
:1002C000F24787EA92273C4442684FEAF21787EAEE
:1002D000B24787EAD2073C4440F8044B032D08BFDD
:1002E0006FF01B0687593A444FEA734787EAF34792
:1002F00087EA93273A4443684FEAF31787EAB347FC
:1003000087EAD3073A4440F8042B87593B444FEA25
:10031000744787EAF44787EA94273B4444684FEAE6
:10032000F41787EAB44787EAD4073B4440F8043B14
:10033000013DC0D1A0F13C00076A3C444FEA72473E
:1003400087EAF24787EA92273C4402684FEAF217AD
:1003500087EAB24787EAD2073C44C463F0BC4FF057
:10036000020288EA781C8CEAF84C0BEBBC1C8AEA87
:10037000090303EA080383EA0A039C4450F8043B98
:100380009C4451F8043B9C44674444EA050B0BEA47
:10039000060B04EA05034BEA030BE34484EAF42367
:1003A00083EA34530BEBB30B87EA771C8CEAF74CE8
:1003B0000AEBBC1C89EA080303EA070383EA090382
:1003C0009C4450F8043B9C4451F8043B9C446644D4
:1003D0004BEA040A0AEA050A0BEA04034AEA030A9A
:1003E000E2448BEAFB2383EA3B530AEBB30A86EA37
:1003F000761C8CEAF64C09EBBC1C88EA070303EA7E
:10040000060383EA08039C4450F8043B9C4451F8DB
:10041000043B9C4465444AEA0B0909EA04090AEAD8
:100420000B0349EA0309E1448AEAFA2383EA3A53CF
:1004300009EBB30985EA751C8CEAF54C08EBBC1C8A
:1004400087EA060303EA050383EA07039C4450F89E
:10045000043B9C4451F8043B9C44644449EA0A0828
:1004600008EA0B0809EA0A0348EA0308E04489EAB3
:10047000F92383EA395308EBB30884EA741C8CEA45
:10048000F44C07EBBC1C86EA050303EA040383EA89
:1004900006039C4450F8043B9C4451F8043B9C44A4
:1004A000E34448EA090707EA0A0708EA090347EAB2
:1004B0000307674488EAF82383EA385307EBB30756
:1004C0008BEA7B1C8CEAFB4C06EBBC1C85EA040324
:1004D00003EA0B0383EA05039C4450F8043B9C4465
:1004E00051F8043B9C44E24447EA080606EA090640
:1004F00007EA080346EA0306664487EAF72383EA25
:10050000375306EBB3068AEA7A1C8CEAFA4C05EB01
:10051000BC1C84EA0B0303EA0A0383EA04039C4439
:1005200050F8043B9C4451F8043B9C44E14446EAA7
:10053000070505EA080506EA070345EA03056544D9
:1005400086EAF62383EA365305EBB30589EA791C7C
:100550008CEAF94C04EBBC1C8BEA0A0303EA09039E
:1005600083EA0B039C4450F8043B9C4451F8043B41
:100570009C44E04445EA060404EA070405EA06034D
:1005800044EA0304644485EAF52383EA355304EB23
:10059000B304013A7FF4E5AEA0F14000BEF1010ED4
:1005A0007FF483AEA0F1400C9CE80F0000194919BC
:1005B0009219DB19ACE80F009CE80F004044494455
:1005C00052445B44ACE80F00BDE8F08F2DE9F043E6
:1005D00085B0304803F0AFFE30B92F4803F0C2FABF
:1005E000002005B0BDE8F0834FF408414FF0807063
:1005F00003F0F9FD28B1294803F0B4FA01F0C0FF77
:10060000EEE701F0B7FF054601F0C2FFE8B903F0DD
:1006100055FE04460146284603F013FE10B9214654
:100620001F4805E01B4801F0D7FF014618B11D48DF
:1006300003F098FAE2E72946284603F002FE10B1DB
:1006400001F0F0FFFEE72946EAE74FF45E31164875
:1006500003F0C9FD014608B11448E9E70446DFF894
:100660005090DFF8508001AF59F8046B98E807000C
:100670002E4487E807000C223946304603F0B7FEC7
:1006800000B91EB90134072CEED10026304601F026
:100690003BFDA5E744450001B8480001D0480001F2
:1006A000FE48000128490001008800014749000177
:1006B000D846000190460001B2F5802F2DE9F041A7
:1006C0000CD2042A20D83D494FF4F9723C4803F07B
:1006D0005FFA4FF4F971394803F051FA0823D21A3E
:1006E000CC1D114424F0070421F00701091B172930
:1006F0004FEAD1060AD8314940F2FB12304803F0E4
:1007000047FA40F2FB11E6E70423E8E7002704601C
:1007100031463046A660E76003F0D4F90121421D5E
:100720008046304603F0C5F99200D51DED082844F7
:10073000B0423AD8B8F1FF3F3946A2F1100204F1B5
:100740001000B8BF3A4603F04AFE2A463946204612
:1007500003F0ABF93B463A463946204603F07CF9B4
:10076000A6EB050820463946012203F086F94246E9
:10077000294603F09AF92B463A462946204603F0CB
:100780006BF93146204603F090F943463A4631462C
:10079000204603F061F931462046012203F06DF94D
:1007A0002946BDE8F04103F099B904494FF40372BA
:1007B000034803F0EDF94FF403718CE76949000138
:1007C0008C490001014B1B68184700BF0000002145
:1007D000014B1860704700BF0000002130B585B0A4
:1007E00004460D4610220021684603F0F8FD02235E
:1007F0008DF80230044B2A4621466846019302F0E8
:10080000C5FE05B030BD00BFC50700012DE9F047AA
:100810001646028B0446100712D4022902F0070282
:100820005BD1204603F0C1F988B10138042800F2F9
:100830001081DFE810F052000E017400B300E000F8
:1008400001290CBF42F0100242F02002228386F3FD
:100850001188BFF36F8FBDE8F08703F00701481FD1
:1008600001281ED8002006292768C4E9000014D1F9
:10087000394603E0608B0130608309680029F9D1B3
:1008800023F0070343F002012046218303F08DF992
:1008900090B341F0200121832EE023F0070399B2A9
:1008A000F2E7042930D123F0070399B220462183CF
:1008B00003F07BF910B141F020012183238B03F079
:1008C0000709914540F0CE80228BD10640F1F4809B
:1008D00022F01003238302F00702D4F81480238B44
:1008E000B8F1000FB9DA0021276823F00703C4E943
:1008F000001143F001032383238B03F00709914583
:1009000000F0E380002536E07B4940F21B127B4873
:1009100003F03EF940F21B11774803F030F942B181
:1009200075494FF4AB72754803F032F94FF4AB716F
:10093000F2E7236843B9704940F257126F4803F059
:1009400027F940F25711E7E723691D6845B96A495D
:100950004FF4AD72694803F01BF94FF4AD71DBE75A
:10096000174690464FF00609238B23F0070343F008
:1009700006039BB22383A268002A76D1002F40F0A1
:10098000A880002DA0D043F00803238386F31188AC
:10099000BFF36F8F20465A49A84781E0022A08D04A
:1009A000554940F25D12554803F0F2F840F25D11EE
:1009B000B2E7678B47B150494FF4AF724F4803F02D
:1009C000E7F84FF4AF71A7E723695D6845B94A4975
:1009D00040F26112494803F0DBF840F261119BE7F5
:1009E000238BB84623F0070343F004039BB24FF078
:1009F00004092383BFE7012A08D03F494FF4B272AC
:100A00003E4803F0C5F84FF4B27185E7236843B957
:100A1000394940F26512394803F0BAF840F26511DD
:100A20007AE723699D6845B933494FF4B472334876
:100A300003F0AEF84FF4B4716EE70027238BB8468D
:100A400023F0070343F005039BB24FF0050923830E
:100A500091E7294940F26B12284803F099F840F2D7
:100A60006B1159E700273D4685E743F008032383D0
:100A700086F31188BFF36F8FA16889B30E6879B3CD
:100A800043464A462046D1F804A0D0471EB13368F9
:100A900031461E46F3E73346FAE7002D7FF47AAF7E
:100AA000EFF31186202383F31288BFF36F8F238B1C
:100AB00023F00803238307E793067FF5C8AE22F0EF
:100AC0002003238302F00702ABE6002F3FF4FCAEC5
:100AD000002543F00803238386F31188BFF36F8F4B
:100AE000002FDAD03E68394643464A46204603F096
:100AF00088F83746F4E700BFA44900018C4900019B
:100B00002F3C000170B505460E4603F06AF8041E3E
:100B100014DBEFF31182202383F31288BFF36F8F6E
:100B20004FF6FF716B8B2C8B8B4204F0070407D1BF
:100B300082F31188BFF36F8F6FF00A04204670BDF7
:100B4000022C0CD101336B8382F31188BFF36F8FBA
:100B5000002322463146284603F053F8EEE7062CE0
:100B600011D8DFE804F0041E10100425040000234F
:100B700033606B6893B9C5E9006604BB022128465F
:100B8000FFF744FEDAE7104910484FF4E47202F030
:100B9000FFFF4FF4E4710C4802F0F1FF1E606E603D
:100BA000EBE782F31188BFF36F8F6FF00404C5E7A2
:100BB00082F31188BFF36F8F6FF08504BEE782F375
:100BC0001188BFF36F8FB9E7A44900018C49000178
:100BD00008B54268034602F00302032A816002D08E
:100BE0002AB1002000E0006800225A6008BD0449D4
:100BF0000448452202F0CCFF4521014802F0BFFF26
:100C0000C94900018C4900012DE9F7430D46DDE992
:100C10000A9790461E46044610B96FF00D003FE05B
:100C20000029FAD0002AF8D08B680846DB6898477C
:100C30000368B6FBF3F203FB1262002AEDD1B9FBA5
:100C4000F3F203FB1292002AE7D1002FE5D0B7FBA5
:100C5000F3F103FB11710029DFD1C4E90086C4E977
:100C600005972161A160E56003686A4663620C9B99
:100C7000E3614FF0FF3323624379CDE900612846F9
:100C8000094984F8283003F0C6F9019A002AC4D033
:100C9000D4E905310B449A422CBF00206FF00D00BF
:100CA00003B0BDE8F08300BFAD3C000108B50448C7
:100CB00002F058FFBDE80840024802F053BF00BFF1
:100CC000EF490001244A000130BFFFF7FDBF00BF1C
:100CD000154B9A6A12F0007F9A6A14BF1E201D20DD
:100CE00012F0807F9A6A18BF1F2012F4801F9A6A40
:100CF00018BF022012F4002F9A6A18BF212012F4A4
:100D0000802F9A6A18BF222012F4003F9A6A18BFF7
:100D1000232012F4803F9A6A18BF24206FEA02420F
:100D20006FEA12429A62704700ED00E010B5164B70
:100D30009A6A9C6A12F4805F14BF1722162214F478
:100D4000006F9C6A18BF1822A40509D59A6B9A6A8D
:100D5000120404D518B19A6A22F400429A62192248
:100D6000094B986A10F4806F986A18BF1A2210F421
:100D7000807F986A40F47F4098624FF000030CBF78
:100D800010461B200B7010BD00ED00E010B51E4B8F
:100D90000246986A9C6A10F0100F14BF11201020B0
:100DA00014F0080F9C6A18BF1220A40709D5586BCD
:100DB000986A000604D51AB19A6A22F080029A62F3
:100DC0001320114B9A6A12F0010F9A6A18BF14206F
:100DD000D40602D49B6A9A070ED50B4B9B6ADB069E
:100DE0000AD50A490A4840F2331202F0D1FE40F215
:100DF0003311064802F0C3FE034A936A43F0FF032F
:100E0000936200230B7010BD00ED00E0524A000118
:100E10008C490001F0B5564B04465B6800258BB049
:100E2000C3F3080385F31188BFF36F8F02F07F408F
:100E3000B0F17F4F08D102F00C00082804D012074F
:100E40004CBF0C46012554B94A494FF485624A48C3
:100E500002F09EFE4FF48561464802F090FE0022AB
:100E6000033B8DF80720032B7BD8DFE803F00272E9
:100E7000765D3F4AD36A13F0020372D1D16A00292A
:100E80001ADBD36A5B005BD55369A16943F48073B5
:100E90005361BFF34F8FBFF36F8F536931F8021C5B
:100EA00023F480735361BFF34F8FBFF36F8F4DF601
:100EB0000273994220D123689DF80720D2B92246B7
:100EC00002AE04F12007344610685168083203C4AA
:100ED000BA422646F7D1099A002D44D0C2F3080140
:100EE00021B96FEA52226FEA42220992184602A9FA
:100EF00002F09AFF0BB0F0BD936ADBB233B1012070
:100F00000DF10701FFF742FF0346D5E7936A13F49B
:100F10007F4F05D001200DF10701FFF707FFF3E731
:100F2000936AB3F5803F02D3FFF7D2FEECE7114995
:100F300040F2FA22104802F02BFE40F2FA218BE731
:100F40000C4940F2FE220C4802F022FE40F2FE2143
:100F500082E700200DF10701D4E700200DF1070121
:100F6000DBE70023A8E722F4FF7222F00102BCE7CE
:100F700000ED00E0524A00018C490001064B5A691D
:100F800042F010025A615A6942F480625A615A6909
:100F900022F008025A61704700ED00E0EFF308808C
:100FA000EFF3098101B57246FFF734FF01BD00BFC1
:100FB000002080F31488BFF36F8F002080F30A882D
:100FC00080F30B880F4880F3088801F0F3FB0020C2
:100FD0000D490860BFF34F8F00F01AF8202080F30E
:100FE00011880A484FF40061401880F30988EFF334
:100FF00014800221084380F31488BFF36F8F00F040
:101000007DF80000B00D002194ED00E0B00100215A
:1010100072B6002383F313884FF0FF300C4A03F1BC
:1010200020010133102B42F82100F8D100234FF0AA
:10103000FF30074A03F160010133102B42F8210011
:10104000F8D162B6BFF34F8FBFF36F8F704700BF09
:1010500000E100E01EF0040F0CBFEFF30880EFF397
:101060000980816911F8021C0229FFD001B572467E
:1010700002F0E0FE01BD00BF40B2002807DB012303
:101080004109034A00F01F00834042F821307047B5
:1010900000E100E0054B420953F82220012300F053
:1010A0001F0003FA00F01040704700BF00E100E0AD
:1010B0000131072908B508D90D490E48582202F018
:1010C00067FD58210A4802F05AFD40B20028ACBF23
:1010D00000F16040084B4FEA4111C9B2ABBF00F5C7
:1010E000614000F00F0080F80013195408BD00BFE4
:1010F000844A00018C49000114ED00E008B5084B5A
:10110000084A23F07F039360BFF34F8FBFF36F8FC5
:1011100001F086FE01F0C8FE00F02CF801F08CFE14
:101120000000000100ED00E0154680B506460C46C3
:10113000002282F30B88094FA7F5806888F30B889B
:1011400087F309884FF00000054988472046294663
:101150001A46B04703488047FEE700BFB00D0021A4
:10116000553E0001633E00011022014B1A61704799
:1011700000ED00E0002320210348C21801331E2B9C
:1011800082F80013F9D1704700E100E008B5EFF3F1
:101190000583064A103B02EBC30152F8330049684D
:1011A0008847BDE8084002F050BE00BF5845000126
:1011B00008B5024B1B689847002008BDE8000021D5
:1011C000034B044A1860937843F00203937070470E
:1011D000E80000210400002108B50649064821F076
:1011E0000701C1F1045202F58032FFF765FA0020D1
:1011F00008BD00BFB70D0021EC000021064AD2F85F
:10120000AC3123F00043C2F8AC310022034BC3F8E9
:101210004C21D3F84C31704700200141006001415E
:101220000122024B0020C3F840257047000008410E
:101230005023142213B51F4C0DF10700C4F80C35D0
:101240001D4BC3F820214FF400621C4BC3F8BC2592
:101250004FF48062C3F8382501F062FB184B9842C6
:1012600025D118499DF8070001F032FB16499DF879
:10127000070001F041FB15499DF8070001F028FB2C
:1012800021469DF8070001F037FB01209DF807304B
:10129000984001F017FB4FF4002200200C4BC3F8DC
:1012A0004423C3F84C01D3F84C3102B010BD6FF0A9
:1012B0000B00FAE700B0004100302041002001415E
:1012C0000000AD0B4C610141282001412C2101415E
:1012D0000060014173B5354BD3E84F3F00233449DB
:1012E000CDE90033334BD3F80445BFF35F8FD1F81A
:1012F0000465BFF35F8FD3F804259442F3D16B46A6
:10130000224601212B4802F0D7FD324605460F2127
:10131000274801AB02F0D0FDE0B1019B0DB900936D
:1013200002E0009A9342FAD3009B22481C44013CFD
:10133000D0F84C3524F07F449C421F4932D0FFF74F
:101340005DFFC0F84C451D4B009A9A4218D9012305
:101350000B7001E0002DE7D1194AD2F8AC3143F00F
:101360000043C2F8AC31134BD3F84C2132B9012100
:10137000144A5160D3F84C3103B1116001230DE0E0
:10138000BFF35F8FD0F80435E41A24F07F440E4B8E
:10139000033C9C42DBD900230B7000230B4A1370E3
:1013A00002B070BD0B78002BF7D0D5E7A801002163
:1013B0000010014100600141A6010021FEFF7F00F5
:1013C0000020014100B00041FBFF7F00A701002188
:1013D000F8B51E490023C1E8423F52BB1C4B1D78A3
:1013E0003DB305231B4E1C4F34780134B4FBF3F39B
:1013F00003EB8303E41A02F0F2FE184A137823B1D8
:1014000057F82430C01A072813D9154BD3F81411F4
:1014100041B10021C3F81411D3F8143134700CB960
:1014200001231370347802F0DAFE47F824002846CE
:10143000F8BD0C4A0025D2F8AC3123F00043C2F8C5
:10144000AC310122084B5A60F1E700BFA80100212E
:10145000A7010021A5010021F8000021A40100211D
:10146000005000410020014100B0004120B1034B79
:10147000800143F001031847704700BFD0460001C8
:10148000BFF34F8F0549064BCA6802F4E06213436D
:10149000CB60BFF34F8F00BFFDE700BF00ED00E062
:1014A0000400FA05402373B50B4C0093041B0B4654
:1014B0000D460A49A41061430646094A094802F04C
:1014C0002CFD011E05DA30462B4602B0BDE8704007
:1014D000184702B070BD00BF20010021B76DDBB618
:1014E000893F00011C450001C9B2012908B508D98E
:1014F000084909487F2202F04BFB7F21054802F092
:101500003EFB0C22036901FB0233186C00F007005C
:1015100008BD00BFBB4A00018C49000170B5C9B2CB
:10152000012903690AD9184918484FF4DF7202F0FB
:101530002FFB4FF4DF71144802F021FBEFF311850C
:10154000202484F31288BFF36F8F0C2606FB01342E
:10155000246C14F0C00408D0A24206D085F3118890
:10156000BFF36F8F4FF0FF3070BD012271430B440A
:101570001A6485F31188BFF36F8F43680B445B686F
:1015800098470020F0E700BFBB4A00018C490001EA
:10159000084B70B5C31A0D4607499B1004465943C2
:1015A00040220648FFF7BAFF2B4601462046BDE819
:1015B0007040184720010021B76DDBB61C450001C3
:1015C00070B50022012104460520FFF771FD0F4888
:1015D00001F020FA0E4B984215D101F02BFA266942
:1015E0000C49304602F030FB00280BDB0125356446
:1015F0002469084904F11C0002F026FB002801DBE5
:101600000020E56470BD6FF00400FBE7991600014F
:101610000000AD0BF446000110B5EFF31184202358
:1016200083F31288BFF36F8F074A136823F0020118
:10163000DB07116002D4012001F098FA84F31188CD
:10164000BFF36F8F10BD00BF700100210C22104B43
:10165000014602FB0033002030B4D3E90E529863F8
:10166000EFF31180202484F31288BFF36F8F1C6C7A
:1016700004F0C00444F002041C6480F31188BFF33A
:101680006F8F1DB12B4630BC0248184730BC7047E5
:10169000200100211C450001012808B506D00728BB
:1016A00008D090B90E4B1B6C5B0717D1BDE8084002
:1016B000FFF7CCBF0B4940F2DD220B4802F068FA7D
:1016C00040F2DD21074802F05AFA064940F2ED22C5
:1016D000054802F05DFA40F2ED21F3E708BD00BFD6
:1016E00020010021BB4A00018C49000110B4EFF336
:1016F0001182202383F31288BFF36F8F174801688C
:1017000041F002040460C80707D482F31188BFF3D4
:101710006F8F012010BC01F0B5B91149D1F80C044C
:10172000D1F80C14C907F0D5EFF3118083F31288B8
:10173000BFF36F8F0B490B6C03F0C00343F0020340
:101740000B6480F31188BFF36F8F82F31188BFF3AE
:101750006F8F002010BCFFF779BF00BF7001002120
:1017600000500041200100212DE9F84301220646E6
:101770003D49D1E8EF3FC1E8E02F0028F9D19BB9FE
:101780003A493B484B60CB608A60FFF7BBF90028C1
:101790000ADA384940F29122374802F0F9F940F26A
:1017A0009121344802F0EBF96EB3731E012B52D82D
:1017B000012E06D1314BD3F81C3403F00303022B66
:1017C00021D002F0E0FD0546F8B92D4B1B78E3B1BE
:1017D00002220746294BC3F808234FF00008274C84
:1017E000DFF8A090D4F81824D4F81834D20315D513
:1017F00003F00303022B01D0012E0FD135B387F381
:101800001188BFF36F8FBDE8F883EFF311872023B2
:1018100083F31288BFF36F8F0125DEE7384602F0AD
:1018200028FBD4F81835DBB2012BDBD1D4F8042126
:10183000002AD7D0C4F80481D4F804210222C4F8C5
:1018400018252022C9F88021A360CBE702220B4B88
:10185000C3F80423D7E7074940F2A322064802F061
:1018600097F940F2A3219CE71C0100210C01002103
:101870003C010021BB4A00018C490001005000419D
:10188000AB01002100E100E008B5074802F053FD7C
:1018900038B10648FFF794FC0448FEF799FF002092
:1018A00008BD6FF01200FBE730450001B1180001E0
:1018B0000A2838B50446074D04D1AB680D212846E7
:1018C0005B689847AB6803485B68E1B2984720467D
:1018D00038BD00BF30450001024B0B60012313608F
:1018E000704700BF7401002100487047184700018D
:1018F00010B502F01AFD034C206002F013FD606089
:10190000002010BD74010021F8B50E46194630467E
:1019100017461C4602F0B4FBC8B106F1807646EAD1
:10192000040515F0030512D154B124F00304A542B7
:1019300006EB050006D1074AD2F80034DB07FBD5D9
:101940000020F8BD795901F0B9F90435EFE76FF0DF
:101950001500F6E70000084108B50368024659097A
:1019600013D0012906D14FF6FF7103F01F03D940B0
:10197000C80711D40A490B484FF46C7202F008F9F9
:101980004FF46C71064802F0FAF84FF0FF31D9407D
:10199000C907EFD5044800E00448136008BD00BF44
:1019A0002D4B00018C49000100058C4100088C4141
:1019B0002DE9F04F9346824640F2FF17DFF8CC90B6
:1019C00085B000EB8106B24503D1002005B0BDE82B
:1019D000F08FDAF80030C3F3C322082AC3F30804F7
:1019E0004DD82B491B0EBC4208BF4FF0FF348D5C15
:1019F000032B47D8DFE803F002093336CBF80C4558
:101A0000631C32D10AF1040ADDE7CBF81445621CED
:101A1000F8D00021DAF8003003A803F40042002ACD
:101A200016BF002188464FF00108019300910394EE
:101A3000FFF792FF039C019B00EB8400D0F800426B
:101A4000C3F3412C00992B0243EA8C030B4304EAB5
:101A50000904234343EA4803C0F80032D2E7CBF835
:101A60000845CDE7CBF81045D1E703A80394FFF76D
:101A700073FF0121039B01FA03F38360CAE76FF050
:101A80001500A3E76FF08500A0E700BFF0F0FCFFB2
:101A9000604B00012DE9F04104460D46476802F015
:101AA00072FC4FF0200868B9244B1B7853B16426B0
:101AB000606802F060FBD0B9012002F00FFC013E2B
:101AC000F6D1F4E7EFF31186314688F31288BFF3BD
:101AD0006F8F606802F04FFBA8B986F31188BFF3DF
:101AE0006F8FEFE786F31188BFF36F8FDFE7EFF3B8
:101AF0001186314688F31288BFF36F8F606802F059
:101B00003AFB0028EED0FB6900201D706368FA697B
:101B10001B68C3F844250122C3F84825C3F82001F7
:101B2000D3F82041C3F85801D3F858019A6081F3E3
:101B30001188BFF36F8FBDE8F08100BFAB010021BA
:101B4000F7B50546002201211320FFF7B1FA132053
:101B5000FFF792FA6B681A691868C0F82425997D16
:101B60005A7D0A43198B1B7D0B431343C0F86C3518
:101B70006E68D6E9004313F0010348D02F6907F1DE
:101B8000080000F0CDFE304B98425AD1387A04F16B
:101B90000C0204F5907102F0A3FB387A012707FAD2
:101BA00000F000F08FFE0823C4F80035F369C4F894
:101BB00044350023C4F84835A760D4F85831002BC9
:101BC000FBD00021C4F800156B6801AADC68204630
:101BD00002F0A4FA002805DB019B22681979186835
:101BE000FFF7E6FE08216A681368C3F80015117A4A
:101BF00051B9126AC3F834250122C3F83825C3F855
:101C00001011D3F810111A60002003B0F0BD0822A3
:101C1000C4F80025F269C4F84425C4F84835012306
:101C2000A360D4F82031002BFBD00023C4F820316E
:101C3000D4F820310123E3604FF48073C4F80433F7
:101C4000BBE76FF00400E0E70000AD0B0D4B186838
:101C5000010A0006BFF35F8F0B4BD3F80435181849
:101C600041F10001B3F5801F0AD2084BD3E90023EC
:101C7000904271EB030303D210F1807041F1000137
:101C8000704700BF90010021006001415800002111
:101C90002DE9F74302F03FF92E4BD3F804239007C8
:101CA0000BD5D3F8042142B10022C3F804212A4AFB
:101CB000D3F80431136801331360264AD2F8043391
:101CC000D90326D5254BD3E8EF1F21F00100C3E847
:101CD000E40F002CF7D1CB0702D4D2F84031C3B1C6
:101CE00000251C4CC4F84051D4F84031FFF7AEFF3A
:101CF000EFF31182202383F31288BFF36F8F184B09
:101D0000D3E90267B042B94106D282F31188BFF32A
:101D10006F8F03B0BDE8F0834FF0FF38D3E90010B8
:101D20004FF0FF391D60C3E902894FF48033C4F8D6
:101D30004833C4F84051D4F8403182F31188BFF3DE
:101D40006F8F0029E5D0009032463B4628468847F1
:101D5000DFE700BF00600141900100218801002100
:101D6000400000212DE9F74F4FF0010808FA00F874
:101D7000144606461D466FEA0802DFF830A1DAE88D
:101D8000EF3F03EA0201CAE8E01F0028F7D14FF451
:101D90008037DFF81C91B740C9F80873BFF35F8F35
:101DA000BFF36F8F08EA03030093FFF74FFFA042D2
:101DB00071EB05034BD23F4B201A65EB01019842B2
:101DC00071F1000156D23C4B03EB0613D3E9022319
:101DD0009D4208BF944243D04FF0000B24F07F4E49
:101DE000F446032006F150039B009BB203F18243AB
:101DF00003F5B033C9F84873C3F800B01A6806F5A4
:101E0000A872019201992CF07F4249F821206FF0CD
:101E10000202C9F84473D9F80415521A6244DFF873
:101E20009CC022F07F4262451AD91A685AB1D9F88B
:101E30000415A1EB0E0222F07F42B2F5000F0FD97C
:101E4000C3F800B01A6800EB010C0130DAE71C4B54
:101E5000D3E8EF1F41EA0801C3E8E21F002AF7D1E7
:101E6000154918483301C850002301EB0612C2E996
:101E700002455360009BABB1DAE8EF3F43EA080349
:101E8000CAE8E23F002AF7D1094BC3F804730C4BB0
:101E9000D3E8AF3FF340DB0742BF4FF480020A4B69
:101EA000C3F8002103B0BDE8F08F00BF8C01002112
:101EB000006001410100800040000021FDFF7F0023
:101EC000880100214D1F000100E100E070B54FF0D6
:101ED000FF3000254FF0FF31174C184B0226C4F895
:101EE0000833C4F84833164BC4F80855C3E9020157
:101EF0004FF480334FF48002C4F80433114B0121B6
:101F0000C4F804631620C3F880212A46FFF7D0F8EE
:101F10001620FFF7B1F801230B4AA360284623607F
:101F200013604FF480720023FFF71CFF3046FFF769
:101F30001BFC284670BD00BF0060014103000F007C
:101F40004000002100E100E08C010021F8B51449B7
:101F500022F07F45D1E90063921B140A22F0FF02B0
:101F6000921943F10003C1E90023A5F50011B1F571
:101F7000400F0AD20B4909684FEA112C09064E1985
:101F800009494CF10007C1E9006712F5807243F17D
:101F90000003FFF7E7FE2046BDE8F84000F0CEBFA3
:101FA00050000021900100215800002130B5024668
:101FB00000240B490B4D0B6805EB0310D0F8080803
:101FC000C0B218B904B10B60002007E00133072B41
:101FD0004FF00104F0D96FF01B000B60136030BDAF
:101FE0009401002100000841F7B5434D0646D5F89D
:101FF00020320C46B3F5006F174608D03F494048E1
:10200000212201F0C5FD21213C4801F0B8FD01A8C5
:10201000FFF7CCFF002867D1D5F82022B6FBF2F3FA
:1020200002FB1363002B61D1D5F82022B4FBF2F33D
:1020300002FB1343002B59D1D5F82022D5F82432C6
:102040005343A34252D3002C50D0019B072B07D9F6
:102050002C4977222A4801F09BFD77212948D4E7B3
:10206000D5F82012B6FBF1F201FB126232B125491C
:102070007822234801F08CFD7821EFE7D5F8202263
:10208000D5F824124A43944206D91E4979221C48A5
:1020900001F07EFD7921E1E7D5F82012B4FBF1F2E1
:1020A00001FB124232B117497B22154801F070FD45
:1020B0007B21D3E71B0103F1824101F50021C1F827
:1020C0000068C1F80448C1F80878D1F800289642A1
:1020D0000FD1D1F8042894420BD1D1F80838DBB2E3
:1020E0009F4218BF6FF00D0003B0F0BD6FF01500F8
:1020F000FAE76FF00D00F7E70000FF01774B0001F2
:102100008C490001A34B00017FB5044681694C480E
:1021100001F028FD0121204600F0DCFA28B94948E9
:1021200004B0BDE8704001F01DBD00226846464B7A
:10213000464DC3F80025D3F80C150091D3F81415BB
:102140000191D3F808150291D3F81035039350F894
:10215000043B591C1DD059090CD0012967D03C49BA
:102160003C484FF46C7201F013FD4FF46C71384829
:1021700001F005FD4FF0FF31D940CE07EFD53649CC
:1021800001EB8303D3F80012294041F00201C3F8A8
:1021900000120132042ADAD14FF0FF322F4BC3F87C
:1021A0000823BFF36F8F72B600232D4903F120007F
:1021B0000133102B41F82020F8D100234FF0FF30DD
:1021C000274A03F160010133102B42F82100F8D1B6
:1021D0004FF0E02300221A61D3F8042D03F5506379
:1021E00042F000725A605A6A22F4E0225A62EFF317
:1021F0001482920707D5EFF3148222F0020282F3D1
:102200001488BFF36F8FBFF34F8FBFF36F8FA26937
:102210009A60A269002383F30B8883F30A8811680C
:1022200081F3088883F309885668304600474FF6E3
:10223000FF7103F01F03D940C90790D509499FE7F3
:10224000D54B0001E74B000100300141F0F0FCFFED
:102250002D4B00018C49000100058C4100500041CC
:1022600000E100E000088C411FB50446074A01ABBD
:1022700007CA83E807000C221946204602F0B7F887
:1022800000280CBF2046002004B010BD9C46000171
:1022900070B505460024054E56F8040B2844FFF798
:1022A000E3FF10B90134072CF6D170BD6847000177
:1022B00037B5054690B101200DF1060101F0FBFF95
:1022C000044630B14521074801F0E3FC204603B045
:1022D00030BDBDF806305B082B80F7E76FF01504C2
:1022E000F4E700BF1C4C00012DE9F04F814685B09A
:1022F0001046884615461F46D4681669FFF7B4FF96
:1023000040B91FB94521704801F0C3FC002005B059
:10231000BDE8F08FA869484504D0002FF6D14521CB
:102320006A48F1E727B940451ED045216848EBE7E8
:102330004046FFF7ADFF8542E8D12A6A654B9A42D5
:10234000E4D10DF10200FFF7B3FF00283DD1BDF845
:1023500002206B699A42D9D86419D7D216EB0803C8
:102360003ED3002FD2D12DE0FFF792FF854202D05D
:1023700045215948C8E72A6A564B9A4211D149214A
:10238000564801F086FC0DF10200FFF791FF02466E
:1023900060B96A69BDF80230934233D86419DDD35D
:1023A00010E045214E4801F074FCAFE745214D484F
:1023B00001F06FFC49214C4801F06BFC6419ADF849
:1023C000027024D3452149489EE700236419ADF8E3
:1023D000023028BF0123002B98D116EB080395D2B9
:1023E0004545BED39D42BCD2013CA045B9D89C42D4
:1023F000B7D216EB0906EB690DD3002F86D1452124
:102400003B4881E745213B4801F043FC7EE716EB62
:102410000903E5D3D6E74B45EFD3B342EDD24344AE
:10242000A3EB09035B684B4505D2002F7FF46EAF29
:102430004521314868E7B342F7D2D5F81090DFF86C
:10244000BCA009EB080404F1050B01AE9AE80700F3
:1024500086E807000C223146204601F0C8FF00B98B
:102460001CBB01345C45F1D1002F7FF44FAF4521F7
:10247000234849E7002F7FF449AF4521214843E72E
:1024800004F110024946404601F0BFFE024628B161
:10249000002F7FF43BAF45211B4884E71FB949213A
:1024A0001A4801F0F6FB012031E7E268AB699A4275
:1024B000E0D101F0A3FE02460028E1D0002F7FF416
:1024C00025AF452112486EE7414C0001644C0001E4
:1024D0009A4C0001FFFF0291CA4C0001204D0001FF
:1024E000F64C0001444D00016E4D0001F74D000116
:1024F000274E0001B44D0001564E0001A8460001D0
:10250000864E0001BA4E0001134F0001424F0001F8
:10251000F04E000114222DE9F041144B144DD3F874
:10252000B035074602FB0355284600F0F5FB0128AD
:1025300003D000242046BDE8F0814FF000082C1D98
:10254000AE1C304600F0E8FB4045F2D9A01C00F07C
:10255000E3FB0546204600F0DFFB8742EAD0023568
:1025600004EB450408F10108EBE700BF008000011F
:10257000B4850001014BD3F8A80570470080000125
:102580004FF00053014A1A60704700BF15FCBA258E
:102590004FF0005318680D4B984210D003F11C53B4
:1025A000A3F58B13A3F6CC5398420AD0084B98425C
:1025B00009D0084B98420CBF04200220704700202D
:1025C0007047032070470120704700BFB6B3B4B511
:1025D0005DCE03F1EC49F2B610B54FF00054104B4C
:1025E000226801469A42ADF5107D16D14FF45E3354
:1025F0000022CDE90132E36810AA009305A84FF448
:102600000073FEF701FB28B9D4E90112012305A8E4
:1026100001F0C6FB0DF5107D10BD6FF00D00F9E760
:10262000B6B3B4B54FF00053014A1A60704700BF0B
:102630005DCE03F12DE9F043224885B001F042FE62
:10264000002604461F4B204FD3F83880DFF87C90DB
:10265000B04503D8002005B0BDE8F083636A97E871
:1026600007001D6801AB83E807000C2219462846C5
:1026700001F0BDFE78B975B122692B699A420AD181
:10268000AB69A2699A4206D8E2699A4203D96369A2
:102690006A6993430CD0256A75B10D4801F062FA5E
:1026A000002383F31188BFF36F8F0423184602DFE2
:1026B000E36801361C44CBE7484601F053FA636AED
:1026C0001D60F5E700020001B4460001964F0001CD
:1026D0006D4F00012DE9F04F87B00646009198B389
:1026E00001F0F0FD00270446B36BBB424ED94FF01A
:1026F0000008DFF8ACA04FF000095AF8043BDFF8FF
:10270000A4B05BF8045B01931D44274B93E80700DA
:1027100003AB83E8070019460C22284601F067FE48
:10272000019B00B9A5B909F10109B9F1070FE8D179
:102730001E4B08F101089845DDD3009B13B1002220
:10274000636A1A60236A3BB3002007B0BDE8F08FCC
:102750002B6A174A9342EBD1AE42E9D0696B05F17F
:102760003C038842E4D025691A6995420AD19A69E6
:10277000A569954206D8E569954203D962695D6904
:10278000AA4305D0DA6801301344EAE70120DCE708
:10279000009A0AB1626A1360E36801371C44A3E738
:1027A0004451000184470001C046000101000000BF
:1027B000FFFF02910022D30003F1FF7303F5803382
:1027C000D3F80013013107D0D3F800130132D3F846
:1027D0000433202A0B60EED1224BD3E94C32072B75
:1027E00026D1023A032A204B28D9D3F80024D10756
:1027F00032D41C4BD3F83021072A19D1D3F8343105
:10280000023B032B02D8194AD35C8BB17F23184AB1
:102810001849C2F818310023C1F8043EC1F8083E37
:10282000C2F82431C2F82C3102F57F22C2F81031EF
:10283000114B1A68114BC3F84425704710498A5C44
:10284000002AD2D0D3F80024D207CED50022C3F874
:102850001421C3F81821C8E76FF00102C3F800245F
:10286000C7E700BF0000FF0100500041C94F000151
:1028700000200041000008410080FF01006000418D
:10288000CD4F000130B50468ACB1B4FA84F3012235
:10289000C3F11F03DBB29A4024EA0202D0E8EF5FE3
:1028A000A54204D1C0E8EC2FBCF1000FF6D1EAD16B
:1028B00002480B7030BD0248FCE700BF0000AD0BC2
:1028C0000200AD0B014BC3F80405704700F0004156
:1028D00008B541B906490748482201F059F948218D
:1028E000034801F04CF940F00040C1F8800008BDF9
:1028F000045000018C49000108B541B90649074858
:102900004E2201F045F94E21034801F038F940F01C
:102910000040C1F8800008BD045000018C4900014E
:102920000146014800F086B914000021F7B50646BB
:1029300050B1012832D033493348FB2201F028F945
:10294000FB21304801F01BF90C224FF48273022165
:102950002E480025C0F80813012142F2107402F13C
:10296000824203F1824303F5A04302F5A0421160C5
:102970001D608E421B68254F8DF8071008BF0DF1B2
:1029800007053EB3012E14D021491F4840F2A7424B
:1029900001F0FEF840F2A7411D48D3E704224FF4AE
:1029A00080730146D4E70BB3012001F097FC013C92
:1029B0001CD0D7F80C3403F48033002DF3D0D7F8B3
:1029C0000C2402F001020FE083B1012001F086FC2B
:1029D000013C0BD0D7F8183403F48033002DF3D02A
:1029E000D7F8182402F003022A700BB903B0F0BD27
:1029F0009DF807000128F9D101F070FC013CC0D11D
:102A0000F4E700BF415000018C4900010050004133
:102A10007E500001044B1A7922B9012218601A7104
:102A20000248704702487047980100210000AD0B32
:102A30000C00AD0B08B50F4B1A7952B90E490F486F
:102A400040F2591201F0A4F840F259110A4801F07D
:102A500096F81B6833B10520FEF71CFB10B9052062
:102A6000FEF70AFB0122064BC3F81825C3F814250C
:102A700008BD00BF98010021415000018C490001B0
:102A80000050004138B5354C237953B934494FF4DF
:102A9000D472344801F07CF84FF4D471304801F01E
:102AA0006EF850B101284ED02D4940F2FD122D484C
:102AB00001F06EF840F2FD11F0E72B4BD3F818143B
:102AC000D3F81824C90323D502F00303022B05D041
:102AD000012B02D00020FFF729FF0123224A022008
:102AE000C2F8183508224FF48273002103F18243A3
:102AF00003F5A04319601D68012502F1824202F529
:102B0000A0421560226812B3174BC3F804030FE00C
:102B1000D3F81424D207E0D5D3F81C2402F0030222
:102B2000013A012AD6D822681AB10222C3F8042336
:102B300038BDD3F80421002AFBD00022C3F80421B9
:102B4000D3F80431F4E700224FF48073CDE71A681C
:102B5000002AFCD019601B68EAE700BF9801002139
:102B6000415000018C4900010050004108B5094B5B
:102B70001B7953B90849094840F2172201F008F8B7
:102B800040F21721044800F0FAFFBDE80840FFF7C3
:102B9000CDBE00BF98010021415000018C490001C9
:102BA000F8B501261F4C204FD4F8045305B9F8BDE1
:102BB000B5FA85F0C0F11F00830003F580739BB266
:102BC00003F1824303F5A04306FA00F21968D2B27A
:102BD00025EA02050029E9D00021012A19601B68B5
:102BE000C4F808231AD0022A0DD1D4F81834D4F826
:102BF000183403F00303012B10D1C4F81825C4F8CE
:102C00000423A360D2E70949094840F2763200F074
:102C1000BFFF40F27631054800F0B1FF3B68C0B21B
:102C20009847C3E70050004198010021415000013E
:102C30008C4900010079024B03EB0010FFF722BE24
:102C40001C000021044AD2F80034DB07FBD50160E8
:102C5000BFF35F8F704700BF0000084108B500F167
:102C60007F43B3F5802F04D2C0F30A0363B10E484B
:102C700019E00E490E4840F2071200F089FF40F2B9
:102C800007110A4800F07BFF02220A4BC3F8042513
:102C90004FF0FF320260D3F80024D207FBD50022A8
:102CA0000548C3F8042508BD0A00AD0BB250000169
:102CB0008C490001000008410000AD0BF8B50D463D
:102CC0000121044601F017FB50B9104940F295125A
:102CD0000F4800F05DFF40F295110C4800F04FFFE7
:102CE00014F0030708D009494FF4CB72084800F0EC
:102CF0004FFF4FF4CB71F0E7064E2046C6F804159F
:102D00002946FFF79FFFC6F80475F8BDB2500001D1
:102D10008C49000100000841C10708B50AD50949DE
:102D200009484FF4F67200F033FF4FF4F67105488E
:102D300000F025FF20F003031B6882070CBF98B248
:102D4000180C08BDB25000018C49000108B5084AB2
:102D5000084B93420AD908490848182200F018FF86
:102D60001821054800F00BFF1433F2E7FCD308BD2F
:102D7000584500011C450001EE5000018C4900013E
:102D800038B50446EFF31185202383F31288BFF38F
:102D90006F8F01F02BFA042C08D1074907488722CE
:102DA00000F0F6FE8721044800F0E9FE85F3118863
:102DB000BFF36F8F38BD00BF115100018C49000176
:102DC00038B5094B53F82040013053F82050A54244
:102DD00000D838BD636823B1204601F0B7FA083443
:102DE000F5E723689847FAE7A0470001012208B5F4
:102DF000094B03201A70FFF7E3FFFDF757FF01F0BF
:102E0000C1FA0420FFF7DCFFFDF7E0FB034A137B68
:102E100023F00103137308BDAB0100216000002102
:102E200008B50348034A0021121A01F0A7FA08BDA9
:102E300040000021AC01002108B50020FFF7C0FFD1
:102E4000164B03F5006282F3088883F30A88002595
:102E5000E023134C84F82230E57725766576A57655
:102E600084F82050636A43F4E023636284F82350BB
:102E7000FEF784F8FEF778F94FF0FF33A362E362C0
:102E8000FFF764FF0120FFF79BFF0220FFF798FF89
:102E90002B462A4629460348FEF746F9B001002191
:102EA00000ED00E0ED2D0001074808B5074A08498C
:102EB000121A01F065FABDE808400648064A0749BB
:102EC000121A01F05DBA00BF000000213A00002193
:102ED000485100010000002100000021485100017C
:102EE000024B1868984208BF002070472C00002150
:102EF000034B1B680BB901F070B90020704700BF8D
:102F0000A001002130B570B10B4B5B6898420AD02C
:102F1000036843B1D3E90421D0E90445121941EB18
:102F20000501C3E90421D0E9003213605A6000238F
:102F3000C0E9003330BD00BF2C0000212DE9F0476F
:102F4000EFF31185202383F31288BFF36F8FDFF82F
:102F50009C900026C9F800000027FFF7C1FFDFF8AA
:102F60009080D9F80030D8E900ECD91750B1D0E9F9
:102F70000442A34271EB020A18DAE41A62EB01027E
:102F8000C0E90442002413EB0E034CEB0101C8E935
:102F90000031C9F8004001F0FCF9214601F01CF9AC
:102FA00085F31188BFF36F8FBDE8F08714EB0E0235
:102FB0004CEBE473C0E90467C8E90023FFF7A2FF04
:102FC00085F31188BFF36F8F83689847EFF31185FE
:102FD000202383F31288BFF36F8FD9F800301B1BB7
:102FE000C9F80030FFF77CFFBBE700BFA00100215C
:102FF000E00000213F2A2DE9F041904652D90546D4
:103000000C46A2F1400626F03F064036274F0E44FC
:10301000236840341BBA2B6454F83C3C39461BBA35
:103020006B6454F8383C28461BBAAB6454F8343C03
:103030001BBAEB6454F8303C1BBA2B6554F82C3C9B
:103040001BBA6B6554F8283C1BBAAB6554F8243C9A
:103050001BBAEB6554F8203C1BBA2B6654F81C3C99
:103060001BBA6B6654F8183C1BBAAB6654F8143C98
:103070001BBAEB6654F8103C1BBA2B6754F80C3C97
:103080001BBA6B6754F8083C1BBAAB6754F8043C96
:103090001BBAEB67FDF700F9B442B9D108F03F0065
:1030A000BDE8F0811046BDE8F08100BFB8470001DF
:1030B0000A4610B514681A4924BA0464546824BA3C
:1030C0004464946824BA8464D46824BAC4641469D7
:1030D00024BA0465546924BA4465946924BA8465A1
:1030E000D46924BAC465146A24BA0466546A24BA3A
:1030F0004466946A24BA8466D46A24BAC466146B9B
:1031000024BA0467546B24BA4467946B24BA846766
:10311000D26B12BAC267FDF7BFF8002010BD00BF26
:10312000B84700012DE9F0410027B54CB54BB2B0CE
:10313000CDE90043B44BB54E0293B54B1446CDE9EF
:103140000363B44B05460593B34B3097069303F1E5
:103150007453A3F52303A3F6924331920793002AF5
:1031600040F0848080224FF03A0C01236E460DEB34
:1031700002078DF8802000204FEA9C0203F1800EA8
:10318000012A06EB0E0146F80E0024D0022A486000
:1031900021D0032A88601ED0042AC8601BD0052ACB
:1031A000086118D0062A486115D0072A886112D014
:1031B000082AC8610FD0092A08620CD00A2A48627E
:1031C00009D00B2A886206D00C2AC86203D00E2AC6
:1031D000086308BF48631CF0030F16D02CF0030CE3
:1031E0006344002103F1C8026A443A2B02F8481CE8
:1031F0000BD003F1C9026A44392B02F8481C04D0F1
:10320000CA330DEB030202F8481C0023620F62F37D
:103210000703620D62F30F23620B62F31743620927
:10322000394662F31F633046E400CDF8BB308DF8B9
:10323000BF40FFF73DFFDDE90001DDE9022306BAEB
:1032400014BA18BA09BADDE9042312BA69602A610E
:1032500019BADDE9062312BA1BBA2E60AC60E86029
:103260006961AA61EB6132B0BDE8F0816E4630461B
:103270008846FFF7BFFE241A08EB0403002800F07D
:10328000F580421E022A53D958F804202092820861
:10329000012A00F0E6805968022A219100F0BE80E0
:1032A0009968032A229100F0E780D968042A2391C3
:1032B00000F0E7801969052A249100F0E780596938
:1032C000062A259100F0E7809969072A269100F0E7
:1032D000E780D969082A279100F0E780196A092A4E
:1032E000289100F0ED80596A0A2A299100F0B180F6
:1032F000996A0B2A2A9100F0F480D96A0C2A2B9142
:1033000000F00381196B0D2A2C9100F00981596B93
:103310000E2A2D9106D00F2A996B18BFDA6B2E91C9
:1033200018BF2F9220F0030782073B4400F0DE8095
:10333000197807F1C8026A4402F8481C7A1C9042C6
:103340000FD9591C0978C83202376A44B84202F8CA
:10335000481C06D99B7807F1C8020DEB020707F855
:10336000483C8021431C00F1C8026A44382B30904D
:1033700002F8481C6AD93F2B2CD80022C8336B4472
:103380003E2803F8482C25D000F1CA030DEB0301B9
:103390003D2801F8482C1DD000F1CB036B443C289C
:1033A00003F8482C16D000F1CC036B443B2803F8FB
:1033B000482C0FD000F1CD036B443A2803F8482C79
:1033C00008D000F1CE036B44382803F8482C01D113
:1033D0008DF8BF2020AF39463046FFF769FE3A2806
:1033E00003463CD8319CC3F13A02022A7FF6F9AE7B
:1033F0005A1C3B2AC3F13B0C88BF4FF0010CBAE6C4
:1034000067E6096A85AE67BB72F36E3C3AF54FA575
:103410007F520E518C68059BABD9831F082854D06E
:1034200008273B4419467A1C11F801CB07F1C80460
:103430006C44904204F848CC84D8802100F1C80341
:103440000DEB03023090431C02F8481C319C20AF66
:10345000C9E7282800F0888028273B44E2E7319C10
:10346000D3E6042826D004273B44DBE7802201234F
:1034700030908DF88020E9E70C282CD00C273B44B5
:10348000D0E710283BD010273B44CBE7142841D08D
:1034900014273B44C6E7182847D018273B44C1E708
:1034A0001C2849D01C273B44BCE7202850D02027AB
:1034B0003B44B7E78022052330908DF88420C5E790
:1034C00024283FD024273B44ACE7802209233090B6
:1034D0008DF88820BAE780220D2330908DF88C205B
:1034E000B4E72C283AD02C273B449BE7802100F1FD
:1034F000C8026A443090431C02F8481C3BE7802213
:10350000112330908DF89020A0E7302832D030275A
:103510003B4487E78022152330908DF8942095E76F
:1035200034282DD034273B447CE7182180221923EE
:1035300030918DF8982089E780221D2330908DF8F6
:103540009C2083E78022252330908DF8A4207DE7FE
:103550008022212330908DF8A02077E780222D2330
:1035600030908DF8AC2071E78022292330908DF8BF
:10357000A8206BE78022312330908DF8B02065E7DA
:103580008022352330908DF8B4205FE72DE9F04F8D
:1035900043688DB015468046029383789A0740F1C0
:1035A0000D8100240E78002E00F00A81252E0BD00C
:1035B0004B1C0393013441463046029B9847002838
:1035C000C0F2F6800399EDE74E788B1C252E03930D
:1035D000F0D00027B946BB46BBF11F0F38D8A6F183
:1035E0002003102B0AD8DFE803F02A090930090963
:1035F000092109090928092D09091F00A6F130032D
:10360000092B33D92A2E37D11BF0400F55F8043B34
:1036100040F08280002BA7BF4BF0200B9946C3F1EE
:1036200000094BF0280B01E04BF0010B039B13F852
:10363000016B0393002ECFD130E04BF0020B4BF027
:10364000040BF3E74BF0080BF0E74BF0100BEDE742
:10365000BBF17F0F19D8A6F13003092BD2D81BF08C
:10366000400F03D00A2101FB0737DFE70A214BF0A7
:10367000200B01FB0939D9E72E2E06D11BF0400F94
:1036800040F09E804BF0400BD0E76C2E31D02BD811
:10369000682E36D06A2E3CD04C2E3AD0002F46F001
:1036A0002003B8BF2BF04002A3F16501BCBF002787
:1036B0001FFA82FB022901D9612B2FD10735072779
:1036C000DFF8ACA225F0070508351BF0080F66D01F
:1036D0000AEB070B56465E4563D1A4EB0A0AA9EB39
:1036E000070906EB0A026FE1742E9FD07A2E9DD057
:1036F000D4E71BF0800F18BF4BF4007B4BF0800B1E
:1037000094E71BF4807F18BF4BF4007B4BF4807B65
:103710008CE74BF4207B89E71F4687E7A6F163011E
:10372000122900F2F080DFE811F013004F00EE00E4
:10373000EE00EE00EE004F00EE00EE00EE00EE00B8
:10374000EE00FE00E900EE00EE001B00EE00AF0010
:1037500055F8043B01270DF1180A8DF81830B4E72D
:1037600055F804AB834BBAF1000F08BF9A461BF023
:10377000400F504614BF39464FF0FF3100F047FE6E
:103780000746A2E741462020029B984700280FDB0E
:10379000013EB742F6D34C44B146A41B98E74E46CF
:1037A000F7E7414616F8010B029B9847002892DA8A
:1037B00098F8023043F0040388F802304FF0FF34E9
:1037C00020460DB0BDE8F08F1BF0800F34D01BF405
:1037D000007F2CD0073525F00705AA4669685AF8FE
:1037E000080B2BF010050029ADB237DA404245F442
:1037F000806561EB41010DF1180B0A235A4600F078
:1038000012FEA0EB0B0301936B0662D5019B25F022
:1038100001019F4289B240F3A180002E00F09980FF
:1038200015F0100240F09C80BB460D4623E0AA46EE
:103830005AF8040BC117D4E7AA461BF4807F5AF844
:10384000041B01D10846F5E71BF4007F19BF48B2FD
:1038500041F3C01108B241F3C031C2E750EA01039D
:10386000C9D11BF0400FC6D0002FC4D12BF01102DC
:10387000BB46019795B240F2064115EA01021CBF12
:103880000BF1010B00222CE02BF010020A231FFA8F
:1038900082FB1BF0800C49D01BF4007115BF07356B
:1038A000AA4625F007055AF8040B1EBFAA46696808
:1038B0005AF8080B50EA010545D12BF016051BF00C
:1038C000400FADB242D0002F40D12BF0170201972C
:1038D00095B215F0100248D0019B002E42D103F1A1
:1038E000010B29075AD4EB0706D5D9456FDDA9EBA3
:1038F0000B030199CB465F185B4649E04BF0100B78
:1039000010237826C5E7782B04D1C6F1780343F05D
:103910001003BEE741462520029B98470028FFF68A
:1039200047AF023447E608230026B2E7AA461BF455
:1039300080715AF8040BBDD01BF400711ABFC0B2DD
:10394000614680B2B6E72BF0060295B20DF1180B76
:1039500054E725F01105BB46ADB28CE70D46B8E73C
:103960003B460D4603F1020BBBE7DDF804B082E7EE
:103970003A51000133510001CDE904324146202083
:10398000029B98470028FFF613AF049B059A01336A
:103990009945F1DCA4EB0B019B46CC180AB34146D8
:1039A0003020029B98470028FFF602AF8EB9013401
:1039B0002744391B019B994224DC1D4655BB019AC3
:1039C000A9EB0B09554622441446914433E0019F6C
:1039D00092E7023441463046029B98470028E7DAD6
:1039E000E6E640F206410D42E2D015F0020F04F186
:1039F0000104414614BF2B20202015F4806F18BF0E
:103A00002D20E9E741463020029B013498470028E9
:103A1000CFDACDE606AB013D4146585D029B9847A3
:103A20000028CBDAC4E641462020029B01349847A7
:103A30000028FFF6BDAEA9EB0403002BF3DCC1E5C3
:103A40007047836800EBC101B3F5004F2CBF51F8FC
:103A5000220031F81200704700EBC1018068B0F518
:103A6000004F2CBF41F8223021F81230704701225C
:103A700008B5FFF7E6FFD04008BD836800EBC10141
:103A8000B3F5004F08D34B681AB143F001034B6004
:103A9000704723F00103FAE74B881AB143F00103A2
:103AA0004B80704723F00103FAE753000122FFF730
:103AB000D3BFB0F5004F34BF042308230731C81823
:103AC000C00870470A4608B50121FFF7F2FF01322E
:103AD000121AB2FA82F0C0F11F0008BD2DE9F041C0
:103AE0000D4686680446FFF7C2FFB6F5004F014653
:103AF00001D3012832D03046FFF7E4FF04EB800108
:103B00000E6996B90122E36882401343E360022202
:103B10000D612B4629462046FFF79EFF03222946CA
:103B20002046BDE8F041FFF797BF0222314620460C
:103B3000FFF787FF0746034629462046FFF78CFF1D
:103B40000322334629462046FFF786FF39462B4697
:103B50002046FFF781FF02223146E1E7BDE8F08110
:103B6000002070470FB407B504A951F8040B019168
:103B7000FCF734FE03B05DF804EB04B0704700239B
:103B800083F31188BFF36F8F0423184602DF704759
:103B90000FB407B504A951F8040B0191FCF71EFE00
:103BA00003B05DF804EB04B07047038B13F0070318
:103BB00005D10368002B0CBF002003207047022BA7
:103BC00005D1408BB0FA80F0400980007047012B8E
:103BD00005D10368002B0CBF002005207047002092
:103BE000704710B50C4600B111B96FF0150010BD4B
:103BF000081D00F03CF80028F9D1A368032BF6D982
:103C0000F3E72DE9F0410D4607461946281D904679
:103C10001E46FCF7DDFF044638B1334642462946CE
:103C20003846A446BDE8F0416047BDE8F08110B4D5
:103C3000EFF31182202484F31288BFF36F8F416168
:103C400010BC0121FCF7E2BD38B50C46054658B161
:103C500051B10B6843B14B6833B11C22002100F015
:103C6000BEFB00202C6138BD6FF01500FBE703465A
:103C700058B1426802F00302012A03D0032A04D19A
:103C8000026812B10020986070476FF0150070470D
:103C900070470FB407B504A951F8040B0191FCF764
:103CA0009DFD03B05DF804EB04B0704743680A68FB
:103CB0009A428FBF00234A6801209B1888BF18468C
:103CC0004B60704730B5426905468A4285B019D8C5
:103CD0008B1A8269934215D2C06801AA00F097F945
:103CE000044660B901992B6A8B4208D0E868029AB1
:103CF00083689B684BB1984750B9019B2B62204663
:103D000005B030BD6FF02104F9E76FF05704F6E716
:103D10000446F4E770B58168044641B3D0E904363F
:103D200001391E443144FFF7CDFF002820DB626AD1
:103D3000A368B3FBF2F502FB15353DB12068551BB6
:103D40002A4694F82810184400F049FBA368E0685C
:103D500022682B4481684D683146A84740B9E36921
:103D60005BB92369A268134423610023A360002088
:103D700070BD135CDB4313540130A3682268834297
:103D8000F7D8E06881680D683146A8470028EFD170
:103D90003246E369A168206898470028E1D0E7E748
:103DA0002DE9F047894616469846044698B382683E
:103DB0000369134482693344934230D80025D4E91F
:103DC0000170A6EB050A3F1ABA4515D2B54209D2D1
:103DD00023685246184409EB050100F0F3FAA36882
:103DE0005344A360B8F1000F1CD0A068A8B12046CE
:103DF000BDE8F047FFF78EBF23683A46184409EB49
:103E0000050100F0DFFA63682046A360FFF782FF38
:103E100018B93D44D3E76FF00D00BDE8F0876FF0AF
:103E20000B00FAE74046F8E7012801D1EFF30583DC
:103E3000FEF7A6BF01460068FFF7F6BF08B5FCF71E
:103E400043FFBDE8084000F000B8704700210120A2
:103E5000FFF7EABF61B662B680F31188BFF36F8FD8
:103E60007047EFF31180202383F31288BFF36F8F25
:103E7000704710B50446FDF72DFA72B6002383F3A0
:103E80001188BFF36F8FFDF7A3FA50B1BFF34F8FC7
:103E900020BF00BF00BF00BF00BF00BF00BF00BF0A
:103EA00000BF84F31188BFF36F8F62B610BD08B5F1
:103EB000FDF77EF9002008BDF0B5D0F80473064682
:103EC00017F002001CBFC2F1807018604FF00005AF
:103ED00018BF01204FF0010C4FF4803E0CFA05F49E
:103EE0000C4214D00EFA05F43C4210D005F5A8742B
:103EF00056F82440A41A34F07F4408BF4FF0807471
:103F000008B91C6002E01868A042FAD80120013507
:103F1000042DE3D1F0BDFDF771B9F8B5069F046932
:103F2000C9B2EFF31186202585F31288BFF36F8F96
:103F30000C2569430C44256C05F0070CBCF1010FFE
:103F40000BD1276486F31188BFF36F8FC4E90E236A
:103F500043685B5898470020F8BD05F0C005AF42A4
:103F600086F31188BFF36F8F0CBF6FF077004FF0AF
:103F7000FF30F1E713B580240094FFF7CEFF02B0C5
:103F800010BD6FF08500704710B41C240069CBB2DF
:103F900003FB0400002110BC10470020FEF772BD97
:103FA0000020FEF7E3BD8022FDF7B8BAF7B51C4646
:103FB0000023164682682360A3600D465369694654
:103FC00001AA9847019B5A1E01921BB96FF0150078
:103FD00003B0F0BD0098A26847682168676085B9A2
:103FE000B31AD0F800C0634528BF634603FB07112E
:103FF0001A442160A26002689A4206D808300090F4
:10400000E0E76B1AB3FBF7F3EBE70020E0E71346BA
:104010000022FFF7CBBF2DE9F0470024836886B06C
:10402000884691465B6902AA01A99847A24625469F
:10403000029BAB4202D806B0BDE8F0870026019F84
:1040400007EBC5077B6804933A680AEB0603B242A4
:1040500002D89A460135EBE749460394059303A835
:10406000C0470028E7D0049B01361C44ECE710B59C
:104070000C4600F054F90023C4E90003184610BDB3
:1040800038B505460C4600F04AF9002D07DBA8427A
:1040900005D9401B84428CBF0020012038BD002080
:1040A000FCE770B50C46154600F03CF9294606467B
:1040B0002046FFF7E5FFC8B1B4FBF6F306FB134358
:1040C000A3B9B5FBF6F306FB13537BB9AE4201D996
:1040D000002070BD00F026F9064604F180742046E9
:1040E000FEF7BCFDAD1B3444F9D1F1E76FF01500CC
:1040F000EFE770B50D461946284616461C46FFF7F1
:10410000BFFF40B12CB12246304605F1807100F06E
:1041100059F9002070BD6FF01500FBE730B543681A
:104120001360057A446804EBC504A34202D36FF020
:10413000010030BD5C798C4201D00833F0E70020EB
:10414000F7E743681B68D3F88004C3F8800470471E
:1041500042681368D3F8100150B10020126A127837
:104160000A70C3F81001D3F8102101221A607047B9
:104170004FF0FF30704702680346D2F8580140B94B
:104180005B68DB0706D4D2F82001003818BF012095
:1041900070470120704743681B68D3F80423D20599
:1041A00017D5D3F82021A2B1EFF31182202181F39A
:1041B0001288BFF36F8FD3F8201131B10021C3F8FB
:1041C0002011D3F820110121D96082F31188BFF3A7
:1041D0006F8FD3F85831704770470020704708B58B
:1041E000FDF734FD08BD0222FDF7FEBE002008B534
:1041F000FDF746F9002070470020704708B5FFF72B
:10420000F9FF08B9FFF7F8FF08BD30B589B01546CA
:1042100001230A460146684600F00EF8044640B9FC
:10422000202269462846FCF709F8002808BF6FF0ED
:104230006404204609B030BD08B5FEF773FF0020C6
:1042400008BD70B5054608460C46FEF721F8214624
:10425000024601232846BDE87040FEF745B82DE927
:10426000F8430D461646FEF755F9044600B3FDB176
:104270000230FEF751FD00278146B8460434BBB238
:10428000994507D8002406B134600020A5F80080C5
:10429000BDE8F8832046FEF73FFDC3439BB20137DC
:1042A000A21C002BEFD0984538BF98461446E6E78D
:1042B0006FF01500ECE70022FFF7D1BF4FF000537D
:1042C0005868704703465A6B00233C309A4200D12D
:1042D0007047C16801330844F8E7004700F027B889
:1042E00038B504461546FEF7F3FA29462046BDE8E0
:1042F0003840FEF701BB034603F17F42B2F5802F41
:1043000008460AD351B103F17E4000F50040B0F5F4
:10431000607F2CBF002001207047012070474FF4C0
:10432000802070474FF4006070478020704708B1CC
:10433000FDF79CB8704740B1C368587810F0010091
:104340001EBF1878B0FA80F04009704710B5D0E968
:10435000003433B90020E268537843F0010353700E
:1043600010BD204698470028F4D00028B8BF40422E
:10437000FF28A8BFFF20E3681870ECE700F02FB813
:1043800000F020B87047EFF30580003818BF012017
:10439000704710B5FEF7A4FD0446FEF7A9FD74B101
:1043A000D4E904321B1A62EBE072B3F1004F72F1F0
:1043B000000104DA002AACBF1846002010BD6FF0DF
:1043C0000040FBE70A44431E914200D1704710B5FC
:1043D00011F8014B914203F8014FF9D110BD02448D
:1043E0000346934200D1704703F8011BF9E70139F6
:1043F000024410B5904201D1002005E0037811F885
:10440000014FA34201D0181B10BD0130F2E7024654
:10441000014410B58A42134603D01C780132002CA7
:10442000F8D1181A10BDF0B5C3F13707044603F0F0
:104430001F031046FFB2082BE6B232D0102B3DD03E
:104440006508A40845EAC17544EA81748A082D19F3
:1044500042EB5102290941EA02716D1842EB121236
:10446000290A41EA02616D1842EB1222290C41EA45
:1044700002416D1842EB1242AD1842F10002EC0805
:1044800044EA4274D10804EB8402A6EB4205EDB283
:10449000092D0CD90134A5F10A0541F10001EDB255
:1044A00012E0E40806F0070544EA4174C908303513
:1044B00054EA010200F8015BBDD1F0BD240906F009
:1044C0000F0544EA01740909092D84BFED19EDB205
:1044D000EDE700002112000100000000C1150001FD
:1044E0001C450001411B00013045000189180001F5
:1044F00000000000CD1E000100000000311200018C
:1045000000000000D911000100000000F1180001B6
:10451000444500013526000100000000F84A000172
:104520000047000160460001340000212001002105
:10453000694B0001204700017C4600013800002142
:104540007C010021134B00010000000048460001DF
:104550003600002100000000000000004D3E000178
:10456000000000004D3E0001000000004D3E000133
:10457000000000004D3E0001000000004D3E000123
:10458000A12B0001DB420001000000004D3E0001B4
:10459000000000004D3E0001000000004D3E000103
:1045A000000000004D3E0001000000004D3E0001F3
:1045B000000000004D3E0001000000004D3E0001E3
:1045C000000000004D3E0001000000004D3E0001D3
:1045D000000000004D3E0001000000004D3E0001C3
:1045E000000000004D3E0001000000004D3E0001B3
:1045F0003045000197410001000000004D3E0001E0
:10460000000000004D3E000100000000911C000170
:10461000000000004D3E0001000000004D3E000182
:10462000000000004D3E0001000000004D3E000172
:10463000000000004D3E0001000000004D3E000162
:10464000000000004D3E0001F34000010919000187
:10465000A3400001E91800016F400001D9180001D2
:10466000833F0001A73F0001753F000100000000EB
:10467000E9140001000000000000000051410001A9
:10468000951A0001434100015F4F00010300000043
:10469000DEE61E284CBBCE8F02350000DEE61E286B
:1046A0004CBBCE8F02350000DEE61E288384518687
:1046B00002350100DEE61E28EAAC45B802350000EE
:1046C000DEE61E284CBBCE8F023500000000000045
:1046D0000338FDD870470000000000000002000011
:1046E000000400000006000000080000000E0000AA
:1046F00000100000A5140001911500010000000049
:10470000ED16000119160001074B00019B3F000147
:10471000A13F00010D4B00010400000000FF00005C
:10472000003001410100000000000000444700018A
:104730000000D6010000000000000000AA010021D6
:10474000A901002100300141504700010100000093
:104750005847000104000000210000000B00000287
:10476000200600010A06000300000000000200000D
:10477000000400000006000000080000000E000019
:104780000010000000000000000200000004000013
:104790000006000000080000000E000000100000ED
:1047A000D4440001D4440001F4440001FC4400015D
:1047B0001C4500011C450001982F8A429144377125
:1047C000CFFBC0B5A5DBB5E95BC25639F111F15994
:1047D000A4823F92D55E1CAB98AA07D8015B8312D6
:1047E000BE853124C37D0C55745DBE72FEB1DE8082
:1047F000A706DC9B74F19BC1C1699BE48647BEEFB1
:10480000C69DC10FCCA10C246F2CE92DAA84744A3B
:10481000DCA9B05CDA88F97652513E986DC631A8B1
:10482000C82703B0C77F59BFF30BE0C64791A7D590
:104830005163CA0667292914850AB72738211B2E18
:10484000FC6D2C4D130D385354730A65BB0A6A7600
:104850002EC9C281852C7292A1E8BFA24B661AA80C
:10486000708B4BC2A3516CC719E892D1240699D61C
:1048700085350EF470A06A1016C1A419086C371E95
:104880004C774827B5BCB034B30C1C394AAAD84E73
:104890004FCA9C5BF36F2E68EE828F746F63A578AE
:1048A0001478C8840802C78CFAFFBE90EB6C50A441
:1048B000F7A3F9BEF27871C6466C6173682064652F
:1048C00076696365206E6F742072656164790A0091
:1048D0004661696C656420746F2070726F746563E3
:1048E000742062306E20666C6173682C2063616E88
:1048F00063656C20737461727475700A0D00556E77
:1049000061626C6520746F2066696E642076616CEC
:104910006964206669726D7761726520696E73697A
:1049200064652025700A0D004661696C6564207419
:104930006F207472616E7366657220696D61676560
:104940003A2025640A0D004661696C656420746F25
:104950002070726F746563742061707020666C6182
:1049600073683A2025640A0D00574553545F544F2D
:10497000504449522F7A65706879722F6C69622FA2
:10498000686561702F686561702E630041535345FF
:104990005254494F4E204641494C20402025733AFD
:1049A00025640A00574553545F544F504449522FD1
:1049B0007A65706879722F6C69622F7574696C738F
:1049C0002F6F6E6F66662E6300574553545F544FCA
:1049D000504449522F7A65706879722F6C69622F42
:1049E0007574696C732F6E6F746966792E63002A13
:1049F0002A2A20426F6F74696E67206E52462043E8
:104A00006F6E6E6563742053444B2076332E302EC8
:104A1000302D336266633436353738653432202AB8
:104A20002A2A0A002A2A2A205573696E67205A65A5
:104A300070687972204F532076342E302E39392DFC
:104A4000613065353435636234333761202A2A2A70
:104A50000A00574553545F544F504449522F7A65CA
:104A6000706879722F617263682F61726D2F636F46
:104A700072652F636F727465785F6D2F6661756CF8
:104A8000742E6300574553545F544F504449522F7E
:104A90007A65706879722F617263682F61726D2F09
:104AA000636F72652F636F727465785F6D2F6972C3
:104AB000715F6D616E6167652E6300574553545F8A
:104AC000544F504449522F7A65706879722F64723E
:104AD00069766572732F636C6F636B5F636F6E745F
:104AE000726F6C2F636C6F636B5F636F6E74726F4A
:104AF0006C5F6E72662E6300636C6F636B40343163
:104B0000303035303030006866636C6B006C666343
:104B10006C6B00666C6173682D636F6E74726F6C82
:104B20006C65724034313038303030300057455386
:104B3000545F544F504449522F6D6F64756C6573C8
:104B40002F68616C2F6E6F726469632F6E72667866
:104B50002F68616C2F6E72665F6770696F2E6800D8
:104B600000010203040506070B75617274403431BD
:104B700030313330303000574553545F544F504438
:104B800049522F6E72662F6C69622F6670726F7455
:104B90006563742F6670726F746563745F61636CB4
:104BA0002E6300574553545F544F504449522F6D64
:104BB0006F64756C65732F68616C2F6E6F726469BA
:104BC000632F6E7266782F68616C2F6E72665F61FC
:104BD000636C2E6800426F6F74696E6720283078AE
:104BE0002578292E0D0A004661696C656420746F72
:104BF0002070726F76696465206578742041504931
:104C00007320746F20696D6167652C20626F6F740B
:104C10002061626F727465642E0D0A0025633A206C
:104C20004572726F722067657474696E67206D6F6C
:104C30006E6F746F6E696320636F756E7465720A50
:104C40000025633A20496E76616C6964206669725A
:104C50006D7761726520696E666F20666F726D6137
:104C6000742E0A0025633A20546865206669726DC7
:104C70007761726520646F65736E27742062656C5E
:104C80006F6E672061742064657374696E61746906
:104C90006F6E20616464722E0A0025633A2073727D
:104CA0006320616E6420647374206D757374206278
:104CB0006520657175616C20666F72206C6F636131
:104CC0006C2063616C6C732E0A0025633A20466980
:104CD000726D7761726520696E666F20646F6573AF
:104CE0006E277420706F696E7420746F20697473FE
:104CF000656C662E0A0025633A204669726D7761FD
:104D0000726520686173206265656E20696E7661E8
:104D10006C6964617465643A20307825782E0A00E5
:104D200025633A20547279696E6720746F20676535
:104D300074204669726D7761726520766572736959
:104D40006F6E0A0025633A2043616E6E6F742072A5
:104D500065616420746865206669726D776172654B
:104D60002076657273696F6E2E2025640A002563B4
:104D70003A20576520617373756D65207468697397
:104D80002069732064756520746F207468652066DF
:104D900069726D776172652076657273696F6E20D6
:104DA0006E6F74206265696E6720656E61626C6506
:104DB000642E0A0025633A204669726D7761726538
:104DC0002076657273696F6E2028257529206973B6
:104DD00020736D616C6C6572207468616E206D6FFC
:104DE0006E6F746F6E696320636F756E7465722089
:104DF000282575292E0A0025633A204669726D77A9
:104E000061726520696E666F206973206E6F742011
:104E100077697468696E207369676E65642072656E
:104E200067696F6E2E0A0025633A20426F6F742007
:104E300061646472657373206973206E6F74207788
:104E4000697468696E207369676E6564207265674E
:104E5000696F6E2E0A0025633A20526573657420CF
:104E600068616E646C6572206973206E6F74207760
:104E7000697468696E207369676E6564207265671E
:104E8000696F6E2E0A0025633A20436F756C6420AB
:104E90006E6F742066696E642076616C696420664A
:104EA00069726D776172652076616C69646174699D
:104EB0006F6E20696E666F2E0A0025633A20566178
:104EC0006C69646174696F6E20696E666F20646FCF
:104ED00065736E27742062656C6F6E6720746F2037
:104EE00074686973206669726D776172652E0A0055
:104EF00025633A20626C5F63727970746F5F696ECC
:104F0000697428292072657475726E656420256441
:104F10002E0A0025633A204669726D77617265201A
:104F200076616C69646174696F6E206661696C6535
:104F3000642077697468206572726F722025642E10
:104F40000A0025633A204669726D776172652068B0
:104F50006173682076657269666965642E0A00620D
:104F60006C5F76616C69646174696F6E0045525262
:104F70004F523A2043616E6E6F742066756C66699D
:104F80006C6C204558545F415049207265717565BD
:104F900073742E0D0A005741524E494E473A204F26
:104FA0007074696F6E616C204558545F41504920A0
:104FB00072657175657374206E6F742066756C66AA
:104FC000696C6C65642E0D0A000000000101000090
:104FD00000574553545F544F504449522F6D6F64EE
:104FE000756C65732F68616C2F6E6F726469632FC7
:104FF0006E7266782F68616C2F6E72665F64707077
:10500000692E6800574553545F544F504449522FFE
:105010006D6F64756C65732F68616C2F6E6F726451
:1050200069632F6E7266782F68656C706572732F76
:105030006E7266785F677070695F647070692E6306
:1050400000574553545F544F504449522F6D6F647D
:10505000756C65732F68616C2F6E6F726469632F56
:105060006E7266782F647269766572732F737263DD
:105070002F6E7266785F636C6F636B2E63005745AB
:1050800053545F544F504449522F6D6F64756C6593
:10509000732F68616C2F6E6F726469632F6E726616
:1050A000782F68616C2F6E72665F636C6F636B2E16
:1050B0006800574553545F544F504449522F6D6F09
:1050C00064756C65732F68616C2F6E6F72646963B1
:1050D0002F6E7266782F647269766572732F7372A1
:1050E000632F6E7266785F6E766D632E6300574530
:1050F00053545F544F504449522F7A657068797207
:105100002F6B65726E656C2F6465766963652E63BF
:1051100000574553545F544F504449522F7A65709D
:105120006879722F6B65726E656C2F666174616C45
:105130002E6300286E756C6C29002A666C6F617492
:105140002A00000000000001613B00010000000097
:10515000AF3E0001000000000000000000F0004130
:1051600000000000FFFFFFFF3F000000FFFFFFFF08
:105170003F0000002C0000212C0000210000000056
:0251800000002D
:0451840015E015E03D
:1085A800008800010088000101000000FFFFFA5068
:1085B80008D231B64D62A8E59FF46B09BA4F0D1089
:1085C800010001000100F000FFFFFFFFFFFFFFFFB8
:1085D800FFFFFFFFFFFFFFFFFFFFFFFFFFFFFFFFA3
:1085E800FFFFFFFFFFFFFFFFFFFFFFFFFFFFFFFF93
:1085F800FFFFFFFFFFFFFFFFFFFFFFFFFFFFFFFF83
:10860800FFFFFFFFFFFFFFFFFFFFFFFFFFFFFFFF72
:10861800FFFFFFFFFFFFFFFFFFFFFFFFFFFFFFFF62
:10862800FFFFFFFFFFFFFFFFFFFFFFFFFFFFFFFF52
:10863800FFFFFFFFFFFFFFFFFFFFFFFFFFFFFFFF42
:10864800FFFFFFFFFFFFFFFFFFFFFFFFFFFFFFFF32
:10865800FFFFFFFFFFFFFFFFFFFFFFFFFFFFFFFF22
:10866800FFFFFFFFFFFFFFFFFFFFFFFFFFFFFFFF12
:10867800FFFFFFFFFFFFFFFFFFFFFFFFFFFFFFFF02
:10868800FFFFFFFFFFFFFFFFFFFFFFFFFFFFFFFFF2
:10869800FFFFFFFFFFFFFFFFFFFFFFFFFFFFFFFFE2
:1086A800FFFFFFFFFFFFFFFFFFFFFFFFFFFFFFFFD2
:1086B800FFFFFFFFFFFFFFFFFFFFFFFFFFFFFFFFC2
:1086C800FFFFFFFFFFFFFFFFFFFFFFFFFFFFFFFFB2
:1086D800FFFFFFFFFFFFFFFFFFFFFFFFFFFFFFFFA2
:1086E800FFFFFFFFFFFFFFFFFFFFFFFFFFFFFFFF92
:1086F800FFFFFFFFFFFFFFFFFFFFFFFFFFFFFFFF82
:10870800FFFFFFFFFFFFFFFFFFFFFFFFFFFFFFFF71
:10871800FFFFFFFFFFFFFFFFFFFFFFFFFFFFFFFF61
:10872800FFFFFFFFFFFFFFFFFFFFFFFFFFFFFFFF51
:10873800FFFFFFFFFFFFFFFFFFFFFFFFFFFFFFFF41
:10874800FFFFFFFFFFFFFFFFFFFFFFFFFFFFFFFF31
:10875800FFFFFFFFFFFFFFFFFFFFFFFFFFFFFFFF21
:10876800FFFFFFFFFFFFFFFFFFFFFFFFFFFFFFFF11
:10877800FFFFFFFFFFFFFFFFFFFFFFFFFFFFFFFF01
:10878800FFFFFFFFFFFFFFFFFFFFFFFFFFFFFFFFF1
:10879800FFFFFFFFFFFFFFFFFFFFFFFFFFFFFFFFE1
:0887A800FFFFFFFFFFFFFFFFD1
:10880000A8920021B1C7010161D302019DC70101F6
:108810009DC701019DC701019DC701010000000026
:1088200000000000000000000000000015C9010168
:108830009DC7010100000000ADC801019DC70101F5
:10884000CDCA0101CDCA0101CDCA0101CDCA0101C4
:10885000CDCA0101CDCA0101CDCA0101CDCA0101B4
:1088600085D80201CDCA0101CDCA0101CDCA0101DD
:1088700051D80201CDCA0101CDCA0101CDCA010101
:10888000CDCA01016BD80201CDCA0101CDCA0101D7
:10889000CDCA0101CDCA0101CDCA0101CDCA010174
:1088A000CDCA0101CDCA0101CDCA0101CDCA010164
:1088B000CDCA0101CDCA0101000000000000000086
:1088C00000000000000000000000000000000000A8
:1088D0000000000000000000000000000000000098
:1088E0000000000000000000000000000000000088
:1088F0000000000000000000000000000000000078
:108900000000000000000000000000000000000067
:108910000000000000000000000000000000000057
:108920000000000000000000000000000000000047
:108930000000000000000000000000000000000037
:108940000000000000000000000000000000000027
:108950000000000000000000000000000000000017
:108960000000000000000000000000000000000007
:1089700000000000000000000000000000000000F7
:1089800000000000000000000000000000000000E7
:1089900000000000000000000000000000000000D7
:1089A00000000000000000000000000000000000C7
:1089B00000000000000000000000000000000000B7
:1089C00000000000000000000000000000000000A7
:1089D0000000000000000000000000000000000097
:1089E0000000000000000000000000000000000087
:1089F0000000000000000000000000000000000077
:108A0000DEE61E284CBBCE8F023500003C00000085
:108A100098AB0200010000000088000100880001FE
:108A2000FFFF0291000000000000000000000000B5
:108A3000000000000000000000000000064A074B94
:108A4000DB7802604FF43272C37100238280082207
:108A500003728271704700BF05AB010178070021E6
:108A6000064A074B1B7902604FF4B472C371FF23AF
:108A70008280082203728271704700BFBFA6010185
:108A8000780700212DE9F341C41D0028064624F093
:108A900007040CBF0020204600F0F6FC071E04DA95
:108AA0006FF00B0002B0BDE8F0810EB9FC42F7D4C4
:108AB000364D6989288903316B7B03302A7B89B263
:108AC00080B20EF09FFF0028EADB3C44A978EB78E7
:108AD000002E04F10304194424F0030400FB01F107
:108AE0000CBF0020204600F059FE20440EB900289B
:108AF000D6DB2B790446B3B1697D19446B791944EF
:108B0000FF29CDDC0330002E2A8AC9B220F00304ED
:108B10000CBF0020204600F0B1FE0028C0DB04445A
:108B20000EB9002CBCDB012000F0A4FCC8B1A97B6D
:108B3000B9B195F82C300734002B24F0070415BF89
:108B4000402325234FF481722822002E14BF204693
:108B5000002003F0FDF80028A2DB04440EB9002C2D
:108B60009EDBAB7CDBB12B7993B10734002EA97C63
:108B700024F007040CBF0020204605F021FF002848
:108B80008EDB04445EB9002C09DA89E778070021FE
:108B9000012000F06FFC10B1AB7B002BE5D1724BD4
:108BA0001B6893B1A97981B10334002EEA7C24F0CB
:108BB00003040CBF0020204698470028FFF670AF42
:108BC000044416B9002CFFF66BAF684B1B688BB1E1
:108BD000297D79B10334002E24F003040CBF00205A
:108BE000204698470028FFF65BAF044416B9002CD6
:108BF000FFF656AF5E4B1F68B7B1697DA1B1033474
:108C0000002E2B7E24F0030408BF0020009318BF21
:108C10002046EB7DAA7DB8470028FFF641AF04440B
:108C200016B9002CFFF63CAF072000F023FC98B1EA
:108C3000A97989B10334002EAA7E24F003040CBF65
:108C40000020204600F008FF0028FFF629AF04446A
:108C500016B9002CFFF624AFB6FA86F795F8250072
:108C60007F09A0B10334EB7F297F24F00704194466
:108C70003B4644F00404C9B2224600F02FFF00280E
:108C8000FFF60EAF044416B9002CFFF609AF95F8B5
:108C90002610002959D00734002E2A8D24F0070809
:108CA0000CBF002040460EF0C2FE041EFFF6F8AED8
:108CB000444416B9002CFFF6F3AE1EB1298D404690
:108CC00009F0ECFE95F82010002940D095F82430EA
:108CD000002B3CD06A8C0734002E24F0070802F1E8
:108CE00024020CBF0020404692B20EF0A0FE041EEB
:108CF000FFF6D6AE444416B9002CFFF6D1AE0334CD
:108D0000AB7F297F24F0070495F8240019443B46E3
:108D100044F00404C9B2224600F0D2FE0028FFF657
:108D2000BFAE044416B9002CFFF6BAAE3EB16A8C51
:108D3000404695F82010083292B209F0B5FE2B6B30
:108D40005BB176B12C630020ACE68846B5E7002E17
:108D5000F5D0002211461046EFE7002EF3D1204651
:108D6000A0E62834FBD59BE65800002160000021D6
:108D70005C0000211FB572B6194B5D6BE5B9BFF3FE
:108D80004F8F1849184BCA6802F4E0621343CB6056
:108D9000BFF34F8F00BFFDE7B4FBF6F4D3B201324F
:108DA000002CF9D103F110026A4402F80C4C0A229B
:108DB00033B901A8A847E2E7044600220A26EDE7F6
:108DC000013BDBB203F110040DEB0406B0FBF2F43F
:108DD00002FB1400303006F80C0C2046E8E700BF18
:108DE0007807002100ED00E00400FA0513B5114CEE
:108DF0006846637B8DF80130237B8DF800306389F2
:108E0000ADF804302389ADF8023003F0F1FD18B15C
:108E1000DB210320FFF7AEFF207E03F019FE08B12F
:108E2000DE21F6E7E07D03F00DFE08B1DF21F0E77B
:108E300002B010BD7807002138B5054600283ED0A5
:108E40000DF092F810B94FF0FF3038BD0AF0BCF9C0
:108E5000B0F5FA7FF7D81C4C1C486563002500F07C
:108E600085FA2A222946A01C84F83850257084F8F7
:108E70002C5025630DF060FB1B2240F20113228170
:108E8000628140F2032263800123A28103222371C5
:108E9000A2731F22A376F72322824FF40272638407
:108EA000FB23628244F601122385E282EFF31084F1
:108EB00072B600F023FE2CB962B62046C5E76FF00B
:108EC0001500C2E72846C0E778070021ED8D0001B4
:108ED00038B51446002840F0B9805E4D95F838301A
:108EE000032B00F0B080B1B112B96FF0150038BD9E
:108EF0000139142900F2AA80DFE801F00B1C1F34AD
:108F00005E67853A6A6D7F404654598B8E9C9FA25E
:108F100094001378AB700020FFF7B4FD0028B7BFB2
:108F2000012302236FF00B0085F83830A8BF85F8C5
:108F30003830DCE71378EB70EDE71379002BD4D0F1
