:020000040000FA
:10000000F060002055380100E77C02004138010013
:1000100041380100413801004138010041380100F8
:100020000000000000000000000000002D3A010068
:100030004138010000000000ED39010041380100A5
:10004000C53B0100C53B0100C53B0100C53B0100AC
:10005000C53B0100C53B0100C53B0100C53B01009C
:10006000C53B0100C53B0100C53B0100C53B01008C
:10007000C53B0100C53B0100C53B0100C53B01007C
:10025000C53B0100FBA30200C53B0100C53B0100FB
:10026000C53B0100C53B01002BA40200C53B0100BA
:10027000C53B0100C53B0100C53B0100C53B01007A
:10028000C53B0100C53B0100C53B0100C53B01006A
:10029000C53B0100C53B0100C53B0100C53B01005A
:1002A000C53B0100C53B0100C53B0100C53B01004A
:1002B000C53B0100C53B0100C53B0100C53B01003A
:1002C000C53B0100C53B0100C53B0100C53B01002A
:1002D000C53B0100C53B0100C53B0100C53B01001A
:1002E000C53B0100C53B0100C53B0100C53B01000A
:1002F000C53B0100C53B0100C53B0100C53B0100FA
:10030000C53B0100C53B0100C53B0100C53B0100E9
:10031000C53B0100C53B0100C53B0100C53B0100D9
:10032000C53B0100C53B0100C53B0100C53B0100C9
:10033000C53B0100C53B0100C53B0100C53B0100B9
:10034000C53B0100C53B0100C53B0100C53B0100A9
:10035000C53B0100C53B0100C53B0100C53B010099
:10036000C53B0100C53B0100C53B0100C53B010089
:10037000C53B0100C53B0100C53B0100C53B010079
:10038000C53B0100C53B0100C53B0100C53B010069
:10039000C53B0100C53B0100C53B0100C53B010059
:1003A000C53B0100C53B0100C53B0100C53B010049
:1003B000C53B0100C53B0100C53B0100C53B010039
:1003C000C53B0100C53B0100C53B0100C53B010029
:1003D000C53B010015A40200C53B0100C53B01005F
:1003E000C53B0100C53B0100C53B0100C53B010009
:1003F000C53B0100C53B0100C53B0100C53B0100F9
:10040000C53B0100C53B0100C53B0100C53B0100E8
:10041000C53B0100C53B0100C53B0100C53B0100D8
:10042000C53B0100C53B0100C53B0100C53B0100C8
:10043000C53B0100C53B0100C53B0100C53B0100B8
:10044000C53B0100C53B0100C53B0100C53B0100A8
:10045000C53B0100C53B0100C53B0100C53B010098
:10046000C53B0100C53B0100C53B0100C53B010088
:10047000C53B0100C53B0100C53B0100FFFFFFFF7D
:1004800053B94AB9002908BF00281CBF4FF0FF31FB
:100490004FF0FF3000F00CB8ADF1080C6DE904CE60
:1004A0000CF088F8DDF804E0DDE9022304B07047C1
:1004B000704700BF2DE9F00791E8F807B2E8021095
:1004C0005B1854EB0C04B2E802104D4156EB0C06DD
:1004D000B2E802104F4158EB0C08B2E8021059EB99
:1004E00001095AEB0C0A80E8F80780410130BDE8A9
:1004F000F00770472DE9F00791E8F807B2E802101D
:100500005B1A74EB0C04B2E802108D4176EB0C061A
:10051000B2E802108F4178EB0C08B2E8021079EBD8
:1005200001097AEB0C0A80E8F80780414042BDE8F7
:10053000F00770472DE9F007524290E87800B1E8E3
:1005400080071740DB1918EA020854EB080419EA7F
:10055000020955EB09051AEA020A56EB0A0678C0A9
:1005600090E87800B1E8800717407B4118EA02085C
:1005700054EB080419EA020955EB09051AEA020AC4
:1005800056EB0A0678C080410130BDE8F00770479D
:100590002DE9F007524290E87800B1E88007174053
:1005A000DB1B18EA020874EB080419EA020975EB70
:1005B00009051AEA020A76EB0A0678C090E8780084
:1005C000B1E880071740BB4118EA020874EB080441
:1005D00019EA020975EB09051AEA020A76EB0A061E
:1005E00078C080414042BDE8F00770472DE9F00136
:1005F00052424FF0040890E8300091E8C000A31B7D
:100600001340E41AF618EB1B1340ED1AFF1830C024
:10061000C0C1B8F10108EED1BDE8F001704700BFDC
:1006200000B592E8DC072DE9DC07B1E8805702B499
:10063000A7FB02510A95A8FB020BE7FB6310E9FB3D
:1006400062B00B91A8FB0351EAFB6201E7FB64B5C2
:10065000E7FB6605E8FB6615CDF830B0A9FB03B6ED
:10066000EAFB6316ECFB6356E8FB640BE9FB641BD7
:10067000EAFB645BECFB646B0D90ACFB0230059C09
:10068000EEFB6250E9FB6460EAFB64B0E7FB6431B7
:10069000E8FB6451069CE8FB6461E9FB64B1EAFB9A
:1006A00064010E93A7FB0432079CE7FB6462E8FB3E
:1006B00064B2E9FB6402EAFB6412049CE9FB645344
:1006C000EAFB6463089CE7FB64B3E8FB6403E9FBB3
:1006D0006413EAFB64230F955DF8049B99E8000618
:1006E000DDF80080A9FB0854EAFB68B4DDF810804F
:1006F000ECFB6804EEFB6814E9FB6824EAFB683451
:10070000DDF80480EEFB6865E9FB68B5EAFB680587
:10071000DDF81480ECFB6815EEFB6825E9FB683515
:10072000EAFB68450F96DDF80880AEFB0876E9FB2A
:100730006806EAFB6816DDF81880ECFB6826EEFB1D
:100740006836E9FB6846EAFB6856DDF80C80ECFB8E
:1007500068B7EEFB6807E9FB6817EAFB6827DDF876
:100760001C80ECFB6837EEFB6847E9FB6857EAFB47
:10077000686708B000BD00BF2DE9F14F87B0FFF7F3
:100780004FFFDDF81C8008F1200888E8FF00FFBC5F
:1007900087E87F08BDE8F08F00B591E89857A3FB84
:1007A00003520195A3FB0401E3FB6420E3FB671004
:1007B0000292A3FB0752E3FB6802E4FB6415E3FB30
:1007C0006805E3FB69250391A4FB07B6E3FB6926F3
:1007D000E3FB6A56E4FB670BE4FB682BE3FB6A5B15
:1007E000E3FB6C6B0490A4FB0810E4FB6950E3FB93
:1007F0006C60E3FB6EB0E7FB6721E4FB6951E4FB4F
:100800006A61E3FB6EB1E4FB6E010592A7FB08325F
:10081000E4FB6A62E4FB6CB2E4FB6E02E7FB6E127F
:10082000E7FB6853E7FB6963E4FB6CB3E7FB6C032E
:10083000E7FB6E13E8FB6E230695A7FB0954E7FB65
:100840006AB4E7FB6C04E8FB6C14E8FB6E24E9FB7C
:100850006E34E8FB6865E7FB6AB5E8FB6A05E8FB10
:100860006C15E9FB6C25E9FB6E35EAFB6E450796D6
:10087000A8FB0976E8FB6A06E9FB6A16E9FB6C2629
:10088000EAFB6C36EAFB6E46ECFB6E56E8FB69B79A
:10089000E9FB6907E9FB6A17EAFB6A27EAFB6C37A1
:1008A000ECFB6C47ECFB6E57EEFB6E6700BD00BFC8
:1008B0002DE9F14F87B0FFF76FFFDDF81C8008F1DD
:1008C000200888E8FF00FFBC87E87F08BDE8F08FBC
:1008D00030B44FF0000310F8014B11F8015B013AFE
:1008E00084EA050443EA0403F5D1A3F101034FEAC6
:1008F000D37030BC704700BF4FF0000310F8012BDD
:10090000013943EA0203F9D1A3F101034FEAD3709D
:10091000704700BF30B411F8014B12F8015B6C4016
:1009200000F8014B013BF6D130BC70472DE9F007D0
:1009300091E8F807B2E802105B1854EB0C04B2E837
:1009400002104D4156EB0C06B2E802104F4158EB35
:100950000C08B2E8021059EB01095AEB0C0A894164
:10096000B3F1FF3374F1FF3475F1FF3576F1000612
:1009700077F1000778F1000879F101097AF1FF3A7F
:1009800051F100015B184C414D4156F1000657F101
:10099000000758F1000859EBD1795AEB010A80E8B9
:1009A000F807BDE8F00770472DE9F00791E8F80770
:1009B000B2E802105B1A74EB0C04B2E802108D412D
:1009C00076EB0C06B2E802108F4178EB0C08B2E827
:1009D000021079EB01097AEB0C0A89415B184C4152
:1009E0004D4156F1000657F1000758F1000859EB48
:1009F000D1795AEB010A80E8F807BDE8F0077047A3
:100A000018EB040859EB05095AEB060A5BEB070BD8
:100A10005FF0000C4CF1000C18EB050859EB0609CF
:100A20005AEB070A5BEB070B50EB0C005FF0000C76
:100A300051EB0C0152EB0C0263414CF1000CB8EB92
:100A4000070879F100097AF1000A7BEB040BA84151
:100A5000B141A241B3416CF1000CBBEB050BB041BD
:100A6000B941AA41BB416CF1000C4CF001068CF07D
:100A7000020718EB060859EB6C095AEB6C0A7BEB82
:100A80006C0B70EB6C0471EB6C0572EB670653EB4F
:100A90006C076CEB6C0C18EB0C0059EB0C015AEB6F
:100AA0000C025BF1000354F1000455F1000556EB14
:100AB000DC7657EB0C0770472DE9F14F87B0FFF755
:100AC000AFFDDDF81080DDF81490DDF818A0FFF719
:100AD00097FFBDE8000FFFF793FF03B05DF8048BAD
:100AE00088E8FF00BDE8F08F2DE9F14F87B0FFF7F0
:100AF00053FEDDF81080DDF81490DDF818A0FFF744
:100B00007FFFBDE8000FFFF77BFF03B05DF8048BAC
:100B100088E8FF00BDE8F08F1FB50B4B01A90193DA
:100B20004FF4B473ADF8083008238DF80A30837899
:100B300003208DF80B30FF238DF80C3000F068FE99
:100B400005B05DF804FB00BF8B0701001FB50B4B20
:100B500001A901934FF44473ADF8083008238DF8D0
:100B60000A30437802208DF80B3000238DF80C30CA
:100B700000F04EFE05B05DF804FB00BFEF0B010076
:100B80001FB572B6194B5D68E5B9BFF34F8F1849B1
:100B9000184BCA6802F4E0621343CB60BFF34F8F77
:100BA00000BFFDE7B4FBF6F4D3B20132002CF9D15B
:100BB00003F110026A4402F80C4C0A2233B901A86E
:100BC000A847E2E7044600220A26EDE7013BDBB234
:100BD00003F110040DEB0406B0FBF2F402FB140069
:100BE000303006F80C0C2046E8E700BFA00B0020D0
:100BF00000ED00E00400FA0513B5114C6846237CB3
:100C00008DF80130E37B8DF80030A37BADF8043024
:100C1000637BADF8023003F0F9FC18B1DD2103204D
:100C2000FFF7AEFFA07E03F021FD08B1E021F6E75B
:100C3000607E03F015FD08B1E121F0E702B010BDC0
:100C4000A00B00202DE9F34104460D4671B91C4B61
:100C500093F82E3053B9012101A80193FFF7F2FF59
:100C600020B940F206210320FFF78AFF2368002DF8
:100C7000144F4FF0000603F10703DFF84C800CBF60
:100C80002046002023F00703236000F099FD57F869
:100C9000043B0BB1404698470136122EF7D100F0C5
:100CA00007FE031E09DB206818440DB1002804DB91
:100CB0002060012002B0BDE8F0810020FAE700BF0B
:100CC000A00B002054000020A80B00202DE9FF41BC
:100CD000B0FA80F60546039003A876093146FFF77F
:100CE000B1FF20B96FF00B0004B0BDE8F0818F4C6C
:100CF000637A277AA17B607B1F44E27B0331237CEC
:100D000003300CF0F7FB039B002D07FB00F103F110
:100D1000030308BF002023F0030318BF1846039302
:100D200000F028FF039B0DB9C342DBD41844A37A1B
:100D30000390C3B1E17D1944E37A1944FF29D1DC62
:100D40000330002D628AC9B220F00300039008BF6F
:100D5000002000F07FFF031EC4DB039818440DB988
:100D60000028BFDB0390724F7B68F3B1617CE1B177
:100D700094F82F300398002B00F1070014BF402394
:100D8000252320F0070014BF4FF481722822002D84
:100D9000039008BF002002F03DFD031EA2DB039874
:100DA00018440DB900289DDB0390217DC1B1A37AC1
:100DB0001BB97B68A3B1637C93B10398002D00F14C
:100DC000070020F00700039008BF002005F034FC66
:100DD000031E87DB039818440DB9002882DB0390BB
:100DE000544B1B68B3B1217BA1B10398002D627DE8
:100DF00000F1030020F00300039008BF0020984793
:100E0000031EFFF66FAF0398184415B90028FFF6CC
:100E100069AF0390484B1B68ABB1A17D99B10398B2
:100E2000002D00F1030020F00300039008BF002014
:100E30009847031EFFF656AF0398184415B90028CB
:100E4000FFF650AF03903D4BD3F80080B8F1000F90
:100E500019D0E17DB9B10398002DA37E00F1030004
:100E6000227E009320F00300637E039008BF0020E1
:100E7000C047031EFFF636AF0398184415B9002883
:100E8000FFF630AF0390FB69BBB1217BA9B103989A
:100E9000002D227F00F1030020F00300039008BF23
:100EA000002000F0C5FF031EFFF61CAF0398184496
:100EB00015B90028FFF616AF039094F82700C0B1CB
:100EC000039A94F821300332A17F22F007021944DB
:100ED000334642F00402C9B2039200F0EBFF031E56
:100EE000FFF600AF0398184415B90028FFF6FAAED4
:100EF000039094F82810002975D0039F002D628D6F
:100F000007F1070708BF002027F0070718BF38467A
:100F100003970CF004FB031EFFF6E4AE039818449D
:100F200075B90028FFF6DEAE0AE000BFA00B002076
:100F3000540000209C000020A4000020A0000020FD
:100F400003901DB1618D384609F044FA94F82210DF
:100F500000294AD094F82630002B46D00398002D63
:100F6000A28C00F1070002F1240220F0070092B2E7
:100F7000039008BF00200CF0D2FA021EFFF6B2AEBA
:100F8000039F3A4415B9002AFFF6ACAE033294F839
:100F90002030A17F22F0070294F82600194433463E
:100FA00042F00402C9B2039200F076FF031EFFF67E
:100FB00099AE0398184415B90028FFF693AE039034
:100FC0003DB1A28C384694F82210083292B209F052
:100FD00007FA236BA3B1039B05B123632833039363
:100FE0004DB1002080E60F46ABE7002DF1D0002286
:100FF00011461046EBE7002BFFF674AE039873E63C
:10100000002DEED1FAE700BF38B50546002844D0E0
:101010000BF046F910B94FF0FF3038BD0FF01CFF50
:10102000B0F5FA7FF7D81F4C1F486560002500F027
:10103000A7FA482229461D4884F82E5010F024FAB9
:101040002622294604F10800257084F82F502563D4
:1010500010F01AFA1B2240F20113627340F21B32A5
:1010600023810123E28140F20232A37222821F22F5
:101070002377F72362824FF40272A384FB23A282B8
:1010800044F6011263852283EFF3108472B600F0F8
:1010900021FF2CB962B62046BFE76FF01500BCE710
:1010A0002846BAE7A00B0020F90B000054000020EE
:1010B00010B5002840F0AB80564C94F82E30032B2E
:1010C00000F0A280A1B1002A70D00139142900F2E9
:1010D0009E80DFE801F00B1C1F2F575F783562659B
:1010E000733B414E537D808E91958500137823721A
:1010F0000020FFF7EBFD0028B7BF012302236FF0AC
:101100000B0084F82E30A8BF84F82E3010BD137861
:101110006372EDE79378002B48D0D378002B45D04D
:1011200013781A2B42D953781A2B3FD91368C4F875
:101130000D30DDE71378E27A934237D3A372D7E715
:101140001378A27A934231D8E372D1E71378A27A66
:1011500093422BD8E375CBE713783BB35378013B2D
:10116000DBB2F82B22D81388927823832A4B9A700B
:10117000BEE71078E07607F04BFEB9E71378ABB125
:101180002377B5E71378254A52680AB1012B0DD9A8
:101190006374ADE713886382AAE713782373A7E724
:1011A0001E491378C96921B9012B04D86FF01500C5
:1011B000ACE7002BFAD01378637599E71378082B06
:1011C000F4D8A37594E71388FF2BEFD823758FE726
:1011D000137863778CE713780E2BE7D8A37787E72C
:1011E00013680F49C4F8223053684B6013890B8190
:1011F0007EE71378E3777BE7137884F8213077E78D
:10120000137884F8203073E74FF0FF307EE76FF0FB
:101210002C007BE7A00B0020B80B0020540000201E
:10122000C20B002070B50D460646002841D00029AB
:101230003FD04B073DD1204C94F82E30012B02D1EA
:101240006FF00B0070BD032B02D14FF0FF30F9E7B8
:1012500000F0CAF80028F8D02846FFF737FD00282C
:10126000EEDB164BD3F8A828B2F1004F0ED1144A8A
:10127000C3F8A828134AC3F8AC28134AC3F8B02807
:10128000124AC3F8B428124AC3F8B82830460BF003
:10129000C5F884F834000FF063FD94F83400216B36
:1012A00003F066FAFFF7A8FC0323002084F82E3031
:1012B000C8E76FF01500C5E7A00B002000A008509C
:1012C0005F00500308001C00040054011FAAF8002E
:1012D0000700D00010B5084C94F82E30032B05D130
:1012E00003F062FA94F834000BF0B4F80CF040FA12
:1012F000002084F82E0010BDA00B002050B1074B39
:1013000003F1140253F8041B934240F8041BF9D173
:10131000002070476FF01500704700BFF7220300F0
:10132000074B10B593F82E4034B903F0EBF9054B99
:10133000054A2046DA6010BD4FF0FF30FBE700BFE2
:10134000A00B002054000020190B0000074B10B523
:1013500093F82E4034B903F0E9F9054B054A2046CD
:101360009A6010BD4FF0FF30FBE700BFA00B0020DC
:10137000540000204D0B0000054B10B593F82E4093
:101380001CB903F081F9204610BD4FF0FF30FBE798
:10139000A00B0020054B10B593F82E401CB90DF0A2
:1013A000B3FC204610BD4FF0FF30FBE7A00B002040
:1013B000054B10B593F82E401CB90DF0A8FC204643
:1013C00010BD4FF0FF30FBE7A00B002002680020AB
:1013D000014B1A60704700BFD80B0020014B1B68FF
:1013E000184700BFD80B0020024B1868003818BF00
:1013F00001207047D80B002073B5031D2D4D044606
:101400002B60284604F05EFA0228064606D12949D8
:1014100020460BF04AFA304602B070BD042842D193
:101420002B78092B0AD0252B1ED0294620460BF0FD
:10143000B6FAB0F5817F2DD3722112E005213E204E
:101440000BF006FA0028F0D1EB7801A92A7968465A
:1014500043EA0223ADF800300BF024FE0028D0D080
:1014600053210820FFF78CFB1A213E200BF0F0F9E6
:101470000028DAD16B68694601A8C3F30F23ADF8E1
:10148000043011238DF806300BF02EFE0028B8D062
:101490006521E6E70028B4D0A17820780BF0D8F9D0
:1014A0000028B8D1ADE70828B5D1024920460BF095
:1014B00034FAB0E7DC0B0020074B4FF0FF3141F668
:1014C000FF72C3E9001205490022C1E900221F2171
:1014D000C3E90212704700BF00000020E00C0020AA
:1014E0003F280CD801380B4BC0F3421200F01F000C
:1014F00053F8223023FA00F000F001007047FF2873
:1015000006D04038044BC0F3421200F01F00EFE752
:101510000120704700000020E00C0020074B01462E
:10152000006849681A4603C240F48C221A6041F0F0
:10153000107242F4FF625A60704700BF0000002042
:101540000246024B0068516803C37047E00C00205C
:101550000246024B0068516803C370470800002030
:101560000138064BC0F3421200F01F0003EB820368
:101570009B6823FA00F000F0010070470000002093
:10158000014B1860704700BFE80C002010B5FFF752
:1015900093FF0CF08EFE034B04461B6803B1984783
:1015A000204610BDE80C002038B5274B0446D3F880
:1015B000A023D3F8A413013106D1D3F8A8334FF6F2
:1015C000FF719BB28B423DD0D3073BD51E4DD5F862
:1015D000A423D5F8A833C4F80120A4F80530C3F338
:1015E000072363F03F03A371D5F89033013323D071
:1015F000D5F8943301331FD0D5F8983301331BD07D
:10160000D5F89C33013317D0002003F02BFB98B999
:10161000D5F89003D5F89413D5F89823D5F89C33D2
:10162000C4F80700C4F80B10C4F80F20C4F8133036
:1016300001230020237038BD10220021E01D0FF08F
:1016400023FFF5E70023F4E700C0FF0070B5274D46
:10165000102200210446D5F8A0630FF015FF1022D8
:101660000021A0180FF010FFD5F8803301330BD103
:10167000D5F88433013307D1D5F88833013303D14A
:10168000D5F88C3301330BD0D5F88003D5F884130B
:10169000D5F88823D5F88C3320616161A261E361BC
:1016A000002003F0DFFA08B9F3071CD40F4BD3F87E
:1016B000902301320BD1D3F89423013207D1D3F810
:1016C0009823013203D1D3F89C2301320BD0D3F8F5
:1016D0009003D3F89413D3F89823D3F89C33206065
:1016E0006160A260E360002070BD00BF00C0FF0029
:1016F00070B50C88C27CA6B2C4F30E04931C058896
:1017000004F114021D44825AADB21A4443882A449B
:10171000013AB2FBF5F202FB054292B29342044B4E
:101720008BBF3340B34313439BB20B8070BD00BFEC
:101730000080FFFF4A1E062A08B50346084604D863
:101740004FF4D1711520FFF71BFA094A914202D9D3
:1017500040F2A311F6E711B903B1196008BD2BB12E
:101760001B680022C3E901211A1D1A600430F5E745
:10177000FAFFFF7F10B5114B00EB41041A78638923
:10178000B3FBF2F303FB0223013A1A44B2F5706F84
:10179000027928BF00231A448378B2FBF3F019447E
:1017A00003FB1020091AB1FBF3F003FB10131344E1
:1017B0006FEA43436FEA5343638110BDEC0C002092
:1017C000124B10B5E0B15A78022A04D040F22B1126
:1017D0001720FFF7D5F903225A70026812F00701AB
:1017E00002D04FF49871F3E75C685A602244BDE878
:1017F0001040026003F10C009A6048220FF044BED2
:101800000122C3E901005A7010BD00BFEC0C00209A
:101810002DE9F041254E96F801E00EF0FD0CBCF1EB
:10182000010F04D040F245111720FFF7A9F991F8F4
:101830000680B8F1080F02D940F24711F4E7CF79DA
:1018400097B345467B1D7268022D4FEA430402EBB5
:10185000430338BF02256A1E6D421344C8F10002DB
:101860002B408D884544013D2A40B2F5803F02D38C
:101870004FF4A971D8E7BEF1030F12D106EB800037
:101880001C1BC56815B140F25711CDE7C460A770A5
:10189000228084F803C0087A09682071080C21812D
:1018A000E08007FB02337360BDE8F081EC0C0020A0
:1018B0002DE9F047364C6378012B65D0032B04D01B
:1018C00040F267111720FFF75BF9D4E901329A4221
:1018D00002D04FF4B571F5E70023254611221E46CC
:1018E000994605F80C3B55F82200013A58B190F89A
:1018F00004808178B8F1FF0F2FD180F804908E42D8
:101900003CBFCEB20123511CEDD103B1267011268C
:1019100040F6FF6955F826709FBB013EFAD20423BA
:1019200000206370BDE8F08755F82CE0BEF1000F91
:1019300006D09EF804A0C24504BF9EF802E077449A
:101940000CF1FF3CBCF1000FEEDA3944FF2907D956
:1019500003B126704FF48371B4E794460027F1E792
:101960000771CCE707EB410308F101083846A3F8FB
:101970000A90FFF7FFFE5FFA88F1BB788B42F1D83F
:10198000CBE74FF00008F6E7022360686370C9E711
:10199000EC0C0020F8B54FF6FF7305460380184B9A
:1019A00003EB8103D868B8B186780379B3FBF6F20C
:1019B00006FB1233DBB219460A1D00EB4202B2F9F4
:1019C00002705488002F09DB0131B1FBF6F206FBEF
:1019D0001211C9B28B42EFD10020F8BDFF29FBD014
:1019E000C4F30E03C4782B8024B94FF4D9711720A7
:1019F000FFF7C6F85380BDE8F8400BF05ABD00BFB2
:101A0000EC0C00201D4B03EB810370B5DC68054630
:101A100044B3030404D54FF4E0711720FFF7B0F886
:101A2000014620460BF028FDFF28014604D0204641
:101A3000BDE870400BF03DBDA078B5FBF0F300FBB6
:101A40001353DBB219460A1D04EB4206B6F90260D5
:101A5000002E09DB0131B1FBF0F200FB1211C9B21B
:101A60008B42F0D1002070BDFF29FBD08B4204EBEC
:101A700042021CBF0023E3705580D8E7EC0C002025
:101A8000094B03EB8103014610B5DC6820460BF0DF
:101A9000F3FCFF28014604D02046BDE810400BF0BF
:101AA00008BD002010BD00BFEC0C0020F8B5104BA5
:101AB000074603EB81030146DC6820460BF0DCFCA3
:101AC000FF28054611D0E688238953EA064606D04A
:101AD000014620460BF0EDFC01463846B047204653
:101AE0002946FFF747FE0020F8BD0520FCE700BFB0
:101AF000EC0C002038B50E4B0446827903EB8203D0
:101B0000D86808B9052038BD8278E1799142F9D2C8
:101B10004B1CE37100EB41035D89B3F90A30002BE4
:101B2000F3DBA5800BF0C5FC20600020EBE700BFD5
:101B3000EC0C002008B50E4B03EB8103DA6822B9E8
:101B400040F22E211720FFF71BF89178831A481DC9
:101B5000A3EB40031088B3FBF0F3002B01DB9942A9
:101B600002DC40F23121EDE702EB4303588908BD66
:101B7000EC0C002070B5044610F003000E4603D0B4
:101B80004F211820FEF7FCFFFFF7D4FD054624B1D6
:101B9000034831460460FFF7CDFD284670BD00BF05
:101BA000400D00202DE9F14FDFF870B01E460746CA
:101BB0000D46DBF8003090469DF828A09DF82C904B
:101BC0001BB961211820FEF7DBFF52460921404670
:101BD0000BF0D9FA4A4684B2092130460BF0D3FA09
:101BE00081B2DBF8000021440BF01BFC386018B90F
:101BF000286001B0BDE8F08F0444534641460922F5
:101C00002C6038680BF078FA4B4609223146286878
:101C100001B0BDE8F04F0BF06FBA00BF400D0020DF
:101C200070B50E4604460BF0C1FA054630460BF07F
:101C3000BDFA044B2A1821461868BDE870400BF025
:101C400014BC00BF400D0020014B18680BF0DDBB39
:101C5000400D00201F2AF8B5044613460ED8920006
:101C6000033222F00303B3F5803F2DD2184DACB1FF
:101C7000A00710D05F210920FEF782FFFF2B4FEA5B
:101C8000420204D9FF339A42A8BF1A46E8E77C2AE9
:101C9000B8BF7C22E4E729706C602B8122F003023C
:101CA00028230127120403FB01F06B680025120CA6
:101CB000EEB28E4200D3F8BD14B126181F705E60DC
:101CC000104401352833F3E74FF0FF30F3E700BF4E
:101CD000440D0020144A002138B553681478C8B266
:101CE000844203D8AB210920FEF74AFF1846013190
:101CF00028330578002DF2D000218170012412894B
:101D00008161051D44709208C16100F120014468A1
:101D100021F8022B994245F8044B1444F8D10023D2
:101D20004361037038BD00BF440D00200A4B1B897E
:101D3000B3F5FF7F4FEA930006D25A089B1A9BB275
:101D4000984238BF18467047B3F5EE6F01D8FF22AE
:101D5000F4E740F27263F3E7440D00202DE9F84305
:101D60004B7880460C4602F0040602F0FB07D3B124
:101D7000DFB12E4BD4F804901D89B7BB0123AD0809
:101D80004A46211D637004F1280004F12003A76175
:101D9000E76123F8025B984241F8042B2A44F8D10A
:101DA0000023636101E0002FE3D0FF23A370002E26
:101DB00018BF0226A3191B7D032B03D1022F1CBFC2
:101DC0000136F6B2A31901221A7506F10C0200239E
:101DD00004EB860624F812307268A3704046C8F8F7
:101DE0000020A8F80430BDE8F883002114226170B7
:101DF000A0180FF049FBB5F5FF7F0FD26B08ED1A65
:101E0000ADB209EB0502C4F804902584A260638496
:101E1000C4F80C90A5842261E384C6E7B5F5EE6FA3
:101E20004FF0FF03EBD940F27265EAE7440D002062
:101E30002DE9F84305460C46F720052191460BF0A5
:101E4000A2F9061E22DB1DB906FB04F0BDE8F883EB
:101E500015F0030703D098211920FEF791FEDFF853
:101E60003480C8F81050A5B2A8F81460BBB29D42E7
:101E7000EAD9B8F814C04B46D8F810000522F7216B
:101E800007FB0C0001370BF037F9EFE74FF0FF309D
:101E9000DCE700BF580D002007B5CDE900230B4655
:101EA00003490246081D0BF03DFC03B05DF804FB3E
:101EB000700D002013B5064CCDE900230B460246F9
:101EC00004F1080104F10C000BF02CFC02B010BD71
:101ED000700D0020114B01224FF0FF3000215A609D
:101EE000C3F80803C3F80015C3F804255A6040F688
:101EF000FE72C3F808034020C3F8001503F57033E1
:101F00000749C3F80825C1F88800BFF34F8FBFF316
:101F10006F8FC1F88801C3F808257047006004502E
:101F200000E100E00A460648382302F8033BC36894
:101F3000C1F803300369536043699360704700BF81
:101F4000800D0020024B5A8C02435A845B6A18476A
:101F5000800D0020014B00215B6A1847800D002096
:101F600038B51C4C0546A36A984700282ED094F833
:101F70002C302BB994F830201AB9012D02D010461C
:101F800038BD2DBB94F83830DD06C3F30011256C45
:101F900057BFE36B00231B78C3F3001358BFC3F193
:101FA000010325B9B4F844500DB10029E8D042B17D
:101FB000628C920705D5A36CD878023818BF01202F
:101FC000DEE7002BDCD1608C0038F7E70120D7E793
:101FD0001846D5E7800D00200138C0B2032808B5A7
:101FE00004D940F21A410620FEF7CAFD014B185CE5
:101FF00008BD00BF3CBE0200014B586B90307047DB
:10200000800D0020014B586B704700BF800D0020F1
:1020100010B5174C07F0F6FD07F02EF9B4F84C0098
:10202000FFF798FF237E63B12246124904F119009D
:1020300052F80C3BE36063685360A36893600DF053
:10204000CCFC0D4BB4F84C2093E8030004F07EFB6D
:10205000FFF7D8FF008804F0A3FA236D94F82C1042
:1020600094F84E009847002384F8543010BD00BF08
:10207000800D0020251F0000B00D0020034B93F8B9
:1020800054300BB1FFF7C4BF704700BF800D002074
:1020900008B5094B93F85420022A04D040F2562187
:1020A0002720FEF76DFDDA7A42F00102DA72BDE810
:1020B0000840FFF7ADBF00BF800D0020F8B5244CED
:1020C0000746FFF79FFF0546FFF796FFE36B0646BF
:1020D00094F85C00A365337D0BB1031DD8B295F86D
:1020E0007D102FB9FF2803D195F87C308B4201D0A9
:1020F00007F09AFB337D23B3206E07F05FFE94F860
:102100003030216E003BA06D18BF012384F8883069
:10211000D6E91E23C4E91E2306F0CEFF47B995F881
:102120007D30033B012B94BF2820002007F084FE64
:1021300095F87C10002007F0DFFE022384F854306D
:10214000F8BDA06D07F03AFE07F096F8E6E700BF8D
:10215000800D00202DE9F347314D0646FFF74CFF77
:102160000F4695F854300446012B5FFA83F804D0EB
:1021700040F2A5412720FEF703FD03794BB1002172
:1021800001710420FFF7DEFE95F830300BB184F8C2
:102190000680A96C0B7803F00303032B04D1A37A08
:1021A00013B90220FFF7CEFEAA6C137803F00303E5
:1021B000032B02D0537823BB0123A372237DD3B119
:1021C000FFF720FF95F8303090F87D00003B95F840
:1021D0005CA018BF0123D4E91E8985F88830C5E9C1
:1021E0001E89FFF7F9FE002203460E4900920220E5
:1021F000524606F0E7FE36B102B0BDE8F047FFF701
:1022000007BF0223D9E7002FF6D03046FFF7A8FE1C
:102210000028F1D102B0BDE8F047FFF74FBF00BF83
:10222000800D0020E80D002073B50246FFF7E4FEA4
:1022300005466F4CFFF7E6FE0023297D06468DF824
:10224000053094F85C3009B10433DBB296F87C10A9
:102250002AB9FF2B03D196F87D308B4202D0FF20A4
:1022600007F0E2FAAB7A032B00F2A980DFE803F073
:10227000023A869A94F890305E48ADF80630A6F897
:102280006C3002F08BFC70B1A16C8020FFF75AFE1D
:102290000121A36C6971DB781B2B1FD106F11000A3
:1022A00007F0F2FA1AE00DF105020DF10601D4F87B
:1022B00094000AF0A3FFA064A0B195F851308BB947
:1022C0009DF805302BB9038001218370A06C0DF0BF
:1022D0003DFABDF80610A06C0DF043FB012384F815
:1022E000913001E0444BA364EB7AA16CDB0003F076
:1022F00008020B7803F0F30313432A7B920002F0E9
:102300000402134323F0100203F00303032B0A70AB
:1023100058D1CB78022B55D10023A06C02781343FF
:102320000370EB7C002B5ED04378002B5BD0206EDB
:1023300007F044FD94F83030A16CB3FA83F3206EBB
:102340005B0984F88830D5E91C23C4E91E2306F014
:10235000B3FEA06C0BF01EFA96F87D10012007F07A
:10236000CBFDA26C0123118884F8CA3021879178B3
:10237000224A84F85430917002B070BDB6F86C30C7
:102380000DF105020DF10601D4F89400ADF8063008
:102390000AF034FFA0640028A0D140F2F6212720E3
:1023A000FEF7EEFB134802F0F9FB10B94FF4407151
:1023B000F5E7A36CDB781B2B90D101216EE740F28F
:1023C0000E31ECE7D4F894000AF082FF48B9A36C10
:1023D0001B7803F00303032B9ED002F005FC0028BA
:1023E0009AD1102399E707F0E9FC06F045FFB0E722
:1023F000800D0020C80D0020180E0020B80D002010
:10240000064B10B593F8542002F0FF0422B91C7655
:1024100004F094F9204610BD0C24FBE7800D002049
:102420000A4B0B4A70B506460D461A60FFF7E8FFE7
:1024300018B1E1212720FEF7A3FB064C012104F18E
:1024400098000DF083F9E663256670BDB8000020A2
:10245000A8000020800D0020024B012283F8CB2031
:10246000704700BF800D00202DE9F04385B0BA4CC5
:1024700002AE0C9F86E8030094F8541001F0FF05AB
:1024800011B90AB103B127B940F26F112720FEF745
:1024900077FB04F1300C276584F8CB5084F82C507E
:1024A00084F8CC5084F84E5084F8CA5084F8915087
:1024B0006584A4F84C5096E80300C4E909238CE82D
:1024C0000300FFF799FD0746FFF79CFD054607F05F
:1024D000FDF906F0D1FE95F9800007F061FAA86BCE
:1024E00007F050FC286A07F061FA97F8240007F01B
:1024F00083FA94F83060EA6941F64B53002E40F0BD
:10250000C3809A4200F2AF804D2007F021F9304697
:1025100007F0DAFA6E2195F87C20002007F0F4FA33
:102520008E4B186807F034FC6B69C4F89430AB69C3
:10253000C4F8D03095F88B3063B9D5F884204AB10F
:10254000F98F3B898B4205D1B5F888100B44FB8786
:102550000123136007F18003814E07F1900C186886
:10256000083353F8041C3246634503C21646F6D1BD
:102570005968D7F890007B4A03C2FFF743FD014634
:10258000FFF73AFD837B0246A3F12600012891F86C
:102590007C0003D9D27B262A40F08B8094F830202F
:1025A000636B002A40F0828093F84A120BF0E2F845
:1025B000064605F14408314640460DF0CCFA314656
:1025C0000CF004FEB5F8503095F87D10834228BF1A
:1025D0000346404684F890300DF083FA95F87D105C
:1025E00097F814800429B5F8586008BF03210CF04F
:1025F000EDFDB8F1000F01D1043080B2B04228BF28
:102600003046C6B284F8D46003F046FA10B12B2EDF
:1026100038BF2B2694F8308084F85C60B8F1000F46
:102620006ED1FB7C93B1012395F87C0084F888304F
:10263000D7E91C23C4E91E23FFF7CEFCFB22034687
:1026400047490420CDF8008006F0BCFC0120FFF7CC
:10265000EBFD454BD3F8203523F00803032B68D15D
:1026600040F21D2112E7962007F072F895F87C20C1
:102670003E4B03EB820359684FF47A7301F5FA710C
:10268000B1FBF3F16E3146E79A420AD84D2007F0CC
:102690005FF8012007F018FA9B2195F87D200120B2
:1026A0003CE7962007F054F8C421F6E793F8DE12D1
:1026B0007CE7213B012B10D8242A10D094F830302D
:1026C000CBB1636B93F84E315A0712D413F001016A
:1026D0007FF46CAF03F0020168E7242A0BD194F871
:1026E000303043B1626B92F84E3192F8752013404E
:1026F000EAE704215AE7032814BF0646042658E7F0
:102700003B7D93B1012395F87D00D7E91E8984F8BC
:102710008830C4E91E89FFF75FFC00220346104998
:1027200000920220324606F04DFC0120FFF7C6FC65
:102730008FE7002323606360A3603B8963802B885D
:10274000238097F824302371D5F88C300BB1012207
:102750001A6005B0BDE8F083800D0020B8000020AD
:10276000E80D0020000E002000A008503CBE020032
:1027700008B5114B93F854201AB9BDE80840FFF78B
:1027800047BC93F8302042B993F85430012B12D053
:102790004FF40D712720FEF7F3F993F85420022A25
:1027A00002D04FF40E71F5E75B6BD3F81802BDE869
:1027B000084007F015BB08BD800D0020014B1876BE
:1027C000704700BF800D0020014B93F8CA0070478E
:1027D000800D0020054B93F8912022B9B3F84C00EE
:1027E000C0F3C02070470120704700BF800D00205B
:1027F000024BB3F84C00C0F380207047800D0020DE
:10280000014B93F8CC007047800D00202DE9F34177
:102810000646FFF7F1FB0F460446B20722D51A4DD4
:102820002B6C23B940F296412720FEF7A9F9B5F8A1
:1028300044201846A96D033291F801800EF0F9FD8D
:102840000DF1020201A9A865D5F8D0000AF0D3FD68
:1028500001980AF0BAFD012238604146D5F8D0004F
:102860000AF080FDF3070CD5D4E91E32013342F1A2
:102870000002C4E91E32237B012B0CBF002301237D
:10288000237302B0BDE8F081800D00202DE9F04FE8
:1028900085B08046AF4CFFF7AFFB0746FFF7B2FBB2
:1028A00000238A468146CDE9023394F85430022B46
:1028B00004D040F219512720FEF762F9B4F84C30E9
:1028C000590608D44020FFF745FBB4F84C3043F0DC
:1028D0004003A4F84C303B7DB8F1000F00F040817C
:1028E0009BB106F005FD06F0E9FC70B9A36D5A78BE
:1028F0005AB11B783A7BC3F3C0039A4205D1012336
:1029000084F84E30FFF784FBC7E0A36D5978A4F834
:10291000441019B3D4F8D0000AF0FBFC2064B4F8DA
:102920004C30FA7A43F48073A4F84C30A36D1B78D2
:10293000C3F380039A4200F0B380FFF75DFB837A14
:102940000546002B39D0022B11D102A9D4F89400EE
:102950000AF076FC20B940F20F41ACE72164DEE7D3
:10296000D5E91C32013342F10002C5E91C320021D5
:1029700094F83030A9722BB1AB791BB11020A9713A
:10298000FFF7E0FA6B7993B100266E7102F016F949
:1029900010B940F226418EE731460820FFF7D2FAFF
:1029A000D5E91C32013342F10002C5E91C32EB7A51
:1029B000012B0CBF00230123EB72B4F84C304FF015
:1029C000000B43F48063A4F84C30A16D3A7B0D7882
:1029D000C5F3C0039A4265D00025A06D0AF0DAFE67
:1029E000FB7CB3B194F8303099F87C00B3FA83F3F0
:1029F0005B0984F88830D7E91C23C4E91E23FFF75C
:102A0000EBFA00220346544900920420FB2206F010
:102A1000D9FABAF1000F00F0BC80012607F092FA53
:102A20001DB103A90220FFF7F1FEBBF1000F0FD08B
:102A300094F830303BB1B4F80720B4F805301343B4
:102A40003A89134304D0B4F809300133A4F80930AB
:102A5000B8F1000F00F0B780B4F805300133A4F8E6
:102A60000530002384F8CC303C4803F087FD029801
:102A700038B10AF0AAFC616B00220272072202F050
:102A80003FFF039B33B1616B00221A720C22039843
:102A900002F036FF002E7FF435AF05B0BDE8F08FB1
:102AA000C34692E705F00305FFF7A6FA0646032D95
:102AB00011D0E5B9337B013B18BF01233373A36DFC
:102AC0005B78002B89D0D6E91E32013342F1000237
:102AD000C6E91E3281E7B4F84C300120002543F4EA
:102AE00000633071A4F84C30FFF72CFAE2E74D7820
:102AF000002DDFD0B4F84C30057D43F40063A4F81A
:102B00004C3006F03FFE042894F8D43006D1002D56
:102B100014BF1B221F22934228BF1346A26D527876
:102B20009A420AD8236C002B3FF456AF94F8CB306E
:102B30006BB12020FFF70EFA4EE794F82C300120FD
:102B400043F0100384F82C3008F058F944E7454668
:102B5000B0E700BF800D0020E80D0020B00D002080
:102B60000BB106F0D3FB94F8CC30013384F8CC30B1
:102B7000B4F84C3043F40073A4F84C3099F87D302D
:102B8000033B012B02D8012008F038F90025AB46A1
:102B900026E794F8302094F8CC303AB1628C1207D2
:102BA00004D5A26CD278022A3FF437AF012B3FF64E
:102BB00034AF0120FFF7D4F9064600287FF42DAF8B
:102BC000FFF732FB2CE7B4F807300133A4F80730E5
:102BD0004AE700BF2DE9F04F04468BB01E460023A4
:102BE0000D461746069390F87D800CF0ECF894F8AB
:102BF00006320B2B04D94FF46C710620FDF7C0FF91
:102C0000C64A32F813B094F89F308344039387F098
:102C100001031FFA8BFB0493A7BB94F84C32032BE0
:102C200030D1039B0E2B2DD1B4F8DC32AB4229D12D
:102C3000D4F854322046B4F81E22C4F84032E36976
:102C4000C4F84432B4F89A321344C4F8483206F057
:102C500009F8E269D4F8E4329A4203D004F128007A
:102C60000EF06EF8D4F8E032E363B4F8DE32A4F884
:102C70004030D4F8E432E361D4F8E83263620223EE
:102C800084F84C32B4F898A204F51A73B4F898900A
:102C9000A5EB0A0A0593A5EB09090FFA8AF30FFAC7
:102CA00089F9002B17DAD4E9A023C4E9A42300236F
:102CB000012284F863324B4694F84CA2984F5FFA95
:102CC0008AFABAF1030F00F2CE81DFE81AF00600AB
:102CD0002B0163004B013246EEE794F87D1094F827
:102CE00016020CF09AFA8046E06B594640440EF00A
:102CF000ADF85946C4F85002E0690EF0A7F8E26951
:102D000041F64B5307A99A4298BF4FF0020A50442C
:102D1000C4F8540208A807F01DF9079BD4E9A401E0
:102D20000093DDE908230EF06CFA814620460AF094
:102D300056FDD4F89C3294F87D00D4F83CA006935C
:102D400007F03AFA069B00F52340D4F85012BB3B3B
:102D5000A1309A444FF47A73AAEB010A3031B0FBE8
:102D6000F3F0D044B4F84030A8EB090803EB41017C
:102D7000A8EB0000069094F87D000AF03CFDD4F822
:102D80009C22069B38609B1ACC2B68D840F2C3412A
:102D9000302033E7E36B5946D4F8440218440EF070
:102DA00055F85946C4F85002E0690EF04FF841F664
:102DB0004B53E2699A4288BF4FF0000A5044C4F86E
:102DC000540220460AF00BFDB4F81E32D4F83C80C1
:102DD000D4F844A2002B40F09A80002E00F0978097
:102DE000D04494F87D0007F0E7F9D4F85032A8F108
:102DF000BB0800F5234994F87D004FF47A7BA8EBDB
:102E00000308D4F8883209F1A1099844C31ED4E913
:102E1000A012012BA8EB0108B9FBFBF974D907F04C
:102E2000CBF900F2E730B0FBFBFBA8EB090808EB9D
:102E30000B000690D4F85012D4F84032D4F848224F
:102E4000303194F87D0002FB0311B4F8403003EBFD
:102E500041010AF0D0FC0123386084F84C32E36968
:102E60004FF00008D4F8542204F14400A3F5A273F3
:102E70003F6806999B1A84F868829F4228BF1F46C4
:102E8000D4E9A432C4F818725B1842F10002C4E914
:102E90009E320CF024FE0744A4F89852C4F86C72D9
:102EA000D4E99E23C4E9A42305F0F6F820B1D4F8B0
:102EB0006C321E33C4F86C32B4F8081284F8708295
:102EC0004D1B2DB2002DC4BF022384F87032039B2A
:102ED0000E2B00F0CB80002E40F0C98094F84C32CD
:102EE000002B00F0E180E16904F51A70D4F8543247
:102EF000C91A0CF03AF980B2002800F0D580149B72
:102F000003B118800120DFE04FF03C0B8DE7D04487
:102F1000D4F85032A8EB030306938BE754BE0200AB
:102F2000580E0020D4F85422E169D4F84002891ADE
:102F30004B43D4F848120693B4F81E329944CB435D
:102F40009944D4F85032303300FB0133B4F84010C8
:102F500094F87D0002FB093301EB43010AF04BFCBE
:102F600038607CE7E069584306905EB3B4F81E12FF
:102F700041BB84F86312D4F8541201FB130A94F88D
:102F80009E30262BCDF818A003D094F89F30262B26
:102F900009D1B4F8DC32EB1A1B0404D494F8DF3204
:102FA000002B18BF9846002A3AD0B4F81E32BBBB9B
:102FB000D4E9A023D4E9A20182428B4108D340F294
:102FC0001751E5E694F8631200297FF448AFD2E781
:102FD00094F87D00C31E012B40D907F0EDF800F5F1
:102FE00023404FF47A7BA130B0FBFBF000F1AB0B38
:102FF000D4F8883294F87D00103BD4E9A0125A1A14
:10300000C31E012B92442CD907F0D6F84FF47A73E3
:1030100000F2E730B0FBF3F0AAEB0B0A5044069045
:10302000B4F81E1240468944D4F8541201FB09F941
:1030300009F130094FEA490949460AF0DCFB244A04
:1030400041F64B531060E06998423FF608AF06AB7B
:1030500049460CF0FFF884F8630200E74FF4887BE0
:10306000C6E73C20D8E740F22F5191E6E6B1B4F82C
:10307000341219B3B4F8362294F83832501CA4F83C
:10308000362202FB033399420EDD94F870325BB1B5
:103090000023A4F8360284F8703202F003FD00F039
:1030A0000700013084F8380204F51A7194F86402BC
:1030B00008F0F4FC20B94FF4AF6169E60A46DBE79B
:1030C000049B84F8603200200BB0BDE8F08F00BF95
:1030D000580E00202DE9F0430F4685B0044618B97C
:1030E000A6213020FDF74CFD072900F24E81DFE8D4
:1030F00011F00800810081007C004C013801400182
:103100004A0190F86032002B60D0B0F85E32B0F81F
:103110009820934254D1B0F80C22D31AA0F89820EA
:10312000A0F80E322046D4E99E23C4E9A02305F07E
:1031300089FC94F81332002B00F0E28094F87D3083
:10314000E569033BDFF84892012BD4F8543298BF6D
:1031500028279D4288BFED1A99F8043007F2071717
:1031600098BF00251BB9636C9D4228BF1D46D4F84B
:10317000186204F144000CF0B2FC06EB00080220D7
:1031800008F0DEFE0221A5EB080525EAE57585427B
:1031900028BF0546284608F017FF00B9A8443A465C
:1031A000414620460CF01DFDD4F81832C9F808003D
:1031B000E069184408F096FE90B940F2763190E745
:1031C0009A1AA0F80E22A4F89830ABE7B0F85C3257
:1031D000B0F898209B1AA0F80E32B0F85C32F2E7F3
:1031E00005B0BDE8F0430DF027BD05B0BDE8F043E4
:1031F00006F0BCBE0DF094FFD4E9A023801A61EB69
:103200000301012871F1000302DA40F2036168E76B
:103210006FF0010383424FF000038B4102DA40F26A
:1032200004615EE7E3690BB1B0FBF3F394F89F1020
:10323000B4F85E220E2943D10132A4F85E22B4F81C
:103240009A320DF10E07B4F898500133514EA4F89C
:103250009A32B4F8D4301D44B4F8D230013DED1A9E
:10326000ADB233685BB1B4F85E120022204601397A
:1032700089B29847B4F85E321844A4F85E02B4F8F4
:103280005E126B1A18043ED40023204600971A469B
:10329000FFF7A0FC88B301282CD1B4F85E22B4F863
:1032A0000812BDF80E301344521A12049BB204D512
:1032B000EA1A12F4004F18BF0B46A4F85E32D0E7AA
:1032C000B4F898100B449BB2D11A0D0454BF531C90
:1032D00001339BB2A4F85E3294F86132002BAED178
:1032E000B4F80C32B4F85E22934204BF0133A4F860
:1032F0005E32A4E740F25161F3E6D4F88430EBB9D2
:1033000005B0BDE8F08394F8A23004F1B80022497A
:10331000002B0CBF3E23082384F8C1300CF057FB70
:1033200020460DF08BFC002394F8640284F84C32A4
:1033300008F03CFB202384F86432E1E7B4F8CE20A7
:10334000B4F85E329B1A1BB2002BD9DDB4F888109A
:103350000B44013BB3FBF1F303FB0123A4F8CE3094
:10336000CEE7012007F04AFD05B0BDE8F0430AF0C2
:1033700021BA90F84C32042B01D0C621B1E60023CB
:1033800080F84C32BCE7CC21ABE6D021A9E600BFE7
:10339000580E0020C4000020656000002DE9F041B7
:1033A00004460E46154690F8383103F0FF071BB16E
:1033B0000C273846BDE8F08101464C4808F0D6FAA3
:1033C00020288046F4D05022394604F58C700EF047
:1033D0005BF884F81881C4F81C61FF2384F8383145
:1033E00036B102F077FB00F00700013086F83802B2
:1033F00002234FF00008A4F8483184F840810DF012
:103400002FFD00F1490620460DF048FA0146B6B2FC
:10341000D8B30BF0D8FC00F5CD61284689B20DF089
:1034200015FD2844C4F844010DF07AFE30184FF021
:103430000106A4F8268041F1000184F82061C4E966
:10344000540120460DF040FAD0B1A5F594653146FF
:1034500020460DF0A4F92D1AC4F824514FF0FF3284
:103460006FF00043C4E9562304F5A07194F81801E5
:1034700008F014FB70BB4FF4E1713020FDF780FBC6
:103480003046A43D0DF0EAFAE5E72046DFF860801B
:103490000DF085F9A430C4F84401B8F80C0048B127
:1034A000E08C38B102F016FBB8F80C30B0FBF3F248
:1034B00002FB130006440DF033FE361841F1000103
:1034C000C4E95461002DC9D0AE1941F10001C4E92D
:1034D0005661C9E7D4E9542300212046C4E94C23AE
:1034E000A4F83A110DF01DFA63E700BFC5D800003B
:1034F000580E0020F0B5002385B0CDE9003303233A
:103500008DF806306846FEF7F5FA88B11D4E0123A6
:103510000027B3730223CDE902778DF80E3002A89D
:10352000FEF7E8FA0546A8B10023B37305B0F0BD75
:1035300000980AF0A3FAE5E790F8640208F0A8FD05
:1035400094F8640284F84C5208F030FA202384F88E
:103550006432DFE7029B002BE1D093F86422202A3B
:10356000DDD018884FF6FF739842DDD00221FEF7B8
:1035700087FA04460028DFD14FF496713020FDF71A
:10358000FFFA00BF580E0020044B00221A719A73F4
:1035900042F210729A81FFF7ADBF00BF580E0020B3
:1035A000014B1871704700BF580E002010B504463B
:1035B00006F0F6F8074B9A68824208D3E16941F6B3
:1035C0004B52914203D9987B80F0010010BD00203E
:1035D000FCE700BF580E0020F0B5044685B090F817
:1035E000133203F0FF05002B6ED190F84C32032B01
:1035F0006AD10DF095FDD4E9A023801A61EB030197
:10360000012871F100035FDB6FF00103834275EB6A
:10361000010304DA40F2AC513020FDF7B1FAE2695F
:10362000B4F898300AB1B0FBF2F2013313449BB204
:10363000A4F85C32B4F80C32B4F85C229B1A1BB2CA
:10364000002B41DD94F8640208F032FB00283BD0E7
:10365000FF2384F86132B4F8D4300DF10E07B4F8CA
:1036600098501A4E1D44B4F8D230013DED1AADB257
:10367000336863B1B4F85C1200222046013989B284
:103680009847B4F85C32184480B2A4F85C02B4F8ED
:103690005C32EB1A1B0417D4B4F85C12002301222D
:1036A000204689B20097FFF795FA68B1012808D142
:1036B000B4F85C32BDF80E2013449BB2A4F85C321F
:1036C000D6E740F2F351A7E705B0F0BDC4000020F3
:1036D000F7B50446052955D8DFE801F00326142480
:1036E0002A4F2A4B9B7B03F0FF025BB90092012318
:1036F000B0F80C12FFF76EFA38B140F2CA61302010
:10370000FDF73EFA042384F84C3206F0D1FA08F0B3
:103710002BF80023B4F89820A4F89A32A4F85E227B
:1037200084F8613203B0F0BD032380F84C32F9E72E
:1037300006F02EF894F87D70D4E9A0238618384658
:1037400043F1000506F030FD114B4FF47A7203EBA4
:1037500087039B6903F2E733B3FBF2F318440D4B85
:10376000301A1B6865F10005C4E9A205002BD9D009
:10377000204603B0BDE8F040184703B0BDE8F04074
:103780000AF02DB84FF4EE61B9E700BF580E0020E3
:1037900054BE0200BC000020012A70B505460C464C
:1037A000164615D0022A18D042BB05F0F9FF324662
:1037B000014620460AF032F92A46124994F81801C7
:1037C00007F00CFB40B940F283713020FDF7D8F9C7
:1037D00005F0E6FFC5F89C0270BDD0F89C120122EE
:1037E00020460AF01BF92A46064994F8180107F00A
:1037F000F5FA0028F0D140F29471E6E740F29A71B0
:10380000E3E700BFD5300000014B9881704700BF4F
:10381000580E0020303270B5054692B20C461E4656
:1038200009F07DFE35B1044A002315601476567602
:103830001471936070BD00BF740E0020014B1870AE
:10384000704700BF1100002038B50A4B0D4653F8F1
:103850002040084606F0B0FC033D04F29D74012DA3
:1038600004444FF47A70B4FBF0F494BF2820002095
:10387000204438BDC0BE02002DE9F84F05460C4675
:10388000174691F89EB01E461BB10121204605F057
:103890006FFA94F83032032B55D8DFE803F0025268
:1038A0004C5227B94FF40F713520FDF769F9012308
:1038B0000027204684F830320AF097F9DFF8A4A1F7
:1038C000DAF80030002B41D031462046984700FB03
:1038D000077800F01BF9D8BB0221B4F92C020CF0D8
:1038E000B5F9B4F82C321B1AA4F82C32D4E9823280
:1038F00018EB030342F100021B1842EBE070C4E92D
:103900008230C5E9043000232B7094F89E9009F0B2
:10391000FD030C2B1ED0A9F12603D3F1000949EBBE
:10392000030920460DF09EF910B1B9F1000F14D033
:1039300000232B7217E00323D4F8387284F8303256
:10394000BCE7E769BAE740F27621ADE7B846C0E7E1
:103950000020CBE74FF00109E3E794F83032012B68
:10396000DAB22DD12A72002304F144006B720CF0FC
:10397000B6F86860002E72D0ABF10E0BBBF1010FF0
:103980006DD9394628460BF0F0FB86B220460DF083
:1039900069F98346B9F1000F1AD1864218D308FBA2
:1039A00000F185F80890D4E982325B1842F10002F8
:1039B000C5E90432B8F1000F04D14FF4307173E758
:1039C0000223B6E7394628460BF0CFFB584486B2AF
:1039D0003146204605F0CCF9DAF8003063B1012118
:1039E0002046984747433044D5E9043286B2DF1970
:1039F00042F10002C5E9047200F088F8B0B9710024
:103A0000B4F92C02B1F5803FB4BF89B24FF6FF7113
:103A10000CF01CF9B4F82C321B1AA4F82C32D5E99E
:103A200004321B1842EBE070C5E90430D5E90423E9
:103A3000C4E98223D4F884308BB1B4F8CE20B4F832
:103A400098309B1A1BB2002B09DDB4F888100B4488
:103A5000013BB3FBF1F303FB0123A4F8CE30BDE837
:103A6000F88F00BFC8000020014B5870704700BF9E
:103A7000940E002010B5044604293FD8DFE801F079
:103A8000031A161E3A00204B1B7803F0FF026BB995
:103A900001210AF0B9F8B4F898300133A4F898304D
:103AA00006F006F9BDE8104007F05EBE042384F876
:103AB0003032F5E7032384F8303210BDC369D0F803
:103AC0005822C0F83832934202D028300DF038F92D
:103AD000D4F854322046E363B4F85032A4F84030AE
:103AE000D4F85832E361D4F85C3263620AF07DF8AE
:103AF0000223E0E7BDE810400AF077B840F2563103
:103B00003520FDF73DF800BF940E0020014B1879D9
:103B1000704700BF9C0E00200138C0B2032808B5D2
:103B200004D940F206310620FDF72AF8014B185C53
:103B300008BD00BFECBE02000138C0B2032808B5C2
:103B400004D940F206310620FDF71AF8014B185C43
:103B500008BD00BF6CBF02000138C0B2032808B521
:103B600004D940F206310620FDF70AF8014B185C33
:103B700008BD00BF14C002000138C0B2032808B558
:103B800004D940F206310620FCF7FAFF014B184435
:103B9000007D08BDA8C0020010B500880C460E21AB
:103BA000FDF76EFF18B9E9212320FCF7E9FF90F833
:103BB0006C3053B980F86D40FF2380F8AB30034977
:103BC0006430BDE810400BF0FFBE10BDA1DC00006A
:103BD000F8B58D1F40F67A4C0746BDF82460ADB2AB
:103BE0001046BDF8182065453BD8841FA4B2644533
:103BF0008CBF002401242546AFBB1D4F3F796FB118
:103C00005CB96FF450654D19062D06D86FF45064F9
:103C10000419062C8CBF002401242546FDB18142E5
:103C200024D803FB0666B6F5FA7F1FDCA2F10A036F
:103C300040F676449BB2A34218D80AF097F842F2B5
:103C4000107300FB06F15A43B2EB410F0ED9BDF8D9
:103C50001C50BDF8200085428CBF00250125284658
:103C6000F8BD0024C7E797F88170C8E70025F6E79C
:103C7000780F0020304BF0B5B0F870700C4611464C
:103C80001A88B0F86E6085B097425D8828BF1746E5
:103C9000964228BF16461B2E2ED0B5F5A47F2DD0F8
:103CA00040F6480301AA9D4228BF1D460AF087F846
:103CB000BDF80A309F4228BF1F46BDF80C30AB420A
:103CC000E78028BF2B462381BDF806309E4228BFDF
:103CD0001E46BDF808309D42668028BF1D46A5805F
:103CE000FF232370E3881B3B9BB2E02B08D940F2F3
:103CF000FF513920FCF744FF1B2FCED105B0F0BD9A
:103D000063881B3B9BB2E02B02D940F20161F0E7D4
:103D1000238940F64812A3F5A4739BB2934202D9BB
:103D200040F20361E5E7A388A3F5A4739BB2934235
:103D3000E4D940F20561DCE7780F002010B50321DB
:103D40000020FDF79DFE044670B90321FDF75AFEE1
:103D5000044620B940F245313920FCF711FF034BEE
:103D600093F944100CF0D1FC204610BD780F0020D0
:103D7000114BF7B59C7E0646DD7E9F8B14B900F093
:103D80005DFD0446A5B900F059FD054614B90920AA
:103D900003B0F0BD0028FAD0304601A98DF80440E8
:103DA0008DF80550ADF806700BF033FA0020EFE700
:103DB000002CF1D1EBE700BF0414002038B50BF064
:103DC00061F9002501F0B6F81F4C00F045FD0BF03D
:103DD000F9FD01F049FB02F041FC01F06DFB01200F
:103DE00000F0FEFC194B1A4A29465D831A601B221B
:103DF000DD839A80F9221D841D76164B2283586933
:103E0000154A1B8B22601422E06104F124002384F4
:103E1000A576A580A5750DF037FB012342F210723F
:103E200004F13A0084F8455084F8243084F839309D
:103E3000C4E90A220CF08AFF0022002384F85850BB
:103E4000C4E9142338BD00BF780F002004140020FB
:103E500003021B006CBF02001B004801044B41F62B
:103E60004C521B215A611974C3E90222FFF7A6BF05
:103E70000414002073B5384D0446AB6840F8443F45
:103E800009F033FE064600F0D3FC2B7C10F0200F27
:103E9000A4F84E6084F84C30304B0EBF1B22AA8829
:103EA00069881B6814BFA4F86E10A4F86E20A4F8EB
:103EB00070201BB194F980102088984728490B790D
:103EC000003B18BF012384F88130264B1B6813B1D7
:103ED00008312088984794F881302046002B41F61D
:103EE0004C5318BF4FF47A73E361FFF741FF064666
:103EF00048B102212088FDF7D9FD40B340F2C151FD
:103F00003920FCF73DFE184B1B6813B10146208891
:103F1000984704F128000CF013FF6978AB8804F18E
:103F200014006A8801910333297803329BB200910F
:103F300092B204F11801FDF735FE636913B940F23E
:103F4000D651DDE7A3691BB940F2D751D8E709265E
:103F5000304602B070BD00BF04140020D000002025
:103F6000780F0020E0000020DC0000202DE9F34164
:103F700005460E460CF00EFC002800F0AE802846E8
:103F80000CF08CFC30B1B6F80130013B7F2B01D92D
:103F9000122404E028460CF085FC20B90C242046AD
:103FA00002B0BDE8F081284609F0EFFD0028F5D108
:103FB00028460CF094FB80460028EFD1284603F0F9
:103FC000A1F90028E4D042F21073B6F80170F1783C
:103FD00028465F430CF04EFC04213078FDF750FD7D
:103FE000044606213078FDF74BFD002C77D038B120
:103FF00041F6F5013920FCF7C3FD044690F8BD8079
:10400000404E3368002B6CD0403420460CF07CFED0
:10401000002866D020460CF06BFE002861D1B8F174
:10402000000F08D0384B20461B689847002858D00E
:1040300041F60911DEE735494246336820464969B1
:10404000984700284DD041F60E11D3E728460CF0D2
:1040500025FC40B902210DF10600FDF79BFC064648
:1040600058B90D249BE728460CF02AFC0028F1D112
:10407000274B1B79002BEDD18AE7002101F018F9BD
:10408000BDF806302846314633800CF03BFC28460C
:104090000CF016FCA0B928460CF01CFC014630467A
:1040A000FFF7E8FE044600287FF479AF3A46314630
:1040B0002846FFF773F9044620B141F63A1199E713
:1040C0000121ECE7124BDB6C002B3FF468AF02469A
:1040D00006F5A1713046984761E742245FE7002862
:1040E0008BD128460CF0D2FB01460028AED13A46CF
:1040F0002846FFF753F9044600283FF450AF41F635
:10410000171177E7D8000020D40000200414002005
:10411000780F0020034B5A8802801B7883700020A0
:10412000704700BF041400207FB5837806461A2B21
:1041300009D8042B05D9012202FA03F32F4A1342AE
:1041400005D1122519E0292B01D03B2BF9D130885C
:10415000B0F5706FF5D269460AF0E3FF80B96846A2
:1041600009F000FE037803F0FF05ABB9B3784370A4
:10417000FF23037068460BF0FEFB284604B070BDB9
:1041800009213088FDF77CFC0446A0B302A9B0F8F1
:10419000AC010AF0C6FF08B10C25EEE70821B4F81F
:1041A000AE01FDF76DFC024620B940F6C40139208E
:1041B000FCF7E6FC03781BB994F8C831032BEBD16C
:1041C00002A809F0CFFD817D0029E5D194F8F01116
:1041D00001F0FF050029DFD1B4F8B011018394F894
:1041E000B4118176127DC276B278027784F8F0211C
:1041F000FF228275C1E70225BFE700BF2000380417
:104200000188A1F11B039BB2E02B0CD8428844F239
:104210004810A2F5A4739BB2834204D8034B00203C
:1042200019805A8070471220704700BF780F002015
:10423000034B1A885B88028043800020704700BFD0
:10424000780F002038B50478427804F001038578AF
:1042500004F0020452EA030101D1112038BDBCB9B7
:10426000002DFAD0002B08BF144601E0002425469B
:10427000204609F03FFE0028EFD0284609F03AFE1C
:104280000028EAD0054B00209C76DD769883E5E790
:10429000002BEBD114461D46EAE700BF04140020B2
:1042A00013B5008869460AF03CFF18B10224204685
:1042B00002B010BD684609F0F0FE0028F6D068464E
:1042C00009F0E8FC0346684609F04CFD827C0AB11F
:1042D0003A24ECE793F85C2002F0FF04002AF7D1BF
:1042E00093F85320920705D1FF23837468460BF09F
:1042F00042FBDCE7024903F154000BF06EFBD6E70A
:10430000990101002DE9FF41077804460E46EF2F81
:1043100004D91226304604B0BDE8F081B0F801306F
:10432000ADF80C309DF90C209DF80C30002AF0DB24
:104330009DF80D209507ECD1D80660D4990603F0BE
:10434000030259D5002AE4D11D0703D503F0670302
:10435000012BDED16378180711D42179E278E07956
:1043600042EA0122617942EA0142A17941EA00214F
:10437000207A41EA00418A42CBD81F2AC9D9627A01
:10438000013A062AC5D8A27A032AC2D813F004013A
:1043900002D1023A012A03D8E27A012AB9D811B926
:1043A000A27C032AB5D813F01001227D37D0012A50
:1043B000AFD1237E012BACD8002940D06378D90738
:1043C00003D500F0CFF9002840D06378227D03F0B8
:1043D0001803082B4AD1022A38D11FFA87F8032183
:1043E0004046FDF74DFB0546002845D009F0CDFBC2
:1043F00000284DD00C268DE7032AA5D189E713F0BC
:10440000600F86D103F00F0203F00703052BA1D044
:10441000931E012B9ED9002A7FF47BAF9AE7022AD4
:1044200004D103F06F03092B7FF473AFA37D013B2D
:10443000022B3FF66EAFE37D0F2BBAD969E700F090
:10444000FDF9820707D4237D022B01D1112661E7F4
:10445000A37D022BFAD000F0F1F94307AED4237DFF
:10446000032BF3D0A37D032BA8D1EFE7022AB4D00E
:10447000A37E002BB1D0E9E703214046FDF7C2FA45
:104480000546002842D0224B93F944100CF03DF928
:10449000002138460CF018FC28BB28460CF0F3F934
:1044A00021463070E074284602F084FF637E0646A1
:1044B000002B3FF42FAF00287FF42CAF0246E96CAD
:1044C0006846FDF74BFC3246E86C012109F07CF8A8
:1044D000E96C68460422FDF741FC32463146E86C3F
:1044E00009F072F816E740300CF00EFC0028D4D02A
:1044F000637813F0330F7FF40CAFA77D28460CF0E0
:10450000E9F9FFF719FB8742C7D073E7072601E7F0
:10451000780F002030B502798BB00346042A5BD8AF
:104520004488B4F5804F57D82C4800211044ADF88A
:1045300004108DF80C1090F82220457F42F01002F4
:104540008DF8211042EA450290F8275090F82C008F
:1045500042EA850242EAC00202F01F028DF80420FE
:10456000BDF80420ADF80D201A888DF81240240AF9
:104570008DF80F20120A8DF811108DF814108DF897
:1045800010208DF813405A7BD3F807008DF81520C2
:104590005A79069003A88DF816209A798DF817207D
:1045A000B3F80B209B7BADF81C208DF81E307F23C9
:1045B0008DF81F3001238DF820308DF822308DF8D2
:1045C00023108DF824108DF825108DF8261001A9E0
:1045D000FFF798FE0BB030BD1220FBE76CBF020066
:1045E00013B50378044653B1002301A8019305F0E5
:1045F000FFFE019B9B0702D00C2002B010BD227869
:104600000020014B1A71F8E7780F0020027803466A
:1046100072B1427862B142881A2A09D982881A2A6C
:1046200006D90068034A106000209B889380704779
:10463000122070470414002002680020014B9A6089
:10464000704700BF041400200378A3F10A02112A66
:104650009BBF024A002012201374704704140020EC
:10466000014B187600207047780F0020014B5876D8
:1046700000207047780F0020024B1B6803B11847D9
:1046800011207047CC00002008B5052000F0B4F8D8
:1046900004F022FB014B024ADA6408BD780F0020C7
:1046A000753C000008B502F00FFEFEF76DFF0248F2
:1046B000BDE8084002F0F2BDD40F002008B50AF0B2
:1046C000DFFC064800F58471FDF7AAFE022008F021
:1046D000F8FE0020BDE8084008F0F3BED40F00202B
:1046E00008B50122064B83F80A2202F0F5FD03F01B
:1046F000CBFCFFF7E3FFBDE8084001F0DBB800BFEB
:10470000D40F002010B5064C064904F503700AF0DA
:104710001AFB04F504700449BDE810400AF013BB0D
:10472000D40F0020E4000020EC00002010B5094C5C
:10473000094904F503700AF006FB04F50470074903
:104740000AF001FB04F505700549BDE810400AF0C8
:10475000FABA00BFD40F0020FC00002004010020A2
:10476000F4000020014B93F80A027047D40F002098
:1047700038B5094C0D4601F097F8D4F80C02C4F88E
:1047800004510AF0D8FAFFF769FB01F0BBF90123E5
:1047900084F8183238BD00BFD40F0020014B93F8C5
:1047A00018027047D40F002010B50C4CD4F810023A
:1047B0000AF0C1FAD4F814020AF0BDFAFFF7FEFAC3
:1047C000202000F027F82F2000F024F8262000F009
:1047D00021F8002384F8183210BD00BFD40F002048
:1047E000014B83F819027047D40F0020014B93F856
:1047F00019027047D40F0020C2080549012300F0B8
:10480000070003FA00F08B5C18438854704700BF20
:1048100018000020C208054900F00700012383406A
:10482000885C20EA03008854704700BF180000200D
:10483000014BD3E90001704718000020054B1868B0
:10484000C0F3C022C0F30020400040EA820040F0E4
:10485000010070471800002008B50CF0FDFA002395
:10486000074A32F82310814205D302EB83039B7879
:10487000044A137008BD01330C2BF2D10023F7E773
:10488000E4BF0200EE110020024B187800F0070090
:10489000704700BFEE11002010B54468238884F8EB
:1048A000AD11A4F8AE3194F87C00FFF755F984F807
:1048B000B00194F87D00FFF74FF9054984F8B10184
:1048C00004F5D2700BF089F8002384F84C3110BD48
:1048D000CBED0000406807490388A0F8A03190F8AC
:1048E000743080F8A23190F8753000F2971003739D
:1048F0000BF06DB8E1ED00002DE9F7434568044683
:104900000F4695F89F3095F89E80242B2CD19F352B
:1049100038460BF00FF800284DD038460BF002F85F
:10492000814638460BF002F801460AF0A8FA66689C
:1049300048B396F87C30984225D096F84C21012A4D
:104940000CBF96F84E2196F87820114233D0B8F17A
:10495000220F18D096F87520114214D153B94FF494
:10496000F9710620FCF70CF9B8F1220F40F0C48071
:104970009E35CDE7032B01D0032832D1984294BF56
:1049800000200120B8B948460AF079FA00284BD037
:1049900096F87D30834247D096F84C31012B0CBFFE
:1049A00096F84F3196F8793019EA030F14BF0123B6
:1049B0000023002B38D1636893F84C21012A19D1C8
:1049C0001E212046FFF768FFB8F1220F20D1FA78A8
:1049D0006368182A83F8292110D040F269217E20CB
:1049E000C0E7042BCAD00428C8D098422CBF0020AE
:1049F0000120C7E7002283F84C21E5E70A2283F86B
:104A00009E2093F8DC30002B3CD140F27121E6E788
:104A1000002320462B700BF047F93946204603B09F
:104A2000BDE8F0430BF064B9304601AA39460AF0FC
:104A300031FA666880BB96F84C31012B29D1B6F863
:104A4000983006F5377296F87C10B6F850010AF0E7
:104A500088FA0646C0B901462046FFF71DFF2E70B2
:104A6000636803F19F02954202D1002283F89F20E0
:104A7000636803F19F0295424FF0000539D120464B
:104A80000BF012F9002038E06368282283F89E209A
:104A9000E6E786F84C01E3E738460AF049FFA6F856
:104AA000DC026068B0F8DC32B0F89820013B9B1A59
:104AB00047F6FD729BB2934207D9282380F8C13094
:104AC000B8300F490AF083FFD2E790F89F300E2BE1
:104AD00002D00B3B012B01D82A23EFE79DF80430CD
:104AE00080F8DE329DF8053080F8DF3226232B7007
:104AF000BEE783F8DC50C5E7022003B0BDE8F083D1
:104B000065600000044B002283F832204FF6FF72EC
:104B10009A86DA861A877047F0110020054B9A8E24
:104B2000824201BF002283F832204FF6FF729A863C
:104B3000704700BFF0110020014BD886704700BFBE
:104B4000F0110020094A03464FF6FF71908E88420B
:104B500006D192F83210012905D001201A60704761
:104B60000020186070470020704700BFF01100203F
:104B7000064B93F83220012A1BBF0120DA8E002059
:104B800083F8320018BF9A86704700BFF0110020EA
:104B9000014B1887704700BFF0110020064B0246FA
:104BA000198F988E884205D193F8320018B10120F0
:104BB0001360704700207047F0110020094B998E58
:104BC0001A8F914201D0002070474FF6FF729A86EB
:104BD00093F83220002AF6D00022012083F83220F8
:104BE000704700BFF0110020054B998E1A8F91423B
:104BF00003BF93F83200B0FA80F0400901207047FB
:104C0000F011002050B90A4A0120134603F8010BA5
:104C10000868C2F801008A889A807047012805D187
:104C2000034B0A68D8719A608A889A81704700BFDE
:104C30002A12002048B90A4B187880B1D3F8012015
:104C4000B3F805300A608B807047012806D1044B09
:104C5000D87920B19A689B890A60F4E700207047F0
:104C60002A12002020B9054B187800F00100704787
:104C700001280ABF014B0020D879F6E72A1200204C
:104C8000F7B58B8800228DF80600ADF8043008686F
:104C90000B4B8DF8072001461C7803F5AC73019D82
:104CA000D0B2844201D8082007E0D3E9007601326F
:104CB0000833AE4208BF8F42F2D103B0F0BD00BF4F
:104CC00038120020084B0146002230B55C7803F50D
:104CD0008173D0B2844201D8082004E013F8015B4C
:104CE00001328D42F5D130BD38120020F8B52D4C7F
:104CF00063782218013B92F80251DBB28342637061
:104D000030D01A010101961C8F1C2644274406F15D
:104D1000100C56F804EB664547F804EBF9D18232E3
:104D200082312244214402F1100652F8047BB2423F
:104D300041F8047BF9D1E118221891F8026182F858
:104D4000026106267343704303F5857300F5857091
:104D5000E618E35827182350B388BB8091F83A31FE
:104D600082F83A312846FFF7ADFF082818D123789A
:104D7000013BDBB29D42237012D02B3305F12B0295
:104D800004EBC30304EBC20293E8030082E80300D0
:104D90002078FFF797FF08281CBF241884F80251D9
:104DA000F8BD00BF38120020F0B5254D89B095F848
:104DB000984105F29911684622460CF03AFB2146CB
:104DC00068460AF07EF90446B8B300EB400102A839
:104DD000C9B2FCF703FB601E95F8A1610124C0B2C3
:104DE00095F8982105E0731CB3FBF2F102FB113337
:104DF000DEB206F120030DEB030111F8203C002B7D
:104E0000F1D100EB400201F8204C06EB46032032C2
:104E10002B446A4412F8187C83F8A27112F8177CAC
:104E200012F8162C83F8A37183F8A4210138AB196A
:104E3000C0B283F89941FF28D2D109B0F0BD00BFBC
:104E40003812002070B5064688B00C46002A4FD0B4
:104E50002A4A92F8A131D01890F8991121B94FF44B
:104E600080712820FBF78CFE03EB430101331144D2
:104E700091F8A251E57091F8A35191F8A411257110
:104E80006171002180F8991192F89811B3FBF1F04B
:104E900001FB103382F8A13192F8C23123B91849CD
:104EA00002F5DD700AF096FD65790D220021684655
:104EB00005F03F0545F0400565710CF0E5FAE37833
:104EC00004AA69468DF80F30304623798DF80D50CD
:104ED0008DF80E3004230CF0B1F99DF81F302370CB
:104EE0009DF81E3063709DF81D30A37008B070BD32
:104EF00003216018FCF772FAD6E700BF38120020D1
:104F0000A94D0000044B5A78824286BF1B1893F8C3
:104F10004A010020704700BF38120020044B5A7825
:104F2000824286BF1B1893F842010020704700BFE1
:104F300038120020064B00224FF461711A8083F86A
:104F4000C32183F8C421A3F8C61183F8C221704796
:104F500038120020014B83F8C4017047381200203A
:104F60002DE9F0478246894617469846FFF788FEA6
:104F700008280546064603D0FFF7A4FE082863D19B
:104F8000334C6378072B61D8082D18D12678731C11
:104F9000072E237003D96B212820FBF7F1FD06F1C2
:104FA0002B03D9F80000DAB204EBC30344F8320053
:104FB00004EBC201B9F804208A8083F806A0657862
:104FC00007F110026B1C290163704B1C234412F87B
:104FD000010DBA4203F8010FF9D1813108F1100334
:104FE000214413F8012D984501F8012FF9D12544EA
:104FF000102140460AF0ADF8102185F842013846EC
:105000000AF0A7F8002385F80261667885F84A015E
:1050100085F83A3131460F480AF053F805463146D3
:105020000D480AF04EF8012D03D8002818BF0135AD
:10503000EDB284F898510025284684F8A151FFF775
:10504000B3FE2846BDE8F0871220FBE70720F9E70A
:10505000381200207A13002082130020064B10B56E
:105060005878013840B2002800DA10BDC4B220469A
:10507000FFF73CFE601EF5E738120020014B83F875
:10508000C301704738120020014B93F8C3017047E9
:1050900038120020431E4AF2B7129BB293429DBFC2
:1050A000024BA3F8C60101200020704738120020EF
:1050B000014BB3F8C6017047381200200A4B30B5D7
:1050C0005C7884420ED9184490F802012B3003EB2F
:1050D000C004A5790D7053F8300010600120A3883A
:1050E000938030BD0020FCE73812002002460748BC
:1050F00010B590F8C34124B1417821B1023003F0DA
:10510000A7FE204610BD0C46FBE700BF381200206A
:105110002DE9F74F2F4C9A468046894663788342A3
:1051200056D9231893F8425185F00105F9B193F847
:105130004A31E3B945F002070135BAF1000F18D141
:10514000FA070AD5062104EB0810524601FB084174
:10515000823001F58571FFF775FEBB0734D504EB8E
:105160000810524649460230FFF76CFE2CE02F46ED
:10517000E3E794F8A1614FF0010B002DE0D0A319F3
:1051800093F89911019399B90092DAB100F08AFC71
:10519000019B06EB4601009A4FEA102C83F899B167
:1051A000214481F8A201000C81F8A3C181F8A40177
:1051B000013694F89831013DB6FBF3F103FB11661B
:1051C000F6B2DAE747F00407384603B0BDE8F08FDF
:1051D0000027F9E738120020074B5A78824209D994
:1051E0001A1892F842212AB9062202FB003000F573
:1051F000857070470020704738120020064B5A789F
:10520000824281BF1B1893F83A01B0FA80F040093E
:1052100098BF0020704700BF38120020F8B50E4636
:10522000074606211546304609F093FF044640B173
:105230000A482946427800F59D700CF025F9204671
:10524000F8BD3146384609F058FF08281FBF034B08
:105250000124C01880F83A51F1E700BF381200204D
:1052600030B5002442F21075A0F84240B0F8464034
:105270004C43B4FBF2F4A0F84640541E05FB034334
:10528000B3FBF2F3A0F84430084BB3FBF2F3013365
:10529000A0F84A30838F05FB0344436B5943B4FBAA
:1052A000F2F4B1FBF2F28463426330BD005A620251
:1052B00070B504460D4641BB4FF444720CF0E4F85F
:1052C000012384F8F85084F8A630492384F8F95073
:1052D00084F8F330042384F8F4306FF03B0384F84F
:1052E000F5306F2384F8F6306FF03F0384F8F73021
:1052F0002B2384F8F230FE2384F832317F2384F8A4
:105300009D30202384F8643270BD012917D1002319
:10531000A0F81E3280F813320D4BC26913441146B7
:10532000B3FBF2F3C0F8C83040F6B833A0F8CC3085
:10533000C38C04F19000BDE87040FFF791BF0229D3
:10534000E2D1B0F8EA32D0F8E422C169F1E700BF57
:105350007FC3C90170B504460D4641BB4FF42A72A4
:105360000CF092F8012384F8F85084F8A630492311
:1053700084F8F95084F8F330042384F8F4306FF0A3
:105380003B0384F8F5306F2384F8F6306FF03F0369
:1053900084F8F7302B2384F8F230FE2384F832317E
:1053A0007F2384F89D30202384F8313270BD012999
:1053B00012D1C2690C4B11461344B3FBF2F3C0F88F
:1053C000C83040F6B833A0F8CC30C38C04F190005C
:1053D000BDE87040FFF744BF0229E7D1B0F85E3264
:1053E000D0F85822C169F1E77FC3C901034B80F8A7
:1053F00080101B680BB10088184770470C01002013
:10540000074B93F900301844142804DC10F17F0F87
:1054100003DB40B27047142070476FF07E00704786
:10542000001400207F2307B50DF107008DF8073029
:1054300004F056FD9DF9073068B10A4A50784042A1
:1054400040B21844142808DC10F17F0F07DB40B28B
:1054500003B05DF804FB1846FAE71420F8E76FF094
:105460007E00F5E700140020024B00221A705A70EB
:10547000704700BF00140020054B1B7833B9054B63
:105480001A681B7902600371012070470020704781
:105490000214002020000020054BFF221A70054A4C
:1054A000016811600179117100221A70704700BF04
:1054B0000214002020000020064B07B518681B7955
:1054C000009068468DF80430FFF7E6FF03B05DF802
:1054D00004FB00BF112303000346407848B1DB788A
:1054E0003A2B05D8034AD35C1B1A584258417047DF
:1054F0000120704718C002003A2908B5C17003D8CE
:10550000064B5B5C437008BDFF2904D04FF48961F2
:105510002A20FBF735FB0123F4E700BF18C0020087
:105520002DE9F04385B089461446984602A909F052
:10553000F8FD054600283DD1039E34B9012486F8C4
:10554000A540204605B0BDE8F0837769214638467E
:1055500007F0F3FD014678B3194B5B88A3422DD3C6
:1055600001AA384607F02BFF96F8A5300198002BCA
:105570000CBF494602210AF0E9F80198224641464B
:1055800003300BF056FF2146384607F01BFE044659
:1055900018B97A212B20FBF7F3FA9DF808302BB1CC
:1055A00002A80AF0E8F9039BA3F80A52002386F840
:1055B000A530C6E70124C4E70446C2E72C46C0E78D
:1055C00004140020024B987FC04300F00100704794
:1055D00004140020034B987F80F00200C0F34000C9
:1055E000704700BF041400207FB505460C4621B962
:1055F00040F215111020FBF7C3FA03888B800023BB
:105600004B728669304607F0CCFE014610B94FF464
:105610008F71EFE701AA304607F0D1FEE08010B9A4
:1056200040F22311E6E7FB2802D940F22511E1E719
:1056300001980AF093F8012801D0022805D12072C0
:10564000206828B94FF49E71D4E740F23511D1E7B4
:105650000199E28803310BF0ECFE304607F0B7FE0B
:1056600010B940F24111C5E70021304607F00DFEA8
:1056700010B94FF4A371BDE70A4BDA7F82B11A8CDF
:1056800002A92888013A1A8409F04BFD10B140F2B2
:105690004F11AFE7039AB2F8B6300133A2F8B63033
:1056A00004B070BD0414002010B521B940F25B2194
:1056B0001020FBF765FA4A600B72EFF3108472B6A4
:1056C000031D0B6042681AB1127A012A08BF0360F9
:1056D00003681960016004B962B6034BBDE810406D
:1056E000587806F0C7BE00BF281400202DE9F34704
:1056F00006460D464FF005080027DFF850912B694C
:105700003BB11B7A2BB12C699CB9002002B0BDE8DB
:10571000F0876C68237A012BF7D0EFF3108372B611
:105720006A6812686A6003B962B6237A002BE6D011
:105730002C6194F808A05FFA8AFA84F808800AF1CC
:10574000FF330B2B74D8DFE803F0700612266D3D93
:105750004C3D3D3D3D60636823B940F2C7111020C8
:10576000FBF70EFA31462046984704201BE0636899
:1057700013B94FF4E871F2E73146204698470346E3
:10578000ADF80400C0B2C3F30723012B53D0022BA2
:1057900009D12F6151E0636813B94FF4ED71DEE771
:1057A000204698470020EFF3108372B6227A052A2C
:1057B000D1B201D0002944D127722F61002B3CD1F6
:1057C00062B63AE0D9F80030002BEBD052463146B1
:1057D00060689847BAF10A0FC7D100232B610420F3
:1057E00094E763680BB9DA21B9E70D22002432701F
:1057F000012219885869A6F803102146B270727107
:10580000B47107F042FD2C61E9E7606810B940F21D
:105810000521A4E70E4B31461B6898470023022060
:105820002B6173E740F20E2199E740F2112196E7D0
:105830004FF4057193E70323237200283FF45FAF11
:1058400064E7002B7FF45BAF62B658E714010020D9
:105850001001002070B5134C14260021231D324680
:1058600018460BF011FE0346012525740433324619
:10587000002104F11800C4E901330BF005FE84F89F
:10588000245004F11C03C4E906330023E3622363BC
:1058900084F83430C4F83530C4F8393084F83D30F9
:1058A00070BD00BF28140020014B5870FFF7D2BF15
:1058B00028140020014B024A1A6070471001002092
:1058C000E955000038B50B4D044605F11801FFF706
:1058D0000DFF70B9AB681B7A0C2B04D1064BDA7F35
:1058E0000AB11B8C2BB120460449BDE83840FFF7B4
:1058F000FDBE38BD28140020041400202C14002004
:10590000134610B5027A22B14FF42D711020FBF727
:1059100037F9072B0A46014614BF03480348BDE880
:105920001040FFF7C1BE00BF2C140020401400201F
:10593000044890F834301BB903492C300AF044B8BD
:10594000704700BF28140020BBF900001346027AFC
:105950000AB1037270470A4601460148FFF7A4BE28
:105960002C1400201B234FF01B12838403848261BC
:105970008382C260038541B94FF4A473094AC3848A
:105980004384C261C382026170474FF429634FF4BC
:10599000A472C384438403F12963C282C361036197
:1059A000704700BF4801480103460846B3F8682025
:1059B000B3F85C10B3F852C08A42F0B493F87D405B
:1059C00028BF0A46B3F86060B3F86A10033CB3F826
:1059D0005870B142E4B2B3F8565028BF3146012C9A
:1059E000A3F852208BBFB3F85A604FF429660C46D7
:1059F0004FF429649742A3F8564038BF17468E42A9
:105A000038BF0E469445A3F85870A3F85A6026D1C3
:105A10002C1B18BF0124B3F86420B3F85E50B3F810
:105A200050609542B3F8541028BF154693F87C2077
:105A3000033A012A15D9B3F86220B3F86670BA4266
:105A400028BF3A46AE42A3F85050A3F8542002D1E2
:105A5000914200D144B10549F0BC09F0BEBF012418
:105A6000D9E74FF42962EDE7F0BC7047E1F9000097
:105A70000B8BA2F809001046A2F80B304B8BA2F852
:105A80000D308B8BA2F80F30CB8B0249A2F811306E
:105A900009F09DBF43FA0000014B1878704700BF22
:105AA00066140020094AD2E90003434083EAB0119A
:105AB00081EA43214FEAF34311605360044B58439A
:105AC0004FEAF06000EB8000704700BF68140020D0
:105AD000BB79379E094AD2E90203434083EAB011F9
:105AE00081EA43214FEAF3439160D360044B58436A
:105AF0004FEAF06000EB8000704700BF68140020A0
:105B0000BB79379E38B50A4C04F1080508212846B0
:105B1000FBF764FCD4E902231343F7D0FFF7DAFF65
:105B20002060FFF7D7FF236860600343F6D038BDDD
:105B300068140020174B184A9A60184A5A60184A8D
:105B40001A60184A9A62184ADA62184ADA60184AE1
:105B50009A61184A1A63184A1A62184ADA64184A8B
:105B60009A64184A5A62184B184A9A60184A5A623C
:105B7000184ADA62184A1A61184A5A61184A9A6130
:105B8000184A1A63184A9A64184ADA64184A9A63D7
:105B9000704700BF1801002049FD0000216100008E
:105BA0007D610000F5FE0000A9FF000031FF00004C
:105BB000BFFF0000AD640000F9620000D1000100E9
:105BC000F900010071630000040200206BFD000079
:105BD0007D000100E1FF000065620000050001009A
:105BE00099620000B7010100570101003B0101006B
:105BF00063000100044B054A5A65054B054A1A65C6
:105C0000054A5A65704700BF18010020B9FD000021
:105C1000040200209FFD000041FE0000054B064AE3
:105C20009A65064A1A66064B064A9A65064ADA6576
:105C3000704700BF180100209DEF0000F9480000E8
:105C40000402002065EE000045F00000392A73B51B
:105C500005460C463DD8392A3ED8DFE812F042000E
:105C600083008D009900B10097009700C000C2002A
:105C7000C80097009700CD00D800C2003D003D004D
:105C8000DC0097009700F800F800FF000601120101
:105C90003D003D0031014E015B0161016701720170
:105CA00074017601780183018B01BE01C0013D00C2
