:10000000C0150020D10600000F3D0000BD06000015
:10001000BD060000BD060000BD0600000000000097
:100020000000000000000000000000008508000043
:10003000BD0600000000000051080000BD060000E1
:10004000110A0000110A0000110A0000110A000044
:10005000110A0000110A0000110A0000110A000034
:10006000110A0000110A0000110A0000110A000024
:10007000110A0000110A0000110A0000110A000014
:10008000110A0000110A0000110A0000110A000004
:10009000110A0000110A0000110A0000110A0000F4
:1000A000110A0000110A0000110A0000110A0000E4
:1000B000110A0000110A0000110A0000110A0000D4
:1000C000110A0000110A0000110A0000110A0000C4
:0C00D000110A0000110A0000110A0000D3
:1000DC0008B50349034803F04BFA002008BD00BFE4
:1000EC007447000085470000014B1B68184700BF90
:1000FC000000002030B585B004460D4610220021CA
:10010C00684604F0C1F902238DF802302A46044BEC
:10011C0001932146684603F03DFA05B030BD00BF9F
:10012C00F5000000014B1860704700BF0000002074
:10013C0080B505460E461746984603F033F803463D
:10014C0004F0AAF9DFF81890044649F8003042464A
:10015C0030463946A84754F8090000F021FB00BF8F
:10016C00080000002DE9F047058B0446280790464F
:10017C0011D4022905F0070540F0CC80204603F08D
:10018C00DEFC78B10138218B042811D8DFE800F0AF
:10019C00C2106D85950001290CBF45F0100545F086
:1001AC002005258388F31188BFF36F8FBDE8F08796
:1001BC0001F0070AAA4500F0A5800027B9463E4683
:1001CC00A368002B00F0BC8041F00801218388F368
:1001DC001188BFF36F8FA168002900F0BA800D68F9
:1001EC00002900F0B680D1F80480334652462046F0
:1001FC00C047002D76D02B6829461D46F0E701F04C
:10020C0007035A1F012A1BD8002221F00701062BD5
:10021C00276889B2C4E9002209D13B4603E0628B0E
:10022C00013262831B68002BF9D141F0020121835A
:10023C00204603F084FC00287AD041F0200176E0BF
:10024C00042B0AD121F0070189B22183204603F047
:10025C0076FC10B141F020012183218B01F0070ABB
:10026C00AA454FD00027B946AAE7236921F0070118
:10027C0041F00601062DD3F8009021832DD1B9F160
:10028C00000F3FD041F00801218388F31188BFF3A0
:10029C006F8F3A492046C84729E021F007012369AE
:1002AC0041F0040189B2042DD3F804902183E6D0E7
:1002BC0000273E464FF0040A82E721F0070123692C
:1002CC0041F0050189B2052DD3F808902183D6D0D1
:1002DC0000273E464FF0050A72E700273E464FF0D6
:1002EC00060A6DE72B4687E7B9F1000FD1D1EFF382
:1002FC001188202383F31288BFF36F8F238B23F095
:10030C0008032383258BEA062ED525F010032383BF
:10031C0005F007056669218B002EBFF670AF002330
:10032C002768C4E9003321F0070141F00101218362
:10033C00218B01F0070AAA454FF000097FF440AF6A
:10034C00002F9CD041F00801218388F31188BFF362
:10035C006F8F002FC8D03D68394633465246204631
:10036C0003F019FC2F46F4E7AB067FF51BAF25F025
:10037C002003238305F0070500E700BFCF3B0000F7
:10038C00014B0360002070477846000008B5044814
:10039C0003F0C8FBBDE80840024803F0C3BB00BF34
:1003AC0096470000CB47000030BFFFF7FDBF00BFF2
:1003BC002DE9F0410B4EDFF8308006EB0807CC1B23
:1003CC00054632460949204604F050F8A019424629
:1003DC000021083C04F058F82C6707F10800BDE830
:1003EC00F08100BF00000000040000006446000023
:1003FC00074A936893F90E10002907DB5269934260
:10040C001FBF044A536843F080535360704700BFCA
:10041C00B803002000ED00E070B5264B15469A6A33
:10042C0012F0100F9A6A14BF1124102412F0080F46
:10043C009A6A18BF1224920706460AD5586B9A6A14
:10044C00140634D519B19A6A22F080029A621324E8
:10045C0001E06FF01500174B9A6A12F0010F9A6ABF
:10046C0018BF142412F0200F9A6A18BF1524D20654
:10047C0002D49B6A9B070AD50E4B5B68190506D5FF
:10048C00314600F075FA10B180F309880224094B4B
:10049C009A6A920642BF5A6A22F400525A629A6AC7
:1004AC0042F0FF029A6200232B70204670BD6FF061
:1004BC001500CCE700ED00E0134B9A6A12F0007FB8
:1004CC009A6A14BF1E201D2012F0807F9A6A18BFF2
:1004DC001F2012F4002F9A6A18BF212012F4802FCB
:1004EC009A6A18BF222012F4003F9A6A18BF232080
:1004FC0012F4803F9A6A6FEA02426FEA12429A62E1
:10050C0018BF2420704700BF00ED00E010B5194B58
:10051C000246986A9C6A10F4805F14BF172016205C
:10052C0014F4006F9C6A18BF1820A40509D5986BA9
:10053C00986A000404D51AB19A6A22F400429A62AD
:10054C0019200C4B9A6A12F4806F9A6A18BF1A2001
:10055C00D2050CD49B6A13F4005F18BF1C20054A0B
:10056C00936A43F47F43936200230B7010BD1B20EE
:10057C00F5E700BF00ED00E0F0B5484B5B688BB0D1
:10058C000446C3F30803002585F31188BFF36F8F6E
:10059C0002F07F40B0F17F4F11D102F00C0008281F
:1005AC000DD010074CBF0C4601250022033B8DF8E3
:1005BC000720032B05D8DFE803F0246367602C4683
:1005CC00F3E700239DF80720CAB902AE04F1200717
:1005DC0020686168324603C20834BC421646F7D123
:1005EC00099A002D54D0C2F3080121B96FEA5222A6
:1005FC006FEA4222099202A9184603F078FB0BB06D
:10060C00F0BD264BDA6A9107DBD4DA6A002AD8DB14
:10061C00DA6A5200D5D55A69A16942F480725A61DE
:10062C00BFF34F8FBFF36F8F5A6931F8021C22F45E
:10063C0080725A61BFF34F8FBFF36F8F4DF602720A
:10064C0091420AD09A6AD2B24AB10DF10702012145
:10065C002046FFF7E1FE0346B4E72368B2E79A6A47
:10066C0012F47F4F05D00DF107010120FFF74EFF6B
:10067C00F1E79B6AB3F5803FA3D3FFF71DFFEAE7D1
:10068C000DF107020021E3E70DF107010020EDE772
:10069C0022F4FF7222F00102ACE700BF00ED00E093
:1006AC00024A536943F010035361704700ED00E0B8
:1006BC00EFF30880EFF3098101B57246FFF75CFF99
:1006CC0001BD00BF002080F31488BFF36F8F01F0D1
:1006DC00F7FA00200D490860BFF34F8F0C4880F3E8
:1006EC00088800F02BF8202080F3118809484FF47B
:1006FC000461401880F30988EFF314800221084349
:10070C0080F31488BFF36F8F00F0FAF894ED00E0DB
:10071C00C0150020000800200749D1F890200023C4
:10072C00C2F307221846934200DB7047C1F8983099
:10073C00C1F8A0000133F6E700ED00E008B572B691
:10074C00002383F31388FFF7E7FF144B4FF0FF32BE
:10075C00C3F88020C3F88420C3F88820C3F88C2009
:10076C00C3F89020C3F89420C3F89820C3F89C20B9
:10077C00C3F88021C3F88421C3F88821C3F88C21E5
:10078C00C3F89021C3F89421C3F89821C3F89C2195
:10079C0062B6BFF34F8FBFF36F8F08BD00E100E06F
:1007AC00084B9B6883420BD1EFF3058343B1064B97
:1007BC005A6842F080525A605A6A22F400425A62D5
:1007CC0003F0B6BDB803002000ED00E0094A9368C1
:1007DC006FF00A019967084958674B6843F08053DA
:1007EC004B60002383F31188BFF36F8F9368986F6E
:1007FC00704700BFB803002000ED00E010B50446C0
:10080C00EFF31183202383F31288BFF36F8F0A4B0E
:10081C0058699860094B4FF000625A60084B026FA0
:10082C001A600022436F426783F31188BFF36F8F06
:10083C0000F006F9204610BDB803002000ED00E0E2
:10084C00680200200B498A684FF030001044EFF327
:10085C00098C80E8F01F74467046FFF7CFFFA64660
:10086C0004498A6802F1300090E8F01F8CF3098883
:10087C0070470000B80300201EF0040F0CBFEFF30C
:10088C000880EFF30980816911F8021C0229FFD05E
:10089C0001B503F032FA01BD40B2002807DB044A6F
:1008AC004109012300F01F00834042F821307047BA
:1008BC0000E100E0054B420900F01F0053F8222034
:1008CC00012303FA00F01040704700BF00E100E084
:1008DC0040B20028A8BF00F1604001F10101B8BF8F
:1008EC00064B4FEA4111ACBF00F5614000F00F0020
:1008FC00C9B2B4BF195480F80013704714ED00E06E
:10090C000B4A08B50B4B22F07F029A60BFF34F8F56
:10091C00BFF36F8FD3F8882022F47002C3F88820BD
:10092C0002F09CF802F0CAFC00F060F802F0DAF871
:10093C000000000000ED00E042F8203C009B42F873
:10094C001C3C0A49019B42F8183C029B42F8143C9F
:10095C0021F001014FF0807342F8043C42F8081C6E
:10096C000023203A02654367704700BF3D01000039
:10097C00094A0346906870B113F1160F006E05D04A
:10098C00A0F140029A4205D8834203D2814228BF8B
:10099C000020704700207047B803002008B51546AA
:1009AC000B4A0C4B9060026F1A600E4600F048F830
:1009BC002C4686F309884FF00000074B98472046D9
:1009CC004FF000014FF000024FF00003034C2047A2
:1009DC00B803002068020020253D00003D01000006
:1009EC00014B10221A61704700ED00E0044800230F
:1009FC002021C2180133272B82F80013F9D170473C
:100A0C0000E100E008B5EFF30583064A103B02EB6A
:100A1C00C30152F8330049688847BDE80840FFF726
:100A2C00E7BC00BF2C450000024B034A03480121E0
:100A3C0000F076B80000012000000020784600008D
:100A4C00026E054B403A1A60044A4021C3E9011278
:100A5C001846012100F06EB86C02002000000B1546
:100A6C00084AC2F898000B6823F01F03034343F0B5
:100A7C001003C2F89C308B6843F00103C2F8A0301D
:100A8C00704700BF00ED00E02DE9F043DFF8608017
:100A9C0085B00E461F4604464FF00009B14523DAD7
:100AAC006068D8B13FB1411E08421BD11F2819D92B
:100ABC002368194216D12368019303F050F9A368F7
:100ACC0003430393D8F89050C5F30725D0B2013DEA
:100ADC00A84207D801A9FFF7C3FF421C09F101097D
:100AEC000C34DBE76FF01502104605B0BDE8F0835F
:100AFC0000ED00E0044B0522C3F89420BFF34F8FA8
:100B0C00BFF36F8F704700BF00ED00E0BFF35F8F46
:100B1C00024B0022C3F89420704700BF00ED00E0A8
:100B2C0010B5034C01232278FFF7AEFF207010BDE7
:100B3C00E803002008B50B4A00231278FFF7A4FF46
:100B4C0010F1160F07D0084A0021D2F89030C3F3E9
:100B5C000723984200DB08BDC2F89800C2F8A01029
:100B6C000130F2E7E803002000ED00E02DE9F0434E
:100B7C00534B544CD3F890302568C3F307239D4254
:100B8C0085B000F29A80FFF7C1FF00200C26854249
:100B9C001AD14D4C4D4F25706846FFF7F1FBDFF82D
:100BAC002081DFF82C9106460025AE4213D1237824
:100BBC0043490020D1F89020C2F30722934276DB00
:100BCC00FFF798FF002042E0616806FB0011FFF779
:100BDC0047FF0130DBE7009800EB05114FEA051CDD
:100BEC00CB683B40B3F5000F48D00AD8B3F5001FD3
:100BFC0030D0B3F5800F36D0B3F5801F10D001354F
:100C0C00D3E7B3F1807F42D0B3F1007FF7D150F836
:100C1C000C3088684A6803F0A2F840F4802009E0A0
:100C2C0050F80C3088684A6803F099F840F0885006
:100C3C0040F43020CDE901230390D8F8903020788F
:100C4C00C3F30723013B98422AD96FF0150005B076
:100C5C00BDE8F08350F80C3088684A6803F07FF8E0
:100C6C0040EA0900E6E750F80C3088684A6803F05F
:100C7C0076F840F0E06040F40030DBE750F80C30E0
:100C8C0088684A6803F06BF840F08270D2E750F83D
:100C9C000C3088684A6803F062F840F08870C9E745
:100CAC0001A9FFF7DDFE237801332370A7E7C1F814
:100CBC009830C1F8A00001337CE74FF0FF30C6E755
:100CCC0000ED00E084460000E80300200000F0FF87
:100CDC000000081108B5024B1B689847002008BD9E
:100CEC0078020020034B044A1860937843F0020307
:100CFC0093707047780200200400002008B5064964
:100D0C00064821F00701C1F1005202F5803202F0D1
:100D1C00CAFE002008BD00BF071600207C02002080
:100D2C00044A0123C2F840354FF080420020C2F83B
:100D3C007835704700E0014020B1034B800143F04F
:100D4C0001031847704700BF70460000084B70B590
:100D5C00C31A0D4607499B100446594306484022C6
:100D6C0003F01BF82B4601462046BDE8704018479F
:100D7C009C020020B76DDBB6F044000073B50C4C40
:100D8C000C4A4023041B00930D460B460A49A41041
:100D9C0061430646094803F02CF8011E05DA30467B
:100DAC002B4602B0BDE87040184702B070BD00BFC2
:100DBC009C020020693E0000B76DDBB6F0440000D9
:100DCC00002270B5012104461046FFF781FD0F4843
:100DDC0001F05EF90E4B984215D101F069F92669C4
:100DEC000C49304602F0FAFE00280BDB0125356475
:100DFC002469084904F11C0002F0F0FE002801DB14
:100E0C00E564002070BD6FF00400FBE7750F000077
:100E1C000000AD0BA84600001FB500220123CDE950
:100E2C000223094ACDF800D06B46CDF804D003F06C
:100E3C000EF8002805DB4FF480420023684601F0D1
:100E4C00E3FE05B05DF804FB813E000010B5074CD5
:100E5C0023782BB94FF4A57003F07DF9012323708F
:100E6C00BDE81040002001F035B900BFE9030020B7
:100E7C0010B5EFF31184202383F31288BFF36F8F27
:100E8C00074A136823F00201DB07116002D401202A
:100E9C0003F0E4F884F31188BFF36F8F10BD00BF2B
:100EAC00EC02002030B4104B0C2202FB0033014644
:100EBC000020D3E90E529863EFF31180202484F3C1
:100ECC001288BFF36F8F1C6C04F0C00444F0020452
:100EDC001C6480F31188BFF36F8F1DB12B46034840
:100EEC0030BC184730BC70479C020020F044000016
:100EFC0010B4EFF31182202383F31288BFF36F8FAA
:100F0C001748016841F002040460C80707D482F353
:100F1C001188BFF36F8F012010BC01F0DBB84FF0CC
:100F2C008041D1F80C04D1F80C14C907EFD5EFF3BC
:100F3C00118083F31288BFF36F8F0A490B6C03F097
:100F4C00C00343F002030B6480F31188BFF36F8F6F
:100F5C0082F31188BFF36F8F002010BCFFF7A2BF84
:100F6C00EC0200209C02002010B1012804D0704734
:100F7C00034B1B6C5B0701D1FFF794BF704700BF9D
:100F8C009C0200202DE9F0413849BFF35B8F0746E6
:100F9C00012251E8003F41E800200028F9D1BFF3BD
:100FAC005B8F33B9324933484B60CB608A6002F0B7
:100FBC0028FE7B1E012B2BD8012F07D14FF080432D
:100FCC00D3F81C3403F00303012B21D003F005F9F3
:100FDC000546F8B9284B1B78E3B14FF08043022249
:100FEC00C3F808230646DFF894804FF08044D4F809
:100FFC001824D4F81834D20315D503F00303012BAD
:10100C0001D0012F0FD155B386F31188BFF36F8F29
:10101C00BDE8F081EFF31186202383F31288BFF330
:10102C006F8F0125DFE7ADB1304602F089FED4F8B1
:10103C001835002BDBD1D4F80421002AD7D0C4F802
:10104C000431D4F804310123C4F81835C8F88031C0
:10105C00A360CCE70021212002F086F8E7E74FF0EF
:10106C0080430222C3F80423D2E700BF9802002079
:10107C0088020020B8020020FC07002000E100E0FC
:10108C0008B5074803F06CF838B10648FFF72AFE9C
:10109C000448FFF747F8002008BD6FF01200FBE78B
:1010AC0018450000B51000000A2838B5074D044655
:1010BC0004D1AB680D215B6828469847AB680348A0
:1010CC005B68E1B29847204638BD00BF1845000068
:1010DC0038B545682B69B3B11035284601F0E6FAEE
:1010EC00044680B90146284601F0ACFA084B9842F8
:1010FC000BD108492246284601F08CFA22460521DC
:10110C000620FFF7E5FB002038BD6FF00400FBE77D
:10111C000000AD0B25110000430970B507D10B4B36
:10112C00596821B101250C68094E854001B970BD83
:10113C008A682A4002D04B68304698471CB1236815
:10114C0021461C46F2E72346FAE700BFF0020020D6
:10115C00044500002DE9F043476840F20636D006FE
:10116C003B7B87B002EA060654BFC2F34010032053
:10117C0001F01F05B6F5837F144645EA43158DF83B
:10118C00030042D00FD8062E18D007D8B6B1022EC5
:10119C003DD06FF0150007B0BDE8F083B6F5807F49
:1011AC00F7D101260AE040F20222964231D0B6F580
:1011BC00407F30D0B6F5007FEBD1022622032CD530
:1011CC007A6801238B40C2F808353B696BBB05F08C
:1011DC001F026D0976D1920002F1A04284F4803195
:1011EC00D2F80037C1F30041C4F3404423F4E16367
:1011FC0044EA410423F007031C4344EA800444EA14
:10120C000624C2F800470020C5E70726D6E70426C7
:10121C00D4E70526D2E70326D0E7630341BF0123B9
:10122C007A688B40C2F80C35CFE710370DF102020B
:10123C002946384601F0F4F914F4403F80460CD1AD
:10124C002946384602F07CFF214B9845DBD19DF8AE
:10125C000210384601F034FAD5E701AB4FF0000923
:10126C0003AA29463846CDE90439CDE90199CDF8D0
:10127C000C9001F0A9F8164B98428AD114F4003363
:10128C0015D09DF803308DF80E3084F48034C4F3FF
:10129C0000444B4603AA294638468DF80C608DF85D
:1012AC000D4001F041F90A4B9842CDD071E7CDE9E0
:1012BC00043303AA0DF1030329463846039301F0C6
:1012CC0083F8F0E702F5E07253F82230FFDE00BF3E
:1012DC000000AD0BF0B54068057B01F01F0444EA3B
:1012EC004514056987B0002D60D0B2F5001F00F1E0
:1012FC00100506D12146284602F024FF002007B035
:10130C00F0BD01AE0027B2F5800F0197776038D1A0
:10131C00B3F1007F14BF052304238DF804300023A0
:10132C00CDE904630393836823FA01F111F0010101
:10133C0019D1B2F1A07F16D104F01F03620903F595
:10134C00E07339D14FF0A04252F82330DB070AD4B6
:10135C000DF1030632462146284601F061F9184B7F
:10136C00984219D0029603AA2146284601F02CF87F
:10137C00144B98421DD101222146284601F0ACF9AC
:10138C00BCE7B3F1C06F05D0B3F1007F14BF0123EC
:10139C000223C2E70323C0E73146284601F096F941
:1013AC00084B9842DED06FF00B00A8E76FF0850079
:1013BC00A5E76FF01500A2E751F82330FFDE00BF60
:1013CC000400AD0B0000AD0B2DE9F0435B4E5C4F00
:1013DC0000EB810140F2FF15814202D10020BDE8F3
:1013EC00F083046814F4804FC4F3C32CC4F30803D3
:1013FC0040F09080640C16F80CC0AB4208BF4FF064
:10140C00FF33192C00F28980DFE804F00D13191C4E
:10141C001F251C87878787366387878787878787FA
:10142C008787667B7E81C2F80C355C1C5ED10430EC
:10143C00D2E7C2F814355C1CF9D000245FE0C2F886
:10144C000835F2E7C2F81035F5E75C1CC2F8083530
:10145C00EDD0002404E05C1CC2F80C35E7D001246C
:10146C005FEA531E5CD14FF001084FF0A04E08FA12
:10147C0003F9CEF80C950AE0C2F80835BCF1000F60
:10148C00D9D15C1CD3D00024A0464FF0060CD0F868
:10149C00009009F4004EBEF1000F1CBF4FF0000885
:1014AC00012403F01F0E5B0942D14FEA8E0E0EF1A0
:1014BC00A04EC9F34129DEF800373B4043EA8903CB
:1014CC0043EA0C2343EA080343EA4403CEF800370B
:1014DC00ADE7C2F80C35D1E7C2F86035B3F1FF3F88
:1014EC000468A4D0C4F30044002CB8D05C091BD110
:1014FC0001244FF0A04E04FA03F8CEF80885A0465C
:10150C00C5E7C2F86435E9E7C2F86835E6E7C2F822
:10151C006C35E3E76FF0150061E76FF085005EE76F
:10152C000023C3F80C35FFDE0023C3F80835FAE7B7
:10153C000EF5E07E002353F82E30F4E7254800002A
:10154C00F0F8FCFF2DE9F3410022064601210220B0
:10155C00FFF7BEF90220FFF79FF9776835693C6801
:10156C000021C4F800152E60D7F80C8001AA404663
:10157C0002F0D8FC0028C0F2CC80019BD8F80020E7
:10158C0019791868FFF720FF0028C0F2C2806B7A27
:10159C00012B26D1AB7A032B23D1E87A08B1012891
:1015AC001FD12A7A12B1022A1BD10E226B687168E4
:1015BC00B3F5164FD1F800C000F0AE8032D8B3F5B9
:1015CC00165F00F0AC8018D8B3F5966F00F0A980C8
:1015DC000AD8B3F5967F00F0A780B3F5167F00F01C
:1015EC00A6806FF0850094E0B3F5166F00F0A28032
:1015FC00B3F5965FF5D15B4B41E0B3F5E14F00F0ED
:10160C009C8008D8B3F5615F00F09980B3F5964FD4
:10161C00E7D1554B33E047F612218B42E1D14FF421
:10162C0000032CE0B3F5613F00F08B8015D8B3F5C7
:10163C00963F00F089800AD84DF6C0218B4200F00D
:10164C008580B3F5614FCCD14FF46B0317E0B3F544
:10165C00E13FC6D14FF0EB7311E0B3F5612F78D0B9
:10166C0008D842498B4277D0B3F5E12FB9D14FF06E
:10167C00E86304E03E498B42B3D14FF080533169AB
:10168C00CCF8243573681B680243C3F86C250B1D1A
:10169C00D5E9010183E803007B68990712D505F1B0
:1016AC00180001F013F9334B984258D1287E04F1FD
:1016BC000C0204F5907102F0C7FC2B7E01209840BF
:1016CC0000F07EFC0823C4F800353B7A53B9C4F80B
:1016DC001031D4F810316B69C4F834350123C4F8D7
:1016EC00383523607B689A075CBF4FF48073C4F86D
:1016FC0004337B68DB0644BF4FF48003C4F8043327
:10170C002B69C4F8443500200123C4F84805A360B4
:10171C00E36002B0BDE8F0814FF41D03AFE7164B58
:10172C00ADE74FF49E23AAE74FF4A033A7E74FF49D
:10173C001C33A4E74FF41D23A1E7104B9FE7104B7C
:10174C009DE74FF06C739AE70E4B98E74FF46503E7
:10175C0095E74FF0706392E74FF080638FE76FF07F
:10176C000400D6E700B0130000A04E0090D0030098
:10177C0040420F000000AD0B0050270000C0750068
:10178C0000F03A0000903A012DE9F0410446076957
:10179C000D4602F022FD4FF02008B0B92C4B1B78FF
:1017AC009BB16426606802F0EBFBF0B9012002F0FB
:1017BC0049FC013EF6D10021212001F0D5FCF0E7D7
:1017CC0086F31188BFF36F8FF5E7EFF3118631467F
:1017DC0088F31288BFF36F8F606802F0D1FB80B979
:1017EC0086F31188BFF36F8FEFE7EFF31186314665
:1017FC0088F31288BFF36F8F606802F0C1FB00287A
:10180C00DED03B691D70626838691368C3F8440503
:10181C000120C3F848050020C3F82001D3F820515B
:10182C00C3F858015268D3F85801D20608D562683B
:10183C0012680820C2F800054FF48002C3F8042394
:10184C0001229A6081F31188BFF36F8FBDE8F0819C
:10185C00FC07002070B5012383400E4ABFF35B8F59
:10186C00DC4352E8001F01EA040542E80056002E52
:10187C00F7D1BFF35B8F4FF4803282400648C0F83B
:10188C000823BFF35F8FBFF36F8F0B4214BF012090
:10189C00002070BD000300200010014070B40E4900
:1018AC00D1E90034D01AC31844F1000422F07F4669
:1018BC00C1E90034A6F50013B3F5400F09D2074B6C
:1018CC001B681A0A1B069C19054B42F10005C3E95B
:1018DC00004570BC01F0CCBDB80000200403002012
:1018EC00C000002011B3BFF35B8F0123104A83406B
:1018FC0052E800CF4CEA030C42E800C10029F7D1B2
:10190C00BFF35B8F0B4A4FF480338340C2F8043330
:10191C00094BBFF35B8F1B68BFF35B8FC340DB07C7
:10192C0042BF064B4FF40032C3F80021704700BF92
:10193C000003002000100140FC02002000E100E048
:10194C000D4B1868010A0006BFF35F8F0B4BD3F8E1
:10195C000435181841F10001B3F5801F0AD2084B69
:10196C00D3E90023904271EB030303D210F1807092
:10197C0041F10001704700BF04030020001001403A
:10198C00C00000202DE9F04F85B016461F469DF88B
:10199C0040A00446FFF75EFF0190FFF7D1FFB04275
:1019AC0071EB070354D23E4B301A67EB010198429E
:1019BC0071F100014FD23B4B03EB0413D3E902232B
:1019CC009F4208BF96425ED037494FF4803804F1ED
:1019DC00500508FA04F8AD00C1F848832046ADB2B2
:1019EC0002F015FB26F07F4B05F1804504F5A8733A
:1019FC0005F58835DC464FF003090293029A2CF06A
:101A0C007F4341F82230C1F84483D1F80435274A8A
:101A1C006FF00200C01A604420F07F40904232D92F
:101A2C00286868B1D1F804350393A3EB0B0020F0C0
:101A3C007F40B0F5000F26D9204602F0E8FA039B50
:101A4C00BAF1000F07D109EB030C09F10109D5E735
:101A5C00BAF1000F09D06FF0150520460199FFF778
:101A6C0041FF284605B0BDE8F08F0123104ABFF3B3
:101A7C005B8FA34052E8000F184342E80001002995
:101A8C00F8D1BFF35B8F07490E98230101EB0412C9
:101A9C00C8500F9B5360C2E902670025DDE700BF09
:101AAC0001008000A800002000100140FDFF7F0015
:101ABC00FC0200207FB51C4C1C4BC4F80833C4F846
:101ACC0048331B4B00254FF0FF304FF0FF31C4F86B
:101ADC000855C3E902014FF48033C4F80433154BA5
:101AEC0002264FF400320121C4F804631120C3F81C
:101AFC0080212A46FEF7ECFE1120FEF7CDFE0E4AA1
:101B0C000123A360236013600C4B0D4A0093CDE9B5
:101B1C00015500232846FFF735FF3046FFF732FA10
:101B2C00284604B070BD00BF0010014003000F0038
:101B3C00A800002000E100E000030020A91800002C
:101B4C00FFFF7F002DE9F7432F4CD4F8043399079E
:101B5C000BD5D4F8043143B12C4A0023C4F804311A
:101B6C00D4F80431136801331360D4F80433DA0366
:101B7C0029D5BFF35B8F264B53E8002F22F00101D0
:101B8C0043E800100028F7D1BFF35B8FD30702D4D2
:101B9C00D4F84031BBB10025C4F84051D4F84031E1
:101BAC00FFF7CEFEEFF31182202383F31288BFF3ED
:101BBC006F8F184BD3E90267B042B94106D282F35A
:101BCC001188BFF36F8F03B0BDE8F0834FF0FF387F
:101BDC004FF0FF39C3E90289D3E900101D604FF4BF
:101BEC008033C4F84833C4F84051D4F8403182F300
:101BFC001188BFF36F8F0029E5D0009032463B4629
:101C0C0028468847DFE700BF00100140040300208E
:101C1C00FC020020A800002030B5431C124C85B0FB
:101C2C0005D08442A8BF0446012CB8BF0124FFF79D
:101C3C0087FE0E4B0C4DD3E90013401AB0F5000F84
:101C4C0010D22218AA4228BF2A4652184FF0000080
:101C5C0007490091CDE9010043F10003FFF792FE23
:101C6C0005B030BD2A46F0E7FFFF7F00B80000202A
:101C7C00A918000008B5FFF763FE024B1B68C01AD9
:101C8C0008BD00BFB80000204FF0704393F8E02F60
:101C9C00062A09D1D3F8E83FC3F30313033B042B03
:101CAC0002D8024AD05C7047002070474A480000B6
:101CBC00024AD2F80034002BFBD0704700E0014000
:101CCC0010B502F0B0F940B14FF080538E4AD3F802
:101CDC002433C3F30423C2F84035FFF7D5FF10B10A
:101CEC008A4B8B4A5A6702F09EF948B14FF08053E9
:101CFC004FF08042D3F84432C3F34233C2F83C3540
:101D0C00FFF7C2FF30B1834AD2F8FC3023F0807366
:101D1C00C2F8FC3002F087F940B14FF0804300224A
:101D2C00C3F80C21C3F81021C3F83825FFF7ACFF1A
:101D3C0020B14FF080430322C3F8A025FFF7A4FF86
:101D4C0060B1754B0522C3F810260122C3F8882612
:101D5C000022C3F818263F22C3F814264FF08053F4
:101D6C00D3F83021511C09BF4FF07043D3F83431F4
:101D7C0093F8E02FD3F8E83F08BFC3F30313062A08
:101D8C004DD1033B042B03D8644AD35C002B46D0C3
:101D9C004FF08052624BD2F80414C3F82015D2F8DD
:101DAC000814C3F82415D2F80C14C3F82815D2F86B
:101DBC001014C3F82C15D2F81414C3F83015D2F83B
:101DCC001814C3F83415D2F81C14C3F84015D2F803
:101DDC002014C3F84415D2F82414C3F84815D2F8CB
:101DEC002814C3F84C15D2F82C14C3F85015D2F89B
:101DFC003014C3F85415D2F83414C3F86015D2F863
:101E0C003814C3F86415D2F83C14C3F86815D2F82A
:101E1C004014C3F86C15D2F84424C3F8702502F0B2
:101E2C0002F948B14FF080534FF08042D3F858324A
:101E3C0003F04F03C2F8E43E02F0F5F848B14FF05E
:101E4C008043D3F80024D20744BF6FF00102C3F8DB
:101E5C0000244FF08053D3F83021062A26D1D3F832
:101E6C003431033B042B02D82E4AD35C63B12E4A87
:101E7C00D2F83C3743F48063C2F83C374FF08053C0
:101E8C00D3F83031062B11D14FF08053D3F83431C5
:101E9C00033B042B02D8254AD35C3BB14FF01023F3
:101EAC00D3F808224FF08043C3F858254FF0102385
:101EBC00D3F80022002A03DBD3F80432002B22DAF9
:101ECC001B4901234FF01020C1F804351524FFF7EE
:101EDC00EFFEC0F80042FFF7EBFEC0F80442FFF73C
:101EEC00E7FE0023C1F80435FFF7E2FEBFF34F8F86
:101EFC000849104BCA6802F4E0621343CB60BFF38D
:101F0C004F8F00BFFDE710BD0030014000C00740FF
:101F1C000DF0ADBA00ED00E0005000404548000067
:101F2C0000C0004040480000001000403B4800004A
:101F3C0000E001400400FA0530B50468CCB1BFF3F1
:101F4C005B8FB4FA84F3C3F11F03DBB201229A4016
:101F5C0024EA020250E8005FA54204D140E8002CBC
:101F6C00BCF1000FF6D1BFF35B8FE6D102480B70CA
:101F7C0030BD0248FCE700BF0000AD0B0200AD0B0A
:101F8C0010B50368CB40DB0714D401238B400268E7
:101F9C00BFF35B8F43EA020150E8004F944204D137
:101FAC0040E8001CBCF1000FF6D1BFF35B8FEED103
:101FBC00014810BD0148FCE70000AD0B0400AD0B5F
:101FCC00014BC3F80405704700F00140F7B5044617
:101FDC0018B1012823D003B0F0BD4FF0804302228A
:101FEC00C3F808230122DA60C3F80401D3F80431E2
:101FFC00064601238DF8073042F210754FF08047EA
:10200C00D4B1012CE7D1D7F80C3403F48033AEBB38
:10201C0083B3012002F016F8013DF4D12AE04FF011
:10202C0080430022C3F808035860C3F80021D3F89A
:10203C0000310DF10706DCE7D7F8183403F48033D0
:10204C003EB9002BC7D0012001F0FCFF013DF3D1BC
:10205C00C1E7D7F8182402F003023260002BBAD083
:10206C009DF80700012803D101F0ECFF013DC7D119
:10207C00012CB0D1054B00225A71ACE7D7F80C24D7
:10208C0002F001023270002BEAD1F3E708030020C2
:10209C00044B1A7922B9012218609A8002487047C1
:1020AC0002487047080300200000AD0B0C00AD0B7C
:1020BC0008B5074B1B682BB10020FEF7FBFB08B9DA
:1020CC00FEF7EAFB4FF080430022C3F8182508BD49
:1020DC000803002038B5B0B1012855D14FF080422B
:1020EC000023C2F80031D2F80021304A03F18043BA
:1020FC00012119602E4B1B68002B50D04FF08043F0
:10210C00C3F8040340E04FF08043D3F81814D3F81D
:10211C001824C8032AD502F00303012B04D013B1F1
:10212C000020FFF753FF00234FF08042C2F8183510
:10213C000023C2F80431D2F804311E4AD2F8FC0054
:10214C0040F08073C2F8FC301B4B1C6844F001015A
:10215C0019605D685968491BB1F50A5FFAD31C60B8
:10216C00C2F8FC000823154A0220BFE7D3F8142458
:10217C00D107D8D5D3F81C249207D1D40C4A1268B5
:10218C001AB10222C3F8042338BDD3F80421002A63
:10219C00FBD00022C3F80421D3F80431F4E7136810
:1021AC00002BFCD0002313601368EDE70001004006
:1021BC000803002000ED00E0001000E004010040E6
:1021CC0010B54FF08043D3F800216AB10022C3F858
:1021DC000021D3F800210122C3F80823114B5879B0
:1021EC0010B95A711B6898474FF08043D3F80421FB
:1021FC0072B10022C3F80421D3F80421D3F81824B7
:10220C00D3F81824920704D10122C3F818259A6038
:10221C0010BD0222C3F80823024BBDE810401B6816
:10222C00012018470803002070B500F108030C4C7E
:10223C0034F81330DA0505460E4607D5C3F34323AD
:10224C0004EBC30254F8333052689847A3682BB19F
:10225C00E26831462846BDE87040184770BD00BFA3
:10226C003000002010B4C0B2114A083032F81030DF
:10227C00D9051BD5C3F3432123F4F85322F81030AE
:10228C0002F10E04002034F8023F13F4807F03D0D7
:10229C00C3F34323994209D001302028F3D1002302
:1022AC0042F83130034810BCFFF76ABE10BC7047CF
:1022BC003000002088000020F0B5054600200446C0
:1022CC00012607468C420BD1114BD3F87C2132B13D
:1022DC000022C3F87C21D3F87C3140F00040F0BDE3
:1022EC00E3B29B0003F580729B0806FA03F31D42D0
:1022FC000BD002F1804202F5C042D2F800C0BCF112
:10230C00000F02D01760126818430134DAE700BFDF
:10231C0000600040CBB20246083308460C4931F845
:10232C001330990611D599070FD410685B0B012156
:10233C009940C0F80813126802EB8303D3F81025F8
:10234C0022F00302C3F810257047002101F0DBBE18
:10235C0030000020F7B5CDB2174E0835074636F8D9
:10236C001530DB070C4624D5FFF7D4FF36F81530B3
:10237C009A0606D55B0B3A6803F5A273002142F866
:10238C0023102046FFF76EFF002301A826F8153016
:10239C00019401F065FE019B00EB8300074BD0F824
:1023AC000027134043F00203C0F80037044803B081
:1023BC00F0BD0448FBE700BF30000020F0F8FCFF44
:1023CC000000AD0B0400AD0B2DE9FF41136807466F
:1023DC000C461546FBB1CEB2DFF83C81083638F816
:1023EC00162002F02202222A22D00022CDE900225D
:1023FC008DF80E208DF80F200DF10E010DF10F024E
:10240C00204601F037FE38F8163023F0020343F073
:10241C00010328F816306B684BB393F800C05A6868
:10242C003D4EE3B2083336F81310880702D5B2B12B
:10243C003A481FE021F02001C904C90C26F81310FA
:10244C006AB1BCF1030FF3D86A6838685268127825
:10245C00BCF1000F11D102F5A27240F822C036F87F
:10246C00132022F01C0242EA8C0226F81320AB68DF
:10247C0043BB2B4804B0BDE8F08100EB820041EA7D
:10248C004231D0F810E52EF0030EC0F810E53F688D
:10249C0007EB820741F02001D7F8100526F813103E
:1024AC0020F4473020F44070C7F810052002D7F80C
:1024BC0010E500F4F85040EA0C4040EA0E00C7F872
:1024CC001005CCE7D3E900672046FFF7CBFE002EC2
:1024DC00CFD0114DD5E90023964203D19F4201D1B3
:1024EC00002209E00F480DF10F01FFF725FD0C4B01
:1024FC009842BFD19DF80F2045F83260E4B205EB4D
:10250C00C20308345F6035F8143043EA422343F4C5
:10251C00807325F81430ACE7300000200400AD0BBC
:10252C000000AD0B880000202DE9FF4107460C464A
:10253C001E4612B3CDB2DFF8D080083538F815300E
:10254C00980701D4990621D413F01C0F02D05378AC
:10255C00012B1BD001238DF80F300023CDE9002374
:10256C000DF10F01931C2046013201F083FD38F868
:10257C00153043F0030328F81530002E42D0E1B299
:10258C00214D083135F81120930703D41F4804B0AE
:10259C00BDE8F08196F800E0D7F800C022F02002E8
:1025AC000EF5A270D2040023D20C4CF8203025F882
:1025BC00112096F801C0BCF1000F23D03868B67812
:1025CC0000EB8E004FEA0C4CD0F8103523F4981326
:1025DC0023F4F853C0F81035230203F4F8530CF429
:1025EC00403C3605D0F8107543EA0C0306F480160F
:1025FC0042EA4E32334342F020023B4325F811208D
:10260C00C0F810350248C2E7300000200400AD0BC2
:10261C000000AD0B014BC3E90212704730000020E3
:10262C00C9B20831044B33F81130990643BF5B0B28
:10263C000248137002487047300000200000AD0BB8
:10264C000400AD0B70B5164D95F8604006462CBBDA
:10265C002146402205F1100001F016FF30682E6D66
:10266C0021468E420ED10023C0F87C31D0F87C314B
:10267C0040F30730FEF710F901230A4885F8603063
:10268C00AB6570BDCBB29B0003F580727C2B08BF91
:10269C00845001F1010108BF8358E2E70248F0E7DA
:1026AC00300000200000AD0B0C00AD0B034B93F879
:1026BC006000003818BF0120704700BF30000020B8
:1026CC000148FFF75DBC00BF840000200148FFF704
:1026DC0033BC00BF8400002073B503680C46D3F8EC
:1026EC0004130029A4BF4FF00041C3F80413E3B254
:1026FC001D49083331F8133099061AD513F0020628
:10270C0017D15B0B9C00056804F580716E506958FD
:10271C0001682144D1F8104544F00104C1F810457A
:10272C002AB10168012202FA03F3C1F8043302B0A2
:10273C0070BDC3F38203042B12D0052B12D001A859
:10274C00019401F08DFC019AD0F81035D34003F0C0
:10275C000103991C204602B0BDE8704001F0D3BCC7
:10276C000321F7E70221F5E7300000202DE9F347BC
:10277C00544B554FD3F80403396DC0B240F00040B0
:10278C00FFF79AFD051E18DA0023F96D00936846D1
:10279C0001F0C8FC4FF0010897F85C30DA075AD406
:1027AC00396D4FF00040FFF787FDF96D684601F079
:1027BC00B9FC0028F0D125F000450124002D69D189
:1027CC0002B0BDE8F08794FAA4F4B4FA84F4E008FB
:1027DC0004F1080304F0070237F813901DF80030D9
:1027EC00019408FA02F223EA02030DF8003001A862
:1027FC0001F036FC019B03F5E0734FEA990150F8A8
:10280C002360C9F3820A4B07D146C6F3014626D58D
:10281C0020465146FFF708FD01A8019401F020FC69
:10282C00019B03F5E073F6B250F82330C3F3014378
:10283C009E4207D10021204601F065FC314620461E
:10284C0001F061FC01A8019401F00AFC019B08FA5B
:10285C0003F3C0F82035009C002CB4D1A0E7022E65
:10286C000CD10321204601F04EFC0AF00503012B8C
:10287C00E8D149462046FFF7D7FCE3E70221204682
:10288C0001F041FCBAF1030FF3D0032EDAD1BAF107
:10289C00020FEDE795FAA5F3B3FA83F304FA03F20A
:1028AC009B0003F1804303F5C04325EA0205D3F8EE
:1028BC001005D3F81015C0F30420C1F30141FFF744
:1028CC00B3FC7BE70060004030000020014601486B
:1028DC00FFF732BB9400002008B5144BA82200214E
:1028EC00184601F0D1FD0322026111494261114ADF
:1028FC008161C2614FF48062026200228262426294
:10290C00C26201660C49416610218166034602676A
:10291C00C2664267BFF35F8F084911F8010D9854E6
:10292C000132102AF9D1BFF35F8F08BD10030020CC
:10293C004F480000FC030020EC0300206848000016
:10294C0038B5EFF31185202383F31288BFF36F8F13
:10295C00064B9C6801F017FC85F31188BFF36F8F51
:10296C002046BDE83840FDF71BBF00BFB803002070
:10297C0038B5094B53F82040013053F82050A5428C
:10298C0000D838BD636823B1204601F0FFFB083442
:10299C00F5E723689847FAE75C47000070B52A4BC7
:1029AC002A4C2B4D012286B003201A70FFF7E0FF52
:1029BC00FDF7ECFC0420FFF7DBFF2646AE4204F1EA
:1029CC00300410D300F012FB204C224EAC4226D324
:1029DC0000F020FBFDF77CFB1F4A137B23F0010367
:1029EC00137306B070BD54F80C3C059354F8103CAE
:1029FC00049354F8143C039354F8183C029354F881
:102A0C001C3C019354F8203C009354E90A2354E9EC
:102A1C000C0100F01FF954F8303C5E65CDE7D4E9A9
:102A2C000A23B3F1FF3F08BFB2F1FF3F05D052EAD2
:102A3C000301206803D101F0D6FB3034C6E73146E0
:102A4C00183000F09BFCF8E7FC07002064460000FF
:102A5C0064460000FF4200004801002008B503480E
:102A6C00034A0021121A01F0A9FB08BDA80000209E
:102A7C000008002070B5002386B00122CDE90423A4
:102A8C00134E144D01930F22CDE902321249142337
:102A9C0003FB005506EBC01604464FF4C07000FB58
:102AAC0004110E4B00954FF4A072304600F0D2F892
:102ABC00737B0B4AEE6023F0040373734FF40463CF
:102ACC0004FB033313442C746B6006B070BD00BF61
:102ADC00C8000020B803002040100020D1410000A5
:102AEC0000080020BFB50020FFF742FF2C4B83F3FA
:102AFC0008882C4D2C4E6B692C4F43F400736B6182
:102B0C000024E02385F82230EC772C766C76AC76BA
:102B1C0085F820406B6A43F4E0236B6285F8234010
:102B2C00FDF7BEFDFDF75CFF4FF0FF33AB62EB62D0
:102B3C00FEF71CF8FDF778FF1D4BB36040F2011255
:102B4C009A81C3E91844DC6601F009FB0120FFF708
:102B5C000FFF0220174DFFF70BFF00F07BFA164B0F
:102B6C0075610593012315490094CDE903434FF496
:102B7C0080623B46CDE90144284600F06BF86A7B45
:102B8C00064622F0040228466A7301F068FB2046D0
:102B9C00FFF770FF3A4631462846FDF7FFFE00BFAF
:102BAC004010002000ED00E0B8030020A92900002F
:102BBC00C80100204801002069480000C011002015
:102BCC0038B50446EFF31185202383F31288BFF345
:102BDC006F8F01F092FB48B10022826701F03FFB3E
:102BEC0029460848BDE8384000F0BCB9D4E90232A7
:102BFC009A4218BF0133A36085F31188BFF36F8F1E
:102C0C0038BD00BFFD07002013B5EFF31181202460
:102C1C0084F31288BFF36F8F846844B1013C8460E5
:102C2C0081F31188BFF36F8F002002B010BD52EA00
:102C3C00030406D181F31188BFF36F8F6FF00F007F
:102C4C00F3E7CDE900230246014800F05FF9ECE719
:102C5C00FD0700202DE9F043073285B022F0070272
:102C6C000E461F461099017300F158037F32C0E9DC
:102C7C0016330446002322F03F0204218360417383
:102C8C003F2A0F98A073C4E90633E37306F1400999
:102C9C00A2F1400805D883F31188BFF36F8F084663
:102CAC0002DFB51829462046FDF782FB07300E9B44
:102CBC0020F00700A066C4E9189802930D9B0193BD
:102CCC002D1A0C9B00932A463B4631462046FDF7B5
:102CDC0033FE00236365044B9B6803B1DB6EE36634
:102CEC00284605B0BDE8F083B803002038B50D4D7B
:102CFC002B4653F8184F9C4200D004B9EC68AB68D3
:102D0C0038B95A7BD20604D1A26912B9DA897F2A62
:102D1C0005D89C4202D0204600F078FA23466B611D
:102D2C0038BD00BFB803002008B590F90D20437BD7
:102D3C00002A014604DA03F07F03437301F055FACD
:102D4C00044B9868431A58425841BDE80840FFF7B5
:102D5C00CDBF00BFB803002070B490F90D30427B9A
:102D6C00002B29DBD30627D183692BBB134962F0D7
:102D7C007F0242730A4652F8184F944218BF2346FA
:102D8C00CC6923B9C0E900242060C8610CE090F93B
:102D9C000E5093F90E60B5420AD0AE4208DD5A6867
:102DAC00C0E900321060586070BC0020FFF79EBF75
:102DBC009C42E7D01B68E4E770BC7047B803002066
:102DCC002DE9F041002A427B0E460CBF1021082150
:102DDC00114204460FD141EA0203D20918D14373C0
:102DEC0008291BD00120FFF781FFBFF35F8F637BA6
:102DFC0023F060036373264B9B68A34241D1EFF32E
:102E0C000583002B3DD13046BDE8F041FDF7DEBC1B
:102E1C0003F07F03437301F0E8F9E1E7A36813B112
:102E2C00204601F0EAF904F1180001F0A3FA04F1CC
:102E3C0058074FF00008A56DBD4200D0A5B9144D40
:102E4C00AB689C42CED1EFF30583002BCAD0012096
:102E5C00FFF74CFF0F4BAB6040F201129A8100223E
:102E6C00C3E91822DA66C0E7284601F0C6F905F175
:102E7C00180001F07FFAC5F878802846FFF76CFF40
:102E8C00D9E786F31188BFF36F8FBDE8F08100BFDF
:102E9C00B8030020C801002070B590F90D20437BC9
:102EAC00002A014604DA03F07F03437301F09DF915
:102EBC004B7B154A63F07F0310464B7350F8183F59
:102ECC00D469834208BF002323B9C1E900042160FF
:102EDC00D1610CE091F90E5093F90E60B5420ED011
:102EEC00AE420CDD5868C1E9003001605960906851
:102EFC00431A5842BDE870405841FFF7F7BE9C4258
:102F0C00E3D01B68E0E700BFB8030020F8B5124B14
:102F1C000C461146114A98681060DDE90676EFF30D
:102F2C001182202282F31288BFF36F8F9D6828468E
:102F3C0001F06DF9B6F1FF3F08BFB7F1FF3F06D0C6
:102F4C0007493A46334605F1180000F017FA2046B7
:102F5C00BDE8F840FDF73ABCB8030020D8030020C8
:102F6C00FF42000049B9EFF3058030B9054B5A69AF
:102F7C009B689A4201D0FDF729BC81F31188BFF3FD
:102F8C006F8F7047B803002010B5EFF31184202227
:102F9C0082F31288BFF36F8F427B510704D484F302
:102FAC001188BFF36F8F10BD22F004024273FFF73C
:102FBC00D3FE21460248BDE81040FFF7D3BF00BF47
:102FCC00FD070020034648B9EFF3058232B9064AE3
:102FDC0051699268914201D0FDF7F8BB83F31188D7
:102FEC00BFF36F8F704700BFB8030020EFF3118160
:102FFC00202383F31288BFF36F8F054B9A68D37B22
:10300C00013BD37381F31188BFF36F8F704700BFFF
:10301C00B803002038B5EFF31185202484F312880F
:10302C00BFF36F8F0A4B9A68D37B0133D3730020A5
:10303C00FFF75CFE85F31188BFF36F8FEFF3118000
:10304C0084F31288BFF36F8FBDE83840FFF7BABF27
:10305C00B8030020024B03F11802C3E906227047A3
:10306C00B8030020F8B5EFF31185202383F3128801
:10307C00BFF36F8F19498868437B03F07F03437359
:10308C0001F0B3F88B685A7B084662F07F025A73E2
:10309C0050F8182FCC69824208BF002222B9C3E92C
:1030AC0000042360CB610CE093F90E6092F90E7072
:1030BC00BE420ED0B7420CDD5168C3E900210B6053
:1030CC0053600120FFF712FE2846BDE8F840FDF7DB
:1030DC007DBBA242E3D01268E0E700BFB80300203A
:1030EC0050EA01032DE9F04105460E4603D1FFF7E6
:1030FC00B9FF00202BE0831C71F1FF3329DB01F0B9
:10310C004EF92C18EFF31188202383F31288BFF3A8
:10311C006F8F124F124BB8681860FFF705FEB86836
:10312C0010492A463346183000F028F9BA68537B08
:10313C0043F0100353734046FDF748FB01F02FF9A1
:10314C00201A63EB0303012873F10003D1DBBDE804
:10315C00F0816FF00104241AD4E700BFB8030020FB
:10316C00D8030020FF420000B1F1FF3F08BFB0F1CF
:10317C00FF3F08B506D10A4B986801F07FF84FF075
:10318C00FF3008BDFFF7ACFF4FF47A7147F6FF73C1
:10319C000022C0FB0132D80B40EA4240F1E700BFED
:1031AC00B8030020014B9868704700BFB80300209B
:1031BC00044BC01A044BC0105843044B01221A5440
:1031CC00704700BF48020020ABAAAAAAFD07002046
:1031DC00C3897F2B12D80A4B1B6863B1094B90F93A
:1031EC000E201B689A4209DB437BDB0606D1064B9B
:1031FC00C31A18BF012303F0010070470023FAE73C
:10320C00E0030020DC030020C800002070B50E4B4A
:10321C000E4C1E7C06EB460304EBC304054620460D
:10322C0001F0A8F80A4B002228469A55FFF7D0FF68
:10323C0048B1084B08491A68013A2046D317BDE833
:10324C00704000F09BB870BDB8030020480200200D
:10325C00FD070020E0030020BD31000038B5EFF37E
:10326C001185202383F31288BFF36F8F104B114A03
:10327C009C681068A04206D1FFF7C8FF85F311883F
:10328C00BFF36F8F38BD00211B7C11600A4AD35CE1
:10329C00002BF3D02046FFF79BFF0028EED0637B7A
:1032AC00DB0602D12046FFF7F7FD2046E4E700BF1E
:1032BC00B8030020D8030020FD07002008B50648FD
:1032CC00064A0749121A00F07BFFBDE80840054A80
:1032DC000549064800F074BF00000020A60000203D
:1032EC008048000000000000804800000000002022
:1032FC00034B1B680BB9FEF7BDBC0020704700BF29
:10330C00E403002030B570B10B4B5B6898420AD0D7
:10331C00036843B1D3E90421D0E90445121941EB08
:10332C000501C3E90421D0E9003213605A6000237F
:10333C00C0E9003330BD00BF9800002010B50E4B23
:10334C001C689C4204D1FFF7D3FF6FF0004010BD06
:10335C00FFF7CEFF002CF8D0D4E904321B1A62EB35
:10336C00E072B3F1004F72F10001EEDA002AACBF4B
:10337C0018460020EBE700BF98000020B3F1FF3F98
:10338C0008BFB2F1FF3FF8B504461D4616465ED0A5
:10339C008160EFF31187202383F31288BFF36F8FC3
:1033AC00013275F1FF3324DA2E49D1E900206FF098
:1033BC0001039B1A4FF0FF3262EB00009E1B60EB87
:1033CC000500012E70F1000301DA01260020C4E98A
:1033DC000460254ED6F800C07568B44508BF4FF0A0
:1033EC00000CBCF1000F0DD1C4E900652C607460B9
:1033FC001CE0FFF77DFF013645F10005361845EB63
:10340C00E070E4E7DCE90420D4E90431934271EB89
:10341C00000E1DDAD21ADCF8043060EB0100CCE9A6
:10342C000420C4E900C31C60CCF804403368B342E8
:10343C0009D09C4207D10D4B1C6824B9FFF77EFFC5
:10344C002146FEF7E9FB87F31188BFF36F8FF8BDB8
:10345C009B1A61EB0001AC45C4E90431C4D0DCF823
:10346C0000C0BEE76002002098000020E4030020AA
:10347C002DE9F84FEFF3118C202383F31288BFF35F
:10348C006F8FDFF8B0A0DFF8B0902C4FC9F80000B8
:10349C00DAF800000024504508BF00200025D7E9C9
:1034AC000021D9F80030E04678B3D0E9046C4FEA3B
:1034BC00E37EB3427EEB0C0B05DAF61A6CEB0E04D2
:1034CC00C0E9046421E0B21841EBE671C0E904459F
:1034DC00C7E90021FFF716FF88F31188BFF36F8F40
:1034EC0083689847EFF31188202383F31288BFF386
:1034FC006F8FD9F80030DAF800009B1B5045C4469A
:10350C00C9F80030CBD1D7E900219A1841EBE3730D
:10351C000024C7E90023C9F80040FFF70FFF21463C
:10352C00FEF77AFB88F31188BFF36F8FBDE8F84F75
:10353C00FFF794BE98000020E403002060020020F6
:10354C0010B5EFF31184202383F31288BFF36F8F30
:10355C00FFF7CEFE054A0346D2E90001181841EBED
:10356C00E37184F31188BFF36F8F10BD60020020EC
:10357C000FB407B5064B04AA186852F8041B019245
:10358C0000F008F803B05DF804EB04B0704700BF1E
:10359C00A44600002DE9F04F8DB043680293837868
:1035AC0015469A07804640F10D8100240E78002EB6
:1035BC0000F00A81252E0BD04B1C03930134029B87
:1035CC004146304698470028C0F2F6800399EDE753
:1035DC004E788B1C252E0393F0D00027B946BB46A2
:1035EC00BBF11F0F38D8A6F12003102B0AD8DFE847
:1035FC0003F02A0909300909092109090928092DAB
:10360C0009091F00A6F13003092B33D92A2E37D113
:10361C001BF0400F55F8043B40F08280002BA7BFF5
:10362C004BF0200B9946C3F100094BF0280B01E03D
:10363C004BF0010B039B13F8016B0393002ECFD1BE
:10364C0030E04BF0020B4BF0040BF3E74BF0080BA4
:10365C00F0E74BF0100BEDE7BBF17F0F19D8A6F19B
:10366C003003092BD2D81BF0400F03D00A2101FBE9
:10367C000737DFE70A2101FB09394BF0200BD9E7AB
:10368C002E2E06D11BF0400F40F09E804BF0400BCD
:10369C00D0E76C2E31D02BD8682E36D06A2E3CD089
:1036AC004C2E3AD0002F46F02003B8BF2BF040022E
:1036BC00A3F16501BCBF1FFA82FB0027022901D9C7
:1036CC00612B2FD1073525F00705DFF8ACA20835A3
:1036DC0007271BF0080F66D00AEB070B56465E4512
:1036EC0063D1A4EB0A0A06EB0A02A9EB07096FE106
:1036FC00742E9FD07A2E9DD0D4E71BF0800F18BF6C
:10370C004BF4007B4BF0800B94E71BF4807F18BFCD
:10371C004BF4007B4BF4807B8CE74BF4207B89E7EC
:10372C001F4687E7A6F16301122900F2F080DFE85B
:10373C0011F013004F00EE00EE00EE00EE004F0013
:10374C00EE00EE00EE00EE00EE00FE00E900EE00F2
:10375C00EE001B00EE00AF0055F8043B8DF818305E
:10376C0001270DF1180AB4E755F804AB834BBAF1F5
:10377C00000F08BF9A461BF0400F14BF39464FF09C
:10378C00FF31504600F00FFE0746A2E7029B414670
:10379C002020984700280FDB013EB742F6D34C445B
:1037AC00A41BB14698E74E46F7E716F8010B029BAF
:1037BC0041469847002892DA98F8023043F0040307
:1037CC0088F802304FF0FF3420460DB0BDE8F08F82
:1037DC001BF0800F34D01BF4007F2CD0073525F064
:1037EC000705AA4669685AF8080B2BF01005002942
:1037FC00ADB237DA404261EB410145F480650DF121
:10380C00180B0A235A4600F0DAFDA0EB0B030193C8
:10381C006B0662D5019B25F001019F4289B240F3F2
:10382C00A180002E00F0998015F0100240F09C80D1
:10383C00BB460D4623E0AA465AF8040BC117D4E741
:10384C00AA461BF4807F5AF8041B01D10846F5E701
:10385C001BF4007F15BF48B208B241F3C01141F30D
:10386C00C031C2E750EA0103C9D11BF0400FC6D0EA
:10387C00002FC4D12BF0110295B2BB46019740F238
:10388C00064115EA01021CBF0BF1010B00222CE0D2
:10389C002BF010021FFA82FB0A231BF0800C49D07C
:1038AC001BF400711DBF073525F00705AA46AA4673
:1038BC001ABF5AF8080B69685AF8040B50EA01054C
:1038CC0045D12BF016051BF0400FADB242D0002FA6
:1038DC0040D12BF0170295B2019715F0100248D089
:1038EC00019B002E42D103F1010B29075AD4EB079F
:1038FC0006D5D9456FDD0199A9EB0B035F18CB46B3
:10390C005B4649E04BF0100B10237826C5E7782B6B
:10391C0004D1C6F1780343F01003BEE7029B414685
:10392C00252098470028FFF647AF023447E60823C6
:10393C000026B2E7AA461BF480715AF8040BBDD0DE
:10394C001BF400711ABFC0B2614680B2B6E72BF00F
:10395C00060295B20DF1180B54E725F01105ADB226
:10396C00BB468CE70D46B8E73B460D4603F1020B10
:10397C00BBE7DDF804B082E7754800006E48000034
:10398C00CDE904324146029B202098470028FFF6DF
:10399C0013AF049B059A01339945F1DCA4EB0B01A1
:1039AC00CC189B460AB3029B41463020984700280E
:1039BC00FFF602AF8EB901342744019B391B9942A3
:1039CC0024DC1D465DBB019AA9EB0B09224455462C
:1039DC001446914435E0019F92E70234414630464B
:1039EC00029B98470028E7DAE6E640F206410D42D2
:1039FC00E2D015F0020F14BF2B20202015F4806F9D
:103A0C0004F10104414618BF2D20E9E7029B414611
:103A1C0030209847002804F10104CEDACCE606AB3E
:103A2C00013D4146585D029B98470028CADAC3E61F
:103A3C00029B414620209847002804F10104FFF620
:103A4C00BBAEA9EB0403002BF2DCBFE5704700EB27
:103A5C00C100408840087047F8B50346FFF7F7FFF0
:103A6C00B0FA80F0C0F11F0003EB800CCA00DCF848
:103A7C001060171D0C4606328DB256B9012101FAA1
:103A8C0000F0D9680143D960CCF81040DD539D5249
:103A9C00F8BDF1000431585AD85303EBC0009E52C4
:103AAC00C5805D52F4E7043A2DE9F041CC1D114478
:103ABC0024F0070421F007010E1BF708B7FA87F270
:103ACC00C2F12405AD004FF000080735C2F1200209
:103ADC00ED0804604146A760C4F80C80920004F124
:103AEC00100000F0D1FC6B0043F00103638004EB89
:103AFC00C5027B1B5900A4F800805180A21924F840
:103B0C003550A2F80280A35304EBC70329465A8808
:103B1C0042F001025A802046BDE8F041FFF79CBFFD
:103B2C00002070470FB407B504A951F8040B01919C
:103B3C00FCF7E0FA03B05DF804EB04B07047038BBC
:103B4C0013F0070305D10368002B0CBF00200320E2
:103B5C007047022B05D1408BB0FA80F040098000F1
:103B6C007047012B05D10368002B0CBF00200520EA
:103B7C0070470020704710B50C4600B111B96FF0BA
:103B8C00150010BD081D00F093F80028F9D1A368AA
:103B9C00032BF6D9F3E72DE9F0410D4607461946FC
:103BAC00281D90461E4600F094F8044638B1334662
:103BBC00424629463846A446BDE8F0416047BDE878
:103BCC00F08110B4EFF31182202484F31288BFF338
:103BDC006F8F416110BC0121FCF7C4BA38B50C469B
:103BEC00054658B151B10B6843B14B6833B11C2237
:103BFC00002100F049FC2C61002038BD6FF015004D
:103C0C00FBE770B505460E46FFF7B5FF041E14DB47
:103C1C00EFF31182202383F31288BFF36F8F6B8B2A
:103C2C002C8B4FF6FF718B4204F0070407D182F303
:103C3C001188BFF36F8F6FF00A04204670BD022C01
:103C4C000CD101336B8382F31188BFF36F8F002388
:103C5C00224631462846FFF79EFFEEE7062C14D885
:103C6C00DFE804F004131313041A04000023336078
:103C7C006B683BB9C5E90066ACB902212846FCF774
:103C8C0071FADAE71E606E60F6E782F31188BFF313
:103C9C006F8F6FF00404D0E782F31188BFF36F8F3E
:103CAC006FF08504C9E782F31188BFF36F8FC4E707
:103CBC00034658B1426802F00302012A03D0032ADA
:103CCC0004D1026812B10020986070476FF01500A3
:103CDC0070474268816002F00302032A4FF0000231
:103CEC0003460CBF006810465A60704770470128A5
:103CFC0001D1EFF30583FEF723BE01460068FFF701
:103D0C00F6BF08B5FCF750FBBDE80840FCF770BBEC
:103D1C0000210120FFF7EBBF61B662B680F311887A
:103D2C00BFF36F8F704772B6002383F31188BFF314
:103D3C006F8FBFF34F8F30BF62B6BFF36F8F70477B
:103D4C0072B6002383F31188BFF36F8FBFF34F8FCD
:103D5C0020BF80F31188BFF36F8F62B670472028A5
:103D6C0009D9B0F1004F08D80138B0FA80F0C0F191
:103D7C001F0040007047082070473E20704708B570
:103D8C00FCF7A8FF002008BD0369C9B20C2201FB97
:103D9C000233186C00F00700704770B5C9B20369A4
:103DAC00EFF31185202484F31288BFF36F8F0C2658
:103DBC0006FB0134246C14F0C00408D0A24206D0D7
:103DCC0085F31188BFF36F8F4FF0FF3070BD06FB8A
:103DDC00013301221A6485F31188BFF36F8F436896
:103DEC0003EBC1035B6898470020EFE78022FFF7E5
:103DFC00D4BFF8B5069F0469C9B2EFF3118620252C
:103E0C0085F31288BFF36F8F0C2505FB0144256CDD
:103E1C0005F0070CBCF1010F0CD1276486F3118857
:103E2C00BFF36F8FC4E90E23436853F831309847C2
:103E3C000020F8BD05F0C005AF4286F31188BFF332
:103E4C006F8F0CBF6FF077004FF0FF30F1E713B5B9
:103E5C0080240094FFF7CDFF02B010BD10B40069B0
:103E6C00CBB21C2403FB0400002110BC1047002023
:103E7C0000F0F4B81046FEF7A3BE43685B68D3F8B5
:103E8C0010350B600020704743685B6802EA010044
:103E9C0021EA0201C3F80805C3F80C15002070478D
:103EAC0043685B680020C3F80815704743685B687B
:103EBC000020C3F80C15704743685A68D2F80435D3
:103ECC0021EA03000B40C2F80805C2F80C350020AB
:103EDC00704710B503695868F8B1884219D19C68CD
:103EEC0008685860A14200D19860002008602AB18F
:103EFC005A680A609A68596002B99960002010E00B
:103F0C00814206D10868206098688142EDD19C609E
:103F1C00EBE7044600680028F2D1002AE8D16FF0E4
:103F2C00150010BD30B543681360057A446804EB86
:103F3C00C504A34202D36FF0010030BD5C798C4202
:103F4C0001D00833F0E70020F7E743681B68D3F88B
:103F5C008004C3F880047047436802691B68D3F877
:103F6C00100150B15269002012780A70C3F8100188
:103F7C00D3F8102101221A6070474FF0FF307047C0
:103F8C0002680346D2F8580140B95B689B0706D417
:103F9C00D2F82001003818BF01207047012070476B
:103FAC0042681368D3F80413C90517D5D3F8201148
:103FBC00A1B1EFF31181202080F31288BFF36F8F32
:103FCC00D3F8200130B10020C3F82001D3F8200130
:103FDC000120D86081F31188BFF36F8F5268D2062D
:103FEC0014D5EFF31182202181F31288BFF36F8F68
:103FFC00D3F8581111B10021C3F800154FF480010A
:10400C00C3F8081382F31188BFF36F8F704700F168
:10401C0050039B009BB203F1804303F588330022CD
:10402C001A601B6870474FF08053D3F83001421C64
:10403C0004BF4FF0704393F8E00F831F5842584170
:10404C007047004700F087B8C00000F1804000F5D1
:10405C00F830C0F81015C0F814257047FDF7B6BF3E
:10406C00036803F01F025B0902600CBF4FF0A04015
:10407C0000207047F7B5019001A8DDE90847164606
:10408C001D46FFF7EDFF019BB6F1000C18BF4FF07A
:10409C00010C00EB83000B1E18BF0123002D43EA1B
:1040AC004C0314BF4FF00C0C4FF0000C002C43EAE7
:1040BC000C0314BF4FF4E06C4FF0000C002F43EADC
:1040CC000C03D0F8002714BF4FF4403C4FF0000C09
:1040DC0043EA0C0322EA030301B109780EB13678E6
:1040EC00760019430DB12D78AD0031430CB1247815
:1040FC00240229430FB13F783F040C433C43C0F8E2
:10410C00004703B0F0BD1FB50DF10F030193002361
:10411C008DF80F1000931A461946FFF7ABFF05B048
:10412C005DF804FB024611F0010007D04FF0A041EE
:10413C00D1F820351360C1F8203503B90020704741
:10414C00FEF708B9FEF7E6B8FEF7C6BB08B5FFF7F1
:10415C00FBFF002008BD08B1FCF7EEBD70477047AF
:10416C0040B1C368587810F001001EBF1878B0FA3F
:10417C0080F040097047EFF31183202383F31288FA
:10418C00BFF36F8FFEE708B5FFF7F5FF10B5D0E969
:10419C00003433B90020E268537843F001035370C4
:1041AC0010BD204698470028F4D00028B8BF4042E4
:1041BC00E368FF28A8BFFF201870ECE700F064B993
:1041CC0000F054B908B52024EFF3118384F312885E
:1041DC00BFF36F8FFFF7A7FDF6E7EFF3058000380D
:1041EC0018BF01207047FEF7CFBED0E90032136034
:1041FC005A600023C0E90033704708B5FFF7F5FF9C
:10420C00437B23F0020343730023836008BD38B55E
:10421C0004460D46FEF788FD637B43F0020363738F
:10422C00E5B1A5602B689D4209D16B68C4E90053C8
:10423C001C606C6012E06A689A42F6D01B68002B16
:10424C00F3D094F90E2093F90E108A42F3D09142D8
:10425C00F1DD5A68C4E9003214605C6038BD10B5F9
:10426C00EFF31184202383F31288BFF36F8FFEF7D3
:10427C0073FD84F31188BFF36F8F10BD10B5044626
:10428C00183000F077F8EFF31181202383F31288B4
:10429C00BFF36F8F627B12F0100204D081F3118890
:1042AC00BFF36F8F10BD2046BDE81040FEF788BDF0
:1042BC0038B50446EFF31185202383F31288BFF33E
:1042CC006F8F437B13F0280F0BD183680BB1FFF773
:1042DC0094FF637B51B903F0FB0363732046FEF735
:1042EC003BFD85F31188BFF36F8F38BD03F0EB03F3
:1042FC00F3E701211838FFF7DBBF38B5EFF3118571
:10430C00202383F31288BFF36F8F0468A0420DD073
:10431C0034B12046FFF771FF04F1180000F02AF8C1
:10432C0085F31188BFF36F8F204638BD0024F7E763
:10433C00EFF31181202282F31288BFF36F8F027B7F
:10434C00D2070CD581F31188BFF36F8F002383F351
:10435C001188BFF36F8F0423184602DF7047437B2D
:10436C001B0704D581F31188BFF36F8F70470122AF
:10437C00FEF726BD10B5EFF31184202282F31288CC
:10438C00BFF36F8F03683BB1FEF7BCFF002084F3D3
:10439C001188BFF36F8F10BD6FF01500F7E708B5EC
:1043AC00FFF7CEF808BD10B5024601448A42134609
:1043BC0003D01C780132002CF8D1181A10BDF0B5BE
:1043CC00C3F137070446FFB203F01F031046082B56
:1043DC00E6B233D0102B3ED06508A40844EA8174B1
:1043EC0045EAC1752D194FEA910242EB5102290998
:1043FC0041EA02716D1842EB1212290A41EA02617C
:10440C006D1842EB1222290C41EA02416D1842EB65
:10441C001242AD1842F10002EC0844EA4274D10891
:10442C0004EB8402A6EB4205EDB2092D0CD9013444
:10443C00A5F10A0541F10001EDB212E0E40844EAED
:10444C00417406F00705C908303554EA010200F83A
:10445C00015BBCD1F0BD240944EA017406F00F05E0
:10446C000909092D84BFED19EDB2EDE70A4491421B
:10447C0000F1FF3300D1704710B511F8014B03F870
:10448C00014F9142F9D110BD02440346934200D131
:10449C00704703F8011BF9E70148006870470000FA
:0444AC006802002082
:1044B0002D0D000000000000CD0D0000F0440000B4
:1044C0005941000000000000DD100000044500001C
:1044D00051150000184500008D100000000000007C
:1044E000C11A000000000000090D000000000000DB
:1044F00008480000B4460000C4460000A0000020A8
:104500009C02002017480000E0460000F84600002A
:10451000A2000020F00200202D4800001C470000EF
:0C45200050470000A40000201400002000
:10452C00CD2100004F400000000000001D3D0000A8
:10453C0018450000AD3F0000000000001D3D0000CC
:10454C00000000001D3D0000000000001D3D0000AB
:10455C00792700004F400000000000001D3D0000C6
:10456C00000000001D3D0000000000001D3D00008B
:10457C00000000001D3D0000000000001D3D00007B
:10458C00000000001D3D0000000000001D3D00006B
:10459C00000000001D3D0000000000001D3D00005B
:1045AC00000000001D3D000000000000511B000039
:1045BC00000000001D3D0000000000001D3D00003B
:1045CC00000000001D3D0000000000001D3D00002B
:1045DC00000000001D3D0000000000001D3D00001B
:1045EC00000000001D3D0000000000001D3D00000B
:1045FC00000000001D3D0000000000001D3D0000FB
:10460C00000000001D3D0000000000001D3D0000EA
:10461C00000000001D3D0000000000001D3D0000DA
:10462C00000000001D3D0000000000001D3D0000CA
:10463C00000000001D3D0000000000001D3D0000BA
:10464C00000000001D3D0000000000001D3D0000AA
:08465C00000000001D3D0000FC
:0C466400FFFFFFFFFFFFFFFFFFFFFFFF56
:104670000338FDD870470000000000200000000053
:1046800000000B06020000008C4600000000000045
:10469000F947000024000207000000200148000044
:1046A0001E000B1104000020890D0000590D0000B0
:1046B00000000000FD0E00007D0E0000590E0000FD
:1046C0007B3E0000250E0000F93D00005B3E00002F
:1046D00000000000953D0000000000000000000008
:1046E000FFFFFFFF0000005000000000000000007E
:1046F000006000400000000061110000873E0000E3
:10470000953E0000AD3E0000B93E0000C53E0000F1
:10471000E1120000DF3E0000000000000020004029
:1047200002000000000000002C47000000200040B4
:10473000384700000100000040470000040000006E
:104740000600000008000200050004000700060043
:10475000653F000095170000573F0000B04400007F
:10476000B0440000E0440000E8440000F0440000D1
:10477000F04400006E72663532646B2F6E726635DF
:10478000323833320048656C6C6F20576F726C643E
:10479000212025730A002A2A2A20426F6F74696E2D
:1047A00067206E524620436F6E6E656374205344DB
:1047B0004B2076322E372E302D3563623835353723
:1047C0003063613433202A2A2A0A002A2A2A2055F3
:1047D00073696E67205A6570687972204F5320762E
:1047E000332E362E39392D313030626566633730DD
:1047F000633734202A2A2A0A00464C4153485F3046
:10480000005352414D5F3000636C6F636B40343036
:10481000303030303030006770696F4035303030C4
:104820003030303000000102030405060775617264
:10483000744034303030323030300000000000013D
:10484000000000010100000101010100000000540E
:1048500065726D696E616C000000000000005454C8
:104860005220524547474553006D61696E00286EDE
:10487000756C6C29002A666C6F61742A0000000058
:104880002D3B0000000000008B3D000000000000F8
:10489000000000000000000000C201000001030051
:1048A00000000000EB030020EA03002000000000ED
:1048B00000000000000000000000000000000000F8
:1048C00000000000000000000000000000000000E8
:1048D00000000000000000000000000000000000D8
:1048E00000000000000000000000000000000000C8
:1048F00000000000000000000000000000000000B8
:1049000008000000FF00000000000000010000009F
:1049100000000000FFFF0F0098000020980000201A
:0649200000000000000091
:0449260015E015E0A3
:04000003000006D122
:00000001FF
