:020000040100F9
:10000000B084002141D001010D5C02012DD001011D
:100010002DD001012DD001012DD0010100000000E3
:10002000000000000000000000000000EDD1010110
:100030002DD0010100000000ADD101012DD0010142
:10004000A5D30101A5D30101A5D30101A5D30101C8
:10005000A5D30101A5D30101A5D30101A5D30101B8
:10006000DF600201A5D30101A5D30101A5D30101E0
:10007000AB600201A5D30101A5D30101A5D3010104
:10008000A5D30101C5600201A5D30101A5D30101DA
:10009000A5D30101A5D30101A5D30101A5D3010178
:1000A000A5D30101A5D30101A5D30101A5D3010168
:1000B000A5D30101A5D301012DE9F00791E8F807C7
:1000C000B2E802105B1854EB0C04B2E802104D4188
:1000D00056EB0C06B2E802104F4158EB0C08B2E8A0
:1000E000021059EB01095AEB0C0A80E8F80780412D
:1000F0000130BDE8F00770472DE9F00791E8F807F7
:10010000B2E802105B1A74EB0C04B2E802108D41E5
:1001100076EB0C06B2E802108F4178EB0C08B2E8DF
:10012000021079EB01097AEB0C0A80E8F8078041AC
:100130004042BDE8F00770472DE9F007524290E8D1
:100140007800B1E880071740DB1918EA020854EB81
:10015000080419EA020955EB09051AEA020A56EBE6
:100160000A0678C090E87800B1E8800717407B4124
:1001700018EA020854EB080419EA020955EB0905CC
:100180001AEA020A56EB0A0678C080410130BDE83F
:10019000F00770472DE9F007524290E87800B1E887
:1001A00080071740DB1B18EA020874EB080419EA01
:1001B000020975EB09051AEA020A76EB0A0678C00D
:1001C00090E87800B1E880071740BB4118EA0208C0
:1001D00074EB080419EA020975EB09051AEA020A28
:1001E00076EB0A0678C080414042BDE8F0077047D0
:1001F0002DE9F00152424FF0040890E8300091E8F8
:10020000C000A31B1340E41AF618EB1B1340ED1AB1
:10021000FF1830C0C0C1B8F10108EED1BDE8F0014F
:10022000704700BF00B592E8DC072DE9DC07B1E8B4
:10023000805702B4A7FB02510A95A8FB020B0918CC
:100240000020E7FB03105BEB000B00204041E9FBC3
:1002500002B00B91A8FB0351401800214941EAFB71
:1002600002011BEB050B0025E7FB04B568410025E7
:10027000E7FB0605694100256D41E8FB0615CDF851
:1002800030B0A9FB03B689190026EAFB03167541B5
:1002900000267641ECFB035610EB0B005FF0000BE1
:1002A000E8FB040B51EB0B015FF0000BE9FB041BB7
:1002B00055EB0B055FF0000BEAFB045B56EB0B06FE
:1002C0005FF0000B5BEB0B0BECFB046B0D90ACFBDE
:1002D0000230059C2D180020EEFB02504641002004
:1002E000E9FB04605BEB000B00204041EAFB04B03B
:1002F0005B180021E7FB04314D410021E8FB04516C
:10030000069C4E410021E8FB04615BEB010B0021E0
:10031000E9FB04B1484100214941EAFB04010E9385
:10032000A7FB0432079CB6180022E7FB04625BEBD4
:10033000020B0022E8FB04B250410022E9FB040258
:10034000514100225241EAFB0412049CED180023A3
:10035000E9FB04535E410023EAFB0463089C5BEB6A
:10036000030B0023E7FB04B358410023E8FB04031D
:1003700059410023E9FB04135A4100235B41EAFB86
:1003800004230F955DF8049B99E80006DDF80080D2
:10039000A9FB08541BEB040B0024EAFB08B4DDF8AE
:1003A000108060410024ECFB080461410024EEFB56
:1003B000081462410024E9FB0824634100246441DD
:1003C000EAFB0834DDF8048076190025EEFB0865A9
:1003D0005BEB050B0025E9FB08B568410025EAFB4E
:1003E0000805DDF8148069410025ECFB08156A4119
:1003F0000025EEFB08256B410025E9FB08356C4123
:1004000000256D41EAFB08450F96DDF80880AEFB3C
:10041000087680190026E9FB080671410026EAFBF0
:100420000816DDF8188072410026ECFB082673419F
:100430000026EEFB083674410026E9FB08467541AC
:1004400000267641EAFB0856DDF80C801BEB070B13
:100450000027ECFB08B778410027EEFB080779413D
:100460000027E9FB08177A410027EAFB0827DDF897
:100470001C807B410027ECFB08377C410027EEFB0A
:1004800008477D410027E9FB08577E4100277F414F
:10049000EAFB086708B000BD2DE9F14F87B0FFF710
:1004A000C1FEDDF81C8008F1200888E8FF00FFBCD1
:1004B00087E87F08BDE8F08F00B591E84C57A2FBB4
:1004C00002410194A2FB034524190020E2FB0650DF
:1004D0006D417F41641802940021E2FB0801A3FBF7
:1004E000034B654103950024E3FB060440417F4133
:1004F000091900246441E2FB0914FF0750EB0B00CB
:1005000004900025E2FB0A455FF0000BE3FB081BAB
:1005100049415FEA370714EB0B045FF0000BE3FB84
:10052000094B55EB0B055FF0000B5BEB0B0BE2FB94
:100530000C5BFF0F0020E2FB0EB000225141E6FBF6
:10054000061205910021E6FB084164417F416D18C8
:100550000021E3FB0A515BEB010B0021E3FB0CB133
:10056000484100214941E3FB0E010023E6FB09530A
:100570001BEB030B0023E6FB0AB358410023E6FB09
:100580000C03594100235B41E6FB0E13FF07544166
:1005900006946D417F41A8FB08265541079500222E
:1005A000E8FB09B25BEB0B0B7F4180180022E8FBF4
:1005B0000A0251410022E8FB0C125A4100235B4120
:1005C000E8FB0E230024E9FB0E340025E9FB0A15A5
:1005D00052190025E9FB0C256B410025EAFB0C357F
:1005E0006C4100256D41EAFB0E45FF075BEB060BF6
:1005F0000026ECFB0E564041494152415B416441AB
:100600006D417641AEFB0EE848F100087F00A9FB82
:100610000979784151EB0901AAFB0A7A7A4153EB37
:100620000A03ACFB0C7C7C4155EB0C0556EB0E062B
:1006300048F1000700BD00BF2DE9F14F87B0FFF77B
:100640003BFFDDF81C8008F1200888E8FF00FFBCB4
:1006500087E87F08BDE8F08F30B44FF0000310F852
:10066000014B11F8015B013A84EA050443EA0403F3
:10067000F5D1A3F101034FEAD37030BC704700BF3E
:100680004FF0000310F8012B013943EA0203F9D1BE
:10069000A3F101034FEAD370704700BF30B411F8E3
:1006A000014B12F8015B6C4000F8014B013BF6D1A5
:1006B00030BC70472DE9F00791E8F807B2E8021066
:1006C0005B1854EB0C04B2E802104D4156EB0C06DB
:1006D000B2E802104F4158EB0C08B2E8021059EB97
:1006E00001095AEB0C0A8941B3F1FF3374F1FF346D
:1006F00075F1FF3576F1000677F1000778F1000813
:1007000079F101097AF1FF3A51F100015B184C418E
:100710004D4156F1000657F1000758F1000859EB1A
:10072000D1795AEB010A80E8F807BDE8F007704775
:100730002DE9F00791E8F807B2E802105B1A74EBB4
:100740000C04B2E802108D4176EB0C06B2E8021000
:100750008F4178EB0C08B2E8021079EB01097AEBD3
:100760000C0A89415B184C414D4156F1000657F186
:10077000000758F1000859EBD1795AEB010A80E8DB
:10078000F807BDE8F007704718EB040859EB0509B6
:100790005AEB060A5BEB070B5FF0000C4CF1000C08
:1007A00018EB050859EB06095AEB070A5BEB070B38
:1007B00050EB0C005FF0000C51EB0C0152EB0C0203
:1007C00063414CF1000CB8EB070879F100097AF1AC
:1007D000000A7BEB040BA841B141A241B3416CF18B
:1007E000000CBBEB050BB041B941AA41BB416CF118
:1007F000000C4CF001068CF0020718EB060859EBD0
:100800006C095AEB6C0A7BEB6C0B70EB6C0471EBB4
:100810006C0572EB670653EB6C076CEB6C0C18EB1A
:100820000C0059EB0C015AEB0C025BF1000354F184
:10083000000455F1000556EBDC7657EB0C077047CA
:100840002DE9F14F87B0FFF7EDFCDDF81080DDF802
:100850001490DDF818A0FFF797FFBDE8000FFFF731
:1008600093FF03B05DF8048B88E8FF00BDE8F08FCC
:100870002DE9F14F87B0FFF71FFEDDF81080DDF89E
:100880001490DDF818A0FFF77FFFBDE8000FFFF719
:100890007BFF03B05DF8048B88E8FF00BDE8F08FB4
:1008A0001FB50B4B01A901934FF4B473ADF8083099
:1008B00008238DF80A30837803208DF80B30FF234E
:1008C0008DF80C3000F0C4FE05B05DF804FB00BFED
:1008D00061B301011FB50B4B01A901934FF44473A0
:1008E000ADF8083008238DF80A30437802208DF8DF
:1008F0000B3000238DF80C3000F0AAFE05B05DF837
:1009000004FB00BFC5B701011FB5002301A90120E9
:1009100003930193084B0293084B1B78002B14BFE1
:10092000022301238DF80B30FF238DF80C3000F0EB
:100930008FFE05B05DF804FB40010800700900213E
:100940001FB50A4B01A901934FF42A73ADF8083083
:1009500008238DF80A30037800208DF80B308DF8CD
:100960000C0000F075FE05B05DF804FB91B90101C3
:100970001FB572B6194B5D68E5B9BFF34F8F1849C3
:10098000184BCA6802F4E0621343CB60BFF34F8F89
:1009900000BFFDE7B4FBF6F4D3B20132002CF9D16D
:1009A00003F110026A4402F80C4C0A2233B901A880
:1009B000A847E2E7044600220A26EDE7013BDBB246
:1009C00003F110040DEB0406B0FBF2F402FB14007B
:1009D000303006F80C0C2046E8E700BF7009002113
:1009E00000ED00E00400FA0513B5114C6846237CC5
:1009F0008DF80130E37B8DF80030A37BADF8043037
:100A0000637BADF802300AF0E9FE18B1DD21032066
:100A1000FFF7AEFFA07E0AF045FF08B1E021F6E740
:100A2000607E0AF039FF08B1E121F0E702B010BDA5
:100A3000700900212DE9F34104460D4671B91C4BA4
:100A400093F82E3053B9012101A80193FFF7F2FF6B
:100A500020B940F206210320FFF78AFF2368002D0A
:100A6000144F4FF0000603F10703DFF84C800CBF72
:100A70002046002023F00703236000F0C1FD57F853
:100A8000043B0BB1404698470136122EF7D100F0D7
:100A90002FFE031E09DB206818440DB1002804DB7B
:100AA0002060012002B0BDE8F0810020FAE700BF1D
:100AB0007009002150000021780900212DE9FF4133
:100AC000B0FA80F60546039003A876093146FFF791
:100AD000B1FF20B96FF00B0004B0BDE8F0818F4C7E
:100AE000637A277AA17B607B1F44E27B0331237CFE
:100AF000033016F0BDFF039B002D07FB00F103F14F
:100B0000030308BF002023F0030318BF1846039314
:100B100000F050FF039B0DB9C342DBD41844A37A05
:100B20000390C3B1E17D1944E37A1944FF29D1DC74
:100B30000330002D628AC9B220F00300039008BF81
:100B4000002000F0A7FF031EC4DB039818440DB972
:100B50000028BFDB0390724F7B68F3B1617CE1B189
:100B600094F82F300398002B00F1070014BF4023A6
:100B7000252320F0070014BF4FF481722822002D96
:100B8000039008BF002006F051FC031EA2DB03986F
:100B900018440DB900289DDB0390217DC1B1A37AD3
:100BA0001BB97B68A3B1637C93B10398002D00F15E
:100BB000070020F00700039008BF00200DF06EF83A
:100BC000031E87DB039818440DB9002882DB0390CD
:100BD000544B1B68B3B1217BA1B10398002D627DFA
:100BE00000F1030020F00300039008BF00209847A5
:100BF000031EFFF66FAF0398184415B90028FFF6DF
:100C000069AF0390484B1B68ABB1A17D99B10398C4
:100C1000002D00F1030020F00300039008BF002026
:100C20009847031EFFF656AF0398184415B90028DD
:100C3000FFF650AF03903D4BD3F80080B8F1000FA2
:100C400019D0E17DB9B10398002DA37E00F1030016
:100C5000227E009320F00300637E039008BF0020F3
:100C6000C047031EFFF636AF0398184415B9002895
:100C7000FFF630AF0390FB69BBB1217BA9B10398AC
:100C8000002D227F00F1030020F00300039008BF35
:100C9000002000F0EDFF031EFFF61CAF0398184480
:100CA00015B90028FFF616AF039094F82700C0B1DD
:100CB000039A94F821300332A17F22F007021944ED
:100CC000334642F00402C9B2039201F013F8031E46
:100CD000FFF600AF0398184415B90028FFF6FAAEE6
:100CE000039094F82810002975D0039F002D628D81
:100CF00007F1070708BF002027F0070718BF38468D
:100D0000039716F0CAFE031EFFF6E4AE03981844DC
:100D100075B90028FFF6DEAE0AE000BF70090021B9
:100D20005000002198000021A00000219C0000211B
:100D300003901DB1618D384612F0A2F994F822108B
:100D400000294AD094F82630002B46D00398002D75
:100D5000A28C00F1070002F1240220F0070092B2F9
:100D6000039008BF002016F098FE021EFFF6B2AEF8
:100D7000039F3A4415B9002AFFF6ACAE033294F84B
:100D80002030A17F22F0070294F826001944334650
:100D900042F00402C9B2039200F09EFF031EFFF668
:100DA00099AE0398184415B90028FFF693AE039046
:100DB0003DB1A28C384694F82210083292B212F05B
:100DC00065F9236BA3B1039B05B123632833039318
:100DD0004DB1002080E60F46ABE7002DF1D0002298
:100DE00011461046EBE7002BFFF674AE039873E64E
:100DF000002DEED1FAE700BF38B50546002844D0F3
:100E000015F09CFB10B94FF0FF3038BD1AF0BAFE58
:100E1000B0F5FA7FF7D81F4C1F486560002500F039
:100E2000CFFA482229461D4884F82E5015F004FFB9
:100E30002622294604F10800257084F82F502563E6
:100E400015F0FAFE1B2240F20113627340F21B32CE
:100E500023810123E28140F20232A37222821F2207
:100E60002377F72362824FF40272A384FB23A282CA
:100E700044F6011263852283EFF3108472B600F00A
:100E800049FF2CB962B62046BFE76FF01500BCE7FA
:100E90002846BAE770090021E90900015000002145
:100EA00010B5002840F0AB80564C94F82E30032B40
:100EB00000F0A280A1B1002A70D00139142900F2FB
:100EC0009E80DFE801F00B1C1F2F575F78356265AD
:100ED000733B414E537D808E91958500137823722C
:100EE0000020FFF7EBFD0028B7BF012302236FF0BE
:100EF0000B0084F82E30A8BF84F82E3010BD137874
:100F00006372EDE79378002B48D0D378002B45D05F
:100F100013781A2B42D953781A2B3FD91368C4F887
:100F20000D30DDE71378E27A934237D3A372D7E727
:100F30001378A27A934231D8E372D1E71378A27A78
:100F400093422BD8E375CBE713783BB35378013B3F
:100F5000DBB2F82B22D81388927823832A4B9A701D
:100F6000BEE71078E07610F069FBB9E71378ABB113
:100F70002377B5E71378254A52680AB1012B0DD9BA
:100F80006374ADE713886382AAE713782373A7E736
:100F90001E491378C96921B9012B04D86FF01500D7
:100FA000ACE7002BFAD01378637599E71378082B18
:100FB000F4D8A37594E71388FF2BEFD823758FE738
:100FC000137863778CE713780E2BE7D8A37787E73E
:100FD00013680F49C4F8223053684B6013890B81A2
:100FE0007EE71378E3777BE7137884F8213077E79F
:100FF000137884F8203073E74FF0FF307EE76FF00E
:101000002C007BE770090021880900215000002195
:1010100092090021F8B50D46074660B359B311F0A7
:10102000070428D1154E96F82E30012B02D16FF00F
:101030000B00F8BD032B02D14FF0FF30F9E700F0B1
:10104000F3F80028F8D02846FFF738FD0028EEDB3B
:10105000384615F0E7FB86F8340010F0F5FA96F8FC
:101060003400316B0AF0F6FCFFF7BEFC0323204688
:1010700086F82E30DDE76FF01500DAE77009002101
:1010800010B5084C94F82E30032B05D10AF0FEFC65
:1010900094F8340015F0E2FB16F047FE002084F8C7
:1010A0002E0010BD7009002150B1074B03F114024E
:1010B00053F8041B934240F8041BF9D100207047F9
:1010C0006FF01500704700BF09980201074B10B57B
:1010D00093F82E4034B90AF04FFC054B054A2046E0
:1010E000DA6010BD4FF0FF30FBE700BF7009002150
:1010F00050000021A1080001074B10B593F82E40C5
:1011000034B90AF04DFC054B054A20469A6010BDE3
:101110004FF0FF30FBE700BF7009002150000021B5
:10112000D508000108B50B4B93F82E2072B993F83F
:101130002F3043B10AF072FC074B0020074A5A6077
:10114000074A1A6008BD0AF04DFCF5E74FF0FF3082
:10115000F8E700BF700900215000002109090001D3
:1011600041090001054B10B593F82E401CB90AF057
:10117000B5FB204610BD4FF0FF30FBE770090021A2
:10118000054B10B593F82E401CB90AF099FB204688
:1011900010BD4FF0FF30FBE770090021054B10B583
:1011A00093F82E401CB917F074FF204610BD4FF085
:1011B000FF30FBE770090021054B10B593F82E4076
:1011C0001CB917F069FF204610BD4FF0FF30FBE758
:1011D00070090021054B10B593F82E401CB917F08B
:1011E0005EFF204610BD4FF0FF30FBE77009002185
:1011F000054B10B593F82E401CB917F052FF20464E
:1012000010BD4FF0FF30FBE770090021026800209D
:10121000014B1A60704700BFA8090021014B1B68F1
:10122000184700BFA8090021024B1868003818BFF2
:1012300001207047A809002173B5031D2D4D0446F8
:101240002B6028460BF09AFD0228064606D1294954
:10125000204615F0CCFD304602B070BD042842D1C6
:101260002B78092B0AD0252B1ED02946204615F0B5
:1012700038FEB0F5817F2DD3722112E005213E208A
:1012800015F088FD0028F0D1EB7801A92A7968468D
:1012900043EA0223ADF8003016F0C0F90028D0D0A0
:1012A00053210820FFF764FB1A213E2015F072FD40
:1012B0000028DAD16B68694601A8C3F30F23ADF8A3
:1012C000043011238DF8063016F0CAF90028B8D082
:1012D0006521E6E70028B4D0A178207815F05AFD02
:1012E0000028B8D1ADE70828B5D10249204615F04D
:1012F000B6FDB0E7AC090021074B4FF0FF3141F6D6
:10130000FF72C3E9001205490022C1E900221F2132
:10131000C3E90212704700BF00000021B00A00219B
:101320003F280CD801380B4BC0F3421200F01F00CD
:1013300053F8223023FA00F000F001007047FF2834
:1013400006D04038044BC0F3421200F01F00EFE714
:101350000120704700000021B00A0021074B014620
:10136000006849681A4603C240F48C221A6041F0B2
:10137000107242F4FF625A60704700BF0000002103
:101380000246024B0068516803C37047B00A00214F
:101390000246024B0068516803C3704708000021F1
:1013A0000138064BC0F3421200F01F0003EB82032A
:1013B0009B6823FA00F000F0010070470000002154
:1013C000014B1860704700BFB80A002110B5FFF745
:1013D00093FF17F072F8034B04461B6803B198475C
:1013E000204610BDB80A002138B5274B0446D3F873
:1013F000A022D3F8A412013106D1D3F8A8324FF6B7
:10140000FF719BB28B423DD0D3073BD51E4DD5F823
:10141000A422D5F8A832C4F80120A4F80530C3F3FB
:10142000072363F03F03A371D5F89032013323D033
:10143000D5F8943201331FD0D5F8983201331BD040
:10144000D5F89C32013317D000200AF0A1FD98B9DD
:10145000D5F89002D5F89412D5F89822D5F89C3298
:10146000C4F80700C4F80B10C4F80F20C4F81330F8
:1014700001230020237038BD10220021E01D15F04B
:10148000DBFBF5E70023F4E70000FF0170B5274D13
:10149000102200210446D5F8A06215F0CDFB1022E1
:1014A0000021A01815F0C8FBD5F8803201330BD10C
:1014B000D5F88432013307D1D5F88832013303D10E
:1014C000D5F88C3201330BD0D5F88002D5F88412D0
:1014D000D5F88822D5F88C3220616161A261E36180
:1014E00000200AF055FD08B9F3071CD40F4BD3F8C0
:1014F000902201320BD1D3F89422013207D1D3F8D4
:101500009822013203D1D3F89C2201320BD0D3F8B8
:101510009002D3F89412D3F89822D3F89C3220602A
:101520006160A260E360002070BD00BF0000FF01A9
:1015300070B50C88C27CA6B2C4F30E04931C058857
:1015400004F114021D44825AADB21A4443882A445D
:10155000013AB2FBF5F202FB054292B29342044B10
:101560008BBF3340B34313439BB20B8070BD00BFAE
:101570000080FFFF4A1E062A08B50346084604D825
:101580004FF4D1711520FFF7F3F9094A914202D9BE
:1015900040F2A311F6E711B903B1196008BD2BB1F0
:1015A0001B680022C3E901211A1D1A600430F5E707
:1015B000FAFFFF7F10B5114B00EB41041A786389E5
:1015C000B3FBF2F303FB0223013A1A44B2F5706F46
:1015D000027928BF00231A448378B2FBF3F0194440
:1015E00003FB1020091AB1FBF3F003FB10131344A3
:1015F0006FEA43436FEA5343638110BDBC0A002185
:10160000124B10B5E0B15A78022A04D040F22B11E7
:101610001720FFF7ADF903225A70026812F0070194
:1016200002D04FF49871F3E75C685A602244BDE839
:101630001040026003F10C009A60482215F0FCBAD9
:101640000122C3E901005A7010BD00BFBC0A00218D
:101650002DE9F041254E96F801E00EF0FD0CBCF1AD
:10166000010F04D040F245111720FFF781F991F8DE
:101670000680B8F1080F02D940F24711F4E7CF799C
:1016800097B345467B1D7268022D4FEA430402EB77
:10169000430338BF02256A1E6D421344C8F100029D
:1016A0002B408D884544013D2A40B2F5803F02D34E
:1016B0004FF4A971D8E7BEF1030F12D106EB8000F9
:1016C0001C1BC56815B140F25711CDE7C460A77067
:1016D000228084F803C0087A09682071080C2181EF
:1016E000E08007FB02337360BDE8F081BC0A002193
:1016F0002DE9F047364C6378012B65D0032B04D0DD
:1017000040F267111720FFF733F9D4E901329A420A
:1017100002D04FF4B571F5E70023254611221E468D
:10172000994605F80C3B55F82200013A58B190F85B
:1017300004808178B8F1FF0F2FD180F804908E4299
:101740003CBFCEB20123511CEDD103B1267011264E
:1017500040F6FF6955F826709FBB013EFAD204237C
:1017600000206370BDE8F08755F82CE0BEF1000F53
:1017700006D09EF804A0C24504BF9EF802E077445C
:101780000CF1FF3CBCF1000FEEDA3944FF2907D918
:1017900003B126704FF48371B4E794460027F1E754
:1017A0000771CCE707EB410308F101083846A3F8BD
:1017B0000A90FFF7FFFE5FFA88F1BB788B42F1D801
:1017C000CBE74FF00008F6E7022360686370C9E7D3
:1017D000BC0A0021F8B54FF6FF7305460380184B8D
:1017E00003EB8103D868B8B186780379B3FBF6F2CE
:1017F00006FB1233DBB219460A1D00EB4202B2F9B6
:1018000002705488002F09DB0131B1FBF6F206FBB0
:101810001211C9B28B42EFD10020F8BDFF29FBD0D5
:10182000C4F30E03C4782B8024B94FF4D971172068
:10183000FFF79EF85380BDE8F84016F0F8B800BFF7
:10184000BC0A00211D4B03EB810370B5DC68054623
:1018500044B3030404D54FF4E0711720FFF788F870
:101860000146204616F0C6F8FF28014604D020465F
:10187000BDE8704016F0DBB8A078B5FBF0F300FBD4
:101880001353DBB219460A1D04EB4206B6F9026097
:10189000002E09DB0131B1FBF0F200FB1211C9B2DD
:1018A0008B42F0D1002070BDFF29FBD08B4204EBAE
:1018B00042021CBF0023E3705580D8E7BC0A002118
:1018C000094B03EB8103014610B5DC68204616F096
:1018D00091F8FF28014604D02046BDE8104016F0DC
:1018E000A6B8002010BD00BFBC0A0021F8B5104BFF
:1018F000074603EB81030146DC68204616F07AF8C0
:10190000FF28054611D0E688238953EA064606D00B
:101910000146204616F08BF801463846B04720466F
:101920002946FFF747FE0020F8BD0520FCE700BF71
:10193000BC0A002138B50E4B0446827903EB8203C2
:10194000D86808B9052038BD8278E1799142F9D28A
:101950004B1CE37100EB41035D89B3F90A30002BA6
:10196000F3DBA58016F063F820600020EBE700BFF2
:10197000BC0A002108B50E4B03EB8103DA6822B9DB
:1019800040F22E211720FEF7F3FF9178831A481DAD
:10199000A3EB40031088B3FBF0F3002B01DB99426B
:1019A00002DC40F23121EDE702EB4303588908BD28
:1019B000BC0A002170B5044610F003000E4603D0A7
:1019C0004F211820FEF7D4FFFFF7D4FD054624B1C0
:1019D000034831460460FFF7CDFD284670BD00BFC7
:1019E000100B00212DE9F14FDFF870B01E460746BD
:1019F0000D46DBF8003090469DF828A09DF82C900D
:101A00001BB961211820FEF7B3FF52460921404659
:101A100015F077FE4A4684B20921304615F071FE72
:101A200081B2DBF80000214415F0B9FF386018B925
:101A3000286001B0BDE8F08F0444534641460922B6
:101A40002C60386815F016FE4B460922314628688E
:101A500001B0BDE8F04F15F00DBE00BF100B002126
:101A600070B50E46044615F05FFE0546304615F08B
:101A70005BFE044B2A1821461868BDE8704015F03B
:101A8000B2BF00BF100B0021014B186815F07BBFDF
:101A9000100B00211F2AF8B5044613460ED89200F9
:101AA000033222F00303B3F5803F2DD2184DACB1C1
:101AB000A00710D05F210920FEF75AFFFF2B4FEA45
:101AC000420204D9FF339A42A8BF1A46E8E77C2AAB
:101AD000B8BF7C22E4E729706C602B8122F00302FE
:101AE00028230127120403FB01F06B680025120C68
:101AF000EEB28E4200D3F8BD14B126181F705E609E
:101B0000104401352833F3E74FF0FF30F3E700BF0F
:101B1000140B0021144A002138B553681478C8B258
:101B2000844203D8AB210920FEF722FF1846013179
:101B300028330578002DF2D000218170012412890C
:101B40008161051D44709208C16100F12001446863
:101B500021F8022B994245F8044B1444F8D1002394
:101B60004361037038BD00BF140B00210A4B1B8971
:101B7000B3F5FF7F4FEA930006D25A089B1A9BB237
:101B8000984238BF18467047B3F5EE6F01D8FF2270
:101B9000F4E740F27263F3E7140B00212DE9F843F8
:101BA0004B7880460C4602F0040602F0FB07D3B1E6
:101BB000DFB12E4BD4F804901D89B7BB0123AD08CB
:101BC0004A46211D637004F1280004F12003A76137
:101BD000E76123F8025B984241F8042B2A44F8D1CC
:101BE0000023636101E0002FE3D0FF23A370002EE8
:101BF00018BF0226A3191B7D032B03D1022F1CBF84
:101C00000136F6B2A31901221A7506F10C0200235F
:101C100004EB860624F812307268A3704046C8F8B8
:101C20000020A8F80430BDE8F88300211422617078
:101C3000A01815F001F8B5F5FF7F0FD26B08ED1A6B
:101C4000ADB209EB0502C4F804902584A260638458
:101C5000C4F80C90A5842261E384C6E7B5F5EE6F65
:101C60004FF0FF03EBD940F27265EAE7140B002155
:101C70002DE9F84305460C46F7200521914615F05D
:101C800040FD061E22DB1DB906FB04F0BDE8F8830B
:101C900015F0030703D098211920FEF769FEDFF83D
:101CA0003480C8F81050A5B2A8F81460BBB29D42A9
:101CB000EAD9B8F814C04B46D8F810000522F7212D
:101CC00007FB0C00013715F0D5FCEFE74FF0FF30B4
:101CD000DCE700BF280B002107B5CDE900230B4648
:101CE00003490246081D15F0FAFF03B05DF804FB36
:101CF000400B002113B5064CCDE900230B460246EC
:101D000004F1080104F10C0015F0E9FF02B010BD68
:101D1000400B0021144B012200214FF0FF309A604C
:101D2000C3F80012C3F80803C3F80015C3F804256C
:101D30009A60C3F808034FF48040C3F80015C3F855
:101D4000042503F5805341F6F8720849C3F80825C5
:101D5000C1F88000BFF34F8FBFF36F8FC1F88001D0
:101D6000C3F80825704700BF00E0004100E100E033
:101D70008C463822064B00B50CF8032B8E4607CB59
:101D8000CEF80300CCF80410CCF808205DF804FB72
:101D90005C0B002110B5154C10F01CFC0FF0FEFD83
:101DA0000021636A608C9847237E9BB9104B628C3C
:101DB00093E803000BF0FCFFE36A18880BF022FFA6
:101DC000636B94F8301094F831009847002384F83E
:101DD000383010BD94E8070004F10C0383E80700D5
:101DE000044904F1190018F067FADFE7500B0021ED
:101DF000780B0021711D0001034B93F8383003B9B3
:101E00007047FFF7C7BF00BF500B002138B5224D08
:101E1000044695F828300BB1C3070ED4012913D816
:101E20002B6C2046984778B195F8300060B995F84A
:101E300028305BB964B9002038BD6B8F1807EDD529
:101E4000EB6BDB78022BE9D1012038BD002CF3D1FC
:101E500095F84420D20609D5A3B100226B8F9B07C9
:101E60000ED5EB6BDB78022BEED1E4E7D5E912213E
:101E70001278C2F30012C2F1010239B1002BEDD188
:101E8000002AE1D1688F0028DED138BDB5F85010A6
:101E90000029D9D1F2E700BF500B002140F21A41CE
:101EA000062008B5FEF764FD08B5094B93F8382005
:101EB000022A07D1DA7A42F00102DA72BDE808405C
:101EC000FFF768BF40F256212720FEF751FD00BF03
:101ED000500B0021F8B5234C0646E56AA36C95F833
:101EE000A42005F1900794F8580063650AB1031D1A
:101EF000D8B2FF2895F87D1004D11EB995F87C3032
:101F0000994202D00FF0F2FE3A7D22B3E06D10F05C
:101F100073FC94F82830E16D003B606D18BF01231D
:101F200084F87830D7E91E23C4E91C230FF0D4FCD1
:101F300046B995F87D30033B012B94BF2820002043
:101F400010F0C0FC95F87C10002010F01FFD02235B
:101F500084F83830F8BD606D10F04EFC0FF01EFDB7
:101F6000E6E700BF500B00212DE9F041394C82B06B
:101F700006460F4694F83830E56A012B5FFA83F87D
:101F800005F190055ED12B796BB1638F00210420A0
:101F900043F0040329716387636A984794F82830F3
:101FA0000BB185F80680E16B0B7803F00303032B7C
:101FB00031D04B7863B30223AB722B7DDBB194F845
:101FC0002830003B18BF012384F87830D5E91E2360
:101FD000C4E91C23E36A94F8582093F87D30013B50
:101FE000DBB2032B33D81C490020CB5C00900120CE
:101FF0001A490FF007FC012F05D126B931463046AA
:10200000FFF704FFC8B102B0BDE8F041FFF7C2BE60
:102010000123AB72D1E7AB7A63B9638F022043F03F
:1020200002036387636A9847E16B0B7803F003034D
:10203000032BBED10323AB72BFE702B0BDE8F04172
:10204000FFF748BF40F2A5412720FEF791FCFFF7BC
:1020500025FF00BF500B00219C720201B00B002134
:1020600070B5814C002382B0E56A8DF8053095F893
:10207000A42005F1900694F858300AB10433DBB27D
:10208000FF2B11D180B995F87D3095F87C108B42EB
:1020900002D0FF200FF02AFEB37A032B00F2DF807C
:1020A000DFE803F00520837395F87C10F1E794F8DE
:1020B000BA306E48ADF80630A5F86C3009F004FF70
:1020C000002840F098800DF105020DF10601D4F8CA
:1020D000BC0015F051FBE06320B196F85130002BA5
:1020E00000F09F80624B1846E363F37ADB0003F055
:1020F0000802037803F0F3031343327B920002F0EB
:102100000402134303F0EF0203F00303032B0270F6
:1021100002D1C378022B12D0D4F8BC0015F096FB84
:1021200048B9E06B027802F00303032B07D009F0F3
:10213000F1FE00286ED1E06B027842F010020270CE
:10214000F37C13B14378002B42D110F055FB0FF014
:1021500025FCE66B0AF0FCFE20B1337803F00303A4
:10216000032B5AD095F87D10012010F00FFCE26B84
:10217000012340491088927884F8C030A4F84400C4
:1021800084F838308A7002B070BD384809F09CFE7F
:1021900000285AD0E06BC3781B2B15D1012105F123
:1021A00010000FF0D3FDE06B0EE0B5F86C300DF1D0
:1021B00005020DF10601D4F8BC00ADF8063015F0AB
:1021C000DBFAE063002845D0012384F8BB308CE7BC
:1021D000E06D10F011FB94F82810E06DD6E91C2397
:1021E000B1FA81F6E16B7609C4E91C2384F87860C2
:1021F0000FF072FBADE7638F8020E16B43F080034B
:10220000626A638790470121E06B7171C3781B2B71
:10221000DAD1C4E7E06B027891E7012011F0A2FB6C
:10222000A0E79DF8053043B1BDF8061018F008F896
:102230000123E06B84F8BB3057E7038001218370F2
:10224000E06B17F0E7FEE06BEEE74FF440712720FC
:10225000FEF78EFB40F2F6212720FEF789FB40F2C5
:102260000E312720FEF784FB500B00218C0B002140
:10227000D80B0021940B00210D4B0E4A70B50E4C6B
:102280001A6094F838301BB1E1212720FEF770FB6B
:1022900003F0FF0206460D4622760BF081FD012178
:1022A00004F1880017F0B6FEA664E56570BD00BFB6
:1022B000A4000021C82B0001500B0021074A10B5D3
:1022C00092F8383013B10C24204610BD03F0FF04FF
:1022D00014760BF065FD204610BD00BF500B0021A9
:1022E000024B012283F8C120704700BF500B002130
:1022F0002DE9F04184B0BC4C02AD85E8030094F8B0
:1023000038100A98002940F0AE81002B18BF002A2F
:1023100000F0A981B0FA80F14909002800F0A381FA
:10232000236404F12803606384F8C11084F830103A
:1023300084F8C21084F8311084F8C01084F8BB10FF
:1023400061876184626295E8030083E80300E56ABF
:102350000FF030FD0FF022FB95F9800005F190069B
:102360000FF030FEA86B10F02BFA286A0FF030FE49
:1023700096F824000FF036FE94F82870EA6941F6CA
:102380004B53002F00F0C0809A4200F23E814D2056
:102390000FF042FC01200FF087FF692195F87D20A6
:1023A00001200FF0A3FF914B186810F00FFAD5E948
:1023B0000523C4F8BC20C4F8C43095F88B303BB971
:1023C000D5F8843023B1F18F32898A4200F035810B
:1023D000D6F88410D6F88C30854FD6F88000D6F821
:1023E00088200FC7D6F8903094F82810C4F87930B8
:1023F000D6F89430C7F80D30002940F0C680E36A63
:1024000093F89E20263A012A40F28E8093F89F206E
:10241000262A00F0898093F87C70032F08BF0427D8
:1024200005F144083946404618F007F8394617F0D8
:1024300064FAB5F85030024695F87D104046934254
:1024400028BF134684F8BA3017F0BDFF95F87D1009
:1024500096F814800429B5F8587008BF032117F0C6
:102460004CFAB8F1000F01D1043080B2B84228BF55
:102470003846C7B284F8C8700AF06AFD10B12B2F35
:1024800038BF2B2794F8280084F85870002860D1B2
:10249000F37CDBB1012395F87C1084F878300139A6
:1024A000D6E91C23C9B2C4E91C23EA6941F64B539F
:1024B0009A4298BF0420032900F2DF8000224D4B8E
:1024C0000092FB225B5C4A490FF09CF90120FFF768
:1024D000C7FD494BD3F8503523F00803032B00F018
:1024E000C780002396F82400C4E90033A360D5F820
:1024F0008C302A8831892071618022800BB10122C1
:102500001A6004B0BDE8F0819A4200F283804D2049
:102510000FF082FB38460FF0C7FE732195F87C2040
:1025200000200FF0E3FE3EE793F87C7093F84A3208
:10253000002B3FF475AFFA1E012A40F28B80DA1EA1
:10254000012A40F28780012F75D0012B73D002271A
:1025500066E7337DABB195F87D100120013984F831
:102560007800C9B2D6E91E230329C4E91C2300F26E
:102570008480204B3A465B5C002100911C490FF09F
:1025800041F90120FFF7A6FCA3E7E26A92F89E302A
:10259000A3F12600012831D992F89F70262F2DD063
:1025A000A3F121001346012801D8242F4CD1002982
:1025B0003FF431AF242F7FF42EAF92F84E3192F8D2
:1025C0007C7092F8752013405A0743D413F001022F
:1025D00042D19B077FF524AFFB1EDBB2012B39D91B
:1025E000012F18BF02271BE7500B0021A400002178
:1025F000B00B00219C7202010080004192F8DE3293
:1026000092F87C70002B96D10AE796200FF004FB1D
:102610009221C3E696200FF0FFFA194B95F87C2023
:1026200003EB42039988174B01F5FA71A3FB0131C3
:102630008909733174E70127F2E6B5F888100A4476
:10264000F28701221A60C3E692F84E3192F87C704C
:102650005907BBD50427E3E6FB1EDBB2012B8CBF79
:1026600017460427DCE640F26F112720FEF780F9B9
:1026700040F21D212720FEF77BF9FFF70FFC00BF7A
:102680009C720201D34D621008B5124B93F83820AA
:1026900092B193F8282022B993F83830012B14D145
:1026A00008BD93F83820022A0AD1DB6AD3F8180251
:1026B000BDE8084010F0D8B8BDE80840FFF76ABB95
:1026C0004FF40E712720FEF753F94FF40D712720B8
:1026D000FEF74EF9500B0021FFF75CBB014B18765B
:1026E000704700BF500B0021014B93F8C0007047AA
:1026F000500B0021034B93F8BB0010B9588CC0F36A
:10270000C0207047500B0021024B588CC0F3802032
:10271000704700BF500B0021014B93F8C200704777
:10272000500B00212DE9F0411E4F820782B0054673
:10273000FC6A0E4604F1900411D4EB070CD5217B02
:10274000D4E91E32013342F100020129C4E91E32EC
:102750000CBF00230123237302B0BDE8F081FB6CA2
:10276000DBB1B7F850201846796D033291F801803B
:1027700014F0ECF90DF1020201A97865D7F8C40054
:1027800015F0F7F8019815F0DEF8012230604146A7
:10279000D7F8C40015F0A4F8CFE740F296412720FF
:1027A000FEF7E6F8500B00212DE9F04F0023B74C5F
:1027B00087B00646E56A8846CDE9043394F8383098
:1027C00005F19007022B40F0EE81638C13F040017D
:1027D00006D1636A40209847638C43F040036384CA
:1027E000002E5BD03B7D002B40F02181D4F854B00B
:1027F0009BF8013099B2A4F85010002940F02F81C5
:102800000023E3649BF80090638CF97AC9F380029B
:1028100043F480739142638400F0C980E26A94F8C3
:10282000280002F1900A9AF80A20EAB1022A00F080
:102830008E8100218AF80A1020B19AF80630002B08
:1028400040F07B819AF80530002B40F027819AF800
:102850000B30D4F854B0012B0CBF002301238AF8AD
:102860000B30638C9BF80090397BC9F3C00243F4B2
:1028700080634FF0000A9142638400F09F804FF024
:1028800000090AF065FBF0B19BF8003003F0030388
:10289000032B18D1012011F065F814E03A7D002ACD
:1028A00040F0E58043F400734FF00009638494F82E
:1028B000C230013384F8C23095F87D30033B012BE0
:1028C00040F2A780CA46FB7C03B394F8283095F801
:1028D0007C10B3FA83F3E86901395B09C9B284F863
:1028E000783041F64B53984294BF042000200329CE
:1028F000D7E91C23C4E91C2300F25A810022644B4F
:102900000092FB225B5C63490EF07CFFB8F1000F84
:1029100008D194F8C2100120FFF778FA0546002884
:1029200000F0A980012510F06BF8B9F1000F2ED14D
:10293000BAF1000F08D094F82830002B6ED1B4F80B
:1029400009300133A4F8093036B3B4F80530002259
:10295000013384F8C220A4F805304F480BF040F949
:10296000049838B114F0EFFFE16A002202720722E6
:102970000AF022FA059B33B1E16A00221A720C2296
:1029800005980AF019FA6DB907B0BDE8F08F05A9EE
:102990000220FFF7C7FECBE7B4F807300133A4F8F5
:1029A0000730DAE7FFF7F6F907B0BDE8F08F397BBB
:1029B000C9F3C002B24691427FF461AF09F003014E
:1029C000E26A032902F190025CD143F40063012022
:1029D0005946039263844FF00009638F107143F0EE
:1029E00001036387636A9847D4F854B0039A137B52
:1029F000013B18BF012313739BF80130002B3FF4F8
:102A000040AF936F01339367D36F43F10003D367F4
:102A100037E70120CA4610F0A5FF54E7B4F80530A7
:102A2000B4F807103A890B4313438DD087E70EF0B3
:102A3000F9FF0EF0DBFFD4F854B000287FF4D8AED5
:102A40009BF80110002946D09BF800303A7BC3F375
:102A5000C0039A4200F08F8089B2A4F85010D4F8D5
:102A6000C40014F014FFD4F854B0E064CAE60FF0C8
:102A700013F8638C16E7FFF7F3FAB9F1000F3FF490
:102A800057AF84E751BB8946B1E700BF500B002127
:102A90009C720201B00B0021780B00214FF000095D
:102AA0008AF8059009F020FA002800F08380638FEF
:102AB0004946082043F008036387636A9847DAF8B9
:102AC00070300133CAF87030DAF8743043F1000323
:102AD000CAF87430BBE6A4F8501091E69BF80110D8
:102AE0000029D0D043F4006392F8149003926384D9
:102AF0000FF0ACF8042894F8C830039A07D1B9F164
:102B0000000F14BF1B211F218B4228BF0B46D4F896
:102B100054B09BF80110994233D8E36C002B40D09D
:102B200094F8C130002B3AD0636A002120204FF086
:102B300000099847D4F854B0A3E6638F10208AF8B0
:102B4000061043F010036387636A98477AE604A986
:102B5000D4F8BC0014F032FE88B3DAF8703094F880
:102B600028000133CAF87030DAF8743043F10003FA
:102B7000CAF874305DE6012384F83130FFF70AF9B2
:102B800002E794F8303001204FF0000943F01003C1
:102B900084F8303010F0E6FED4F854B071E6B14657
:102BA00025E799466DE640F219512720FDF7E0FE32
:102BB000FFF774F940F226412720FDF7D9FE40F2D5
:102BC0000F412720FDF7D4FEA91E0001A92700010F
:102BD000691F0001F91D00012DE9F047002800F0F0
:102BE000DA800446072900F2C780DFE801F07C2480
:102BF0002478C51F6FC10146204618F0BBFBD4F8EE
:102C0000443100F1EC059D4240F2BA80E81A0321FC
:102C1000402838BF402013F0D7F80346C4F8445189
:102C200020461D4618F065FC002D4DD02046BDE81D
:102C3000F04718F05FBCB0F83A310022062B80F85C
:102C4000402180F849216DD80133A0F83A3104F5CC
:102C5000A075284612F006FB002800F0A08094F82A
:102C6000603103F0FF01002B54D16FF00043D4E931
:102C700056029A4208BFB0F1FF3F11D02046D4E976
:102C8000546718F077FBD4F85831EC30D4F85C2155
:102C90009B1B62EB07021B1A62F10002002A36DB63
:102CA000294694F8180112F0D1FB002800F0818029
:102CB000D4F85051D4F83071D4F85461D4F8348138
:102CC000AF4278EB060334D3BDE8F08790F81801E3
:102CD00012F09EFA002384F83831BDE8F087BDE891
:102CE000F0470FF0A1BE0CF04BF8D4F84401DC38EB
:102CF00012F0C6FF002857D0204618F0BAFB002873
:102D00003FF479AF2046BDE8F04718F0F2BB20460B
:102D10000CF03EF894F8180112F07AFA002384F8C7
:102D20003831C5E7D0F81C318BB3012380F8483126
:102D30008DE7204618F05FFB50EA010381468A4682
:102D4000C2D0E81B4A46534666EB080113F040FE2A
:102D500009FB01F1D4E94C3200FB0A11A9FB0090F8
:102D600013EB0903014441EB0201C4E94C31ABE729
:102D7000F5213020FDF7FCFDF9213020FDF7F8FDAD
:102D80002046C4F84451BDE8F04718F0B2BB022316
:102D900080F848315BE7D8213020FDF7E9FD40F2AB
:102DA0008F613020FDF7E4FD40F252213020FDF725
:102DB000DFFD40F293613020FDF7DAFD2DE9F04FA1
:102DC000044689B000201F460E46914694F87DA027
:102DD000049016F03AFA94F806320B2B00F218839E
:102DE000704A94F89F8032F8135089F00103284408
:102DF000029385B2B9F1000F1AD0B4F8981204F515
:102E00001A79B4F898B0711AA6EB0B0B09B20FFA45
:102E10008BFB0029C0F24982384694F84C32032BD0
:102E200000F21083DFE813F0BD018301C4003A0013
:102E300094F84C32032BE0D1B8F10E0FDDD1B4F889
:102E4000DC32B342D9D1B4F81E222046B4F89A320B
:102E50001344C4F84832D4F85432C4F84032E36919
:102E6000C4F844320DF044FAD4F8E432E2699A42EC
:102E700005D004F1280018F02FFED4F8E432E36105
:102E8000D4F8E032E363B4F8DE32A4F84030D4F88A
:102E9000E8326362022384F84C32AEE7E36903FB55
:102EA00001F20492002F00F00A82B4F81E52002DA5
:102EB00040F0058284F86352D4F854C294F89E30EE
:102EC0000CFB1121262B049100F0088294F89F300E
:102ED000262B00F0038200283CD0002D3AD1D4E903
:102EE000A2E0D4E9A0237245834180F0A68294F841
:102EF0007D00C31E012B40F2808203910FF0D2FFB0
:102F00004AF2A13CD4F88832274D8444A3F17901D8
:102F100094F87D00A5FB0C3CA0F1030ED4E9A0239E
:102F2000BEF1010FA1EB020303991944A1EB9C111F
:102F300040F27D8203910FF0B5FF00F2E730D4F844
:102F400054C20399A5FB0030B4F81E528009014415
:102F500010390491AB44AAF103030CFB0BFBDBB269
:102F60000BF1300B012B4FEA4B0B40F2FF81504627
:102F70000D4D0FF097FF4AF2A1330344A5FB032345
:102F80009D0950460FF086FF0BF1690341F64B5245
:102F90001D44E36928449342044D286040F2218295
:102FA000049A6FE0AC720201D34D62101C0C002138
:102FB000E36B2946D4F84402184418F0DDFD294695
:102FC000C4F85002E06918F0D7FD41F64B53E269AE
:102FD00094F87DA09A42C74D98BF0230C4F85402BD
:102FE00050460FF05FFFAAF1030A4DF64171BAF1A6
:102FF000010F01442046A5FB013194BF2823002383
:1030000003EB9111803117F076FAB4F81E3213B940
:10301000002F40F0AD81D4F84432E26B94F87DB0DB
:103020001344D4F85002ABF103011B1AC9B2049344
:10303000D4F840320129D4F84822B4F840A002FB69
:1030400003050AF1690A05F130054FEA450540F22A
:103050003D8158460FF026FF4AF2A1330344A548AC
:10306000A0FB03239B095846039355440FF012FF1E
:10307000039B049A1D44A04B28441860012384F844
:103080004C32E369D4F85452D4F890125D1B6FF4BB
:10309000AE731D44D4F89432854228BF0546891882
:1030A00004F1440043F10003C4F81852C4F8781244
:1030B000C4F87C32002384F8683217F082F928447F
:1030C000A4F89862C4F86C02D4E99E23C4E9A4234E
:1030D0000CF028FB20B1D4F86C321E33C4F86C32EB
:1030E000B4F8081200238E1B84F8703236B29E4268
:1030F00002DD022384F87032B8F10E0F00F0FE807A
:10310000002F40F0FE8094F84C32002B40F01981E3
:10311000494694F8640212F099F9002800F07D8184
:10312000029B84F86032002009B0BDE8F08FD4F82B
:103130005402E269D4F84852B4F81E32121AB4F8B4
:1031400040A09B4402FB01F1D4F85032EA430AF15B
:10315000690A049130339344D4F8402202FB0535C8
:1031600094F87D20D31E00FB0B55012B4FEA45053B
:1031700040F2AE80104603920FF094FE4AF2A13363
:1031800003445C48A0FB0323039A4FEA931B554476
:1031900010460FF07FFE584B5D44049A2844186097
:1031A00081E094F87D1094F8160216F0CDFB82466B
:1031B000E06B2946DFF83CB1504418F0DDFC2946AD
:1031C000C4F85002E06918F0D7FCE26941F64B53AD
:1031D00005A99A4298BF0230C4F8540206A80FF01D
:1031E00017FC059B0093DDE90623D4E9A40113F045
:1031F0006FF894F87D300546184603930FF052FEA1
:10320000039B4DF64171033B01442046012BABFB70
:10321000013194BF2823002303EB9111803117F073
:103220006AF9D4F89C32E26B94F87D00049303921F
:103230000FF038FE4AF2A133039AC318D4F85002B3
:10324000ABFB0331049B893B13441B1A5344B4F872
:1032500040A05B1B00F130050AF18B0AA3EB911330
:103260006D00049394F87D30DA1E012A33D9184694
:1032700003930FF017FE00F52340A130ABFB003B9A
:10328000039B4FEA9B1B184655440FF003FE049A1C
:10329000D4F89C325D441849D31A2844B3F5A07F72
:1032A0000860C0F0BF80E369ECE6002359460120C6
:1032B00084F86332D4E9A023C4E9A423ADE594F8EB
:1032C0006352002D4FD00C490868DBE66523CAE63F
:1032D0004FF0650B5BE74FF0650BD4E7B4F8DC32D9
:1032E000F31A1A043FF5F7AD94F8DF32002B18BF3C
:1032F0009A46F0E5D34D62101C0C0021002F3FF4DC
:1033000007AFB4F83422CAB1B4F8360294F83812D0
:1033100000FB011101308A427FF7FAAE002B3FF427
:10332000F7AE0023A4F8360284F8703209F016FED6
:1033300000F00700013084F83802E9E6A4F83622EC
:10334000E6E6D4F854324846E169C91A16F0A4FA00
:1033500083B2002B3FF4DCAE129A0120002A3FF426
:10336000E3AE1380E0E6B4F81E52A5E5652508E655
:10337000E26BD4F8443294F87D0003EB020A0FF0BC
:1033800091FD4AF2A13394F87DB0AAF1890A034471
:10339000ABF10301D4F85002A5FB0323C9B2D4F862
:1033A0008822AAEB000A9B09012992440393D4E9DD
:1033B000A023AAEB020A29D958460FF073FD94F80E
:1033C0007DB000F2E732D4F85002ABF10301A5FB67
:1033D0000235C9B2AD09039BAAEB03022A44049249
:1033E00026E618462A4604AB594616F0CAFA049A4D
:1033F00084F86302E369286844E6AEF1DE0E3C20FF
:10340000D4E9A023AEEB020E7144A0E53C25E2E72F
:103410004FF46C710620FDF7ABFA4FF4AF6130202A
:10342000FDF7A6FA40F2C3413020FDF7A1FAB4F847
:103430001E523C20D4F854C289E540F21751302086
:10344000FDF796FA40F22F513020FDF791FA00BFB8
:103450002DE9F04385B0002800F05B810446072980
:1034600000F23F81DFE811F09600080008007E00BE
:103470003D0183008B00390110F072FAD4E9A023DA
:10348000801A61EB0301012871F10003C0F253813E
:103490006FF00102002382428B41C0F24781E36951
:1034A0000BB1B0FBF3F394F89F200E2A00F00E81CD
:1034B000B4F89810B4F85E220B449BB2D11A0D04F4
:1034C00054BF531C01339BB2A4F85E3294F86132AE
:1034D000B4F85E1223B9B4F80C328B4200F00C81C0
:1034E000B4F8D4000DF10E05B4F89830B4F89A226F
:1034F0000344B4F8D2000132944E013BA4F89A225E
:103500001B1A9FB2336853B101390022204689B299
:103510009847B4F85E12014489B2A4F85E127B1A8F
:10352000180400F1AE800023204600951A46FFF7EC
:1035300045FC002840F08980D4F884303BB3B4F8CF
:10354000CE20B4F85E329B1A1BB2002B1FDDB4F8FC
:1035500088100B44013BB3FBF1F303FB0123A4F8F8
:10356000CE3014E005B0BDE8F0430FF05DBA0120A5
:1035700010F0F8F905B0BDE8F043FFF7ADB890F8EA
:103580004C32042B40F0CE80002380F84C3205B042
:10359000BDE8F08390F86032002B66D0B0F85E3260
:1035A000B0F89820934200F0AC809A1AA0F89830B6
:1035B000A0F80E222046D4E99E23C4E9A0230CF0F3
:1035C00087FD94F81332002BE1D094F87D30E56943
:1035D000033BD4F85412DFF87881012B98F80430BB
:1035E00094BF4FF4BD794FF4A9798D428CBF6D1A09
:1035F0000025002B7BD0D4F8187204F1440016F09B
:10360000E0FE0744022012F089FB0221ED1B25EAAF
:10361000E575854228BF0546284612F0D5FB0028EF
:1036200063D04A463946204616F04DFFE269D4F889
:103630001832C8F80800D01812F022FB00287FD0FA
:1036400005B0BDE8F04318F0E2B8012865D1B4F840
:103650005E12B4F80832CA1A12042DD4BDF80E3026
:10366000194489B2A4F85E124CE7B0F85C32B0F8A5
:103670009810B0F85C225B1AA0F89820A0F80E32DF
:1036800098E794F8A23004F1B8003249002B0CBF3F
:103690003E23082384F8C13016F008FE204618F0B7
:1036A000B8F8002394F8640284F84C3211F0B0FDAD
:1036B000202384F864326AE7BDF80E20114489B2F1
:1036C0007A1A12F4004F18BF1946CBE7B4F85E120D
:1036D000013189B2A4F85E1202E7CC213020FDF757
:1036E00047F9D0213020FDF743F92F4499E7636C67
:1036F0009D4228BF1D467EE7013189B2A4F85E12C3
:10370000EEE6B0F80C22D31AA0F89820A0F80E32FA
:1037100050E7A6213020FDF72BF940F2516130200F
:10372000FDF726F9C6213020FDF722F940F20461A9
:103730003020FDF71DF940F203613020FDF718F944
:1037400040F276313020FDF713F900BFB0000021C0
:103750001C0C002165D600012DE9F043D0F81C3186
:10376000002683B0054680F820610F46D0E95489D1
:1037700083F8162280F838610121D0F81C0108F086
:10378000EBFFD5F81C41324631462046C4E9A089FA
:1037900095F81831C4F89C7284F86432334684F882
:1037A0004C62A4F89862C4E9A4890096FFF706FB6E
:1037B000D0B90123C4F84802C4F8400284F84C325E
:1037C000A4F85E02A4F85C0284F86102B4F89830B0
:1037D000A4F89A02013BA4F898300EF085FF03B0DC
:1037E000BDE8F04311F092BB4FF4FA713020FDF7C1
:1037F000BFF800BFD0F81C01704700BF2DE9F043AF
:10380000002385B00322FF26CDE900338DF8062082
:103810006846FEF78FF8044620BB009D95F83831C6
:10382000002BF5D085F860610121284617F064FE71
:1038300095F83831002BEBD095F8180112F076F896
:1038400095F8180112F0E8FB95F8180111F0E0FC6A
:1038500000283CD085F838416846FEF76BF80446EE
:103860000028DAD0DFF87C800123002502264FF6FD
:10387000FF7788F80C301AE0029BE3B193F86422DA
:10388000202A18D01888B8421BD00221FEF718F859
:10389000814608B390F8640212F0BEFB99F8640206
:1038A00089F84C4211F0B4FC202389F86432CDE948
:1038B00002558DF80E6002A8FEF73CF80446002879
:1038C000DAD0002388F80C3005B0BDE8F0834FF45F
:1038D000F0713020FDF74CF84FF496713020FDF771
:1038E00047F800BF1C0C0021044B002242F210716B
:1038F0001A71D9811A73FFF781BF00BF1C0C002118
:103900002DE9F84390F83831002B76D104468846EB
:1039100001465648154603F0FF0711F04BFC2028DE
:1039200006466AD05022394604F58C7013F084F9AB
:1039300084F81861C4F81C81FF2384F83831B8F189
:10394000000F06D009F022FB00F00700013088F8D4
:10395000380202234FF00008A4F8483184F840816F
:1039600018F012F900F1BC062046B6B217F081FD3E
:10397000002846D015F069FC00F5CD6128464FF0CF
:10398000010989B218F0F8F82844C4F844010FF08E
:10399000E7FF3018A4F8268041F10001C4F8500177
:1039A00084F820912046C4F8541117F078FD0028BF
:1039B00045D0A5F59D654946204617F0DBFC2D1A3C
:1039C000C4F824514FF0FF326FF00043C4E956238E
:1039D00004F5A07194F8180111F038FD00283FD0CB
:1039E00000212046D4E95423A4F83A11C4E94C2319
:1039F00017F082FD3846BDE8F8830C273846BDE84D
:103A0000F8830146204617F0B5FCDFF86480EC30FF
:103A1000C4F84401B8F80E0008B1E08CB8B9064407
:103A20000FF09EFF361841F10001C4E95461002DEA
:103A3000C8D0AE1941F10001C4E95661C8E7EC3DB8
:103A4000484617F0F6FD2D1AC4F82451BAE709F0DC
:103A50009DFAB8F80E30B0FBF3F202FB1300DEE77C
:103A60004FF4E1713020FCF783FF00BFD92B000138
:103A70001C0C002190F838310BB90020704710B5AC
:103A80000446FF2380F86031012117F035FD94F8DA
:103A900038310BB9002010BD94F8180111F046FF21
:103AA00094F8180112F0B8FA94F8180111F0B0FB6C
:103AB00020B1002384F83831002010BD4FF4F0719C
:103AC0003020FCF755FF00BF014B1871704700BF55
:103AD0001C0C002190F8602182B910B502F0FF049F
:103AE00090F8202112B90122104610BDD0E94931C9
:103AF0009942F9D90BF04CF92246F5E7002210461D
:103B0000704700BF10B504460EF0CCF8074B9A681A
:103B1000824208D3E16941F64B52914203D9187BA6
:103B200080F0010010BD002010BD00BF1C0C002162
:103B300040F2012108B516F0F1FCB0F5296F28BF5D
:103B40004FF4296080B208BD90F81332002B73D176
:103B5000F0B503F0FF0590F84C3285B00446032B16
:103B600001D005B0F0BD0FF0FBFED4E9A023801A10
:103B700061EB0301012871F10003F2DB6FF0010337
:103B8000834275EB01035ADBE369B4F89820002BFC
:103B900053D0B0FBF3F080B20132B4F80C321044D1
:103BA00080B2A4F85C02B4F85C229B1A1BB2002B12
:103BB000D7DD94F8640211F0B9FE0028D1D0FF23BC
:103BC00084F86132B4F898500DF10E06B4F8D420A0
:103BD000B4F8D23015441F4F013DED1A3B68ADB229
:103BE00063B1B4F85C1200222046013989B29847CB
:103BF000B4F85C32184480B2A4F85C02B4F85C32C9
:103C0000EB1A1B04ADD4B4F85C1200230122204649
:103C100089B20096FFF7D2F80028A2D0012813D16C
:103C2000B4F85C32BDF80E2013449BB2A4F85C32A9
:103C30003B68002BD5D1E1E770471846ACE740F26E
:103C4000AC513020FCF794FE40F2F3513020FCF7E9
:103C50008FFE00BFB0000021F0B5044683B00529F7
:103C60006DD8DFE801F0591503131A3F042384F8D7
:103C70004C320EF039FD11F049F90023B4F89820C8
:103C8000A4F89A32A4F85E2284F8613203B0F0BD41
:103C9000032380F84C3203B0F0BD0DF0FBFF94F825
:103CA0007D70D4E9A0238618384643F100050FF053
:103CB000F1F8254A02EB87029369244A03F2E733BD
:103CC000A2FB0323224A00EB93131268F31A65F157
:103CD0000005C4E9A235002AD8D0204603B0BDE8CB
:103CE000F040104790F87D502846033D0FF0DAF879
:103CF0004DF641710246154B012D20461144A3FBA0
:103D0000013194BF2823002303EB9111803103B0CC
:103D1000BDE8F04016F0EFBB0E4B1B7B03F0FF023B
:103D2000002BA3D1B0F80C1201230092FFF746F844
:103D300000289ED040F2CA613020FCF719FE4FF4F3
:103D4000EE613020FCF714FEAC720201D34D62101C
:103D5000A80000211C0C0021012A70B5064609D0DC
:103D6000022A14460D461ED04AB140F29A71302004
:103D7000FCF7FEFD0DF096FFC6F89C0270BD0DF03D
:103D800091FF224601462846FFF7E6FC32460F49DE
:103D900095F818010FF0D0FD0028EFD140F28371A3
:103DA0003020FCF7E5FDD0F89C1201222846FFF7F1
:103DB000D3FC3246054995F818010FF0BDFD0028E7
:103DC000DCD140F294713020FCF7D2FD5134000177
:103DD000F8B5044651B1012962D1002380F82031A1
:103DE0000EF082FCBDE8F84011F090B8C58C002DB3
:103DF0004ED12046D4E94C7617F0FDFA40194FF029
:103E0000000341F10001C01984F840314FF0020372
:103E100046EB0101C4F85001C4F83001C4F8541154
:103E2000A4F84831C4F8341194F8603103F0FF016C
:103E30007BB96FF00043D4E956029A4208BFB0F153
:103E4000FF3F0FD104F5A07194F8180111F0FEFAAC
:103E500058B30023A4F83A310EF046FCBDE8F84010
:103E600011F054B82046D4E9545617F083FAD4F828
:103E70005831EC30D4F85C215B1B62EB06021B1A54
:103E800062F10002002ADDDA20460AF081FFE0E755
:103E900009F064F8E58CB0FBF5F303FB1505A8E722
:103EA00040F2AA713020FCF763FD40F2E961302056
:103EB000FCF75EFD90F83801003818BF012070470C
:103EC000014BD881704700BF1C0C002106220B4615
:103ED00003F8032BB0F809C0C27AA1F803C09A70A6
:103EE000704700BF18230B70704700BF40F2A92134
:103EF000322008B5FCF73CFDF8B5002851D0437AD4
:103F000004460D46478993B300213846FDF7D8FC97
:103F1000064600284AD0008807F096FF0021308826
:103F2000FDF7E4FC002846D113222B4604F1290EAC
:103F300003F8032B04F10902D2F800C0103252F842
:103F40000C6C103352F8080C52F8041C724543F8FC
:103F500010CC43F80C6C43F8080C43F8041CEBD16C
:103F600012781A700023AB71637A8BB1F8BD036DC0
:103F7000D0F80E20C3F80320428AA3F80720427B22
:103F8000036D12F0FD0F14BF012200229A70CBE7DF
:103F900007F0C0FD4B04E9D53846BDE8F84005F010
:103FA000D7BF40F2F2213220FCF7E2FC40F2FE21C2
:103FB0003220FCF7DDFC40F202313220FCF7D8FC65
:103FC000044B00221B68A3F8BA2083F8BC2083F8B6
:103FD000702070472C0C002108B508F077FC034BCB
:103FE00018700EF0F7FA032008BD00BF1000002182
:103FF00008B508F06BFC024B024601201A7008BDA0
:104000001000002138B50D4D2C6894F8893063B943
:1040100000230121204684F87010A4F8BA3084F8F7
:10402000BC30BDE8384005F0FFB80EF095FC0DF04F
:1040300055FB002384F889302C68E9E72C0C00211B
:1040400038B5114C002003F085FA256803F016FA04
:104050002368E867D86F60B103F04CFA70B10EF0D6
:10406000CBFB00200EF02EFC2368042283F8702086
:1040700038BD40F2B6413220FCF77AFC4FF497612C
:104080003220FCF775FC00BF2C0C002108B508F0AD
:104090001DFC044B024600201A7003F0B1FB012006
:1040A00008BD00BF1000002170B53D4C06462368D6
:1040B00093F87020032A34D093F87020042A30D06B
:1040C00093F854309B0731D16568002D4FD0236899
:1040D00093F85420002A40D06EB3284615F063FFB1
:1040E00018B9284615F07AFF20B3236893F870209A
:1040F000022A4BD993F87020082A4CD893F87010F4
:104100002846A268274B12690B4452F8233098477F
:104110000C2827D8A368DB68BDE8704053F820302E
:104120001847D86F03F0E6F90546CEE703F0FAF931
:104130000546CAE7236893F87020022A1CD993F831
:104140007020082A1DD893F87010A268154B526988
:104150000B4452F823309847DAE741F28F3132208E
:10416000FCF706FC41F2A2313220FCF701FC41F2DF
:1041700089313220FCF7FCFB41F26F313220FCF731
:10418000F7FB41F270313220FCF7F2FB41F20F31C4
:104190003220FCF7EDFB41F210313220FCF7E8FB56
:1041A0002C0C0021FDFFFF3F38B5144C236893F819
:1041B00054309B0719D16568DDB12368FF2093F85F
:1041C000B9100DF093FD28460EF016FB236893F806
:1041D000B930033B012B94BF282000200EF072FB66
:1041E0002368072283F8702038BD03F09BF9054649
:1041F000E2E740F2DD413220FCF7BAFB2C0C002153
:10420000F0B5514C00220E460546236841F270700D
:1042100083B0196D5A72CA69B1F800C0A3F80AC018
:10422000A2F57A7C844540F281804848A0FB0202D6
:10423000C2F38F221A848A8C5A84CA8C9A844FF4CF
:104240007F42DA844FF6FF721A85002D64D0012177
:10425000304615F0E4FD3278D209236893F848100F
:1042600009B1002A36D193F8860000210828596147
:1042700019833CD003F10E0203F10D0108F0D6F8CA
:1042800000285BD023685A7B03F11A0742F0020230
:104290005A73002D3AD103F1980002683A6082887F
:1042A000BA8093F95810186D08F0F4FA206828497C
:1042B00015F0F9FF236827491A6D03F12A001488C5
:1042C000A3F8334092F8A62083F8352015F0F4FFC8
:1042D00003B0F0BD427902F0C002402AC3D10268A7
:1042E0005A61828893F886001A830828C2D193F80D
:1042F0009E10D3F89820B3F89C0059730021C3F89E
:104300000E205882C3F81A10D983CAE7002130461C
:1043100015F085FD2368C0E76068694615F032FC3A
:10432000636868461A78C2F3801296E70A48A0FBD1
:104330000202920902F5506292B27BE741F2D83153
:104340003220FCF715FB00BF2C0C00215917B7D108
:10435000F93E0001CD3E0001D34D621008B50020AA
:1043600003F024FA08F0B2FA024B024601201A7058
:1043700008BD00BF10000021034A0223106880F826
:10438000703004F0D5BD00BF2C0C002140F25A3132
:10439000322008B5FCF7ECFA30B504788DB004F0A3
:1043A0000F0402A9224603F0C1FB0EF013F908F036
:1043B0008DFA204B042C187002D003200DB030BDB4
:1043C0001D490546039A0868147890F898108C42A5
:1043D000F3D1547890F899108C42EED1947890F8FB
:1043E0009A108C42E9D1D47890F89B108C42E4D199
:1043F000147990F89C108C42DFD1517990F89D206F
:104400009142DAD19DF8191090F89E209142D4D1B2
:104410007F2D0CD07F2202A97C301A7090F82C30AE
:10442000827A009503F0DCFA03200DB030BDFFF76F
:10443000ADFF00BF100000212C0C00212DE9F04F32
:10444000044687B006290CD8DFE801F0AC34110B24
:104450000B0B0400BA4D286890F88C30002B40F00C
:10446000CD800EF0B7F8032007B0BDE8F08F0EF056
:10447000B1F8B34B186890F854309D07F3D090F81A
:104480008C30002BEFD0AF4B93F900207F2A00F047
:1044900009820292FF2590F886107F22CDE9005113
:1044A0001A70214600F1420302227C3003F0ECF93D
:1044B0000320D9E7A24D867C2968012E91F88C3023
:1044C00091F88D90059391F8483083F0010B00F03E
:1044D000B480002691F85420374612F0040000F012
:1044E000B48091F84D30002B00F0AF8091F88880B7
:1044F000B8F1080F40F0AC8091F841800027C44625
:1045000020B3626891F85B0092F800E0864500F005
:1045100062814FF0000A91F88520082A05D091F8B1
:104520008800904208BF4FF0010A002F40F0F2804F
:10453000BBF1000F40F048813846B9F1000F40F060
:10454000EB800EF047F82B6893F8542093078AD03D
:104550000EF040F8059B002B85D02868A36800F179
:104560004201A27C90F8410015F00CF917B900281F
:1045700000F06E81734A92F900307F2B00F0928137
:1045800002932146286890F8864000F14203CDF856
:1045900000807C3001947F241470012203F074F9B0
:1045A000032061E7664D286890F854305F071BD5FB
:1045B00090F88D30002B5DD0636890F85B201978FF
:1045C000914200F0DC8090F85630012B00F0B3806F
:1045D00090F88830082B04D090F885209A4200F09B
:1045E000AA800DF0F7FF286890F88C30002B46D198
:1045F00090F88D30002B7FF436AF32E790F85430CE
:10460000990769D54F4A92F900307F2B00F04A8113
:104610000293214690F886307F240193FF23009374
:1046200000F1420314707C30062203F02DF92B6850
:104630000022092083F8A82016E78268527902F048
:10464000C002402A7FF445AF44E791F885804FE7E8
:10465000404607F0F9FD002818BF8346002F40F0C0
:10466000E780296891F8418091F85420C44602F00F
:10467000040045E790F88C30002B3FF4F2AE90F840
:1046800054309E0760D4D8077FF5EDAE590700F18E
:1046900002812C4B93F900207F2A00F003817F20B8
:1046A0000292FF26002218702146286890F8863072
:1046B000CDE9006300F142037C3003F0E5F82B689C
:1046C000032093F88D20002A7FF4CEAE93F88C302F
:1046D000002B7FF4C9AEC4E6DA077FF5C2AE5B07F4
:1046E00000F1D680174B93F900207F2A00F0DA8082
:1046F0002868FF2502927F2290F88610CDE90051AC
:104700001A70214600F1420306227C3003F0BCF807
:104710000320A9E6012010E72B6893F85630012BFF
:1047200006D0002B7FF40DAFBAF1000F3FF409AFB4
:1047300000283FF406AF0A2007B0BDE8F08F00BFA5
:104740002C0C002110000021574A92F900307F2BD9
:1047500000F0A8800293214690F886307F240193D0
:10476000FF23009300F1420314707C30002203F019
:104770008BF82B680122092083F8A820A1E759783B
:1047800090F85C2091427FF41EAF997890F85D20FC
:1047900091427FF418AFD97890F85E2091427FF46F
:1047A00012AF197990F85F2091427FF40CAF5A79DB
:1047B00090F860309A427FF406AF627C90F85A30ED
:1047C0009A427FF400AFB6E742316046A368A27C0C
:1047D00014F0D8FFB1E692F801E091F85C0086454C
:1047E0007FF497AE92F802E091F85D0086457FF481
:1047F00090AE92F803E091F85E0086457FF489AEB2
:1048000092F804E091F85F0086457FF482AE50791B
:1048100091F8602090427FF47CAE94F811A091F85A
:104820005A20AAEB0202D2F1000A4AEB020A72E60F
:10483000A168404607F0EAFE2968074691F841C0A2
:1048400091F8542050B34CF0020802F0040057E6EF
:10485000286890F85530023B012B3FF604AE002E3D
:104860003FF401AE104B93F900207F2A1AD0029238
:10487000FE2590F886107F22CDE900511A7021465E
:1048800000F1420301227C3002F0FEFF0320EBE541
:104890000DF0A0FE26E70DF09DFEFAE6E04602F0E0
:1048A00004002DE6FFF772FD1000002130B5184C12
:1048B00085B094F900307F2B27D00A467F212170E4
:1048C00014490C6894F87010032916D094F87010ED
:1048D00006290CBF03210121CDE9023194F886504D
:1048E000014604F14203019594F8B90000900020BC
:1048F00002F056FE18B905B030BD0021ECE70020EB
:1049000005B0BDE8304002F051BFFFF73FFD00BFEA
:10491000100000212C0C00210F4A136810B593F8E9
:10492000701002290ED993F8701008290FD893F847
:1049300070109268094B92680B44BDE8104052F821
:104940002330184741F28F413220FCF711F841F231
:1049500090413220FCF70CF82C0C0021FDFFFF3FAA
:1049600038B51C4D2B6893F87020022A2DD8027C94
:10497000044683F884201A44C168596792F8BD2020
:1049800083F8B9204268C3F88020037A022B0ED046
:104990000DF010FA0DF0E0FF0CF0A0FE0E480DF047
:1049A00015FF0E480DF00CFF0D480DF011FB637C58
:1049B00003B938BD2868643014F0DAFE2B68DB6E6A
:1049C000002BF6D001221A6038BD40F6AC0132202F
:1049D000FBF7CEFF2C0C0021CC01002155555500D2
:1049E000D6BE898E38B505460C4607F099F84207C1
:1049F00004D4A37803F0E003402B0DD007F090F827
:104A0000830704D4A37803F0E003202B04D0237899
:104A100003F03F03242B01D9002038BD0DF01CF911
:104A200094F9003094F802C0002B62780CF01F0358
:104A3000ACBF1E214FF4967142EA032301FB03F33E
:104A40001A1AB2F5877FE7D39842E5D8054A294676
:104A500023881068A0F8BA3080F8BCC0BDE83840A0
:104A600004F0FEB92C0C002170B5334E84B03368CD
:104A700093F88C507DB30A4693F8A810044631B9D8
:104A8000017800290CBF0121022183F8A81093F8B6
:104A900070100629C8B241D0072814BF012502258D
:104AA000264991F900007F2843D04233CDE9020521
:104AB00093F84400019093F8770000907F200870ED
:104AC0002146002002F06CFD40B9022D28D00020C4
:104AD000054602F095FE284604B070BD6378DB06FB
:104AE0001ED5A1690220FFF77DFF05460028EED004
:104AF0003368002283F894206169C1B14A7809784B
:104B0000100902F00F0241EA0222A3F8962083F86E
:104B100095000DF05FFD284604B070BD0325BFE78A
:104B20000020054602F042FE284604B070BDFF207A
:104B3000EDE7FFF72BFC00BF2C0C0021100000213B
:104B400010B504468AB007F0C1FE194A23781070E8
:104B500003F00F03072B02D001200AB010BD20463E
:104B6000694603F081F8684603F06CF99DF800305F
:104B7000002BF1D19DF80130DB07EDD50D4C0199EB
:104B800022689DF8110002F1980392F89E2014F01B
:104B9000F9FD0028E0D020680121903014F024FBBA
:104BA000FF216846FFF760FF0028D5D00220D4E738
:104BB000100000212C0C00212DE9F04104468AB0A0
:104BC00007F084FE4E4A2378107003F00F03082B81
:104BD00004D0012420460AB0BDE8F0816946204691
:104BE00002F0D8FF9DF80030002BF2D19DF8013083
:104BF00003F00303032BECD1424E356895F84D309A
:104C0000002B46D095F8888095F88930002B43D149
:104C1000002705F1980395F89E2001999DF8110051
:104C200014F0B0FD08B9002FD3D0336895F84820B0
:104C300093F8417003F14205002A49D19DF8120012
:104C40000299012834D02B463A4614F09BFD0028E7
:104C5000BFD030680121903014F0C6FA356895F85D
:104C60008930002B43D121460120FFF7C9FA306873
:104C700090F8543013F0030432D023F004030321DE
:104C800080F854300C4604F0F9FA002002F062FC7F
:104C9000A0E795F88580B7E714F0B8FD0828B7D0ED
:104CA000A0EB080785F88600B7FA87F77F09B0E719
:104CB0004B7903F0C003402BC5D12B463A4614F084
:104CC00061FD0028C5D10299404607F09FFCBEE770
:104CD000404607F0D5FC0028B0D005460127ADE7D7
:104CE000022104F0CBFA204602F034FC72E70DF00A
:104CF00033FE0CF0F3FC002385F88930B3E700BFE6
:104D0000100000212C0C00212DE9F04FDFF8F8A055
:104D10009346847C83B0DAF800200646012C89464D
:104D200092F84870984687F001073ED0002492F828
:104D30008950234605B392F85410490725D470686A
:104D4000002839D092F88550082D26D028460193A6
:104D500007F07AFA019B002818BF07461BB3DAF860
:104D6000003093F88B3083B314F05AFDDAF800303A
:104D70000022054683F88B208BF8005089F800400C
:104D800088F8007003B0BDE8F08F92F84D1000294C
:104D9000D5D092F88850082DD8D123B1DAF8005038
:104DA00095F88A10B9B10025E6E783685B7903F0CE
:104DB000C003402BBAD1BAE7019302F08DFE019BEC
:104DC0000028EAD0DAF80020BCE72846B16807F0EE
:104DD0001DFC0546D0E7B068019107F03FFBDAF80B
:104DE000003085F8890093F88950002DC4D014F064
:104DF0000DFD0828019904D0DAF8003083F8850009
:104E0000BAE70D46B8E700BF2C0C00212DE9F041B0
:104E10006A4C002205460F466368D4F800801846A5
:104E20001A800DF0E9FC032D37D0052D4AD06068BB
:104E300008F1980114F0ADFE98F89E10606814F027
:104E4000BCFE236893F8482003F1420693F84170B2
:104E500052B193F85420520718D493F8850007F004
:104E60000FFC08B1064601273146606814F083FE46
:104E70003946606814F094FE514BD3F80431002B8E
:104E800040F09680052D12D0BDE8F08193F84D20BA
:104E9000002AE2D093F88800E1E76068037823F005
:104EA0000F0343F0030303700C234370C0E7236830
:104EB00031681A6DC2F80A10B188D1811B6D5F721A
:104EC000BDE8F081D4E9000622233178737021F027
:104ED0002F0141EA471141F00501317041F64B5174
:104EE000036D1B6AC6F80F30026D936BF3741F0AD3
:104EF0001B0C37757375D369B2F840708B42D16B58
:104F00003BD9DFF8C0C0ACFB01E1ACFB07C7890AA5
:104F1000BF0AF175C1F30721B77531762949A1FBA5
:104F20000313C3F38F2373761B0AB376938CF37644
:104F30001B0A3377D38C73771B0AB377D2F8A73069
:104F4000C6F81F3092F8AB3096F8242086F823304C
:104F5000036D22F01F0293F8B23003F01F031343D6
:104F600086F8243006F002FE96F8243003F01F0382
:104F700043EA401386F8243059E7DFF84CC0ACFB15
:104F800001E1ACFB07C749097F09F175C1F30721AE
:104F9000B775A3F57A77317641F270718F42BDD83B
:104FA0000A49A1FB03139B0903F550639BB2BAE7BF
:104FB00040F2F9513220FBF7DBFC00BF2C0C002142
:104FC000008000415917B7D11F85EB51D34D6210B6
:104FD00010B507F07BFC0B4A0B4B1468187094F863
:104FE00089301BB90DF0F6FA032010BD0DF0B4FCAA
:104FF0000CF074FB002384F889300DF0EBFA0320E9
:1050000010BD00BF2C0C00211000002170B51F4CFA
:105010000E20236893F8B9100CF068FE236893F80B
:1050200054309B0729D165685DB328460DF0E4FB39
:10503000236893F8B930033B012B94BF282000204C
:105040000DF040FC2668681D96F8B95007F034FA58
:10505000236886F8890093F8892052B1033D012D19
:1050600094BF552550250CF01DFB28460DF068FC1B
:105070002368082283F8702070BD02F053FA0546B9
:10508000D2E740F2CA413220FBF772FC2C0C00211F
:10509000F8B52E4C0546236893F8BC205F2A2CD81F
:1050A00051092B4A565C93F8BA0000F03F000CF00F
:1050B00099FF236893F958000CF084FFFDB1236831
:1050C00032460120596F0DF011F92368314693F8EB
:1050D0009430022B0CBF4020FF200CF007FE256807
:1050E00095F854309B0710D195F8A8306768A3B1A4
:1050F0003846BDE8F8400DF07FBB0026D3E73246C6
:10510000732101200DF0F2F8DFE702F00BFA2568B9
:10511000074695F8A830002BEAD1781D07F0CCF9A6
:10512000236885F8890093F88930002BE0D0033E8E
:10513000012E94BF552450240CF0B4FA20460DF0F3
:10514000FFFB3846BDE8F8400DF056BB2C0C0021A3
:10515000D8720201F0B52F4C83B00546236893F84E
:10516000BC205F2A30D851092B4A575C5A6F7ABB52
:10517000D3F880000DF078FB266896F854309A0733
:1051800003D596F89420022A34D05B072ED425BB91
:10519000284602F0A1FC014628460D4602F0A6FC76
:1051A000024606F1A9002946256895F8943095F83D
:1051B000B950009502F0EEFD2368002283F8B97023
:1051C00083F88A2003B0F0BD5A6F0027002ACFD0A1
:1051D0000120FFF75DFF2368CAE7002002F096FC7C
:1051E000014606F1A90002F0CBFDE5E796F8943000
:1051F000012BCCD1FB1E012B05D9394600200DF027
:10520000C5FB2668C3E796F85930012B14BF394611
:105210000321F3E72C0C0021D872020107292DE9A4
:10522000F04F0D4687B004469046476803D12FB92A
:10523000002A00F0C880002F00F09080637CDFF827
:10524000C092012B5DD0072D40D0D9F8003093F8E3
:105250008500082840D00DF10F0104AA07F0E6F8F8
:10526000002800F0488104A99DF80F0015F0CDFD3D
:105270000746D9F8006096F8543013F0030076D151
:10528000824613F0040386F88CA040F0C880002109
:105290009C4B86F88D101B6833B1414620469847D9
:1052A00086F88E00D9F80060636843B1627C86F8A6
:1052B0009E201A68C6F898209B88A6F89C30A068A3
:1052C00008B1072D39D007B0BDE8F08FD9F80060DC
:1052D00096F885000828BED16168607C15F095FDC0
:1052E000D9F80020074661688532607C06F0D4FF5B
:1052F0000028BED1D9F80060A6F88C0086F88E0090
:10530000DDE77B7903F0C003402B9CD1D9F8006026
:10531000072D96F8893000F0A480002BD8D014F027
:1053200075FAD9F8003086F88500012293F88500D7
:1053300083F88A2083F886008BE7D6F88C3096F8BD
:10534000851033F07F43BED00829BCD007F0A4F805
:10535000D9F80030012283F88B20B4E7DFF8A09160
:10536000D9F8006096F8543013F0030088D0062D69
:1053700096F84CA070D9082D00F28C8096F88CB06D
:105380008BF00101B8F1000F0CBF002101F0010109
:1053900000297FD16268002A5ED1B8F1000F40F089
:1053A00093806278D00640F18F80012086F88C00CF
:1053B00058077FF56DAF96F84D1096F88DA0D3067F
:1053C00074D5012164E7DFF83891D9F8002092F80C
:1053D000543013F0030118BF012113F0040382F8C5
:1053E0008C1005D00378A3F10103B3FA83F35B09B2
:1053F00082F88D3092F8AF30002B3FF464AFD9F8CB
:105400000030D3F8B000503016F03EFB00287FF497
:105410005AAFD9F80030012283F88E2053E7062DC9
:1054200096F84D1004D800297FF432AF39462FE7A3
:1054300096F88DA0082D3FF62AAFBAF1010F03D0E0
:10544000B8F1000F7FF423AF6368002BEBD1B8F104
:10545000000F2BD16278B2E7BAF1000F08BFBA464D
:105460000FE7002B3FF434AFB8F1000F7FF455AFD6
:1054700096F8B91001297FF452AF384606F0EEFFD6
:1054800086F88900D9F8006096F88930002B3FF43F
:105490001FAF44E7002213F0040386F88C203FF48A
:1054A000F6AE96F84D1096F88DA0C3E70020019156
:1054B00002F012FB1AEA000702D10199A9B10F46C6
:1054C000D9F800603946E3E6002002F005FB1BEA4C
:1054D000000B0ED1BAF1000F02D106F0D7FE8246C2
:1054E000D9F8006096F85430CBE606F0CFFE0746B8
:1054F000E6E7DA46F4E740F661313220FBF738FAA6
:105500002C0C0021B400002130B505468BB007F00B
:10551000DDF9134B2C7802466946284604F00F0447
:105520001A70224602F002FB214600226846FFF76D
:1055300075FE21466846FEF781FF0A4B04461D684A
:1055400095F8893013B920460BB030BD0DF004FA40
:105550000CF0C4F80023204685F889300BB030BD2C
:10556000100000212C0C002138B50F4D002002F056
:1055700047F92C6894F8893063B90023012120464B
:1055800084F87010A4F8BA3084F8BC30BDE8384014
:1055900003F04ABE0DF0E0F90CF0A0F8002384F807
:1055A00089302C68E9E700BF2C0C002138B50F4D7D
:1055B00007F08CF90E4B2C68187094F8893063B999
:1055C00000230121204684F87010A4F8BA3084F832
:1055D000BC30BDE8384003F027BE0DF0BDF90CF03B
:1055E0007DF8002384F889302C68E9E72C0C002131
:1055F0001000002138B5114D002002F001F907F02C
:1056000065F92C680E4A94F88930107063B900234C
:105610000121204684F87010A4F8BA3084F8BC3018
:10562000BDE8384003F000BE0DF096F90CF056F8D6
:10563000002384F889302C68E9E700BF2C0C002196
:105640001000002138B5124D07F040F9114A002131
:105650002B68107003F1900013F0C6FD2C6894F8CD
:10566000893063B900230121204684F87010A4F822
:10567000BA3084F8BC30BDE8384003F0D5BD0DF039
:105680006BF90CF02BF8002384F889302C68E9E7DB
:105690002C0C00211000002138B5144D002002F020
:1056A00085F807F013F9024628680021104B903066
:1056B0001A7013F099FD2C6894F8893063B90023AF
:1056C0000121204684F87010A4F8BA3084F8BC3068
:1056D000BDE8384003F0A8BD0DF03EF90BF0FEFF29
:1056E000002384F889302C68E9E700BF2C0C0021E6
:1056F0001000002170B5154D0521286803F0B0FB9E
:1057000050B12B68012093F8B9100DF03FF92B68C8
:105710000B2283F8702070BD2E6896F8893063B92B
:1057200000230121304686F87010A6F8BA3086F8BA
:10573000BC30BDE8704003F077BD04460DF00CF9B5
:105740000BF0CCFF86F889402E68E9E72C0C00218D
:1057500070B5164D00210320FFF758FB0321286880
:1057600003F07EFB40B1012108460DF00FF92B68D4
:10577000092283F8702070BD2E6896F8893063B9CD
:1057800000230121304686F87010A6F8BA3086F85A
:10579000BC30BDE8704003F047BD04460DF0DCF8B6
:1057A0000BF09CFF86F889402E68E9E72C0C00215D
:1057B00070B5244C236893F8BC205F2A29D851097E
:1057C000214A565C5A6F42BBD3F880000DF04CF86A
:1057D000256895F854309A0703D595F89420022A45
:1057E00020D05B0703D595F89430012B1AD0002008
:1057F00002F08CF9014605F1A90002F0C1FA236814
:105800000021062283F8B96083F88A1083F870209B
:1058100070BD5A6F0026002AD6D00120FFF738FC51
:105820002368D1E7F31E012B05D9314600200DF086
:10583000ADF82568DBE795F85930012B14BF3146E8
:105840000321F3E72C0C0021D8720201F0B52B4C98
:1058500083B0236893F8BC205F2A35D85109284AC1
:10586000575C5A6FA2BBD3F880000CF0FDFF25688F
:1058700095F854309A0703D595F89420022A2CD035
:105880005B0703D595F89430012B26D0002002F059
:1058900023F90646002002F029F9024605F1A90085
:1058A0002568314695F8943095F8B950009502F086
:1058B00071FA23680021052283F8B97083F88A10F1
:1058C00083F8702003B0F0BD5A6F0027002ACAD0B9
:1058D0000120FFF7DDFB2368C5E7FB1E012B05D97F
:1058E000394600200DF052F82568CFE795F8593079
:1058F000012B14BF39460321F3E700BF2C0C002114
:10590000D872020170B5234C236893F854309B077A
:105910002FD16068C0B30C232068012180F870305B
:1059200003F0ACFC00210520FFF770FA0621206887
:1059300003F096FA054658B12368012093F8B91090
:105940000DF024F8236801221B6D83F8A62070BD9A
:10595000266896F889307BB900230121304686F805
:105960007010A6F8BA3086F8BC30BDE8704003F07D
:105970005BBC01F0D7FDCDE70CF0EEFF0BF0AEFE07
:1059800086F889502668E7E740F247513220FAF757
:10599000EFFF00BF2C0C0021012970B515D1A0B973
:1059A0001E4A136893F8701008292DD993F87010C7
:1059B0000C292ED893F870109268194B52680B443A
:1059C000BDE8704052F823301847144D002001F014
:1059D00017FF2C6894F889306BB9002304F1BA02E0
:1059E00001212046A4F8BA3084F870109370BDE805
:1059F000704003F019BC0CF0AFFF0BF06FFE0023FA
:105A000084F889302C68E8E741F25F413220FAF7E8
:105A1000AFFF4FF4A3513220FAF7AAFF2C0C00215C
:105A2000F7FFFF3F30B5244D83B02B68D86F01F0EE
:105A300061FD00283BD004460A232868002180F835
:105A4000703003F01BFC2A6823780520126D92F851
:105A5000A64004EA531404F001042146FFF7D6F9E6
:105A60000421286803F0FCF928B12B681B6D83F82A
:105A7000A64003B030BD2C6894F889306BB9002380
:105A80000121204684F87010A4F8BA3084F8BC30A4
:105A900003B0BDE8304003F0C7BB01900CF05CFFE1
:105AA0000BF01CFE019884F889002C68E7E740F2AF
:105AB00022513220FAF75CFF2C0C0021F0B5684C23
:105AC00083B0002001F046FD256801F0D7FC236873
:105AD000E867D86F002800F0BD8001F00BFD054697
