:020000040000FA
:10000000105C0020CD5F0000E1000200B95F00003D
:10001000B95F0000B95F0000B95F0000B95F000080
:100020000000000000000000000000009D610000D2
:10003000B95F0000000000005D610000B95F0000D2
:1000400091630000916300009163000091630000E0
:1000500091630000916300009163000091630000D0
:1000600091630000916300009163000091630000C0
:1000700091630000916300009163000091630000B0
:1000800091630000916300009163000091630000A0
:100090009163000091630000916300009163000090
:1000A0009163000091630000916300009163000080
:1000B0009163000091630000916300009163000070
:1000C0009163000091630000916300009163000060
:1000D0009163000091630000916300009163000050
:1000E0009163000091630000916300009163000040
:1000F0009163000091630000916300009163000030
:10010000916300009163000091630000916300001F
:10011000916300009163000091630000916300000F
:1001200091630000916300009163000091630000FF
:1001300091630000916300009163000091630000EF
:1001400091630000916300009163000091630000DF
:1001500091630000FFFFFFFF53B94AB9002908BFB0
:1001600000281CBF4FF0FF314FF0FF3000F00CB8FB
:10017000ADF1080C6DE904CE00F008F8DDF804E0FC
:10018000DDE9022304B07047704700BF2DE9F04756
:1001900086468C460846089E154674461946002B2E
:1001A00040F0C1808542B2FA82F245D94AB1C2F12B
:1001B000200300FA02FC954094402EFA03F343EA30
:1001C0000C0C4FEA154EA8B2230CBCFBFEF80EFB3C
:1001D00018CC08FB00F943EA0C43994528D9EB18E1
:1001E00008F1FF3704D2994502D9A8F102072B4440
:1001F000A3EB0903A4B2B3FBFEFC0EFB1C330CFB08
:1002000000F044EA0344A04214D92C190CF1FF3346
:1002100004D2A04202D9ACF102032C44241A43EACE
:1002200007401EB1D440002334607360BDE8F087FE
:100230004746DDE76346F1E792BB431B01214FEAE6
:10024000154EAFB2200CB3FBFEFC0EFB1C330CFBB7
:1002500007F840EA0343984561D9EB180CF1FF30E9
:1002600004D2984502D9ACF102002B44A3EB080359
:10027000A4B2B3FBFEFC0EFB1C330CFB07F744EAF5
:100280000344A7424DD92C190CF1FF3304D2A742E5
:1002900002D9ACF102032C44E41B43EA0040C0E75E
:1002A000C2F120039540944020FA03F12EFA03F3A3
:1002B0004FEA154E9040AFB20343B1FBFEFC0EFB7C
:1002C0001C10190C0CFB07F841EA0041884522D9A3
:1002D00069180CF1FF3004D2884502D9ACF1020054
:1002E0002944A1EB08019BB2B1FBFEFC0EFB1C11E3
:1002F0000CFB07F743EA01439F420ED9EB180CF1C0
:10030000FF3104D29F4202D9ACF102012B44DB1B26
:1003100041EA004193E76046E3E76146F7E760465C
:10032000A4E76346B8E7834206D916B90021084618
:100330007CE7C6E900E0F9E7B3FA83F78FB98342B7
:1003400001D3724508D8BEEB020460EB0303012021
:100350009C461EB9002169E73846FAE7C6E9004C19
:10036000F8E7C7F1200CBB400EFA07F522FA0CF4AF
:100370002EFA0CF1BA401C4320FA0CF3B8404FEAB5
:10038000144901431FFA84FEB3FBF9F809FB183046
:100390000B0C08FB0EFA43EA00439A4540D9E318D8
:1003A00008F1FF3004D29A4502D9A8F10200234493
:1003B000A3EB0A0389B2B3FBF9F809FB183308FB76
:1003C0000EFE41EA03418E452CD9611808F1FF3336
:1003D00004D28E4502D9A8F10203214443EA004029
:1003E000A1EB0E01A0FB02984145CE46434602D345
:1003F00006D14D4504D20138B9EB020E68EB040377
:10040000002EA7D0B5EB0E0261EB030101FA0CFC44
:1004100022FA07F3F9404CEA0303C6E9003199E7F1
:100420004046C5E74346D9E710F8012B11F8013BD8
:10043000012A28BF9A42F7D0D01A7047034613F812
:10044000012B002AFBD1181A013870470000000068
:1004500010B5082140F6014007F0E6FED8B1044689
:1004600008210C3012F0A4FC02460F4B93F8D83050
:1004700013F0010F0BD10D484FF0005120F0F6F8AA
:100480000022214640F6014008F00AFC10BD04A1FC
:10049000D1E90001F2E76FF06800F7E7AFF3008001
:1004A00090880002008000200000002010880002D8
:1004B000F0B58BB004460D4616460378032B38D8AA
:1004C000DFE803F002212B311D4B93E80300079076
:1004D000ADF82010090C8DF8221063792279E178AB
:1004E000A07867780DF11C0CCDF814C00497039028
:1004F000029101920093A379124A314628461CF0DA
:1005000099FF0BB0F0BD104B93E803000790ADF8D6
:100510002010090C8DF82210DFE70C4A07AB07CA40
:1005200003C31A80D9E70A4A07AB07CA03C31A8074
:10053000D3E7084A0A2107A81CF07CFFCDE700BFDB
:10054000887902009879020090790200BC79020053
:10055000C879020008C20200F0B58BB000AF0D46AA
:10056000144621F026F81E2207F10801FFF7A0FF2C
:10057000002C58D16E4600233B7102237B718AB058
:100580006C4614F1100217D012201AB1042801DDB4
:10059000544B636100233B7002237B70CAB1034656
:1005A000082802DD07F10801A1610C2B00DDE561DF
:1005B00004F1200300210AE06FF00040E5E701F1BB
:1005C00028053D4415F8285C03F8015B0131012939
:1005D000F5D9112824DD122342B1042139710021FB
:1005E0007971B9710121F9717868206100216FF387
:1005F00000016FF341016FF382016FF3C501032026
:1006000060F38811C3F30A0363F353216FF31F519F
:100610000023354803F022FEB5462C37BD46F0BD19
:100620006FF01B03D8E76E4600233B7102237B71FA
:100630008AB0EC461CF110021ED0162022B104280C
:1006400002DD2A4BCCF8143000233B7002237B7070
:10065000FAB10346082803DD07F10801CCF81810A9
:100660000C2B01DDCCF81C50102B01DDCCF8204008
:100670000CF1240300210AE06FF00040DEE701F1F5
:1006800028043C4414F8284C03F8014B013101299B
:10069000F5D9152823DD16234AB10521397100212A
:1006A0007971B9710121F9717868CCF810000021D5
:1006B0006FF300016FF341016FF382016FF3C50126
:1006C000022060F38811C3F30A0363F353216FF32D
:1006D0001F510023044803F0C1FDB5469DE76FF0AC
:1006E0001B03D9E7D479020074770200F479020081
:1006F00090B58BB000AF0C4620F05BFF1E2207F1D7
:100700000801FFF7D5FE00233B7102237B718AB0FD
:10071000EC461CF110021AD0122022B1042802DD8E
:10072000264BCCF8143000233B7002237B70DAB1E7
:100730000346082803DD07F10801CCF818100C2B3C
:1007400001DDCCF81C400CF1200300210AE06FF021
:100750000040E2E701F128043C4414F8284C03F877
:10076000014B01310129F5D9112824DD12234AB1A9
:100770000421397100217971B9710121F971786809
:10078000CCF8100000216FF300016FF341016FF30B
:1007900082016FF3C501032060F38811C3F30A03DC
:1007A00063F353216FF31F510023054803F056FDF7
:1007B0002C37BD4690BD6FF01B03D8E7187A0200B6
:1007C0007477020090B58BB000AF0C4620F0F1FEBC
:1007D0001E2207F10801FFF76BFE00233B71022385
:1007E0007B718AB0EC461CF110021AD0122022B1A3
:1007F000042802DD264BCCF8143000233B70022382
:100800007B70DAB10346082803DD07F10801CCF854
:1008100018100C2B01DDCCF81C400CF1200300213A
:100820000AE06FF00040E2E701F128043C4414F8CC
:10083000284C03F8014B01310129F5D9112824DD99
:1008400012234AB10421397100217971B971012152
:10085000F9717868CCF8100000216FF300016FF394
:1008600041016FF382016FF3C501032060F388112A
:10087000C3F30A0363F353216FF31F5100230548A9
:1008800003F0ECFC2C37BD4690BD6FF01B03D8E79E
:100890003C7A02007477020090B58BB000AF0C4632
:1008A00020F087FE1E2207F10801FFF701FE00235A
:1008B0003B7102237B718AB0EC461CF110021AD006
:1008C000122022B1042802DD264BCCF8143000237C
:1008D0003B7002237B70DAB10346082803DD07F181
:1008E0000801CCF818100C2B01DDCCF81C400CF1E1
:1008F000200300210AE06FF00040E2E701F1280444
:100900003C4414F8284C03F8014B01310129F5D976
:10091000112824DD12234AB1042139710021797193
:10092000B9710121F9717868CCF8100000216FF3DA
:1009300000016FF341016FF382016FF3C5010320E2
:1009400060F38811C3F30A0363F353216FF31F515C
:100950000023054803F082FC2C37BD4690BD6FF0A4
:100960001B03D8E7607A02007477020080B58AB072
:1009700000AF20F01EFE1E2207F10801FFF798FDD0
:1009800000233B7102237B7188B0EC461CF11002FE
:1009900015D00E2022B1042802DD244BCCF81430EF
:1009A00000233B7002237B70B2B1082803DD07F1FE
:1009B0000803CCF818300CF11C0300210AE06FF09A
:1009C0000040E7E701F1280EBE441EF828EC03F8CA
:1009D00001EB01310129F5D90D2824DD0E234AB19F
:1009E0000321397100217971B9710121F971786898
:1009F000CCF8100000216FF300016FF341016FF399
:100A000082016FF3C501032060F38811C3F30A0369
:100A100063F353216FF31F510023054803F01EFCBD
:100A20002837BD4680BD6FF01B03D8E7787A0200F7
:100A300074770200B0B58AB000AF0D4620F0B9FD62
:100A40001E2207F10801FFF733FD6C4600233B71BE
:100A500002237B718AB0EC461CF110021AD01220DE
:100A600022B1042802DD314BCCF8143000233B7056
:100A700002237B70DAB10346082803DD07F1080181
:100A8000CCF818100C2B01DDCCF81C500CF1200315
:100A900000210AE06FF00040E2E701F128053D4443
:100AA00015F8285C03F8015B01310129F5D91128FB
:100AB00038DD12234AB10421397100217971B971ED
:100AC0000121F9717868CCF8100000216FF3000162
:100AD0006FF341016FF382016FF3C501032060F3EF
:100AE0008811C3F30A0363F353216FF31F510023EB
:100AF0000F4803F0B3FBA5460E4B186820B10AF06F
:100B00001DFE0C4B00221A600B4B186838B10AF01E
:100B100015FE094B00221A60012024F097FB2837AC
:100B2000BD46B0BD6FF01B03C4E700BF907A020062
:100B300074770200D81C0020DC1C0020B0B58AB0FD
:100B400000AF39BB044620F034FD1E2207F1080136
:100B5000FFF7AEFC6D4600233B7102237B7188B02A
:100B6000EC461CF110021CD00E2022B1042802DD3C
:100B70002C4BCCF8143000233B7002237B70EAB17D
:100B8000082803DD07F10803CCF818300CF11C032A
:100B9000002111E00B46244A012124481EF008FCE4
:100BA00039E06FF00040E0E701F1280EBE441EF886
:100BB00028EC03F801EB01310129F5D90D282DDDD1
:100BC0000E234AB10321397100217971B9710121D4
:100BD000F9717868CCF8100000216FF300016FF311
:100BE00041016FF382016FF3C501032060F38811A7
:100BF000C3F30A0363F353216FF31F5100230B4820
:100C000003F02CFBAD4620460AF06EFD084B186041
:100C1000012024F016FB2837BD46B0BD6FF01B0342
:100C2000CFE700BFCC7A0200B07A020074770200EE
:100C3000DC1C0020F0B583B000AF002846D0434C48
:100C4000206820F0DEFC24686D4688B06B4613F106
:100C5000100235D00C213AB10846042901DD3C4E82
:100C60005E61082800DD9C610B292CDD0C243AB163
:100C70000321397100217971B971F97178681861AE
:100C800000216FF300016FF341016FF382016FF3F5
:100C9000C501032363F38811C4F30A0464F35321E9
:100CA0006FF31F5100232B4803F0D8FAAD46274CB1
:100CB00020680AF043FD002323600C37BD46F0BDD9
:100CC0006FF00041C7E76FF01B04D0E71F4C2068AE
:100CD00020F0A1FC24686D4688B06B4613F1100229
:100CE0002DD00C213AB10846042901DD1A4E5E616F
:100CF000082800DD9C610B2924DD0C243AB1032176
:100D0000397100217971B971F97178681861002120
:100D10006FF300016FF341016FF382016FF3C501BF
:100D2000032363F38811C4F30A0464F353216FF3BC
:100D30001F510023074803F091FAAD46B7E76FF063
:100D40000041CFE76FF01B04D8E700BFD81C00209C
:100D5000DC7A020074770200F47A020010B500EA2F
:100D60000104094B1B682BB114F0010F03D114F0DF
:100D7000020F04D110BD0120FFF75CFFF7E7002050
:100D8000FFF758FFF6E700BFD81C002008B50B4856
:100D900015F0D6F820B915F09DF9034638B908BD0D
:100DA0000346074A012107481EF002FBF3E7064A03
:100DB000012104481EF0FCFAF1E700BF5D0D0000C0
:100DC0000C7B0200747702002C7B02002DE9F047B7
:100DD0008AB000AF894616460024BC60FC603C61C6
:100DE0007C61BC61FC613C62BC8420F0E2FB1E22A1
:100DF00007F10801FFF75CFB6D463C7102237B7134
:100E000088B06C4614F1100213D00E201AB10428D9
:100E100001DD434B636100233B7002237B70AAB169
:100E2000082802DD07F10803A36104F11C03002177
:100E30000AE06FF00040E9E701F1280CBC441CF81F
:100E400028CC03F801CB01310129F5D90D2823DD88
:100E50000E2342B10321397100217971B971012149
:100E6000F9717868206100216FF300016FF341018F
:100E70006FF382016FF3C501032060F38811C3F3A0
:100E80000A0363F353216FF31F510023254803F036
:100E9000E5F9AD46002424E06FF01B03D9E7224AB0
:100EA000022120481EF07AFA2837BD46BDE8F087B7
:100EB000331B838505F10408AA8D09EB0401404624
:100EC00026F075F9AB8D1C44A4B2A64217D0AA8DAA
:100ED00016488368D3F804A04FF0FF334146D0474B
:100EE000C8B9B442E0D0302026F0C7F80546002843
:100EF000D5D0331B272BDBD927238385DAE709EBF2
:100F0000060212F8012C0D2AE1D1EA180A2111710A
:100F10000133AB85DBE72946054825F0DCFDE0E73A
:100F2000487B020074770200607B02003C73020081
:100F3000A0070020F0B58BB000AF04460D460AF0C4
:100F4000D3FB364B1860204620F033FB1E2207F1FE
:100F50000801FFF7ADFA6C4600233B7102237B7159
:100F60008AB0EC461CF110021AD0122022B10428DB
:100F700002DD2B4BCCF8143000233B7002237B7036
:100F8000DAB10346082803DD07F10801CCF8181090
:100F90000C2B01DDCCF81C500CF1200300210AE0E1
:100FA0006FF00040E2E701F128053D4415F8285CA8
:100FB00003F8015B01310129F5D911282BDD12233A
:100FC0004AB10421397100217971B9710121F97196
:100FD0007868CCF8100000216FF300016FF3410135
:100FE0006FF382016FF3C501032666F38811C3F323
:100FF0000A0363F353216FF31F510A4D0023284660
:1010000003F02CF9A546084A314628461EF0C6F9D9
:101010002C37BD46F0BD6FF01B03D1E7D81C002074
:10102000607A0200747702008C7B02002DE9F041A7
:10103000444825F074FC00287ED0302026F01DF8AE
:10104000054600287BD0002383853F493F4819F09F
:10105000C7FA3C4B9B681B6883B100223C49394866
:101060009847044668B1284625F0FEFF394A012119
:1010700039481EF093F92046BDE8F0816FF057041F
:10108000F1E7302025F0F9FF0646002841D000F1B5
:101090000408324CC44604F12007A646BEE80F00FF
:1010A000CCF80000CCF80410CCF80820CCF80C30B8
:1010B00074460CF1100CBE45EFD1DEF80000CCF800
:1010C0000000BEF804209EF80630ACF804208CF82E
:1010D00006302622B2851B4883685C684FF0FF33D8
:1010E0004146A0470446D0B9291D16488368DC68EC
:1010F0004CF250332822A04704460028BBD00346B8
:10110000174A012114481EF053F9284625F0ACFF78
:10111000B1E7284625F0A8FF6FF00B04ABE728469F
:1011200025F0A2FF304625F09FFF23460D4A0121FE
:1011300009481EF03DF99EE76FF012049BE76FF03F
:101140000B0498E73C730200E1120000300A002013
:1011500069110000BC7B020074770200DC7B020096
:10116000487C02001C7C020010B50B78052B00F2B5
:101170009E80DFE803F003872E677B488B68002B97
:1011800000F095804B68002B00F091804A4A10686F
:10119000E8B1043800231360484A136025F064FF67
:1011A00000220023464818F0ADFB00287FD0011D27
:1011B000828D444883685C684FF0FF33A047002865
:1011C00075D0414A022141481EF0E8F86FE0181F2F
:1011D000E4E74A68138DC86803449BB213853C4A10
:1011E0001278002A63D14A68134413F8013C0A2B91
:1011F00001D00D2B5BD1364B01221A703148836828
:101200005B69984753E0324B00221A70302025F07A
:1012100034FF014650B10023838504312948836897
:10122000DC684CF250332822A04740E0294A0221D2
:1012300026481EF0B3F840F267620023264819F0F2
:101240002BFB34E0302025F018FF014640B100238D
:1012500083851C4883681B6928220431984726E04F
:101260001C4A022119481EF099F820E04B68191F0A
:101270001B8D1BB1194825F02EFC18E0084625F0FF
:10128000F3FE14E00C4B1B6893B18B680B4A11689A
:101290000B441360084A1268111F19440431128D5F
:1012A000D21A084883685C684FF0FF33A04710BD2E
:1012B0004A68014B1A60E8E7D41C0020D01C0020CB
:1012C000A00700203C730200707C020074770200CB
:1012D000D22F0020907C0200300A002084070020DA
:1012E00010B5302025F0C9FE58B101460023838592
:1012F00004310A488368DC684CF250332822A04746
:1013000010BD074A022107481EF048F840F2676204
:101310000023054819F0C0FAF2E700BF3C73020051
:10132000907C020074770200300A002010B54FF064
:10133000FF324FF0FF330E4818F0B8FB07E00D4ABC
:1013400002210D481EF02AF8204625F08DFE4FF0B0
:10135000FF324FF0FF33094818F0D4FA0446828D6B
:10136000011D002003F0B4FE0028E8D1ECE700BF27
:101370003C070020BC7C0200747702008407002038
:1013800030B589B0FFF702FDFFF750FE00283BD1D2
:101390002B480BF05BF8002838D12A480BF07EF878
:1013A000002839D1002008F0F3F8002838D1264A67
:1013B000032126481DF0F2FF254818F031FB1EF0EE
:1013C000F6F8244803F078FE034658BB03AC224DE0
:1013D0000FCD0FC42B682360012300931F4B022203
:1013E0001F4903A809F044FA044608BB013404F07D
:1013F000010148BF4942002014F08EFE4FF4004026
:1014000000211AF0EFFDF1E71CF001FB15481CF07C
:10141000F3FD002009B030BD13481CF0EDFDF8E7E6
:101420001CF0F5FA114A012108481DF0C1FFF0E750
:1014300003460F4A012105481DF0BAFFE9E700BF46
:101440006402002054020020487D020074770200EC
:101450003C0700204802002070780200EC7D02006A
:10146000F47D0200E47C0200147D0200607D020035
:101470008C7D02004FF0000C944515D210B511F888
:101480000C3058400309094CE35C83EA00135FFA0F
:1014900083FEC3F30313E05C80EA0E10C0B20CF1CC
:1014A000010C9445EBD310BD704700BF047E0200D1
:1014B000002947D070B50D46066830461CF0D8FBB1
:1014C000044606EBC003B268B2F5004F17D35B6861
:1014D00013F0010F15D004EB5303B2F5004F1FD3E7
:1014E00056F833209B1A9C421DD1002221463046DB
:1014F0001CF098FA214630461CF017FC70BD5B8842
:10150000E6E7114CAF232246104911481CF08BFD31
:10151000294610481CF087FDAF2120461CF07AFDBB
:1015200036F83320DEE7084CB72322460A4908483C
:101530001CF079FD294609481CF075FDB7212046AD
:101540001CF068FD704700BF147E0200387E020068
:101550004C7E02006C7E0200A47E0200CC7E020063
:101560002DE9F843154606684B420B4001F1FF395F
:1015700019EA01090CD0B268B2F5004F06D308226F
:1015800093425CD21A464C46994609E00422F7E79A
:101590000C46B368B3F5004F4AD30822944249D9A8
:1015A000631E23424ED1002D74D0B368B3EBD50F28
:1015B00073D96119891AB3F5004F53D3082319441D
:1015C0000731C90830461CF00BFC0746002867D0DD
:1015D000014630461CF042FA00EB0908A04408F12D
:1015E000FF38B8FBF4F804FB08F8A8EB090808EB8F
:1015F0000504073424F00704414630461CF038FB4C
:101600000546A41BE41087422ED306EBC503B2683F
:10161000B2F5004F32D35B6805EB53039C422FD3E6
:101620000122294630461CF0FDF94046BDE8F8830A
:101630000422B3E729461CF024FC8046F5E74C461B
:101640009946ADE7184C4FF4A27322461749184843
:101650001CF0E9FC17481CF0E6FC4FF4A271204690
:101660001CF0D8FC0423AAE70246394630461CF099
:1016700089FA394630461CF02FFBC6E75B88CBE77A
:101680002246294630461CF07DFA214630461CF0A1
:1016900023FBC5E74FF00008C7E74FF00008C4E799
:1016A0004FF00008C1E700BF147E0200087F02006F
:1016B0004C7E0200247F0200F8B5B2F5802F01D2E3
:1016C000042A2BD9B2F5802F38D30823D21ACC1D87
:1016D00024F007040A4422F00702121BD108172A3B
:1016E0002ED90460A1600023E360B2F5802F37D3C8
:1016F00008200830A1EBD0030133B3FA83F3C3F120
:10170000200CC3F124039B0003F1070E4FEADE0611
:1017100006EBD000884225D8002338E0414C4FF436
:10172000F9732246404941481CF07DFC40481CF0BA
:101730007AFC4FF4F97120461CF06CFC0423C5E7D9
:10174000384C40F2FB1322463A4938481CF06BFCF7
:1017500037481CF068FC40F2FB1120461CF05AFC94
:101760000420C6E72F4C4FF40373224632492F481A
:101770001CF059FC2E481CF056FC4FF40371204617
:101780001CF048FC181D002544F820500133634527
:10179000F8DB7300B2F5802F31D36360B2F5802F90
:1017A0002FD300232360B2F5802F2DD3636843F03D
:1017B00001036360881B47002EF00703E518B2F5AC
:1017C000802F26D36F60A568B5F5004F23D3E65070
:1017D00022F007032244A568B5F5004F1DD300256C
:1017E0005560A268B2F5004F1AD3E050012220469E
:1017F0001CF018F9314620461CF06EFAF8BD6380E3
:10180000CCE700232380CEE7638843F001036380A5
:10181000D0E76F80D7E7E652DAE700255580E0E7AA
:10182000E052E3E7147E0200447F02004C7E020097
:10183000687F0200847F0200B07F0200F8B540B1EB
:10184000064603784578847804EB83040444002733
:1018500011E00B4CC62322460A490B481CF0E3FB5F
:10186000C62120461CF0D6FB01342046FEF7E6FDDB
:10187000013004440137AF42F6D3A01BF8BD00BFCE
:10188000DC7F02000C8002004C7E02002DE9F04F4C
:1018900097B000AF39617A617862B0B19B46D7F8F2
:1018A0008030C3F3C003FB613B69DBB17B6A93F813
:1018B0000280C7F80C80B8F1000F18D0D7F880303C
:1018C00013F0010F1FD1002312E0A74C4FF46573F2
:1018D0002246A649A6481CF0A6FB4FF46571204697
:1018E0001CF098FB786AFFF7A9FF3861DEE7002358
:1018F0007A6AD2783A6242B1D7F8802012F0020FA9
:1019000022D1002202E00123F2E7002202B9EBB16A
:10191000796A0D78AA00BA600A464968B96102EB93
:1019200085057A69FAB1002B40F00581FB68002B30
:1019300000F01081D7F8803013F0040F40F00E81D2
:10194000002082468046FAE00122DFE77B691BB176
:101950005A463969786A9847D7F8109048465C37F4
:10196000BD46BDE8F08FD7F81090E3B9FB681D4481
:101970004FF0000B22E081440135013444451CD274
:101980002A7800235AF82220194678691CF0C5FAF3
:10199000002EF0D0D7F888309B45ECD226F81B00FB
:1019A0000BF1010BE7E70024A346D7F80C803E615A
:1019B000D7F824A0D7F88460E0E73E69D7F88030F4
:1019C00003F00503FB604FF0000AC7F810B0B34600
:1019D0009CE00025FB697BB9002D79D0D7F88030D9
:1019E00013F0010F79D1FB68002B6FD10223A9EB13
:1019F000030988E00125EDE74146B8691CF0D3FAF8
:101A00000028E9D06D46002387F82C30022387F8A0
:101A10002D308AB0694611F1100237D012261AB162
:101A2000042E01DD534B4B61002387F8283002233D
:101A300087F829306ABB112E45DD122362B10420DC
:101A400087F82C00002087F82D0087F82E00012051
:101A500087F82F00F86A08616FF3000B6FF3410BF2
:101A60006FF3820B6FF3C50B022161F3881BC3F385
:101A70000A0363F3532B6FF31F5B002359463E4861
:101A800002F0ECFBAD46A9F102093CE06FF0004624
:101A9000C5E73346082E01DDB86988610C2B01DDEE
:101AA000C1F81C8001F12003002009E000F1300C96
:101AB00007F1280EF4441CF830CC03F801CB0130B8
:101AC0000128F3D9B7E76FF01B03B7E701238EE7CF
:101AD000D7F8803013F0020F15D000233246194694
:101AE00078691CF01AFAD7F8843053B13B69D7F8FB
:101AF0008820934205D2D7F8842022F813000133BE
:101B00003B61013881440AF1010A25463B6A9A4546
:101B1000BFF424AF2C4614F8028B6B787A6A52F823
:101B20002360164B9E42FFF454AF154B9E42FFF4C8
:101B300061AF00254EE707F144004FF0000A18B1ED
:101B4000FA68294625F033FBFB681D440026C7F8D8
:101B500004B032E0002082468046F0E7C24607F13A
:101B600034004FF00008EAE7DC7F02002480020026
:101B70004C7E0200408002000477020030720200B6
:101B800000EE02000025FB696BBB002D61D0D7F889
:101B9000803013F0010F3AD0B8F10F0F2AD808F1B6
:101BA000010308F1300207F1280102EB010808F8EF
:101BB000149C5FFA83F8013625463B6A9E4280F00A
:101BC0008E802C4614F802BB95F801907B6A53F87E
:101BD0002930874A9342D5D3864A934201D30025C0
:101BE000D1E70125CFE75946B8691CF0DCF9002898
:101BF000CBD0E0E7804C40F23E4322467F4980480C
:101C00001CF011FA40F23E4120461CF003FAD7F8CE
:101C1000803013F0040FCED0BAF10F0F0CD80AF1B8
:101C200001030AF1300207F1280102EB010A0AF868
:101C3000249C5FFA83FABEE76F4C40F24143224690
:101C400070496F481CF0EFF940F2414120461CF00A
:101C5000E1F9D7F8803013F0020F1CD0B8F10F0F64
:101C60000CD808F1010308F1300207F1280102EB5A
:101C7000010808F8149C5FFA83F89CE75E4C4FF467
:101C8000896322465D495E481CF0CDF94FF48961B5
:101C900020461CF0BFF9BAF10F0F13D80AF1010367
:101CA0000AF1300207F128010A4402F824BC0AF1C3
:101CB000020A5FFA8AFA07F1580252FA83F303F82C
:101CC000249C78E74C4C40F24B4322464D494C480B
:101CD0001CF0A9F940F24B4120461CF09BF9D7F8C3
:101CE00004B07A6A137887F854305378434487F8FD
:101CF0005530D7F8803013F0020F0DD1CAF34703E7
:101D000087F85730D7F8803013F0010F06D113F061
:101D1000040F35D1002302E00023F1E7002387F808
:101D200056307C6A20683863786D20605A46B968FE
:101D300020467E69B047B0F10009FFF60FAE386B60
:101D400020605A46514607F13400B047002849DB6D
:101D500009EB0004FA68BB681A443B6A02EB4301D2
:101D60005A463B69591A2846B047B0F10009FFF6B8
:101D7000F5AD4C440025C7F82080D7F8849015E0D5
:101D80005346CCE74FF0000A5A46012107F12C00D8
:101D9000B047002828DB04445346424659463046A3
:101DA0001CF0BBF8002821DB044401353B6A9D424E
:101DB00011D205F1300307F12802134413F8143C43
:101DC00087F82C307A6A52F82380B9F1000FD9D005
:101DD00039F815A0D8E75A46002108467B6998478C
:101DE000A146BBE58146B9E58146B7E58146B5E543
:101DF0003072020000EE0200DC7F0200E48002008C
:101E00004C7E02000481020008B5024B1B68984713
:101E100008BD00BF9002002000B585B00A4600232F
:101E2000009301930293039302238DF80230044B35
:101E30000193014668461BF08FFB05B05DF804FB7B
:101E4000091E0000014B1860704700BF900200207F
:101E500080B505460E46174698461AF00DF903461A
:101E600025F0DCF90446DFF8189049F800304246C6
:101E700039463046A84754F8090004F019F900BF64
:101E80000800000038B504460D462022002125F048
:101E9000B5F9EB68E361AB68A3612B6823626B68FB
:101EA00063620022A2622A6922612BB1591E0B4291
:101EB00002D142F00102226104F12C000122002132
:101EC00024F026FE00B938BD054C2E2322460549D4
:101ED00005481CF0A8F82E2120461CF09BF800BFF6
:101EE00038810200608102004C7E02002DE9F04F33
:101EF00089B09A46002307930593436A8B42C0F04A
:101F0000F18083468946002302930127039390467C
:101F100062E0774D88232A46764977481CF083F89B
:101F2000214676481CF07FF8882128461CF072F87C
:101F3000029958461CF0ABF90023059361E0DBF8E9
:101F40002030DBF8002003EB8201039113F822100C
:101F50006FF3000103F82210C9B26FF3410103F8D7
:101F60002210DBF800304B44DBF8102012F0010F98
:101F700005D1DBF824108B4205D35B1A03E0DBF8B4
:101F8000241001390B40CBF80030DBF80C109942DB
:101F900001D0002709E042F00802CBF8102000270A
:101FA00003E058461CF0ABF82F46019D20461AF07E
:101FB00085FA002800F0858085F31188BFF36F8FC4
:101FC000079931B1DBF818300BB158469847002318
:101FD0000793002F00F088800BF11404EFF31186B3
:101FE000202383F31288BFF36F8F20461AF056FA2E
:101FF00000288ED020461AF07BFA0196059A002A16
:1020000096D106A958461CF01CF805460699494584
:1020100095D20028C5D15AEA08030CD1002FC4D0AC
:10202000DBF80030029305AB07AA069958461CF06E
:1020300099F80746B9E724F058FE0028EED120466B
:102040001AF03CFAE8B186F31188BFF36F8F0BF1F9
:102050002C004246534617F029FD0746EFF3118541
:10206000202383F31288BFF36F8F20461AF016FAED
:10207000C0B120461AF03CFA0195B7FA87F77F09FC
:1020800093E71B4D40F231132A461D491A481BF0B5
:10209000CAFF21461B481BF0C6FF40F231112846FB
:1020A0001BF0B8FF124D88232A46124912481BF034
:1020B000BAFF214611481BF0B6FF882128461BF0C5
:1020C000A9FF0B4D40F231132A460D490A481BF077
:1020D000AAFF21460B481BF0A6FF40F2311128460B
:1020E0001BF098FF00230393039809B0BDE8F08F1D
:1020F0006C8102009C8102004C7E0200B4810200CF
:10210000CC810200E48102002DE9F04104460D4635
:10211000C36908469847074604F11406EFF311888F
:10212000202383F31288BFF36F8F30461AF0B6F97D
:1021300088B130461AF0DCF92B7843F001032B709C
:1021400063681F44236913F0010F13D1636A9F4230
:1021500013D3FF1A11E0184C882322461749184858
:102160001BF061FF314617481BF05DFF88212046B8
:102170001BF050FF636A013B1F40676020461BF065
:1021800098FF30461AF09AF928B188F31188BFF306
:102190006F8FBDE8F081084C40F2311322460A49A6
:1021A00007481BF040FF314608481BF03CFF40F257
:1021B000311120461BF02EFF6C8102009C81020031
:1021C0004C7E0200B4810200CC810200E481020056
:1021D0002DE9F04182B0044642E04A4C8823224671
:1021E00049494A481BF01FFF294649481BF01BFF7D
:1021F000882120461BF00EFF53F8220080085DD195
:1022000053E0626A013A1340A36020461BF064FF6A
:102210001BE013F8221041F0020103F82210A66817
:10222000E369404698473044236913F0010F04D115
:10223000636A984204D3C01A02E0636A013B184003
:10224000A060002601E00026B04628461AF036F9C4
:10225000002842D087F31188BFF36F8F002E4DD036
:1022600004F11405EFF31187202383F31288BFF3E1
:102270006F8F28461AF012F906460028ADD028467E
:102280001AF036F901A920461BF0EFFE236AA26876
:1022900003EB820801990029D5D013F8221011F020
:1022A000030117D00229A7D0002013F8221011F043
:1022B000010FAED110B9E36940469847A3680146C3
:1022C0000344226912F0010F9BD1626A93429BD3AF
:1022D0009B1A99E70026B046B7E70A4C40F2311343
:1022E00022460C4909481BF09EFE29460A481BF06D
:1022F0009AFE40F2311120461BF08CFE404602B09F
:10230000BDE8F0816C8102009C8102004C7E0200DD
:10231000B4810200CC810200E48102002DE9F04189
:1023200004460D46C36908469847064604F114075B
:10233000EFF31188202383F31288BFF36F8F3846A1
:102340001AF0ACF8A8B138461AF0D2F82B786FF32F
:1023500000032B70236913F0020F19D0236AE2687F
:1023600003EB8203AB4213D02B6866F39F032B6011
:102370001AE0244C88232246234924481BF053FEAC
:10238000394623481BF04FFE882120461BF042FEB1
:102390002B786FF341032B70E268A3689A4211D047
:1023A000314620461BF098FE38461AF087F8C0B137
:1023B00088F31188BFF36F8F04F12C0017F030FB06
:1023C000BDE8F0813344226912F0010F04D1626A42
:1023D000934204D39B1A02E0626A013A1340A3605D
:1023E000DEE7084C40F2311322460A4907481BF049
:1023F0001AFE394608481BF016FE40F231112046FD
:102400001BF008FE6C8102009C8102004C7E0200E1
:10241000B4810200CC810200E481020010B586463E
:102420000020642310E00CF1300C0EF801CB0139D0
:10243000C9B20130C0B2B2FBF3F403FB1422D2B232
:10244000094CA4FB0343DB0849B143B1B2FBF3FCE5
:102450009A42E8D2012BE6D00028ECD0E3E711B194
:1024600000238EF8003010BDCDCCCCCC10B5044686
:102470008C46838B002A12DB03F007035A1F012AC4
:1024800019D9042B50D100211BF0A4FF20461BF0CA
:10249000CBFF78B1A38B43F02003A3830AE0D0E9FC
:1024A00000018CE8030000232360636001212046C3
:1024B0001BF090FF10BDD0E900018CE80300002262
:1024C00022606260062B0FD0052B20D10021204610
:1024D0001BF080FF20461BF0A7FF0028EAD0A38B4B
:1024E00043F02003A383E5E7DCF8003053B1E28B2F
:1024F0000132E2831A461B68002BF7D0002AF5D17F
:102500001346F3E7022120461BF064FFE2E70D4C7F
:1025100040F2091322460C490C481BF084FD40F29E
:10252000091120461BF076FD064C40F21B13224693
:10253000074906481BF077FD40F21B1120461BF0AF
:1025400069FD00BFFC810200248202004C7E020073
:102550007CD402002DE9F04782B0838BE1B10446C0
:10256000154603F0070603F00802084692B3012956
:102570001FD0022921D143F02003A3831434204625
:1025800019F09CFF002800F09D8185F31188BFF3AE
:102590006F8F02B0BDE8F087B94C40F2331322468A
:1025A000B849B9481BF03FFD40F2331120461BF0FB
:1025B00031FD43F01003A383E0E7B14C4FF49E7369
:1025C0002246B249B0481BF02EFD4FF49E712046C2
:1025D0001BF020FD00230093019357E020461BF0E1
:1025E00023FF55E0D4F818904A4669462046FFF785
:1025F0003DFF0027A38B03F00708B04500F00781DB
:10260000A268002A00F00381012643F00803A38397
:1026100004F1140A504619F051FF002800F000811F
:1026200085F31188BFF36F8F002E40F00A81009B65
:102630002BB14B464246694620461BF036FF17B188
:1026400093492046B847EFF31185202383F312887E
:10265000BFF36F8F504619F021FF002800F0F7807C
:10266000504619F045FFA38B23F00803A383A38BE7
:1026700013F0100F00F0FA8023F01003A383012061
:10268000A68B06F0070600283FF478AF0228A5D0F5
:1026900000283FF473AF0138042800F2AB8001A397
:1026A00053F820F0E5250000F5270000B9260000CA
:1026B000212700008B2700005EB92368B3B123698E
:1026C0001F6807B3062120461BF084FE4FF0000967
:1026D00090E76B4C4FF4AB7322466E496A481BF08F
:1026E000A2FC4FF4AB7120461BF094FC644C40F20A
:1026F00057132246684964481BF095FC40F2571175
:1027000020461BF087FC5E4C4FF4AD7322466349B4
:102710005D481BF088FC4FF4AD7120461BF07AFC3D
:10272000022E0BD1E38BB3B923695F6807B3042191
:1027300020461BF04FFE4FF000095BE7504C40F283
:102740005D132246564950481BF06DFC40F25D1166
:1027500020461BF05FFC4A4C4FF4AF7322465149B0
:1027600049481BF060FC4FF4AF7120461BF052FC4F
:10277000434C40F261132246484943481BF053FC46
:1027800040F2611120461BF045FC012E0BD123685D
:10279000B3B123699F6807B3052120461BF01AFED9
:1027A0004FF0000926E7364C4FF4B27322463E49FB
:1027B00035481BF038FC4FF4B27120461BF02AFC60
:1027C0002F4C40F26513224633492F481BF02BFC57
:1027D00040F2651120461BF01DFC294C4FF4B473E8
:1027E00022462E4928481BF01EFC4FF4B4712046A7
:1027F0001BF010FC224C40F26B1322462B4922485E
:102800001BF011FC40F26B1120461BF003FC009AF8
:102810000AB10026F9E6002F3FF429AF0026F4E6BE
:10282000234C40F231132246224917481BF0FBFB90
:10283000514621481BF0F7FB40F2311120461BF0B6
:10284000E9FB4A46414620461BF0CCFDEFE6184C1A
:102850008823224619490C481BF0E5FB51461848CD
:102860001BF0E1FB882120461BF0D4FB13F0200F66
:1028700004D023F02003A383022001E70020FFE619
:10288000FC8102004C8202004C7E02005C8202004D
:10289000F9280000708202007C820200A0820200FF
:1028A000B8820200D0820200E08202007CD40200E2
:1028B0006C810200CC810200E48102009C81020054
:1028C000B4810200084D40F231132A4607490848F6
:1028D0001BF0A9FB214607481BF0A5FB40F2311174
:1028E00028461BF097FB00BF6C810200CC810200E0
:1028F0004C7E0200E4810200F8B504460D4600F16A
:102900001406EFF31187202383F31288BFF36F8F30
:10291000304619F0C3FD48B1304619F0E9FDA56114
:102920003A4601212046FFF715FEF8BD074C8823E3
:102930002246074907481BF076FB314606481BF044
:1029400072FB882120461BF065FB00BF6C810200F2
:102950009C8102004C7E0200B48102002DE9F04708
:10296000044688461BF079FD061E46DB04F1140779
:10297000EFF3118A202383F31288BFF36F8F384659
:1029800019F08CFD8146A8B1384619F0B1FDA58B30
:1029900005F00705E38B4FF6FF7293424BD02E46AE
:1029A000022D16D0062D39D8DFE805F0314C383825
:1029B000312A31003B4C882322463B493B481BF0DF
:1029C00032FB39463A481BF02EFB882120461BF08B
:1029D00021FB0133E38300231A4642B10022C8F8E9
:1029E00000206268AAB3C2F80080C4F80480ABB3C8
:1029F000524602212046FFF7ADFD3046BDE8F08784
:102A00006FF085064FF000094B464A46E5E7B5FAF8
:102A100085F35B094A464FF00009DEE7254C4FF489
:102A2000E4732246244921481BF0FDFA4FF4E47177
:102A300020461BF0EFFA6FF00A064FF000094B46F4
:102A40004A46CAE76FF004064FF000094B464A4673
:102A5000C3E7C4F80480C4F80080C8E7384619F01A
:102A60002DFD68B18AF31188BFF36F8FB9F1000FA4
:102A7000C3D000232A46414620461BF003FDBCE795
:102A8000084C40F2311322460C4908481BF0CBFA9F
:102A900039460B481BF0C7FA40F2311120461BF0B3
:102AA000B9FA00BF6C8102009C8102004C7E0200DA
:102AB000B4810200FC810200E0820200CC810200AD
:102AC000E4810200F8B5044600F11405EFF3118625
:102AD000202383F31288BFF36F8F284619F0DEFCA2
:102AE00068B1284619F004FDA38B03F007031F46C5
:102AF000022B16D0012B11D06FF0850717E0234C65
:102B000088232246224923481BF08DFA2946224871
:102B10001BF089FA882120461BF07CFA6FF004072D
:102B200005E0E38B6BB1013B9BB2E383B3B1284675
:102B300019F0C4FCC0B186F31188BFF36F8F38461B
:102B4000F8BD164C40F2EF132246154911481BF010
:102B50006AFA40F2EF1120461BF05CFA324602217D
:102B60002046FFF7F7FCEAE7084C40F23113224613
:102B70000C4908481BF057FA29460B481BF053FA3A
:102B800040F2311120461BF045FA00BF6C81020073
:102B90009C8102004C7E0200B4810200FC81020094
:102BA000F8820200CC810200E481020010B50346E5
:102BB000426802F003028160022A11D0032A0CD07D
:102BC000012A10D00C4C452322460C490C481BF01E
:102BD0002AFA452120461BF01DFA0468002004E073
:102BE0000068002401E00024204600225A6008B159
:102BF0001AF0A0F9204610BD088302007CD4020020
:102C00004C7E02002DE9F04387B004460023039375
:102C1000C36A1F7900F114094FF0FF324FF0FF3300
:102C2000484616F039FCE36A1B68DAB2012A08D973
:102C3000134607325B4203EA02064FF0000845469E
:102C400003E00826F9E70135ADB2E389AB421CD9B0
:102C5000A189891B89B201EB0541039108233A46FA
:102C600020461BF089FC0028EDD008F101081FFA6E
:102C700088F803A920461BF0D9FC08233A4603999B
:102C800020461BF079FC0028DDD1E389434500F0A4
:102C9000F580AB420DD003A920461BF0FEFC054693
:102CA000002840F0D080039B63601B0C1B04A360D2
:102CB00010E008233A460399891B20461BF05CFC70
:102CC0000028E8D103A920461BF0B0FCE3E76368C5
:102CD0009B1B63606168A36899422ED304AA2046B7
:102CE0001BF045FC0546002840F0A680394604A8A4
:102CF0001BF090FC08B304A920461BF0B2FC00288E
:102D0000E5D0BDF80E301904A160BDF81230BDF851
:102D100014000344E26A1268D5B2012D03D92B4492
:102D2000013B6A4213400B44A36062689342CED1D8
:102D30000028CCD06FF01C0585E0E3881B040393CA
:102D400003A920461BF072FCA3893A46039920464A
:102D50001BF012FC051E76DB002D5AD0636833444D
:102D6000039302E0039B3344039303998AB2A3893C
:102D70009B1B9A4218D201AA20461BF0F8FB05467D
:102D8000002859D101A920461BF06BFC0028E9D08E
:102D9000BDF804204FF6FF739A42E3D1BDF8083026
:102DA000002BDFD1012300E00023DBB9354A0321EA
:102DB00035481CF0F3FA616820461BF00EFC05460E
:102DC000002840D1E3881B046360A289A2EB46027D
:102DD000134463601B0C1B04A36020461BF0C6FD5C
:102DE000054629E0294A032127481CF0D7FAE38841
:102DF0001B04039303A920461BF018FC03992046EB
:102E00001BF0EBFB054617E0A368E26A1268134467
:102E1000A3606368A1688B4208D95B1A3A462046D2
:102E20001BF0AAFB051E07DB002DEDD1616801EB4D
:102E30004602A3899A420DD02DB9A288A389A3EB9B
:102E400046039A4215D0484616F03EFC284607B085
:102E5000BDE8F083A2680B0C1B049A42ECD020461C
:102E60001BF0BBFB05460028EDD1E3881B04A360E3
:102E7000E2E720461BF062FD0546E4E76FF02C0513
:102E8000E1E700BF4883020024770200308302009C
:102E900070B586B00446143023F0BDFDA06A836887
:102EA000DB689847E06200B3A06A8368DB689847F4
:102EB0000368013B1F2B20D8A06A216803AA21F0D8
:102EC0008CFA10BBA38943B3049AB3FBF2F102FB63
:102ED000113313BBE389012B27D92046FFF792FE5C
:102EE000054650B3284606B070BD234A0121234849
:102EF0001CF054FA6FF01505F4E7214A01211F4830
:102F00001CF04CFA6FF01505ECE71E4A01211B4836
:102F10001CF044FA6FF01505E4E71B4A012117483D
:102F20001CF03CFA6FF01505DCE7184A0121134844
:102F30001CF034FA6FF01505D4E701232374E389FC
:102F4000A2890E4E0092124A032130461CF03BFA31
:102F50006268130C92B200920E4A032130461CF0B4
:102F600032FAA268130C92B200920B4A0321304647
:102F70001CF029FAB6E700BF848302002477020020
:102F8000A8830200C8830200E0830200F4830200E9
:102F90001884020030840200448402002DE9F04FBE
:102FA00087B0019290F810B0BBF1000F26D0044614
:102FB0000E469946C36A1B68D9B2012926D901F188
:102FC000070A4A420AEA020A012922D9DBB209EBBE
:102FD000030808F1FF385B4208EA0308A389A3EB62
:102FE0008A034B45C0F08A80B9F1000F03D0019BE2
:102FF000002B00F086806368039310E0424A0121B1
:1030000042481CF0CBF96FF00C056FE04FF0080A56
:10301000DAE7C846E2E76268039B9A4213D0039F4F
:1030200004AA03A920461BF098FB054600285DD1A1
:10303000BDF81030B342EED104A920461BF011FBBD
:103040000028E8D001E04FF0000BBBF1000F18D0D2
:103050003F0C3F04BDF812103944B9F1000F03D101
:10306000BDF8143083B941E0BDF814304B450BD1A5
:103070004B46019A20461BF06AFD002804DC0546F9
:1030800034E0B9F1000F31D0B8F1000F1DD01AFAB9
:1030900088F7BFB204F114084FF0FF324FF0FF334E
:1030A000404616F0F9F9E3899D421AD06268A36898
:1030B0003B449A420BD220461BF016FDD0B9204665
:1030C0001BF054FCC0B90135EDE70027E2E74B46A1
:1030D000019A314620461BF0E9FC054618B94D46D9
:1030E00001E06FF01B05404616F0EEFA284607B0E7
:1030F000BDE8F08F0546F6E70546F4E76FF01505E5
:10310000F4E76FF01505F1E7708302002477020001
:103110002DE9F04784B09946BDF83080037CA3B117
:1031200004460F469246C36A1B68DAB2012A14D9D4
:10313000134607325B421A40A389A3EB42034B4577
:103140004CD36668039600250DE0294A01212948E1
:103150001CF024F96FF00C0335E00822ECE76268FC
:10316000039B9A4216D0454514D8039E01AA03A991
:1031700020461BF0F2FA034628BBBDF80430BB42E0
:10318000EDD101A920461BF06CFA0028E7D00135EB
:10319000ADB2E4E76268039B9A4218D0BDF80830EC
:1031A000FBB1454520D3360C3604BDF806104B451F
:1031B00028BF4B465246314420461BF0C9F903460E
:1031C00008B9BDF80830184604B0BDE8F087BDF86E
:1031D0000430BB42E2D06FF00103F4E76FF0150357
:1031E000F1E76FF00103EEE76FF00103EBE700BFDB
:1031F000708302002477020008B528B183685BB1B0
:103200001B688BB1984708BD084A012108481CF08B
:10321000C5F86FF01500F6E7064A012104481CF0D6
:10322000BDF86FF00400EEE70020ECE760840200D8
:103230002C7702007484020008B528B183685BB162
:103240005B688BB1984708BD084A012108481CF00B
:10325000A5F86FF01500F6E7064A012104481CF0B6
:103260009DF86FF00400EEE70020ECE760840200B8
:103270002C7702007484020010B560B1034651B18E
:103280004AB1806878B1C4686CB141F8043BC46845
:103290001846A04710BD084A012108481CF07EF8D6
:1032A0006FF01500F6E7064A012104481CF076F895
:1032B0006FF00400EEE700BF948402002C77020058
:1032C0007484020010B558B10446006880B1836868
:1032D000B3B11B69A3B16168984700B9206010BD04
:1032E0000B4A01210B481CF059F86FF01500F6E766
:1032F000094A012107481CF051F86FF00100EEE780
:10330000064A012103481CF049F86FF00400E6E783
:10331000C08402002C770200D4840200748402006E
:1033200010B560B113468446006880B18268B2B1BE
:103330009468A4B10A46DCF80410A04710BD0C4AFA
:1033400001210C481CF02AF86FF01500F6E70A4A34
:10335000012108481CF022F86FF00100EEE7074A4F
:10336000012104481CF01AF86FF00400E6E700BFE2
:10337000C08402002C770200D4840200748402000E
:1033800050B100B583B00B460092826A416A14F0D6
:10339000CDFE03B05DF804FB004870472DF8FFFF39
:1033A000006900F56773D3E8AF3F022B11D110B568
:1033B0000C4689B10A4900F52C7016F039FF2046F9
:1033C00023F0CFF870220021204623F017FF0020C1
:1033D00010BD6FF00F0070476FF00100F8E700BFFD
:1033E000E01C00200023002B01DD00207047054A6F
:1033F00012680AB10133F6E7024A526800211160EF
:10340000F8E700BF9402002008B502491BF0ABFCAE
:1034100008BD00BF38EB020030B585B004460D464C
:103420000B490291D0F8AC11019100934FF0FF339A
:1034300000F1E001284614F0BBFE38B9012385F8FD
:103440006430D4F8A8310BB12846984705B030BD98
:103450005FED010060B100B583B00B460121019121
:103460000092826A416A14F03DFE03B05DF804FBED
:10347000004870472DF8FFFF08B5844608461146FE
:103480001A46DCF8103003F56773D3E8AF3F022B20
:1034900007D14AB158B1FFF7DDFF084B984209D078
:1034A00008BD6FF00F00FBE76FF04C00F8E76FF01E
:1034B0000100F5E76FF00B00F2E700BF2EF8FFFF09
:1034C00010B5044600220449FFF7C4FFA36E1B6831
:1034D0000BB1E06E984710BD38EB0200F0B58DB02F
:1034E0004468056900230A930B9303680A93E36910
:1034F000012B29D0276A05F53076304616F03EFFBD
:10350000606A0AAB00933B464FF48062134901EBBB
:103510008021304616F04CFF636A114A202102A830
:1035200019F088FF02A9304617F0BEFA0D4905F5DB
:103530002C7016F09FFD2A460B4904F114001BF075
:1035400040FB20B10DB0F0BD276A103FD3E7012248
:10355000A16960691BF04EFBF4E700BFE83300206F
:10356000FC840200D7F00100C7F001002DE9F04310
:1035700085B004464668056905F567790123D9E8F1
:10358000EF2F002A03D1C9E8E13F0029F7D155D137
:1035900005F5E478314640461BF05DFD074650B125
:1035A0000023D9E8EF2FC9E8E13F0029F9D13846D7
:1035B00005B0BDE8F083234BC5F8A832C5F8A46276
:1035C0002368C5F8FC313168404600F049F90746E8
:1035D0000028E5D12046FFF781FF07460028DFD10C
:1035E000194BC5F8A831194BC5F8AC31B26AD5F8FA
:1035F0006832D5F8981316480390D5F81002029057
:10360000D5F808020190CDF80080284600F082F835
:1036100007460028C4D105F1E00014F083FFC5F887
:10362000A003002807DB0223D9E8EF2FC9E8E13F18
:103630000029BCD0F8E76FF01507B1E76FF0770706
:10364000B5E700BF4BEC0100C134000033EF0100CF
:1036500031EE01002DE9F04385B007460E46914654
:10366000D0F8B080002400E00134012C28D8A8F55F
:10367000CE71C4EBC40501EB0515C4EBC4031B01FB
:10368000403319443046FCF7CFFE0028ECD10E4BF6
:103690000293D8F810300193CDF800904FF0FF332B
:1036A00032463946284614F083FD48B9012185F891
:1036B0006410D8F80C30002BD6D028469847D3E7B2
:1036C00005B0BDE8F08300BF1DF10100C8B110B521
:1036D00084B014460346BAB1E030012902D000207C
:1036E00004B010BD0A4A0292D3F8AC3101934FF0F6
:1036F000FF33009304F140020146204614F058FDC8
:10370000EEE76FF0150070476FF01500E8E700BFB7
:103710001DF101002DE9F04186B01E460D9B0F9C66
:1037200048B3054653B3D4B1D9B903AF039104915B
:1037300005910392049205F5CE780E9A19464046FB
:1037400023F0C7F80197CDF80080334622460C9944
:1037500005F1E00014F0FCFE06B0BDE8F081094C74
:10376000E2E700230093334622460C9905F1E0007E
:1037700015F020F8F0E76FF01500EDE76FF0150099
:10378000EAE700BF5536000010B584B00446114A80
:1037900002AB92E8030083E80300184614F06EFBC6
:1037A00008B104B010BD04F1340014F043FB00284C
:1037B000F7D101AA616B084822F09DFA0028F0D1E8
:1037C000019B9A681AB10C33C4F8A030E9E70023D2
:1037D000FAE700BF847802003C85020038B5044651
:1037E0000D46D0F894001BF0D9FCC4F8D40078B38F
:1037F000D4F894001BF0D2FCC4F8D80058B3D4F825
:10380000A010C4F8B810D4F88C30C4F8A830B4F8BC
:103810009420A4F8B0200423C4F8AC30D4F8D4C069
:10382000C4F8A4C0C4F8D010D4F89010C4F8C010E4
:10383000A4F8C820C4F8C430C4F8BC00A5610223B1
:10384000A362064B236204F1A403E362002038BDA7
:103850006FF00B00FBE76FF00B00F8E750850200FC
:1038600030B330B585B00D460446436BC3B1012378
:10387000E363D4F8981021630023029301934FF07F
:10388000FF330093D4F89C3004F1300204F140007F
:1038900022F05AFA2046FFF777FF20B105B030BD7D
:1038A000054B4363E3E729462046FFF797FFF5E71B
:1038B0006FF01500704700BF4485020010B14368E7
:1038C0005879704710B5064C40F23313224605492B
:1038D00005481AF0A8FB40F2331120461AF09AFB73
:1038E0007C850200B48502004C7E020010B520B138
:1038F0000268D26802B1904710BD054C8B23224666
:10390000044905481AF08FFB8B2120461AF082FBF0
:103910007C850200B48502004C7E020010B520B107
:103920000268126962B1904710BD064C9E23224680
:10393000054906481AF077FB9E2120461AF06AFBDB
:103940000020F1E77C850200B48502004C7E020075
:1039500010B518B102689268904710BD054CD0238D
:103960002246054905481AF05EFBD02120461AF090
:1039700051FB00BF7C850200B48502004C7E020032
:1039800010B520B10268526802B1904710BD054CD5
:10399000C2232246044905481AF045FBC2212046AD
:1039A0001AF038FB7C850200B48502004C7E0200D0
:1039B00010B520B171B102681268904710BD0B4C70
:1039C000B22322460A490B481AF02DFBB2212046A9
:1039D0001AF020FB054CB3232246074905481AF08C
:1039E00022FBB32120461AF015FB00BF7C850200A4
:1039F000B48502004C7E0200CC85020038B5054635
:103A0000144C00E01034144B9C4212D8124B9C42D0
:103A10001FD22046FFF752FF0028F3D02946204648
:103A20001BF023FC0028EDD029462046FFF7C0FFFD
:103A3000E8E70A4C40F2F3132246094909481AF014
:103A4000F2FA09481AF0EFFA40F2F31120461AF0A0
:103A5000E1FA38BDA4770200B4770200E0850200E5
:103A6000108602004C7E02003486020010B530B190
:103A70000346006884690CB11846A04710BD064C87
:103A80004FF4B1732246054905481AF0CCFA4FF4B9
:103A9000B17120461AF0BEFA7C850200B48502009E
:103AA0004C7E020070B506460D460F4C05E02A46D6
:103AB00031462046FFF7DAFF10340C4B9C4203D806
:103AC0000A4B9C42F3D370BD094C40F2813322462D
:103AD000084909481AF0A7FA08481AF0A4FA40F26F
:103AE000813120461AF096FAA4770200B4770200DA
:103AF000E0850200108602004C7E0200348602003F
:103B00002DE9F04107460546EDB195FAA5F6B6FA5E
:103B100086F60E4C04EB06140123B3406FEA03084B
:103B200025EA0305237B002BEED02046FFF7F6FEA7
:103B30000028E9D107EA08076368042219682046CB
:103B400000F05EFBE0E73846BDE8F081A4770200B4
:103B50002DE9F0412F4B304A9B1A8F2B0ED880460F
:103B60000F462E4BD3E8EF6F721CC3E8E12F0029FC
:103B7000F8D1002E4AD1284C002514E0284C40F200
:103B80003F132246274928481AF04DFA40F23F11C8
:103B900020461AF03FFA636804221968204600F0B4
:103BA0002FFB013510341B4B9C4211D8194B9C4202
:103BB0001ED2237B002BF4D02046FFF797FE204631
:103BC000FFF7ACFE0028E6D00123AB401E43E8E738
:103BD000134C4FF4A6732246144913481AF023FAE3
:103BE00013481AF020FA4FF4A67120461AF012FA80
:103BF000B8F1000F0BD056B13046FFF781FF0646F3
:103C0000002FF8D00A201BF036FBF4E700263046E0
:103C1000BDE8F081B4770200A4770200201D0020E7
:103C2000E0850200548602004C7E020010860200ED
:103C30003486020008B5064B186018B1054B1B68A6
:103C4000092B00DC08BD044815F0EAFEFAE700BFC6
:103C5000141D00201C1D00205407002008B5024838
:103C600015F0DEFE08BD00BF5407002030B589B056
:103C700000220F490F4823F09DF90F4D0022002329
:103C8000CDE90623002404940E23039302940194A7
:103C900000940A4B4FF400620949284616F0ECFFE5
:103CA0000849284616F000FF204609B030BD00BF85
:103CB0005D3C0000C8120020080E0020BD4000003E
:103CC000E837002084860200014B53F8200070473B
:103CD000BC86020048B108B5054A1060054B196062
:103CE000084600F0ADFD002008BD6FF015007047DC
:103CF000C0020020101D002008B5054B1B781BB129
:103D0000034B01221A7008BD024815F089FEF7E73F
:103D1000D32F002054070020094BD3E8EF1F0131B7
:103D2000C3E8E21F002AF8D100B97047054BD3E879
:103D3000EF1F0139C3E8E21F002AF6D0F7E700BF02
:103D4000181D00201C1D0020044B00200146D3E854
:103D5000EF0FC3E8E21F002AF9D17047181D0020B9
:103D600038B5FFF7F1FF0546114C00E01034114B58
:103D70009C420CD80F4B9C4219D22046FFF79EFD67
:103D80000028F3D029462046FFF7FAFDEEE70A4C5B
:103D900040F2FF132246094909481AF044F909483C
:103DA0001AF041F940F2FF1120461AF033F938BDFC
:103DB000A4770200B4770200E085020010860200BA
:103DC0004C7E020034860200034B18680028D4BFE2
:103DD00000200120704700BF181D002010B5044CC2
:103DE00004492046FEF74EF8034B1C6010BD00BF8F
:103DF00004060020A88602000C1D002008B5002340
:103E0000064A1370064A1360064A13604FF40041D5
:103E10000548FFF75FFFFFF7E1FF08BDD42F002043
:103E2000181D00201C1D00206FF2010008B501467E
:103E300001481BF036FA08BD0406002008B5024808
:103E4000FEF7C6F908BD00BF0406002008B501460C
:103E5000024B18681BF02BFA08BD00BF0C1D002098
:103E600008B502481BF027FA08BD00BF0406002071
:103E700010B582B000220023CDE90023264B18782C
:103E800008B902B010BD68461BF01EFA044668B1BE
:103E9000224BD3E8EF1F0139C3E8E21F002AF8D113
:103EA0002046FFF7ABFD2046FFF7D0FFFFF78CFF62
:103EB00058B91B4A1368516813F57A7341F1000130
:103EC00013605160FFF7CCFFDBE723F004F84A01F1
:103ED00042EAD06243011B1A62EB0102920042EAFD
:103EE00093729B001B1842EB0102D20042EA53720C
:103EF000C3F3103343EA4243D20B094801684068D8
:103F00005B1A62EB000240F2E9318B4272F100026F
:103F1000CFD3FFF725FFCCE7D32F00201C1D0020B7
:103F2000C0120020194B1B7803B1704710B5002157
:103F30000120FFF70DFE164C00E01034154B9C429B
:103F40000BD8144B9C4218D22046FFF7B7FC002830
:103F5000F3D02046FFF7FCFCEFE70F4C4FF4DC7387
:103F600022460E490E481AF05EF80E481AF05BF829
:103F70004FF4DC7120461AF04DF8FFF779FF002866
:103F8000FBD1024B01221A7010BD00BFD42F0020BC
:103F9000A4770200B4770200E085020010860200D8
:103FA0004C7E02003486020030B583B02F4BD3E83C
:103FB000EF2F511CC3E8E01F0028F8D12C4B1B78D1
:103FC0006BB92C4B1B681BB3002A43D0092A1FD1A5
:103FD000294822F0FBFF294815F022FD18E0EFF3F5
:103FE0001184202383F31288BFF36F8F244818F0C5
:103FF00055FA78B1224D284618F07AFAFFF738FFC3
:10400000284618F05BFAA0B184F31188BFF36F8FD4
:1040100003B030BD1B4C882322461B491B481AF0B5
:1040200002F817491A4819F0FEFF8821204619F0B6
:10403000F1FF144C40F2311322461649134819F08F
:10404000F2FF2946144819F0EEFF40F231112046E4
:1040500019F0E0FF00220023CDE900234FF40042D5
:104060000023054818F040FED2E700BF1C1D0020C9
:10407000D42F0020141D0020C81200205407002057
:10408000081D00206C8102009C8102004C7E020011
:10409000B4810200CC810200E481020010B5044624
:1040A000044B1B689847A060214603481BF010F999
:1040B00010BD00BFC0020020040600202DE9F04121
:1040C000234B244A9B1A1B0910D000210846FFF7F6
:1040D0003FFD8046B8B140F26766002723F09EF8A6
:1040E0001D4B1858FFF7A6FD002525E01B4C40F29C
:1040F0008D3322461A491B4819F095FF40F28D3145
:10410000204619F087FF4FF0FF364FF0FF37E5E705
:104110004046FFF7F5FC804688B94FF0FF364FF078
:10412000FF370CE000210846FFF7BCFC32463B4657
:104130000D4815F0BBFC2546B8F1000FE8D1FFF79C
:1041400097FE04460028F6D1002DEBD12C46EDE772
:10415000B4770200A477020008000000E0850200A6
:104160008C8602004C7E02005407002010B1436888
:104170001971704710B5054CDF23224604490548E4
:1041800019F051FFDF21204619F044FF7C85020021
:10419000B48502004C7E020028B142681160436879
:1041A00001225A71704710B5064C4FF48C732246A9
:1041B0000549064819F037FF4FF48C71204619F075
:1041C00029FF00BF7C850200B48502004C7E0200FE
:1041D0000248034BC01AC008704700BFA477020012
:1041E0006C76020010B50C46FFF7F2FFA04203D92F
:1041F000024B53F8340010BD0020FCE76C7602003F
:1042000070B504460D461646074BC31A1B11013301
:10421000D9B2FFF7ABFF63689E7129462046FFF7CE
:10422000BBFFFFF769FD70BDA477020000B589B040
:10423000059206930023079362B1074A0C9B0293F1
:104240000B9B01930A9B009305ABFDF71FFB09B085
:104250005DF804FB0022F1E7E1F201002DE9F04FE7
:104260008BB004AF05461E468846C1F34A24002C95
:1042700000F0978091460022FA603A617A61042347
:104280000293FB1801930A23009307F10C032146C4
:104290004846FDF7FBFAB0F5006F58D3D9F8041083
:1042A0006D4600233B7302237B738AB004AC14F188
:1042B000100217D012201AB1042801DD424B6361AD
:1042C00000233B7002237B70CAB10346082800DD3F
:1042D000A1610C2B02DD40F2FF73E36104F12003C6
:1042E00000210AE06FF00040E5E701F118063E44C6
:1042F00016F8186C03F8016B01310129F5D9112862
:1043000022DD122342B10421397300217973B9737C
:104310000121F973F868206100216FF300016FF348
:1043200041016FF382016FF3C501022060F3881130
:10433000C3F30A0363F353210023C1F3130123489A
:104340001BF04EF8AD463BE06FF01B03DAE760F37D
:104350005328C0F30A0A0AEB1850173020F0070060
:104360008008FFF763FD834620B304230293FB1804
:1043700001930A230093534600F110022146484658
:10438000FFF754FF002815DA114C4FF4A2732246B0
:104390001049114819F047FE4FF4A271204619F058
:1043A00039FE04EB1154173424F00704A008FFF77A
:1043B0003DFD834633464246294658461AF0A6FF3D
:1043C0001C37BD46BDE8F08F288702003477020015
:1043D00068870200948702004C7E0200406820B18A
:1043E000034BC01A40F3CF0070474FF0FF307047C7
:1043F0006C7602000EB400B582B0014603AB53F8F0
:10440000042B0193034802F0BFFA02B05DF804EBFD
:1044100003B07047DD46000030B585B011F0440FA1
:1044200005D01A4B1C6834B9002005B030BD1849BE
:10443000FFF7E0FFF9E7174B1968B2FBF1F1B1FBA9
:10444000F4FC154AA2FB0C32D20A4FF4616E0EFB4B
:1044500012CE124BA3FB0E535B0904FB1C114FF44D
:104460007A7C0CFB01F1B1FBF4F504FB15110CFB9C
:1044700001F1B1FBF4F102910195C3EB0311AEEB35
:10448000810100910649FFF7B5FFCEE7281D002006
:10449000A0870200241D0020C5B3A29189888888C6
:1044A000AC87020061B108B52AB1064A52F8232050
:1044B00012B9054A00E0044A0449FFF79BFF08BD12
:1044C000704700BFC0880200C88702005C7B020002
:1044D0002DE9F04105461746069EDDF81C8081B99E
:1044E00000242EB1324611492846FFF783FF0444C9
:1044F000B8F1000F14D06FB1099B042B13D00C49F5
:1045000009E00C4B099A53F822200B49FFF772FF80
:104510000446E6E7064942462846FFF76BFF044497
:104520002046BDE8F0810549F5E700BFE4870200B9
:10453000D4870200D4880200DC870200D087020002
:104540002DE9F04F87B0049205939DF84C60042E3E
:1045500030D805460C4601F0020B01F0010AC1F308
:10456000C00801F480791AF0B9FE024678B31C49FC
:104570002846FFF73FFF0746BBF1000F29D132461F
:10458000514628461AF03FFFB9F1000F01D0002331
:1045900011930396129B0293119B0193109B00931E
:1045A0000023049A41462846FFF792FF384407B09B
:1045B000BDE8F08F0B4C40F2622322460A490B48BB
:1045C00019F031FD40F26221204619F023FD002749
:1045D000D2E7059A21462846FFF71EFF0744CEE79B
:1045E00024880200E8870200188802004C7E02003E
:1045F00011F0100F0BD108B511F0200F03D00449B2
:10460000FFF7F8FE08BD0349FFF7F4FEFAE770472D
:1046100028960200CCEC02002DE9F04105460F4639
:10462000164698460699FFF7E3FF0024444505DA4D
:1046300024492846FFF7DEFE0134F7E7002409E0AD
:1046400020492846FFF7D6FE0BE01F492846FFF712
:10465000D1FE01340F2C0CDC002C02DD14F0070F0E
:10466000EED0B442F1D23A5D18492846FFF7C2FEB7
:10467000EFE717492846FFF7BDFE002409E011497E
:104680002846FFF7B7FE0BE012492846FFF7B2FEB7
:1046900001340F2C13DC002C02DD14F0070FEED0D8
:1046A000B44207D23A5D0C4B9B5C13F0970FEBD1F1
:1046B0002E22E9E703492846FFF79CFEE8E7BDE81C
:1046C000F08100BFE08702003088020028880200E5
:1046D0003488020038880200F1EC020038B5054643
:1046E0000C464B681A68CB689A4210D06368D3E8CE
:1046F000EF2F511CC3E8E01F0028F8D1A3689D5498
:1047000063681A68E3689A4205D8002038BD0846F5
:104710001AF0ACFEEAE7054C7A2322460449054824
:1047200019F081FC7A21204619F074FCE887020018
:104730003C8802004C7E02002DE9F04184B0044622
:104740009DF82C500C9F0E9EA5B9012B20D020481F
:104750004FF0000837B13B4622461E4919F0F3FBE3
:10476000002819DB2EBB6DBB20461AF07FFE04B07B
:10477000BDE8F08103950A980290019300920B46E0
:1047800000220F992046FFF7DBFE80461248E1E742
:1047900011484FF00008DDE7104C4FF42F7322460C
:1047A0000F49104819F03FFC4FF42F71204619F0C3
:1047B00031FC0F9B0093434632460D9920461AF078
:1047C0003AFED0E72A460F9920461AF028FECBE79A
:1047D00087F4010089690000DD460000E8870200D7
:1047E0006C8802004C7E020070B582B004460568F9
:1047F00042F20F738B4228BF0B460E4A05216846D2
:1048000018F018FE064663685B680B220A492846C2
:104810001AF0EAFD63685B683246694628461AF07A
:10482000E3FD63685B681B22044928461AF0DCFD3F
:1048300002B070BD78A90200948802007888020056
:10484000074B01221A6004E04008054A13685B0028
:104850001360044B9842F7D8034B1860704700BFB1
:10486000241D002040420F00281D0020034B012280
:104870001A70034B034A1A60704700BFD52F0020FF
:10488000541D0020581D0020014B19600020704766
:10489000401D002008B518B9074B00221A7008BD4A
:1048A000064B1B7823B141F2883022F032F8F6E74C
:1048B00005201AF02AFEF2E7D52F0020D62F00207F
:1048C00038B504460A4B01221A700A4B1B782BB9E3
:1048D00038BD651E2046FFF7DDFF2C46002014F092
:1048E00019F80028F4D0024B1B78002BF1D1EFE728
:1048F000D52F0020D62F0020F8B506460D460427F8
:104900000DE02A463146002013F09CFF044614E0D7
:104910003846FFF7D5FFDCB9114B1B78C3B1114BFB
:104920001B78002BEDD114F005F82A463146002003
:1049300013F088FF044614F009F8002CE8D1084B66
:104940001B78002BE7D0013F3846FFF7A3FFE2E7D3
:1049500014B9034B1B7803B92C462046F8BD00BFA1
:10496000D52F0020D62F002008B5034B01221A7046
:1049700002481AF07BFD08BDD62F002014890200E2
:1049800008B50248FFF730FF08BD00BF14890200D8
:1049900010B50C46044B1868FFF796F903460F2232
:1049A00021460248984710BD401D0020148902008E
:1049B000014B0360002070472489020084460023D5
:1049C00000E00133074A12689A4208DD1A010649DD
:1049D000096801EB03108A5C6245F2D100E0002017
:1049E000704700BF448B02000003002038B50C4B19
:1049F0001B687BB10C46FFF7E1FF054668B1C06854
:104A000028B121F08CFF10B12560002038BD6FF077
:104A10001200FBE76FF00C00F8E76FF00100F5E71C
:104A20000003002070B588B004460D46164669465E
:104A3000C0B2FFF7DBFF00281CDB0098E8B101944F
:104A400043680293836803930496002305932A68BE
:104A500006920793C4681AF06EFD8CB101AA0A4948
:104A600020461FF0C0FC079B0BB9059B2B600798E5
:104A700008B070BD6FF01500FAE76FF01500F7E7AA
:104A80006FF01200F4E700BF73F501002DE9F84361
:104A90000F4B1D68CDB180460F4614460D4E4FF0AA
:104AA000FF324FF0FF33304614F0F6FC6B68D3F85A
:104AB000089023463A4641462846C84704463046B1
:104AC00014F002FE2046BDE8F8836FF00104F9E718
:104AD000701D00201407002000230360054B5B6855
:104AE0001BB11860034B58607047024B5860186048
:104AF000704700BF741D0020014B1860704700BF55
:104B0000701D002030B585B0054600230193029347
:104B1000039301904FF0FF324FF0FF330E4814F033
:104B2000BBFC0E4B1C6864B163681B6801A920467E
:104B3000984723462468002CF5D0002BF3D11C465F
:104B4000F1E7284600F04AF90446034814F0BCFD9A
:104B5000204605B030BD00BF14070020741D0020A2
:104B600010B584B00190029103924FF0FF324FF0E4
:104B7000FF330C4814F090FC0B4B1C6864B1636865
:104B80001B6801A92046984723462468002CF5D0CD
:104B9000002BF3D11C46F1E7024814F095FD0020EC
:104BA00004B010BD14070020741D0020024B002229
:104BB0001A605A60704700BF741D002008B5034B8F
:104BC00000221A605A60FFF7F1FF08BD7C1D00202B
:104BD000F0B583B006460F4609B100230B602F4C99
:104BE000002504E00FB1019B3B60254614342C4B9B
:104BF0009C4219D82A4B9C4224D201AA21683046F3
:104C00001AF0E0FC0028F1D0002DEBD0002229683A
:104C100020681AF0D7FC0028E8D01FB1019B3B6048
:104C20002546E3E72546E1E71E4C942322461E492C
:104C30001E4819F0F8F91E4819F0F5F9942120469C
:104C400019F0E8F91B4B1C683CB1143C05E014F169
:104C5000140317D0646904B1143CE4B101AA2168BB
:104C600030461AF0AFFC0028F1D06DB1002229685F
:104C700020681AF0A7FC0028ECD057B1019B3B60DC
:104C80002546E7E71C46E8E70FB1019B3B60254658
:104C9000E0E72546DEE7284603B0F0BDF8770200DE
:104CA0007078020024890200588902004C7E0200BC
:104CB000348602007C1D00202DE9F04786B002AF4B
:104CC00004460E46904699463D6BF860B5B129689A
:104CD00021B107F10C021AF075FC58B1D5F804A007
:104CE000BAF1000F0AD0AB68F86800934B46424611
:104CF0003146D0471037BD46BDE8F08707F10C01BB
:104D00002046FFF765FF002861D085684B46424684
:104D10003146F868A8470028ECD06D4600233B7266
:104D200002237B728AB002AE16F1100218D04FF047
:104D3000120C22B1BCF1040F01DD264B736100237C
:104D40003B7102237B71C2B16346BCF1080F00DDE9
:104D5000B4610C2B00DDF06106F1200300210AE0B4
:104D60006FF0004CE5E701F11000384410F80C0C2E
:104D700003F8010B01310129F5D9BCF1110F23DD35
:104D8000122342B10421397200217972B9720121D2
:104D9000F972B868306100216FF300016FF34101CF
:104DA0006FF382016FF3C501012060F38811C3F333
:104DB0000A0363F353216FF31F5100230648FFF7E3
:104DC0004DFAAD46002095E76FF01B03D9E70020B0
:104DD00090E700BF808902008477020070B5054625
:104DE000234C002600E01434224B9C4212D8214B65
:104DF0009C421DD235B10022294620681AF0E2FB00
:104E00000028F0D0E368002BEDD09847002EEAD1BF
:104E10000646E8E7184CF42322461849184819F0CA
:104E200002F9184819F0FFF8F421204619F0F2F8B9
:104E3000154B1C683CB1143C05E014F1140313D06D
:104E4000646904B1143C8CB135B100222946206854
:104E50001AF0B8FB0028F0D0E368002BF0D0984798
:104E6000002EEDD10646EBE71C46ECE7304670BD60
:104E7000F877020070780200248902005889020045
:104E80004C7E0200348602007C1D002010B54FF0DD
:104E9000FF324FF0FF330B4814F0FEFA0A4B1B7839
:104EA0002BB10024074814F00FFC204610BDFFF77B
:104EB00085FE00F08BF804460028F3D1024B012256
:104EC0001A70EFE714070020D72F00202DE9F047D4
:104ED00098B080468946048F0134A4B24FF0000A8E
:104EE0000EE0002842DD2946384619F05CFE2146D6
:104EF000384619F058FEB8F83830AB4245D02C4649
:104F0000651EADB2B5F5004F2CD008F108074A2355
:104F100003AA2946384619F04CFE064604F57F548C
:104F20003F34A4B201230DF10B022146384619F09B
:104F300040FE002ED5DD0028D5DD06F160030DEB27
:104F40000306002306F8543C1697ADF85C40CDF8F4
:104F5000009016AB124A014603A8FFF7ADFE824649
:104F60000028CCD0504618B0BDE8F087B8F83830EB
:104F7000AB42C4D1013B424622F8383F02234FF4F2
:104F800000413846FEF70AF8B9E7013B424622F8ED
:104F9000383F02234FF400413846FDF7FFFFAEE7EC
:104FA00055F6010008B5034B4360FFF795FD00205F
:104FB00008BD00BFC402002008B5034B4360FFF7E3
:104FC0009BFD002008BD00BFC402002010B584B0C6
:104FD0000120009003A9FFF709FD034610B1184610
:104FE00004B010BD01AA69460120FFF71BFD03466E
:104FF00010B110F10C0FF2D1029CB4F5803F23D216
:1050000000221346072B07D822440399896891424E
:1050100002D301339BB2F5E70D488482C382039B20
:105020005A688260DB68C3631AF0C0FB034600283D
:10503000D5D10748FFF7B6FF03460028CFD1044873
:10504000FFF7BAFF0346CAE76FF02003C7E700BFC8
:10505000841D002008B5054818F0CEFF044818F05C
:10506000CBFF044818F0C8FF08BD00BFB489020098
:10507000E8890200208A020008B5044B9B681BB136
:10508000481E18BF0120984708BD00BFC41D00205E
:1050900010B51C46034B1B6813B1114622469847B6
:1050A000204610BDC41D002008B5024B5B6803B14B
:1050B000984708BDC41D002030B10168034A116043
:1050C000416851608368936000207047C41D0020D0
:1050D00010B586B0002300930193029303930493C9
:1050E00005930D4B01930291ADF80C200B4B0493EB
:1050F00058B10446012208490AF062F848B16946ED
:1051000020460AF0D9FB06B010BD69460AF0D4FB70
:10511000F9E76FF01500F6E7788A0200A950000061
:1051200070B48DB006460D460DF1040C2B4C0FCC1F
:10513000ACE80F000FCCACE80F0094E807008CE857
:105140000700002E45D03046002D44D000230FE04C
:1051500015F8234005EB83014A78120442EA046201
:105160008C7842EA0422C9780A4340F823200133AC
:10517000032BEDD906E0191F50F821104A4040F8E2
:10518000232001332B2B20D85A1E50F8222013F055
:10519000030FF0D14FEA3262110E114C655CC2F37D
:1051A0000741615C090441EA0561C2F30725655DB9
:1051B00041EA0521D2B2A25C114323F0030230324E
:1051C0006A4452F82C2C4A40D5E701200DB070BC3F
:1051D00070470020FAE70020F8E700BF8C78020053
:1051E000788B020000284ED070B584B01546064674
:1051F00000294AD0002A4AD010230A461946684698
:105200001AF0F9FA294668461AF00FFB002414E058
:105210001DF803101F48415C0DF8031001330F2BDC
:10522000F6D968461AF042FB68461AF0B9FB013419
:1052300005EB041168461AF0F8FA082C01D800238F
:10524000EDE7002306E01DF8032012498A5C0DF803
:10525000032001330F2BF6D968461AF027FB611C97
:1052600005EB011168461AF0E0FA10236A46194668
:1052700030461AF0C0FA1022002168461AF0C8FA27
:10528000012004B070BD002070470020F9E7002025
:10529000F7E700BF788B02002DE9F04F95B003913E
:1052A0000568D0F804808768D0F80CB00469D0F89D
:1052B00014A0D0F81890D0F81CC00026CDF804B087
:1052C000E346029030E003A81AF095FC14AB03EB20
:1052D000860343F8400C4FEAF42383EAB41383EACD
:1052E00074635B4404EA0A0229EA04014A40134455
:1052F0004E4A52F82620134418444FEA753383EA85
:10530000B50383EAB55388EA07022A4008EA070191
:105310004A4013440136CB46D146A246019C044480
:1053200001974746A846C5180F2ECCD9DC46DDF8B4
:1053300004B03F2E5ED806F1010E0EF00F0314AA42
:1053400002EB830353F8402C4FEAB24383EAF21393
:1053500083EAD20306F10E0202F00F0214A901EB58
:10536000820252F8401C4FEAF14282EA714282EA1C
:10537000912206F00F0114A800EB810151F8400CB6
:105380000190134406F1090202F00F0214A800EB89
:10539000820252F8402C1344019A134441F8403CD5
:1053A0004FEAF42282EAB41282EA7462624404EAA6
:1053B0000A0129EA040041400A441C4951F8261018
:1053C0000A4413444FEA753282EAB50282EAB551C3
:1053D00088EA07022A4008EA070042400A44764663
:1053E000CC46D146A2460BEB0304BB464746A84633
:1053F0009D189EE7029803682B440360436843446A
:10540000436083683B448360C3685B44C360036953
:105410002344036143695344436183694B4483617B
:10542000C3696344C36115B0BDE8F08F788C020096
:10543000E0B110B50446702200211AF0E9F90C4BD6
:1054400023600C4B63600C4BA3600C4BE3600C4B74
:1054500023610C4B63610C4BA36103F17453A3F5FF
:105460002303A3F69243E361012010BD002070479F
:1054700067E6096A85AE67BB72F36E3C3AF54FA5E5
:105480007F520E518C68059BABD9831F08B502482B
:1054900017F08EFE08BD00BF788D0200B0F5680FD2
:1054A00017D00CD840F6BA63984214D0B0F5683FD4
:1054B00013D03A2801D00120704700207047094BD3
:1054C00098420CD0084B984201D001207047002030
:1054D0007047002070470020704700207047002070
:1054E000704700BF3A00003A2C5F5CA928B308B5AA
:1054F0004368B3F5683F0AD0B3F5680F14D012497A
:105500008B421FD0006814F0DFF8002014E003681D
:105510000022D3E8EF1F012903D1C3E8E02F0028C0
:10552000F7D10DD1104607E003681B7803F58073AF
:105530000020064A42F8230008BD6FF4E04070479F
:105540000348F9E70348F7E72C5F5CA90000035024
:10555000E98FFFFFEA8FFFFF88B308B54368B3F513
:10556000683F0FD0B3F5680F19D016498B4224D08D
:1055700000684FF0FF324FF0FF3313F08DFF68B13A
:1055800011480BE003680122D3E8EF1F002903D183
:10559000C3E8E02F0028F7D10BD1002008BD036835
:1055A0001B7803F58073094A52F823301BB9002099
:1055B000F4E70548F2E70448F0E70548EEE76FF442
:1055C000E04070472C5F5CA9E98FFFFF00000350AB
:1055D000EA8FFFFF10B50446A8B16368B3F5683FD2
:1055E00010D0B3F5680F0DD00D4A93420AD013F4D2
:1055F000686F0DD021680B4813F082FE00232360F2
:10560000074B636010BD084B5B6808489847E4E7A8
:10561000236800221A605A609A60DA601A61EFE724
:105620002C5F5CA9D022002090050020808D020014
:1056300010B5044668B36068B0F5683F28D0B0F58F
:10564000680F25D0174B984228D0FFF727FFC0B12D
:105650004FF0FF324FF0FF332146134813F0DEFDC9
:1056600008B923681BB9114B5B6811489847236838
:1056700000221A605A609A60DA601A614FF4686317
:105680006360206821F0C7F9636843F03A03636000
:1056900010BD064B5B6807489847CCE72368002B92
:1056A000D3D1D5E72C5F5CA9D02200209005002043
:1056B000A88D0200808D020008B540231422044901
:1056C000044821F083F90449044817F0E3FD08BDBC
:1056D000D01D0020D0220020D88D0200EC8D0200C9
:1056E0002DE9F04182B000AF0446D0F800E0D0F8D8
:1056F00004C085686E468AB06B4613F1100200F054
:10570000888014218AB10846042903DDDFF81C8152
:10571000C3F81480082801DDC3F818E00C2801DD67
:10572000C3F81CC0102800DD1D62132974DD142588
:105730003AB10521397100217971B971F97178682F
:10574000186100216FF300016FF341016FF38201D3
:105750006FF3C501012363F38811C5F30A0565F3EF
:1057600053216FF31F5100233148FEF777FDB546F3
:10577000D4F80CC026696569E8468AB06B4613F117
:1057800010024CD0142182B10846042903DDDFF851
:10579000A4E0C3F814E0082801DDC3F818C00C2801
:1057A00000DDDE61102800DD1D6213293ADD1425BD
:1057B0003AB10521397100217971B971F9717868AF
:1057C000186100216FF300016FF341016FF3820153
:1057D0006FF3C501012666F38811C5F30A0565F369
:1057E00053216FF31F51124D00232846FEF736FD5B
:1057F000C546E369104A3146284619F0D9FDA36928
:105800000E4A3146284619F0D3FD0837BD46BDE89B
:10581000F0816FF0004175E76FF01B0588E76FF0CE
:105820000041B0E76FF01B05C2E700BFFC8D02002E
:105830006C7702002C8E02005C8E02006C8E0200DF
:1058400038B504460D4611B10846FFF749FF012C53
:1058500004D02946204613F0E7F838BDEFF305835E
:10586000103B034A0121034819F0A2FDF1E700BFF4
:105870009C8E02006C77020030BFFFF7FDBF00BFB7
:1058800038B50446054D2A46054921F090FC054AE5
:105890000021601921F0B2FC38BD00BF00000000FB
:1058A000707802000800000070B50646064D074BF0
:1058B0001D444C1B2046FFF7E3FF083CC6F8A840F8
:1058C00005F1080070BD00BF0000000008000000E6
:1058D000074B9B6893F90E20002A08DB044A5269A3
:1058E000934204D0034A536843F080535360704797
:1058F000982D002000ED00E081690D4B5A6942F4BB
:1059000080725A61BFF34F8FBFF36F8F31F8021C63
:105910005A6922F480725A61BFF34F8FBFF36F8FC1
:105920004DF60273994201D0002070470120704764
:1059300000ED00E04FF0000C83F800C002F07F4C57
:10594000BCF17F4F14D102F00C0CBCF1080F04D055
:1059500012F0080F09D00846704708B5054A012122
:10596000054819F01BFD002008BD01221A70704780
:1059700000207047B08E02006C77020008B5314AF3
:105980000121314819F00AFD304B9B6A13F0007F6A
:1059900026D11D202D4B9B6A13F0807F27D12B4BE6
:1059A0009B6A13F4801F29D1284B9B6A13F4002FA4
:1059B0002BD1264B9B6A13F4802F2DD1234B9B6A4E
:1059C00013F4003F2FD1214B9B6A13F4803F31D158
:1059D0001E4A936A6FEA03436FEA1343936208BD5A
:1059E0001B4A0121184819F0D9FC1E20D2E7194A98
:1059F0000121154819F0D2FC1F20D0E7164A0121D9
:105A0000114819F0CBFC0220CEE7144A01210E48C0
:105A100019F0C4FC2120CCE7114A01210A4819F0F1
:105A2000BDFC2220CAE70F4A0121074819F0B6FC45
:105A30002320C8E70C4A0121034819F0AFFC2420B9
:105A4000C6E700BFDC8E02006C77020000ED00E0CC
:105A5000F48E0200088F0200248F0200508F020093
:105A6000708F0200988F0200B48F020008B50023E7
:105A70000B70034A0121034819F090FC08BD00BFD8
:105A8000E08F02006C77020090B583B000AF0F2961
:105A900023DC2F4C103900233B7102237B718AB029
:105AA000EC461CF110021AD0122022B1042802DDAB
:105AB000284BCCF8143000233B7002237B70E2B1FA
:105AC0000346082801DDCCF818400C2B01DDCCF88A
:105AD0001C100CF1200300210DE01F4CDAE76FF0E1
