:020000040000FA
:1000000068680120151B020021140600011B020074
:10001000011B0200011B0200011B0200011B020068
:10002000000000000000000000000000D51C0200DD
:10003000011B020000000000951C0200011B0200D1
:100040005D1E02005D1E02005D1E02005D1E0200BC
:100050005D1E02005D1E02005D1E02005D1E0200AC
:100060005D1E02005D1E02005D1E02005D1E02009C
:100070005D1E02005D1E02005D1E02005D1E02008C
:100080005D1E02005D1E02005D1E02005D1E02007C
:100090005D1E02005D1E02005D1E02005D1E02006C
:1000A0005D1E02005D1E02005D1E02005D1E02005C
:1000B0005D1E02005D1E02005D1E02005D1E02004C
:1000C0005D1E02005D1E02005D1E02005D1E02003C
:1000D0005D1E02005D1E02005D1E02005D1E02002C
:1000E0005D1E02005D1E02005D1E02005D1E02001C
:1000F0005D1E02005D1E02005D1E02005D1E02000C
:100100005D1E02005D1E02005D1E02005D1E0200FB
:100110005D1E02005D1E02005D1E02005D1E0200EB
:100120005D1E02005D1E02005D1E02005D1E0200DB
:100130005D1E02005D1E02005D1E02005D1E0200CB
:100140005D1E02005D1E02005D1E02005D1E0200BB
:040150005D1E02002E
:100158002DE9F14F03F11C0402EB840C4FEA930BD9
:100168008A68CB680868496800F046F93CE9F000FD
:100178006040694072407B400BF1060E4EE083EA16
:10018800134480EA134582EA134746BA96EA344490
:10019800604000F00F1684EA063420F00F1684EA57
:1001A800161054BA94EA0106724002F00F1486EA57
:1001B800043622F00F1486EA14124CBA65406940DE
:1001C80001F00F1485EA043521F00F1485EA1411A3
:1001D8005CBA67407B4003F00F1487EA043723F0CA
:1001E8000F1487EA141344BA44404DBA4D4056BA26
:1001F80056405FBA5F4087EA174886EA174B84EA99
:1002080017464FEA38488BEA1B4485EA1B4788EAB9
:100218001B4580EA3440694072407B4000F07034EE
:1002280000F0803500F00F3040EA440040EAD50085
:1002380080EA900404F0332480EA8400604001F0EE
:10024800703401F0803501F00F3141EA440141EA90
:10025800D50181EA910404F0332481EA84016140E4
:1002680002F0703402F0803502F00F3242EA4402A4
:1002780042EAD50282EA920404F0332482EA840234
:10028800624003F0703403F0803503F00F3343EA23
:10029800440343EAD50383EA930404F0332483EA4E
:1002A80084036340C943DB4381EA000483EA0446CC
:1002B80086EA020183EA014382EA334583EA14436A
:1002C8005C4084EA00077FEA040A8AEA024A8AEA6A
:1002D800010B87EA11488AEA374A80EA060181EA6F
:1002E8001A418AEA030A04EA0A00454088EA040730
:1002F80007EA0B0041408AEA0B0608EA060084EA8E
:1003080034428AEA3A4602EA0603584045404140E8
:1003180087EA37438BEA3B4003EA000985EA090587
:1003280082EA0309464006EA0906714085EA0100A7
:1003380005EA3546464006EA314181EA304181EA1C
:10034800364606EA304686EA354634400F4086EAA5
:10035800010508EA050886EA3640024088EA0208EC
:1003680081EA314213405C4080EA020309EA03094A
:1003780087EA0907674088EA040806EA0A0601EAE4
:100388000B018AEA0B0425408AEA3A44204045409A
:100398008BEA3B4B02EA0B02564084EA0B042340EB
:1003A80059406E40694087EA364080EA384080EA22
:1003B800060380EA104481EA134585EA344585EA54
:1003C80017427D4082EA354180EA05403CE9F00069
:1003D8006040694072407B40BEF1010E3FF6CFAEEF
:1003E80020BC00F05FF828606960AA60EB60BDE897
:1003F800F08F00BF00F000BA80EA101404F0F01487
:1004080080EA0410604081EA111404F0F01481EAD3
:100418000411614082EA121404F0F01482EA041212
:10042800624083EA131404F0F01483EA041363406F
:1004380080EA102404F47F4480EA0420604081EAC2
:10044800112404F47F4481EA0421614082EA1224E1
:1004580004F47F4482EA0422624083EA132404F409
:100468007F4483EA0423634081EA500404F055344E
:1004780080EA4400614083EA520404F0553482EA79
:100488004402634082EA900404F0333480EA840032
:10049800624083EA910404F0333481EA84016340C2
:1004A800704700BF82EA900404F0333480EA840085
:1004B800624083EA910404F0333481EA84016340A2
:1004C80081EA500404F0553480EA4400614083EA2C
:1004D800520404F0553482EA4402634080EA10244E
:1004E80004F47F4480EA0420604081EA112404F483
:1004F8007F4481EA0421614082EA122404F47F44A3
:1005080082EA0422624083EA132404F47F4483EAE3
:100518000423634080EA101404F0F01480EA041005
:10052800604081EA111404F0F01481EA041161407A
:1005380082EA121404F0F01482EA0412624083EA98
:10054800131404F0F01483EA04136340704700BFE7
:100558002DE9F14F94464FEA930B8A68CB680868F7
:100568004968FFF749FF0BF1060E33E083EA1344AD
:1005780080EA134582EA134746BA96EA3444604053
:1005880000F00F1684EA063420F00F1684EA1610DD
:1005980054BA94EA0106724002F00F1486EA04364F
:1005A80022F00F1486EA14124CBA6540694001F033
:1005B8000F1485EA043521F00F1485EA14115CBA8A
:1005C80067407B4003F00F1487EA043723F00F14C9
:1005D80087EA1413BCE8F0006040694072407B4031
:1005E80000F0E03400F0103500F00F3040EA54001D
:1005F80040EAC50080EA900404F0332480EA8400CD
:10060800604001F0E03401F0103501F00F3141EAAB
:10061800540141EAC50181EA910404F0332481EAD6
:100628008401614002F0E03402F0103502F00F322C
:1006380042EA540242EAC50282EA920404F03324F0
:1006480082EA8402624003F0E03403F0103503F0DC
:100658000F3343EA540343EAC50383EA930404F0DF
:10066800332483EA8403634081EA324787EA1345E7
:1006780081EA354690EA060484EA034B82EA1B4283
:1006880080EA044484EA054483EA144A85EA144467
:100698008BEA044B84EA374481EA0B4181EA16412C
:1006A80004EA0A00454082EA04082BEA08004140AF
:1006B8008AEA0B0602EA060084EA34438AEA3A46E2
:1006C80003EA060778404540414088EA38478BEA04
:1006D8003B4007EA000985EA090583EA070946401D
:1006E80006EA0906714085EA010005EA35464640F2
:1006F80006EA314181EA304181EA364606EA304667
:1007080086EA3546344008EA010886EA01052A40A7
:1007180086EA364003405A4081EA31431F407C4014
:1007280080EA030709EA070988EA0908544088EAC1
:10073800020806EA0A0601EA0B018AEA0B021540DA
:100748008AEA3A42104045408BEA3B4003405E400B
:100758004240174079404D404E40E443F64386EA14
:1007680018435D4085EA054083EA134386EA03415E
:1007780083EA384284EA114383EA04435FEA334355
:10078800BEF1010E3FF6F2AE1ED4BCE8F0006040A8
:10079800694072407B4020BCFFF784FE2860696096
:1007A800AA60EB60BDE8F08F2DE9E0414FF2F0025E
:1007B80080EA1031114080EA01304840410882083F
:1007C800C3084FF0000E4FE700F0113001F011316F
:1007D80002F0113203F0113340EA410040EA82008E
:1007E80040EAC3004FF2F00280EA1031114080EA7B
:1007F80001304840BDE8E0812DE9F04F02F11C05C9
:100808000646074600EB850851F8040B043A46F8FB
:10081800040BF9D14FF0010CFFF7C6FF5FEA302057
:1008280080EA0C001ECF41404A4053405C401EC63F
:100838002000464517D04FEA4C0C1CF4807F18BFA7
:10084800ACF1E50C2C2DE7D03C2D06D1FFF7ACFF21
:1008580006CF41404A4006C6100006CF41404A40F4
:1008680006C61000D8E736E90F00FFF7C5FD043DBE
:1008780086E80F00F7D1BDE8F08F00BF2DE9F0073B
:1008880091E8F807B2E802105B1854EB0C04B2E8E0
:1008980002104D4156EB0C06B2E802104F4158EBDE
:1008A8000C08B2E8021059EB01095AEB0C0A80E86F
:1008B800F80780410130BDE8F00770472DE9F007DF
:1008C80091E8F807B2E802105B1A74EB0C04B2E87E
:1008D80002108D4176EB0C06B2E802108F4178EBDE
:1008E8000C08B2E8021079EB01097AEB0C0A80E8EF
:1008F800F80780414042BDE8F00770472DE9F0074E
:10090800524290E87800B1E880071740DB1918EAEE
:10091800020854EB080419EA020955EB09051AEA1A
:10092800020A56EB0A0678C090E87800B1E880071A
:1009380017407B4118EA020854EB080419EA020937
:1009480055EB09051AEA020A56EB0A0678C08041F7
:100958000130BDE8F00770472DE9F007524290E8F2
:100968007800B1E880071740DB1B18EA020874EB2F
:10097800080419EA020975EB09051AEA020A76EB76
:100988000A0678C090E87800B1E880071740BB41B4
:1009980018EA020874EB080419EA020975EB09055C
:1009A8001AEA020A76EB0A0678C080414042BDE89E
:1009B800F00770472DE9F00152424FF0040890E823
:1009C800300091E8C000A31B1340E41AF618EB1B93
:1009D8001340ED1AFF1830C0C0C1B8F10108EED1BC
:1009E800BDE8F001704700BF00B592E8DC072DE9CB
:1009F800DC07B1E8805702B4A7FB02510A95A8FBAF
:100A0800020BE7FB6310E9FB62B00B91A8FB0351F3
:100A1800EAFB6201E7FB64B5E7FB6605E8FB6615E0
:100A2800CDF830B0A9FB03B6EAFB6316ECFB6356BE
:100A3800E8FB640BE9FB641BEAFB645BECFB646B9F
:100A48000D90ACFB0230059CEEFB6250E9FB646044
:100A5800EAFB64B0E7FB6431E8FB6451069CE8FB01
:100A68006461E9FB64B1EAFB64010E93A7FB0432FD
:100A7800079CE7FB6462E8FB64B2E9FB6402EAFBFB
:100A88006412049CE9FB6453EAFB6463089CE7FB7B
:100A980064B3E8FB6403E9FB6413EAFB64230F9582
:100AA8005DF8049B99E80006DDF80080A9FB08546E
:100AB800EAFB68B4DDF81080ECFB6804EEFB681410
:100AC800E9FB6824EAFB6834DDF80480EEFB68651E
:100AD800E9FB68B5EAFB6805DDF81480ECFB6815EE
:100AE800EEFB6825E9FB6835EAFB68450F96DDF8FB
:100AF8000880AEFB0876E9FB6806EAFB6816DDF8B5
:100B08001880ECFB6826EEFB6836E9FB6846EAFBD2
:100B18006856DDF80C80ECFB68B7EEFB6807E9FB6C
:100B28006817EAFB6827DDF81C80ECFB6837EEFBEA
:100B38006847E9FB6857EAFB686708B000BD00BF73
:100B48002DE9F14F87B0FFF74FFFDDF81C8008F162
:100B5800200888E8FF00FFBC87E87F08BDE8F08F21
:100B680000B591E89857A3FB03520195A3FB040134
:100B7800E3FB6420E3FB67100292A3FB0752E3FB4D
:100B88006802E4FB6415E3FB6805E3FB6925039150
:100B9800A4FB07B6E3FB6926E3FB6A56E4FB670B95
:100BA800E4FB682BE3FB6A5BE3FB6C6B0490A4FB40
:100BB8000810E4FB6950E3FB6C60E3FB6EB0E7FBF5
:100BC8006721E4FB6951E4FB6A61E3FB6EB1E4FB76
:100BD8006E010592A7FB0832E4FB6A62E4FB6CB283
:100BE800E4FB6E02E7FB6E12E7FB6853E7FB696301
:100BF800E4FB6CB3E7FB6C03E7FB6E13E8FB6E23C7
:100C08000695A7FB0954E7FB6AB4E7FB6C04E8FB0D
:100C18006C14E8FB6E24E9FB6E34E8FB6865E7FBBF
:100C28006AB5E8FB6A05E8FB6C15E9FB6C25E9FB8E
:100C38006E35EAFB6E450796A8FB0976E8FB6A065F
:100C4800E9FB6A16E9FB6C26EAFB6C36EAFB6E46A2
:100C5800ECFB6E56E8FB69B7E9FB6907E9FB6A1725
:100C6800EAFB6A27EAFB6C37ECFB6C47ECFB6E5738
:100C7800EEFB6E6700BD00BF2DE9F14F87B0FFF7AF
:100C88006FFFDDF81C8008F1200888E8FF00FFBC32
:100C980087E87F08BDE8F08F2DE9F04FB0E8FE0740
:100CA80083B02DE9010790E8005F4FF00A00069035
:100CB8000198DB199CEA030C18EB3C4897EA0807F3
:100CC80013EB375393EA3C4C18EB3C6898EA3757D8
:100CD80024189EEA040E19EB3E4990EA090014EB29
:100CE800305494EA3E4E19EB3E6999EA3050CDE90A
:100CF8000489DDE9028949199AEA010A18EB3A4898
:100D080095EA080511EB355191EA3A4A18EB3A6829
:100D180098EA355592199BEA020B19EB3B4996EA7A
:100D2800090612EB365292EA3B4B19EB3B6999EAFA
:100D3800365613EB706393EA3B6B18EB3B4898EA23
:100D4800706013EB305393EA3B4B5FEA3B6B18EB55
:100D58000B0898EA30505FEA706014EB756494EA07
:100D68003C6C19EB3C4999EA756514EB355494EAE7
:100D78003C4C5FEA3C6C19EB0C0999EA35555FEA83
:100D88007565CDE90289DDE9048911EB766191EA9F
:100D98003E6E18EB3E4898EA766611EB365191EABA
:100DA8003E4E5FEA3E6E18EB0E0898EA36565FEA4A
:100DB800766612EB776292EA3A6A19EB3A4999EA4F
:100DC800776712EB375292EA3A4A5FEA3A6A19EBC6
:100DD8000A0999EA37575FEA776701900698013858
:100DE8007FF465AF01BC80E8005FBDE8000700E95B
:100DF800FE0703B0BDE8F08F30B44FF0000310F8E1
:100E0800014B11F8015B013A84EA050443EA040343
:100E1800F5D1A3F101034FEAD37030BC704700BF8E
:100E28004FF0000310F8012B013943EA0203F9D10E
:100E3800A3F101034FEAD370704700BF30B411F833
:100E4800014B12F8015B6C4000F8014B013BF6D1F5
:100E580030BC70472DE9F00791E8F807B2E80210B6
:100E68005B1854EB0C04B2E802104D4156EB0C062B
:100E7800B2E802104F4158EB0C08B2E8021059EBE7
:100E880001095AEB0C0A8941B3F1FF3374F1FF34BD
:100E980075F1FF3576F1000677F1000778F1000863
:100EA80079F101097AF1FF3A51F100015B184C41DF
:100EB8004D4156F1000657F1000758F1000859EB6B
:100EC800D1795AEB010A80E8F807BDE8F0077047C6
:100ED8002DE9F00791E8F807B2E802105B1A74EB05
:100EE8000C04B2E802108D4176EB0C06B2E8021051
:100EF8008F4178EB0C08B2E8021079EB01097AEB24
:100F08000C0A89415B184C414D4156F1000657F1D6
:100F1800000758F1000859EBD1795AEB010A80E82B
:100F2800F807BDE8F007704718EB040859EB050906
:100F38005AEB060A5BEB070B5FF0000C4CF1000C58
:100F480018EB050859EB06095AEB070A5BEB070B88
:100F580050EB0C005FF0000C51EB0C0152EB0C0253
:100F680063414CF1000CB8EB070879F100097AF1FC
:100F7800000A7BEB040BA841B141A241B3416CF1DB
:100F8800000CBBEB050BB041B941AA41BB416CF168
:100F9800000C4CF001068CF0020718EB060859EB20
:100FA8006C095AEB6C0A7BEB6C0B70EB6C0471EB05
:100FB8006C0572EB670653EB6C076CEB6C0C18EB6B
:100FC8000C0059EB0C015AEB0C025BF1000354F1D5
:100FD800000455F1000556EBDC7657EB0C0770471B
:100FE8002DE9F14F87B0FFF7FFFCDDF81080DDF841
:100FF8001490DDF818A0FFF797FFBDE8000FFFF782
:1010080093FF03B05DF8048B88E8FF00BDE8F08F1C
:101018002DE9F14F87B0FFF7A3FDDDF81080DDF86B
:101028001490DDF818A0FFF77FFFBDE8000FFFF769
:101038007BFF03B05DF8048B88E8FF00BDE8F08F04
:101048002DE9F14FF8C892E8005E19EB03095AEB55
:10105800040A5BEB050B5CEB060C4EEB070E91E804
:10106800E001A9FB0502AAFB0543E9FB6624EAFBAC
:101078006634A9FB0765E9FB6845B1E80003EBFBAB
:101088006836ECFB6846EEFB6856ABFB0987ECFB61
:101098006957EEFB696791E80202EAFB6148EBFBDE
:1010A8006158ECFB6168EEFB61784FF00001EAFBE8
:1010B8000951EBFB6961ECFB6971EEFB69814FF447
:1010C800A03C4FEA154949EA06495FF0000AE9FBE6
:1010D8000C0A4FEA164646EA0746E6FB6C2A4FEA30
:1010E800174747EA0847E7FB6C3A4FEA184848EAC7
:1010F8000148E8FB6C4AADB25544AF0805F003055A
:1011080007EB8707C01952F1000153F1000254F1AF
:10111800000345F1000420BC1FC5BDE8F08F00BFE7
:1011280030B490E83C10511D53F1000154F1000116
:1011380055F100014CF100014FEA9101494201F0DB
:101148000501521853F1000354F1000455F100054C
:101158004CF1000C0CF0030C80E83C1030BC7047DC
:101168002DE9F04F90E8F00F00F140004FF0040E29
:1011780059E0F0B4826BC36B0468052524268759AF
:101188003C444FEA724787EAF24787EA92273C4491
:1011980042684FEAF21787EAB24787EAD2073C4427
:1011A80040F8044B032D08BF6FF01B0687593A44DB
:1011B8004FEA734787EAF34787EA93273A44436835
:1011C8004FEAF31787EAB34787EAD3073A4440F868
:1011D800042B87593B444FEA744787EAF44787EA68
:1011E80094273B4444684FEAF41787EAB44787EAF0
:1011F800D4073B4440F8043B013DC0D1A0F13C007A
:10120800076A3C444FEA724787EAF24787EA92271F
:101218003C4402684FEAF21787EAB24787EAD207E6
:101228003C44C463F0BC4FF0020288EA781C8CEAA4
:10123800F84C0BEBBC1C8AEA090303EA080383EAAF
:101248000A039C4450F8043B9C4451F8043B9C44DA
:10125800674444EA050B0BEA060B04EA05034BEA6C
:10126800030BE34484EAF42383EA34530BEBB30B14
:1012780087EA771C8CEAF74C0AEBBC1C89EA08035E
:1012880003EA070383EA09039C4450F8043B9C449F
:1012980051F8043B9C4466444BEA040A0AEA050AEE
:1012A8000BEA04034AEA030AE2448BEAFB2383EAD3
:1012B8003B530AEBB30A86EA761C8CEAF64C09EB38
:1012C800BC1C88EA070303EA060383EA08039C4474
:1012D80050F8043B9C4451F8043B9C4465444AEA5A
:1012E8000B0909EA04090AEA0B0349EA0309E1447C
:1012F8008AEAFA2383EA3A5309EBB30985EA751CAB
:101308008CEAF54C08EBBC1C87EA060303EA0503E4
:1013180083EA07039C4450F8043B9C4451F8043B7F
:101328009C44644449EA0A0808EA0B0809EA0A03E3
:1013380048EA0308E04489EAF92383EA395308EBC9
:10134800B30884EA741C8CEAF44C07EBBC1C86EAEC
:10135800050303EA040383EA06039C4450F8043BAC
:101368009C4451F8043B9C44E34448EA090707EAD3
:101378000A0708EA090347EA0307674488EAF823E3
:1013880083EA385307EBB3078BEA7B1C8CEAFB4CE8
:1013980006EBBC1C85EA040303EA0B0383EA050396
:1013A8009C4450F8043B9C4451F8043B9C44E24460
:1013B80047EA080606EA090607EA080346EA0306B2
:1013C800664487EAF72383EA375306EBB3068AEACB
:1013D8007A1C8CEAFA4C05EBBC1C84EA0B0303EA82
:1013E8000A0383EA04039C4450F8043B9C4451F8E4
:1013F800043B9C44E14446EA070505EA080506EA79
:10140800070345EA0305654486EAF62383EA36536B
:1014180005EBB30589EA791C8CEAF94C04EBBC1C92
:101428008BEA0A0303EA090383EA0B039C4450F896
:10143800043B9C4451F8043B9C44E04445EA0604C0
:1014480004EA070405EA060344EA0304644485EA57
:10145800F52383EA355304EBB304013A7FF4E5AE90
:10146800A0F14000BEF1010E7FF483AEA0F1400C64
:101478009CE80F00001949199219DB19ACE80F0014
:101488009CE80F004044494452445B44ACE80F00D8
:10149800BDE8F08F2DE90050ACF1400288B0C3CA16
:1014A800CDE90001B2E80303CDE90201B2E8300C4E
:1014B800CDE90445B2E80350CDE9060184EAD460D9
:1014C80080EA451085EAD56181EA441180EA141062
:1014D80080EA057081EA151181EA04711CEB903CE1
:1014E8004EEB913E1CEB814C4EEB804EDDE9062322
:1014F80082EA0A0083EA0B01204029405040594003
:101508001CEB000C5EEB010E0A980899D0E9004527
:101518001CEB040C5EEB050ED1E900451CEB040C3A
:101528005EEB050E18EB0C0859EB0E09D0E90245E5
:1015380012196B41D1E9024512196B41DDE90445E5
:101548008AEA04008BEA050110EA080011EA090199
:1015580090EA0A0091EA0B0112184B4188EAD86018
:1015680080EA491089EAD96181EA481180EA1810AD
:1015780080EA097081EA191181EA087112EB903248
:1015880043EB913312EB814243EB8043CDE90623D1
:10159800DDE90023DDE9024582EAD22080EA4350F2
:1015A80083EAD32181EA425180EA921080EA83607B
:1015B80081EA931181EA82611CEB107C4EEB117E6B
:1015C8001CEB011C4EEB001E82EA0601324001EAC8
:1015D800040050401CEB000C01EA0C00504083EA68
:1015E80007023B4012EA050159405EEB010E02EA90
:1015F8000E015940DDE90623A4185D41CDE90245F5
:1016080012184B418CEADC2080EA4E508EEADE212B
:1016180081EA4C5180EA9C1080EA8E6081EA9E1132
:1016280081EA8C6112EB107243EB117312EB011219
:1016380043EB0013CDE9062384EAD46080EA451021
:1016480085EAD56181EA441180EA141080EA0570C0
:1016580081EA151181EA04711AEB903A4BEB913B40
:101668001AEB814A4BEB804BDDE9042382EA080040
:1016780083EA090120402940504059401AEB000AEA
:101688005BEB010B0A980899D0E904451AEB040AA8
:101698005BEB050BD1E904451AEB040A5BEB050B80
:1016A80016EB0A0657EB0B07D0E9064512196B41F2
:1016B800D1E9064512196B41DDE9024588EA0400C3
:1016C80089EA05013040394090EA080091EA0901A9
:1016D80012184B4186EAD66080EA471087EAD7613C
:1016E80081EA461180EA161080EA077081EA17112C
:1016F80081EA067112EB903243EB913312EB81428F
:1017080043EB8043CDE90423DDE90623DDE9004509
:1017180082EAD22080EA435083EAD32181EA425107
:1017280080EA921080EA836081EA931181EA8261FB
:101738001AEB107A4BEB117B1AEB011A4BEB001BDF
:1017480082EA0C0112EA0C0201EA040050401AEB8A
:10175800000A01EA0A00504083EA0E0213EA0E0367
:1017680012EA050159405BEB010B02EA0B015940F3
:10177800DDE90423A4185D41CDE9004512184B4169
:101788008AEADA2080EA4B508BEADB2181EA4A5167
:1017980080EA9A1080EA8B6081EA9B1181EA8A616B
:1017A80012EB107243EB117312EB011243EB0013AF
:1017B800CDE9042384EAD46080EA451085EAD5613E
:1017C80081EA441180EA141080EA057081EA151153
:1017D80081EA047118EB903849EB913918EB81488C
:1017E80049EB8049DDE9022382EA060083EA070122
:1017F800204029405040594018EB000859EB010996
:101808000A980899D0E9084518EB040859EB050926
:10181800D1E9084518EB040859EB05091CEB080C3D
:101828005EEB090ED0E90A4512196B41D1E90A4568
:1018380012196B41DDE9004586EA040087EA0501D3
:1018480010EA0C0011EA0E017040794012184B4161
:101858008CEADC6080EA4E108EEADE6181EA4C1187
:1018680080EA1C1080EA0E7081EA1E1181EA0C7170
:1018780012EB903243EB913312EB814243EB8043FE
:10188800CDE90223DDE90423DDE9064582EAD22019
:1018980080EA435083EAD32181EA425180EA9210D8
:1018A80080EA836081EA931181EA826118EB1078FB
:1018B80049EB117918EB011849EB001982EA0A0182
:1018C80012EA0A0201EA0400504018EB000801EA93
:1018D8000800504083EA0B0213EA0B0312EA0501E1
:1018E800594059EB010902EA09015940DDE902238F
:1018F800A4185D41CDE9064512184B4188EAD82065
:1019080080EA495089EAD92181EA485180EA981049
:1019180080EA896081EA991181EA886112EB107284
:1019280043EB117312EB011243EB0013CDE90223D1
:1019380084EAD46080EA451085EAD56181EA4411D9
:1019480080EA141080EA057081EA151181EA0471B1
:1019580016EB903647EB913716EB814647EB8047FD
:10196800DDE9002382EA0C0083EA0E0120402940C9
:101978005040594036184F410A980899D0E90C450B
:1019880036196F41D1E90C4536196F411AEB060A31
:101998005BEB070BD0E90E4512196B41D1E90E45F7
:1019A80012196B41DDE906458CEA04008EEA05014F
:1019B80010EA0A0011EA0B0190EA0C0091EA0E0104
:1019C80012184B418AEADA6080EA4B108BEADB6135
:1019D80081EA4A1180EA1A1080EA0B7081EA1B1129
:1019E80081EA0A7112EB903243EB913312EB814298
:1019F80043EB8043CDE90023DDE90223DDE904451B
:101A080082EAD22080EA435083EAD32181EA425114
:101A180080EA921080EA836081EA931181EA826108
:101A280016EB107647EB117716EB011647EB00170C
:101A380082EA080112EA080201EA04005040361856
:101A480001EA0600504083EA090213EA090312EA90
:101A5800050159404F4102EA07015940DDE90023D9
:101A6800A4185D41CDE9044512184B4186EAD620F9
:101A780080EA475087EAD72181EA465180EA9610E2
:101A880080EA876081EA971181EA866112EB107219
:101A980043EB117312EB011243EB0013CDE9002362
:101AA80084EAD46080EA451085EAD56181EA441168
:101AB80080EA141080EA057081EA151181EA047140
:101AC8001CEB903C4EEB913E1CEB814C4EEB804E58
:101AD800DDE9062382EA0A0083EA0B012040294057
:101AE800504059401CEB000C5EEB010E0A98089917
:101AF800D0E910451CEB040C5EEB050ED1E910454E
:101B08001CEB040C5EEB050E18EB0C0859EB0E09E8
:101B1800D0E9124512196B41D1E9124512196B41EE
:101B2800DDE904458AEA04008BEA050110EA0800A9
:101B380011EA090190EA0A0091EA0B0112184B41D7
:101B480088EAD86080EA491089EAD96181EA4811AF
:101B580080EA181080EA097081EA191181EA08718F
:101B680012EB903243EB913312EB814243EB80430B
:101B7800CDE90623DDE90023DDE9024582EAD2202A
:101B880080EA435083EAD32181EA425180EA9210E5
:101B980080EA836081EA931181EA82611CEB107C00
:101BA8004EEB117E1CEB011C4EEB001E82EA060177
:101BB800324001EA040050401CEB000C01EA0C0022
:101BC800504083EA07023B4012EA050159405EEBA8
:101BD800010E02EA0E015940DDE90623A4185D4111
:101BE800CDE9024512184B418CEADC2080EA4E50C0
:101BF8008EEADE2181EA4C5180EA9C1080EA8E60F0
:101C080081EA9E1181EA8C6112EB107243EB117329
:101C180012EB011243EB0013CDE9062384EAD460EA
:101C280080EA451085EAD56181EA441180EA1410FA
:101C380080EA057081EA151181EA04711AEB903A7D
:101C48004BEB913B1AEB814A4BEB804BDDE90423CC
:101C580082EA080083EA090120402940504059409F
:101C68001AEB000A5BEB010B0A980899D0E91445B6
:101C78001AEB040A5BEB050BD1E914451AEB040ACD
:101C88005BEB050B16EB0A0657EB0B07D0E916457D
:101C980012196B41D1E9164512196B41DDE902456C
:101CA80088EA040089EA05013040394090EA0800D2
:101CB80091EA090112184B4186EAD66080EA47107A
:101CC80087EAD76181EA461180EA161080EA077030
:101CD80081EA171181EA067112EB903243EB9133D6
:101CE80012EB814243EB8043CDE90423DDE906236F
:101CF800DDE9004582EAD22080EA435083EAD32115
:101D080081EA425180EA921080EA836081EA931165
:101D180081EA82611AEB107A4BEB117B1AEB011AFC
:101D28004BEB001B82EA0C0112EA0C0201EA0400E8
:101D380050401AEB000A01EA0A00504083EA0E02FA
:101D480013EA0E0312EA050159405BEB010B02EAA4
:101D58000B015940DDE90423A4185D41CDE9004594
:101D680012184B418AEADA2080EA4B508BEADB21D1
:101D780081EA4A5180EA9A1080EA8B6081EA9B11D5
:101D880081EA8A6112EB107243EB117312EB0112B4
:101D980043EB0013CDE9042384EAD46080EA4510BC
:101DA80085EAD56181EA441180EA141080EA057059
:101DB80081EA151181EA047118EB903849EB9139E1
:101DC80018EB814849EB8049DDE9022382EA0600E5
:101DD80083EA0701204029405040594018EB000889
:101DE80059EB01090A980899D0E9184518EB040835
:101DF80059EB0509D1E9184518EB040859EB050911
:101E08001CEB080C5EEB090ED0E91A4512196B4160
:101E1800D1E91A4512196B41DDE9004586EA04004B
:101E280087EA050110EA0C0011EA0E0170407940BA
:101E380012184B418CEADC6080EA4E108EEADE61B3
:101E480081EA4C1180EA1C1080EA0E7081EA1E11AA
:101E580081EA0C7112EB903243EB913312EB814221
:101E680043EB8043CDE90223DDE90423DDE90645A0
:101E780082EAD22080EA435083EAD32181EA4251A0
:101E880080EA921080EA836081EA931181EA826194
:101E980018EB107849EB117918EB011849EB001988
:101EA80082EA0A0112EA0A0201EA0400504018EB29
:101EB800000801EA0800504083EA0B0213EA0B030A
:101EC80012EA0501594059EB010902EA0901594092
:101ED800DDE90223A4185D41CDE9064512184B41FE
:101EE80088EAD82080EA495089EAD92181EA48510C
:101EF80080EA981080EA896081EA991181EA88610C
:101F080012EB107243EB117312EB011243EB001347
:101F1800CDE9022384EAD46080EA451085EAD561D8
:101F280081EA441180EA141080EA057081EA1511EB
:101F380081EA047116EB903647EB913716EB814630
:101F480047EB8047DDE9002382EA0C0083EA0E01B3
:101F5800204029405040594036184F410A98089966
:101F6800D0E91C4536196F41D1E91C4536196F4136
:101F78001AEB060A5BEB070BD0E91E4512196B41F9
:101F8800D1E91E4512196B41DDE906458CEA0400CA
:101F98008EEA050110EA0A0011EA0B0190EA0C002A
:101FA80091EA0E0112184B418AEADA6080EA4B1076
:101FB8008BEADB6181EA4A1180EA1A1080EA0B7029
:101FC80081EA1B1181EA0A7112EB903243EB9133DB
:101FD80012EB814243EB8043CDE90023DDE9022384
:101FE800DDE9044582EAD22080EA435083EAD3211E
:101FF80081EA425180EA921080EA836081EA931173
:1020080081EA826116EB107647EB117716EB011621
:1020180047EB001782EA080112EA080201EA040005
:102028005040361801EA0600504083EA090213EAD4
:10203800090312EA050159404F4102EA07015940D4
:10204800DDE90023A4185D41CDE9044512184B4190
:1020580086EAD62080EA475087EAD72181EA4651A6
:1020680080EA961080EA876081EA971181EA8661A2
:1020780012EB107243EB117312EB011243EB0013D6
:10208800CDE900230A9880300A90089AA2F140020C
:102098001BBCC3C2A2E818031BBCA2E8030CA2E83D
:1020A8001850BDE8009000BF00B59CE8F00FDCE9CF
:1020B8001201DCE91C23241845EB01054FEA560EF2
:1020C8008EEAC77E8EEA162E8EEA076E8EEAD61E36
:1020D8008EEA476E14EB0E044FEA570E8EEAC67E60
:1020E8008EEA172E8EEA066E8EEAD71E45EB0E058F
:1020F8004FEAD24E8EEA433E8EEAC20E8EEA537EF5
:102108008EEA921E8EEA836E14EB0E044FEAD34ECB
:102118008EEA423E8EEAC30E8EEA527E8EEA931E05
:1021280045EB0E05DCE91401DCE91E23361847EB04
:1021380001074FEA580E8EEAC97E8EEA182E8EEAFB
:10214800096E8EEAD81E8EEA496E16EB0E064FEA25
:10215800590E8EEAC87E8EEA192E8EEA086E8EEA2D
:10216800D91E47EB0E074FEAD24E8EEA433E8EEA5F
:10217800C20E8EEA537E8EEA921E8EEA836E16EBAC
:102188000E064FEAD34E8EEA423E8EEAC30E8EEA20
:10219800527E8EEA931E47EB0E07DCE9160118EB18
:1021A800000849EB01094FEA5A0E8EEACB7E8EEA07
:1021B8001A2E8EEA0B6E8EEADA1E8EEA4B6E18EB3A
:1021C8000E084FEA5B0E8EEACA7E8EEA1B2E8EEA56
:1021D8000A6E8EEADB1E49EB0E094FEAD44E8EEAF0
:1021E800453E8EEAC40E8EEA557E8EEA941E8EEA2D
:1021F800856E18EB0E084FEAD54E8EEA443E8EEAFD
:10220800C50E8EEA547E8EEA951E49EB0E09DCE96E
:102218001801DCE908231AEB000A4BEB010B4FEA23
:10222800520E8EEAC37E8EEA122E8EEA036E8EEA74
:10223800D21E8EEA436E1AEB0E0A4FEA530E8EEA4E
:10224800C27E8EEA132E8EEA026E8EEAD31E4BEB06
:102258000E0B4FEAD64E8EEA473E8EEAC60E8EEA3F
:10226800577E8EEA961E8EEA876E1AEB0E0A4FEAA2
:10227800D74E8EEA463E8EEAC70E8EEA567E8EEA24
:10228800971E4BEB0E0BACE8F00FDCE91201DCE912
:102298000267121843EB01034FEA560E8EEAC77E17
:1022A8008EEA162E8EEA076E8EEAD61E8EEA476EE4
:1022B80012EB0E024FEA570E8EEAC67E8EEA172EF2
:1022C8008EEA066E8EEAD71E43EB0E034FEAD84E0F
:1022D8008EEA493E8EEAC80E8EEA597E8EEA981E2C
:1022E8008EEA896E12EB0E024FEAD94E8EEA483E0C
:1022F8008EEAC90E8EEA587E8EEA991E43EB0E03CB
:10230800DCE91401DCE90489361847EB01074FEAD8
:10231800580E8EEAC97E8EEA182E8EEA096E8EEA6B
:10232800D81E8EEA496E16EB0E064FEA590E8EEA53
:10233800C87E8EEA192E8EEA086E8EEAD91E47EB01
:102348000E074FEADA4E8EEA4B3E8EEACA0E8EEA46
:102358005B7E8EEA9A1E8EEA8B6E16EB0E064FEAAD
:10236800DB4E8EEA4A3E8EEACB0E8EEA5A7E8EEA23
:102378009B1E47EB0E07DCE91601DCE906AB18EB00
:10238800000849EB01094FEA5A0E8EEACB7E8EEA25
:102398001A2E8EEA0B6E8EEADA1E8EEA4B6E18EB58
:1023A8000E084FEA5B0E8EEACA7E8EEA1B2E8EEA74
:1023B8000A6E8EEADB1E49EB0E094FEAD24E8EEA10
:1023C800433E8EEAC20E8EEA537E8EEA921E8EEA53
:1023D800836E18EB0E084FEAD34E8EEA423E8EEA21
:1023E800C30E8EEA527E8EEA931E49EB0E09DCE993
:1023F80008011AEB040A4BEB050B4FEA500E8EEA64
:10240800C17E8EEA102E8EEA016E8EEAD01E8EEA0A
:10241800416E1AEB0E0A4FEA510E8EEAC07E8EEA22
:10242800112E8EEA006E8EEAD11E4BEB0E0B4FEA90
:10243800D64E8EEA473E8EEAC60E8EEA577E8EEA62
:10244800961E8EEA876E1AEB0E0A4FEAD74E8EEA70
:10245800463E8EEAC70E8EEA567E8EEA971E4BEBF4
:102468000E0BACE8CC0F5CE90E45DCE902670019FD
:1024780041EB05014FEA560E8EEAC77E8EEA162E0C
:102488008EEA076E8EEAD61E8EEA476E10EB0E00B5
:102498004FEA570E8EEAC67E8EEA172E8EEA066E31
:1024A8008EEAD71E41EB0E014FEAD84E8EEA493E1E
:1024B8008EEAC80E8EEA597E8EEA981E8EEA896EDA
:1024C80010EB0E004FEAD94E8EEA483E8EEAC90E4E
:1024D8008EEA587E8EEA991E41EB0E015CE90C45A6
:1024E800DCE90489361947EB05074FEA580E8EEAEE
:1024F800C97E8EEA182E8EEA096E8EEAD81E8EEAFA
:10250800496E16EB0E064FEA590E8EEAC87E8EEA21
:10251800192E8EEA086E8EEAD91E47EB0E074FEA8F
:10252800DA4E8EEA4B3E8EEACA0E8EEA5B7E8EEA61
:102538009A1E8EEA8B6E16EB0E064FEADB4E8EEA7B
:102548004A3E8EEACB0E8EEA5A7E8EEA9B1E47EBF7
:102558000E075CE90A45DCE906AB18EB040849EB11
:1025680005094FEA5A0E8EEACB7E8EEA1A2E8EEABB
:102578000B6E8EEADA1E8EEA4B6E18EB0E084FEAE7
:102588005B0E8EEACA7E8EEA1B2E8EEA0A6E8EEAF1
:10259800DB1E49EB0E094FEAD04E8EEA413E8EEA29
:1025A800C00E8EEA517E8EEA901E8EEA816E18EB7E
:1025B8000E084FEAD14E8EEA403E8EEAC10E8EEAF0
:1025C800507E8EEA911E49EB0E09DCE908451AEBAC
:1025D800020A4BEB030B4FEA540E8EEAC57E8EEAD5
:1025E800142E8EEA056E8EEAD41E8EEA456E1AEB1C
:1025F8000E0A4FEA550E8EEAC47E8EEA152E8EEA32
:10260800046E8EEAD51E4BEB0E0B4FEAD64E8EEAC1
:10261800473E8EEAC60E8EEA577E8EEA961E8EEAF0
:10262800876E1AEB0E0A4FEAD74E8EEA463E8EEABE
:10263800C70E8EEA567E8EEA971E4BEB0E0BACE861
:10264800C30F5CE90E23DCE90267A41845EB030518
:102658004FEA560E8EEAC77E8EEA162E8EEA076E6F
:102668008EEAD61E8EEA476E14EB0E044FEA570E1A
:102678008EEAC67E8EEA172E8EEA066E8EEAD71E80
:1026880045EB0E054FEAD84E8EEA493E8EEAC80E53
:102698008EEA597E8EEA981E8EEA896E14EB0E0435
:1026A8004FEAD94E8EEA483E8EEAC90E8EEA587E27
:1026B8008EEA991E45EB0E055CE90C23DCE90489DA
:1026C800B61847EB03074FEA580E8EEAC97E8EEA22
:1026D800182E8EEA096E8EEAD81E8EEA496E16EB1F
:1026E8000E064FEA590E8EEAC87E8EEA192E8EEA39
:1026F800086E8EEAD91E47EB0E074FEADA4E8EEACD
:102708004B3E8EEACA0E8EEA5B7E8EEA9A1E8EEAEF
:102718008B6E16EB0E064FEADB4E8EEA4A3E8EEAC9
:10272800CB0E8EEA5A7E8EEA9B1E47EB0E075CE9BB
:102738000A23DCE906AB18EB020849EB03094FEA68
:102748005A0E8EEACB7E8EEA1A2E8EEA0B6E8EEA2F
:10275800DA1E8EEA4B6E18EB0E084FEA5B0E8EEA15
:10276800CA7E8EEA1B2E8EEA0A6E8EEADB1E49EBC3
:102778000E094FEAD44E8EEA453E8EEAC40E8EEA22
:10278800557E8EEA941E8EEA856E18EB0E084FEA87
:10279800D54E8EEA443E8EEAC50E8EEA547E8EEA07
:1027A800951E49EB0E095CE918231AEB000A4BEB5E
:1027B800010B4FEA520E8EEAC37E8EEA122E8EEA83
:1027C800036E8EEAD21E8EEA436E1AEB0E0A4FEAA9
:1027D800530E8EEAC27E8EEA132E8EEA026E8EEABF
:1027E800D31E4BEB0E0B4FEAD64E8EEA473E8EEACF
:1027F800C60E8EEA577E8EEA961E8EEA876E1AEB12
:102808000E0A4FEAD74E8EEA463E8EEAC70E8EEA89
:10281800567E8EEA971E4BEB0E0B8CE8F00FACF150
:10282800600C00BD2DE9F24F00F1400CB0E8F8074C
:10283800ACE8F807B0E8F807ACE8F807FEF72AFEB6
:10284800FFF732FCFEF726FEFFF72EFCFEF722FE0E
:10285800FFF72AFCFEF71EFEFFF726FCFEF71AFE1E
:10286800ACF1800808F1400998E80F0CB9E8F0507D
:102878000019694192197B411AEB0C0A4BEB0E0BBC
:10288800A8E80F0C98E80F0CB9E8F0500019694156
:1028980092197B411AEB0C0A4BEB0E0BA8E80F0CB4
:1028A80098E80F0099E8F0000019694192197B41F6
:1028B80088E80F00BDE8F88F81F0004102E000BF12
:1028C80083F0004330B54FEA41044FEA430594EAE8
:1028D800050F08BF90EA020F1FBF54EA000C55EA23
:1028E800020C7FEA645C7FEA655C00F0E2804FEAF4
:1028F8005454D4EB5555B8BF6D420CDD2C4480EAD6
:10290800020281EA030382EA000083EA010180EA05
:10291800020281EA0303362D88BF30BD11F0004F53
:102928004FEA01314FF4801C4CEA113102D0404289
:1029380061EB410113F0004F4FEA03334CEA1333C4
:1029480002D0524263EB430394EA050F00F0A780DC
:10295800A4F10104D5F1200E0DDB02FA0EFC22FAD7
:1029680005F2801841F1000103FA0EF2801843FACB
:1029780005F359410EE0A5F120050EF1200E012ABC
:1029880003FA0EFC28BF4CF0020C43FA05F3C018FA
:1029980051EBE37101F0004507D54FF0000EDCF173
:1029A800000C7EEB00006EEB0101B1F5801F1BD31C
:1029B800B1F5001F0CD349085FEA30004FEA3C0C20
:1029C80004F101044FEA445212F5800F80F09A8016
:1029D800BCF1004F08BF5FEA500C50F1000041EB1A
:1029E800045141EA050130BD5FEA4C0C404141EB1E
:1029F8000101013C28BFB1F5801FE9D291F0000F19
:102A080004BF01460020B1FA81F308BF2033A3F1C7
:102A18000B03B3F120020CDA0C3208DD02F1140CBE
:102A2800C2F10C0201FA0CF021FA02F10CE002F1F9
:102A38001402D8BFC2F1200C01FA02F120FA0CFCF2
:102A4800DCBF41EA0C019040E41AA2BF01EB04513B
:102A5800294330BD6FEA04041F3C1CDA0C340EDC39
:102A680004F11404C4F1200220FA04F001FA02F37C
:102A780040EA030021FA04F345EA030130BDC4F13A
:102A88000C04C4F1200220FA02F001FA04F340EA2F
:102A98000300294630BD21FA04F0294630BD94F0E0
:102AA800000F83F4801306BF81F480110134013DC7
:102AB8004EE77FEA645C18BF7FEA655C29D094EA38
:102AC800050F08BF90EA020F05D054EA000C04BFB6
:102AD8001946104630BD91EA030F1EBF00210020A1
:102AE80030BD5FEA545C05D14000494128BF41F040
:102AF800004130BD14F580043CBF01F5801130BDA4
:102B080001F0004545F0FE4141F470014FF000002E
:102B180030BD7FEA645C1ABF194610467FEA655CDF
:102B28001CBF0B46024650EA013406BF52EA033581
:102B380091EA030F41F4002130BD00BF90F0000F6F
:102B480004BF0021704730B54FF4806404F13204AB
:102B58004FF000054FF0000150E700BF90F0000F64
:102B680004BF0021704730B54FF4806404F132048B
:102B780010F0004548BF40424FF000013EE700BF5B
:102B880042004FEAE2014FEA31014FEA02701FBFEB
:102B980012F07F4393F07F4F81F06051704732F01D
:102BA8007F4208BF704793F07F4F04BF41F4002174
:102BB800704730B54FF4607401F0004521F00041D2
:102BC8001CE700BF50EA010208BF704730B54FF05C
:102BD80000050AE050EA010208BF704730B511F05D
:102BE800004502D5404261EB41014FF4806404F195
:102BF80032045FEA915C3FF4D8AE4FF003025FEA1B
:102C0800DC0C18BF03325FEADC0C18BF033202EB9E
:102C1800DC02C2F1200300FA03FC20FA02F001FAF8
:102C280003FE40EA0E0021FA02F11444BDE600BF9B
:102C380070B54FF0FF0C4CF4E06C1CEA11541DBF4A
:102C48001CEA135594EA0C0F95EA0C0F00F0DEF815
:102C58002C4481EA030621EA4C5123EA4C5350EAFA
:102C6800013518BF52EA033541F4801143F480134B
:102C780038D0A0FB02CE4FF00005E1FB02E506F0DC
:102C88000042E0FB03E54FF00006E1FB03569CF031
:102C9800000F18BF4EF0010EA4F1FF04B6F5007F37
:102CA80064F5407404D25FEA4E0E6D4146EB0606A9
:102CB80042EAC62141EA55514FEAC52040EA5E5032
:102CC8004FEACE2EB4F1FD0C88BFBCF5E06F1ED8DC
:102CD800BEF1004F08BF5FEA500E50F1000041EB13
:102CE800045170BD06F0004646EA010140EA0200C0
:102CF80081EA0301B4EB5C04C2BFD4EB0C0541EAE2
:102D0800045170BD41F480114FF0000E013C00F3F6
:102D1800AB8014F1360FDEBF002001F0004170BD1A
:102D2800C4F10004203C35DA0C341BDC04F1140433
:102D3800C4F1200500FA05F320FA04F001FA05F2BF
:102D480040EA020001F0004221F0004110EBD3708C
:102D580021FA04F642EB06015EEA430E08BF20EAB8
:102D6800D37070BDC4F10C04C4F1200500FA04F35B
:102D780020FA05F001FA04F240EA020001F00041ED
:102D880010EBD37041F100015EEA430E08BF20EA60
:102D9800D37070BDC4F1200500FA05F24EEA020EA8
:102DA80020FA04F301FA05F243EA020321FA04F0D7
:102DB80001F0004121FA04F220EA020000EBD3708E
:102DC8005EEA430E08BF20EAD37070BD94F0000F8E
:102DD8000FD101F00046400041EB010111F4801FC2
:102DE80008BF013CF7D041EA060195F0000F18BF73
:102DF800704703F00046520043EB030313F4801FAF
:102E080008BF013DF7D043EA0603704794EA0C0F68
:102E18000CEA135518BF95EA0C0F0CD050EA41067E
:102E280018BF52EA4306D1D181EA030101F00041FB
:102E38004FF0000070BD50EA410606BF1046194623
:102E480052EA430619D094EA0C0F02D150EA01362F
:102E580013D195EA0C0F05D152EA03361CBF104670
:102E680019460AD181EA030101F0004141F0FE410F
:102E780041F470014FF0000070BD41F0FE4141F493
:102E8800780170BD70B54FF0FF0C4CF4E06C1CEA93
:102E980011541DBF1CEA135594EA0C0F95EA0C0F48
:102EA80000F0A7F8A4EB050481EA030E52EA033503
:102EB8004FEA013100F088804FEA03334FF0805524
:102EC80045EA131343EA12634FEA022245EA111551
:102ED80045EA10654FEA00260EF000419D4208BF02
:102EE800964244F1FD0404F5407402D25B084FEAAF
:102EF8003202B61A65EB03055B084FEA32024FF45B
:102F080080104FF4002CB6EB020E75EB030E22BFB7
:102F1800B61A754640EA0C005B084FEA3202B6EB77
:102F2800020E75EB030E22BFB61A754640EA5C0026
:102F38005B084FEA3202B6EB020E75EB030E22BFB6
:102F4800B61A754640EA9C005B084FEA3202B6EBB7
:102F5800020E75EB030E22BFB61A754640EADC0076
:102F680055EA060E18D04FEA051545EA16754FEAD8
:102F780006164FEAC30343EA52734FEAC2025FEAF6
:102F88001C1CC0D111F4801F0BD141EA00014FF085
:102F980000004FF0004CB6E711F4801F04BF014356
:102FA8000020B4F1FD0C88BFBCF5E06F3FF6AFAE72
:102FB800B5EB030C04BFB6EB020C5FEA500C50F102
:102FC800000041EB045170BD0EF0004E4EEA113185
:102FD80014EB5C04C2BFD4EB0C0541EA045170BD8C
:102FE80041F480114FF0000E013C90E645EA060ED0
:102FF8008DE60CEA135594EA0C0F08BF95EA0C0FFE
:103008003FF43BAF94EA0C0F0AD150EA01347FF445
:1030180034AF95EA0C0F7FF425AF104619462CE71C
:1030280095EA0C0F06D152EA03353FF4FDAE10467F
:10303800194622E750EA410618BF52EA43067FF4D0
:10304800C5AE50EA41047FF40DAF52EA43057FF460
:10305800EBAE12E74FF0FF3C06E000BF4FF0010C6B
:1030680002E000BF4FF0010C4DF804CD4FEA410CCF
:103078007FEA6C5C4FEA430C18BF7FEA6C5C1BD09C
:1030880001B050EA410C0CBF52EA430C91EA030F1D
:1030980002BF90EA020F0020704710F1000F91EA7A
:1030A800030F58BF994208BF90422CBFD8176FEA48
:1030B800E37040F0010070474FEA410C7FEA6C5C16
:1030C80002D150EA013C07D14FEA430C7FEA6C5C1D
:1030D800D6D152EA033CD3D05DF8040B704700BF49
:1030E8008446104662468C461946634600E000BF97
:1030F80001B5FFF7B7FF002848BF10F1000F01BD69
:103108004DF808EDFFF7F4FF0CBF012000205DF833
:1031180008FB00BF4DF808EDFFF7EAFF34BF0120B8
:1031280000205DF808FB00BF4DF808EDFFF7E0FF51
:1031380094BF012000205DF808FB00BF4DF808EDA2
:10314800FFF7CEFF94BF012000205DF808FB00BF09
:103158004DF808EDFFF7C4FF34BF012000205DF8EB
:1031680008FB00BF4A0011D212F5001211D20DD58A
:103178006FF47873B3EB62520ED44FEAC12343F075
:10318800004343EA505323FA02F070474FF000001F
:10319800704750EA013002D14FF0FF3070474FF0CE
:1031A800000070477BB972B90029BEBF00204FF0FC
:1031B800004106E008BF00281CBF6FF000414FF037
:1031C800FF3000F075B8ADF1080C6DE904CE0029A8
:1031D80009DB002B1ADB00F087F8DDF804E0DDE9F5
:1031E800022304B07047404261EB4101002B1BDB16
:1031F80000F07AF8DDF804E0DDE9022304B040428B
:1032080061EB4101524263EB43037047524263EB67
:10321800430300F069F8DDF804E0DDE9022304B0B7
:10322800404261EB41017047524263EB430300F0B7
:103238005BF8DDF804E0DDE9022304B0524263EBF9
:103248004303704753B94AB9002908BF00281CBF77
:103258004FF0FF314FF0FF3000F02AB8ADF1080C05
:103268006DE904CE00F040F8DDF804E0DDE9022362
:1032780004B07047D0B500220B4B06460F46FFF747
:10328800D7FCFFF76FFF0446FFF758FC0022074BF7
:10329800FFF7CEFC02460B4630463946FFF710FBD7
:1032A800FFF760FF2146D0BD0000F03D0000F0416F
:1032B800704700BF10F8012B11F8013B012A28BF05
:1032C8009A42F7D0D01A7047034611F8012B03F839
:1032D800012B002AF9D17047034613F8012B002A65
:1032E800FBD1181A013870472DE9F04786468C46FD
:1032F8000846089E154674461946002B40F0C180C2
:103308008542B2FA82F245D94AB1C2F1200300FAE5
:1033180002FC954094402EFA03F343EA0C0C4FEA62
:10332800154EA8B2230CBCFBFEF80EFB18CC08FB0C
:1033380000F943EA0C43994528D9EB1808F1FF37FF
:1033480004D2994502D9A8F102072B44A3EB09033B
:10335800A4B2B3FBFEFC0EFB1C330CFB00F044EAEA
:103368000344A04214D92C190CF1FF3304D2A04213
:1033780002D9ACF102032C44241A43EA07401EB1D7
:10338800D440002334607360BDE8F0874746DDE72A
:103398006346F1E792BB431B01214FEA154EAFB2DA
:1033A800200CB3FBFEFC0EFB1C330CFB07F840EAB9
:1033B8000343984561D9EB180CF1FF3004D29845C6
:1033C80002D9ACF102002B44A3EB0803A4B2B3FB6F
:1033D800FEFC0EFB1C330CFB07F744EA0344A74230
:1033E8004DD92C190CF1FF3304D2A74202D9ACF104
:1033F80002032C44E41B43EA0040C0E7C2F1200367
:103408009540944020FA03F12EFA03F34FEA154E43
:103418009040AFB20343B1FBFEFC0EFB1C10190C2D
:103428000CFB07F841EA0041884522D969180CF1DC
:10343800FF3004D2884502D9ACF102002944A1EB3F
:1034480008019BB2B1FBFEFC0EFB1C110CFB07F73D
:1034580043EA01439F420ED9EB180CF1FF3104D225
:103468009F4202D9ACF102012B44DB1B41EA004127
:1034780093E76046E3E76146F7E76046A4E76346FB
:10348800B8E7834206D916B9002108467CE7C6E9A1
:1034980000E0F9E7B3FA83F78FB9834201D37245A5
:1034A80008D8BEEB020460EB030301209C461EB95A
:1034B800002169E73846FAE7C6E9004CF8E7C7F1A2
:1034C800200CBB400EFA07F522FA0CF42EFA0CF188
:1034D800BA401C4320FA0CF3B8404FEA14490143A0
:1034E8001FFA84FEB3FBF9F809FB18300B0C08FB34
:1034F8000EFA43EA00439A4540D9E31808F1FF3031
:1035080004D29A4502D9A8F102002344A3EB0A0386
:1035180089B2B3FBF9F809FB183308FB0EFE41EA40
:1035280003418E452CD9611808F1FF3304D28E452A
:1035380002D9A8F10203214443EA0040A1EB0E019D
:10354800A0FB02984145CE46434602D306D14D45DD
:1035580004D20138B9EB020E68EB0403002EA7D0A1
:10356800B5EB0E0261EB030101FA0CFC22FA07F33A
:10357800F9404CEA0303C6E9003199E74046C5E73C
:103588004346D9E7000000002DE9F04F8846D0F8FF
:10359800F41082460B6B16468FB053B106221831D1
:1035A80006F120006BF07AFF18B901200FB0BDE8D2
:1035B800F08F504604A9D8F86050D8F87840B76F13
:1035C80058F046FD002852D1DDF820B0BBF1000FBD
:1035D80004D1DDF81CB0BBF1000F27D042F20F7107
:1035E800099B049A8B420AD16FF47A63D31840F28C
:1035F800657293428CBF6FF058036FF05B034046CF
:10360800ABEB030956F0CEFDD8F88420034608F149
:103618008C010AB9D8F88820D8F850005D46CDE961
:10362800009050460AF006FACB46044604F59C532F
:103638000833BB42B9D3336DB3F57A6F1ADDD8F8C6
:103648005030B3F57A6FACBF4FF0000A4FF0010A63
:10365800002D12DB07F59C5308339C4200F2CB8007
:10366800BBF1190F00F3C7804FF0020B3AE04FF09F
:10367800000BDBE74FF0000AEAE7336E03EB4A037F
:10368800AB4215DA3846FFF759FA80462046894694
:10369800FFF754FA4FF033325B4BFFF7C9FA024693
:1036A8000B4640464946FFF735FD002840F0A38009
:1036B80007F59C530833A342C0F09D80BBF1190F56
:1036C80000F3998015F1550F31DB15F1500FCBDB65
:1036D80015F14B0F2EDB15F1460FB4BF4FF0040B5D
:1036E8004FF0050B2046FFF729FA804638468946F1
:1036F800FFF724FA02460B46CDE902230022434B8A
:10370800FFF796FA02460B4640464946FFF720FD6A
:1037180098B10BF10A0BBAF1000F01D0ABF1020B13
:10372800306E401B5845B4BF002001203EE74FF0E3
:10373800010BD7E74FF0030BD4E74FF03332DDE945
:103748000201314BFFF774FA02460B4640464946E0
:10375800FFF7FEFC10B10BF1050BDCE728A3D3E95A
:103768000023DDE90201FFF763FA02460B464046F3
:103778004946FFF7EDFC10B10BF1020BCBE7BC4259
:1037880002D90BF1010BC6E70022204B40464946FF
:10379800FFF74EFA02460B46DDE90201FFF7D8FCB7
:1037A80010B1ABF10A0BB6E74FF03332164B404677
:1037B8004946FFF73DFA02460B46DDE90201FFF7ED
:1037C800C7FC10B1ABF1050BA5E70DA3D3E90023A6
:1037D80040464946FFF72CFA02460B46DDE902014E
:1037E800FFF7B6FC10B1ABF1020B94E7BC4238BF4F
:1037F8000BF1FF3B8FE70020D8E600BFAFF3008056
:103808009A9999999999F13F3333F33F0000F83F1A
:10381800F0B583B000AF002140F603403A1D20F018
:10382800BBFE0446002840F0B1807868C3681B7866
:1038380053B9584BD3E8AF2F02F00902D3E8EF1F72
:10384800C3E8E42F002CF9D11EF0B4FF002141F2A7
:1038580003003A1D20F0A0FE0446002840F09680A0
:103868007A684D4DD16805F17803D1F80100D1F897
:10387800051003C310461EF09DFF214641F20100CA
:103888003A1D20F089FE044600287FD17868C36875
:103898005A7885F870205A88A5F872201A7985F820
:1038A8007120B3F80720A5F87420B3F80530A5F8FF
:1038B80076301EF07FFF214641F202003A1D20F0CB
:1038C8006BFE0446002861D1D7F804C005F18006D4
:1038D800DCF80C20531C4132344618685968083308
:1038E80003C493422646F7D160461EF063FF22F0D8
:1038F80099F80446002849D195F88A30990610D4D9
:103908000221264A26485EF0C6F895F87C305A0609
:103918004AD40121234A22485EF0BDF86FF0120410
:1039280034E0072140F6334020F0EEF9064600283F
:1039380000F0458107210C305DF0CEFE6FF0680382
:1039480003700623C0F80240847144700471224653
:10395800C370314640F6334020F01EFE0446A8B935
:10396800012140F6314020F0CFF90646002800F04A
:10397800268101210C305DF0BEFE2246314640F61C
:10398800314020F009FE04460028BED020460C37FE
:10399800BD46F0BD04010020300000206BE50800A2
:1039A8002CFD060099E50800002142F203003A1DAB
:1039B80020F0F2FD04460028E8D17B68A44EDA68BE
:1039C800D2F80100D2F8051003C618461EF0F2FE20
:1039D800214642F202003A1D20F0DEFD044600288E
:1039E800D4D17C68E368B3F8012091B249B1D978A1
:1039F80039B1A5F80421DA78114606F1280067F0F4
:103A08006DF820461EF0D6FE1F2395F87C60A5F8B9
:103A1800203116F0200618D1022140F66D4020F022
:103A280073F90446002800F0CA8002210C305DF0CA
:103A380053FE0123214603704670324640F66D401E
:103A480020F0AAFD04460028A0D195F89C301B0759
:103A580012D5002142F21C003A1D20F09DFD0446BB
:103A6800002893D17868C368D3F80120D3F80530CB
:103A7800C5E938231EF09EFE95F8D8309E0622D55B
:103A88003846B91C20F08CFE044600287FF47EAF2F
:103A9800042142F2240020F037F90646002800F0FD
:103AA8008E8004210C305DF017FE3B88224603808F
:103AB8007B883146438042F2240020F06DFD0446A5
:103AC80000287FF463AF95F8D8305C0610D5002144
:103AD80042F22A003A1D20F05FFD044600287FF4D8
:103AE80055AF7868C3685B7885F822311EF062FEAE
:103AF800082142F2010020F007F9044600285ED0B0
:103B080008210C305DF0E8FD95F8D81040F202234A
:103B180011F0400F08BF0323024688074CBF43F04B
:103B28002C0043F00C008B0695F8D93048BF40F0C4
:103B3800400013F0090F95F8A23018BF40F4006058
:103B480003F00603CE0748BF40F01000062B08BF5D
:103B580040F4C07000215DF0B8FF2146002242F217
:103B6800010020F019FD044600287FF40FAF95F8F6
:103B78007C30B5F80411980624D4C9B941F205007F
:103B88003A1D20F009FD044600287FF4FFAEB5F881
:103B980004317C684BB9E368B3F80120A5F8042127
:103BA8009A882C48114666F099FF20461EF002FEBE
:103BB800082140F6014020F0A7F8044660B96FF0EC
:103BC8006804E3E60029F3D10121234A23485DF084
:103BD80062FF6FF00404D9E608210C305DF07CFD2B
:103BE80095F8D8300246D90729D44FF000511C481F
:103BF8005DF06BFF2146002240F6014020F0CCFC2E
:103C0800044600287FF4C2AE01463A1D4FF6014033
:103C180020F0C2FC40B3134A022110485DF03BFF7C
:103C280021F064FB044600287FF4B0AE22F0E6FFE2
:103C3800044600287FF4AAAE20F0ECF9A6E602A11B
:103C4800D1E90001D4E700BF90880002008000207D
:103C58000801002038010020BDE508002CFD060001
:103C680010880002E0E508007B686D46DC688AB0D1
:103C7800B4F80130032B96BF424A434952F8231047
:103C88006A46D3614FF4007340481384404BC2E93D
:103C9800050142F8103F4FF413513E485DF00AFF0A
:103CA800B4F80120AD46022AB4F8033048D1052BF8
:103CB80046D8394A52F823106D468AB06A46D3610D
:103CC8004FF4007335481384314BC2E9050142F8BB
:103CD800103F4FF413512F485DF0ECFEAD46637969
:103CE800A679032B98BF2E4AB4F80750D4F80900D8
:103CF8006C468CB094BF52F8231023496A46C2E937
:103D080007364FF40073DFF89CC09385264BC2E951
:103D180005C1C2E909504FF4735142F8103F1D48DC
:103D28005DF0C8FEA54678681EF044FD00214FF6F8
:103D380002403A1D20F030FC044618B11B4A6BE7DC
:103D48001149B9E778681A4DC368B3F80130A5F886
:103D5800C1301EF02FFD95F8C1305B077FF560AFCD
:103D680021464FF603403A1D20F016FC08B1114ACF
:103D780052E77868C3685B7885F8C0301EF01AFD92
:103D88004EE700BFF82F0700B599080004E60800C1
:103D9800040000012CFD0600E02F07001DE60800C6
:103DA800D02F070035E608000700000162E608008A
:103DB800300000208BE608002DE9F04F01298446E9
:103DC8008E4687B064D8002942D033A3D3E90023B4
:103DD80033A7D7E9006734A5D5E900450FF2D00B22
:103DE800DBE900AB34A1D1E90001CDE9042334A318
:103DF800D3E90023CDE9002333A3D3E90023CDE998
:103E0800022333A3D3E900234FF000084FF0000941
:103E1800CCE90A01DDE90401CCE90C01DDE9000186
:103E2800CCE90E01DDE90201CCE910010020CCE962
:103E38000089CCE90289CCE90467CCE90645CCE9DC
:103E480008ABCCE91223CCF8D0E007B0BDE8F08F7E
:103E580021A3D3E9002322A7D7E90067CDE90423EA
:103E680021A5D5E9004522A3D3E900230FF2880B49
:103E7800DBE900ABCDE9002321A1D1E9000122A3B0
:103E8800D3E90023CDE9022321A3D3E90023BBE72B
:103E98006FF07400D9E700BF310BC0FF67263367A6
:103EA800D89E05C15D9DBBCB07D57C362A299A6271
:103EB80017DD70305A01599139590EF7D8EC2F1582
:103EC80011155868874AB48EA78FF9640D2E0CDB3C
:103ED800A44FFABE1D48B547D182E6AD7F520E51B8
:103EE80008C9BCF367E6096A3BA7CA8485AE67BB05
:103EF8001F6C3E2B8C68059B2BF894FE72F36E3C6E
:103F0800F1361D5F3AF54FA56BBD41FBABD9831F59
:103F180079217E1319CDE05B30B417A3D3E90023D0
:103F280000240025C0E9002315A3D3E90023C0E934
:103F3800604515A5D5E90045C0E9022314A3D3E9D6
:103F48000023C0E9044514A5D5E90045C0E90623C6
:103F580013A3D3E90023C0E9084513A5D5E9004513
:103F6800C0E90A2312A3D3E90023C0E90C4530BCF9
:103F7800C0E90E23704700BF08C9BCF367E6096AA9
:103F88003BA7CA8485AE67BB2BF894FE72F36E3CE0
:103F9800F1361D5F3AF54FA5D182E6AD7F520E513D
:103FA8001F6C3E2B8C68059B6BBD41FBABD9831FF7
:103FB80079217E1319CDE05B2DE9F04373A5D5E98E
:103FC8000045E3B00023CDE90045154660936192B2
:103FD800804670A3D3E90023CDE902236FA3D3E978
:103FE8000023CDE904236FA3D3E90023CDE90623F9
:103FF8006EA3D3E90023CDE908236EA3D3E90023F8
:10400800CDE90A236DA3D3E90023CDE90C236DA3E1
:10401800D3E90023CDE90E2345B90025414668467A
:1040280060954DF0A5FA63B0BDE8F0837F2D0E468C
:104038007AD90C46A5F1800727F07F078037DFF88B
:1040480048910F446068226800BA12BAE368CDE963
:10405800200262691BBA12BA22932492E369A26908
:104068001BBA12BA26932792636A626B1BBA12BAFA
:10407800A168206928932C92E36AE26B09BA00BA16
:104088001BBA12BA23912590A16A206A2E922A930C
:10409800226BA36B09BA00BA12BA1BBA2B912D92E4
:1040A8002F932990606C216CE36C00BA09BACDE9B2
:1040B80030011BBA616D3293E36D09BA1BBA3491B2
:1040C800A16DA26C3693636E09BA206D12BA1BBA41
:1040D8003791616F33923893E26EA36E00BA09BAD2
:1040E800803412BA1BBA359054F8200C3C9154F81D
:1040F800041CCDE93A2354F8102C54F8083C00BAB3
:1041080009BA39903E9112BA1BBA494668463D929F
:104118003F93FEF787FBBC4294D125F07F0315F04F
:104128007F051E443FF479AF002D14BF2C460124AF
:10413800032D26D9334624F00300304440AA53F80F
:10414800041B984242F8041BF9D124F00303A20788
:104158001E443FF463AF31780DEB030282F800117F
:104168005A1C95427FF65AAF717802336A449D42D1
:1041780082F800117FF652AFB2786B4483F80021C1
:104188004CE70023E7E700BF3806070008C9BCF37F
:1041980067E6096A3BA7CA8485AE67BB2BF894FE1D
:1041A80072F36E3CF1361D5F3AF54FA5D182E6AD4C
:1041B8007F520E511F6C3E2B8C68059B6BBD41FBDB
:1041C800ABD9831F79217E1319CDE05B0000000075
:1041D80030B417A3D3E9002300240025C0E9002345
:1041E80015A3D3E90023C0E9604515A5D5E9004525
:1041F800C0E9022314A3D3E90023C0E9044514A5A8
:10420800D5E90045C0E9062313A3D3E90023C0E993
:10421800084513A5D5E90045C0E90A2312A3D3E947
:104228000023C0E90C4530BCC0E90E23704700BF2D
:10423800D89E05C15D9DBBCB07D57C362A299A62DD
:1042480017DD70305A01599139590EF7D8EC2F15EE
:10425800310BC0FF6726336711155868874AB48E3B
:10426800A78FF9640D2E0CDBA44FFABE1D48B54785
:104278002DE9F04373A5D5E90045E3B00023CDE966
:104288000045154660936192804670A3D3E90023E8
:10429800CDE902236FA3D3E90023CDE904236FA35B
:1042A800D3E90023CDE906236EA3D3E90023CDE9A2
:1042B80008236EA3D3E90023CDE90A236DA3D3E92C
:1042C8000023CDE90C236DA3D3E90023CDE90E2308
:1042D80045B900254146684660954DF02DFB63B011
:1042E800BDE8F0837F2D0E467AD90C46A5F18007EC
:1042F80027F07F078037DFF848910F44606822680D
:1043080000BA12BAE368CDE9200262691BBA12BA90
:1043180022932492E369A2691BBA12BA26932792C0
:10432800636A626B1BBA12BAA168206928932C923F
:10433800E36AE26B09BA00BA1BBA12BA2391259054
:10434800A16A206A2E922A93226BA36B09BA00BA3B
:1043580012BA1BBA2B912D922F932990606C216C65
:10436800E36C00BA09BACDE930011BBA616D32932A
:10437800E36D09BA1BBA3491A16DA26C3693636ED2
:1043880009BA206D12BA1BBA3791616F339238930C
:10439800E26EA36E00BA09BA803412BA1BBA35901D
:1043A80054F8200C3C9154F8041CCDE93A2354F8F5
:1043B800102C54F8083C00BA09BA39903E9112BA48
:1043C8001BBA494668463D923F93FEF72BFABC421A
:1043D80094D125F07F0315F07F051E443FF479AF93
:1043E800002D14BF2C460124032D26D9334624F072
:1043F8000300304440AA53F8041B984242F8041BB7
:10440800F9D124F00303A2071E443FF463AF3178C7
:104418000DEB030282F800115A1C95427FF65AAF41
:10442800717802336A449D4282F800117FF652AFD8
:10443800B2786B4483F800214CE70023E7E700BF1C
:1044480038060700D89E05C15D9DBBCB07D57C36D5
:104458002A299A6217DD70305A01599139590EF795
:10446800D8EC2F15310BC0FF672633671115586834
:10447800874AB48EA78FF9640D2E0CDBA44FFABEC1
:104488001D48B54730B58DB021F0DEF9014628B199
:1044980013480DB0BDE830404FF017B8114B5B7CA6
:1044A800DB0714D5104D02AC0FCD0FC42B6802A842
:1044B800236001230D49009303220D4B21F092F94B
:1044C800014610B10B484FF000F80DB030BD0A4D51
:1044D80007AC0FCD0FC42B6807A82360E9E700BF1E
:1044E8007A480700F10B0020C0FF0600C00807004B
:1044F800B80807009F480700D4FF060010B5044617
:1045080004484EF0E2FF2046BDE8104005215DF06A
:1045180095BE00BFC548070030B593B029F070FEBE
:1045280048220021054668466BF002F90123124C27
:10453800237438F0AFF8637CA0B903F0FE0363740A
:104548006A46482329460D4860F010F910B9009BC7
:10455800052B0ADC637C23F0020363748023E37475
:1045680013B030BD43F00103E9E7637C43F0020375
:1045780063749DF83830F2E7F10B002006005651BD
:1045880010B5FFF7C9FF03210123094A094820F0A4
:10459800C7FF014610B108484EF097FFBDE810402C
:1045A8004FF4203200230549054842F0CDBE00BF34
:1045B800B8080700C0080700ED480700B01300203E
:1045C8001014002070B503788AB004460E4607AD73
:1045D800032B20D8DFE803F002191B1D11492846D8
:1045E800FEF772FE059563781E210493A378304682
:1045F8000393E3780C4A0293237901936379009338
:10460800A3794DF063FD0AB070BD0849E7E7084992
:10461800E5E70849E3E70A212846074A4DF056FD31
:10462800E0E700BF194907003B4907002049070098
:1046380027490700314907006DF7080030B51546CE
:1046480089B00C465DF07EFE6946FFF7BBFF35B9C1
:104658002246694605484EF038FF09B030BD2B4662
:104668002246694602484EF030FFF6E75E490700E9
:104678008149070010B50C4690B010466946FFF70F
:10468800A1FF204608A9FFF79DFF6A46024808A92E
:104698004EF01BFF10B010BDAA49070010B50C461C
:1046A80088B05DF04FFE6946FFF78CFF22466946E9
:1046B80002484EF00AFF08B010BD00BFCA49070003
:1046C80000B589B05DF03EFE6946FFF77BFF69469D
:1046D80002484EF0FAFE09B05DF804FBF049070005
:1046E80010B50C4688B05DF02DFE6946FFF76AFFED
:1046F80022460A4C69460A484EF0E7FE4FF400424B
:1047080000232046074942F01FFE002200232046CE
:10471800054942F019FE08B010BD00BF1014002072
:104728000B4A0700E0130020B013002000B589B041
:1047380029B10A4809B05DF804EB4EF0C6BE5DF039
:1047480001FE6946FFF73EFF694605484EF0BDFE8B
:10475800044866F0BFFA09B05DF804FB314A070067
:10476800554A0700B013002070B590B029F048FDF5
:104778000646056800214FF4004043F091F93E4891
:1047880022F002FA3D4822F019FA002020F052F8EF
:10479800014618B13A484EF098FE31E039484EF0DB
:1047A80094FE37F091FF044638BB37484EF08DFE33
:1047B800364A2D691046E9784EF05DFB901C297940
:1047C8004EF059FB101D69794EF055FB52F8020C5A
:1047D800D2F8021003AB8DF8144003C303A81FF0EE
:1047E800BBFC2B4B5B7CDB070DD42A4D0BAC0FCDF0
:1047F8000FC42B680BA823600CE027484EF065FE19
:10480800002010B070BD254D06AC0FCD0FC42B682D
:1048180006A823600123032200932149214B20F09D
:10482800E1FF044610B101461F48B4E71F484EF0A7
:104838004CFEFFF771FE1E4866F038FA05234FF468
:1048480080521C491A48009442F0D4FC1A491B486B
:1048580066F032FA1A491B4866F02EFA4FF42032F5
:1048680000231849124842F03FFD234622463146AC
:10487800154838F035FAC3E7D0010020C001002000
:10488800664A0700874A07009F4A0700070C00206E
:10489800F10B0020D4FF0600D04A0700C0FF060035
:1048A800C0080700B80807000C4B0700354B070085
:1048B80010140020F87800208D440000E013002038
:1048C80089450000B01300206E00565110B5094C00
:1048D8000A44914200D110BD11F8013B5840030928
:1048E800E35C0001C0B243401809205C1B01DBB245
:1048F8005840EEE75B4B07002DE9F04F91B000936D
:1049080002F004030293C2F3C2030133840705468D
:104918000E46DDF868900392059340F0BB81041DB4
:1049280030B1072909D86FF01B0011B0BDE8F08F2E
:1049380001F00706341DC6F10806009B4FF0000879
:104948004FF0040A591E4FF0FF3347460193C34600
:104958005346CDF810800DB1009A226005980028C2
:1049680000F3E8809848009A824203D3974882422D
:10497800C0F0E080039AA4EB050E92074FEA9E0070
:1049880000F103810F2F00F2B180002D00F00581A6
:1049980007F140020DEB020C019A0CF8200C0CF800
:1049A800102C049801300490E7E07A285DD84B2851
:1049B8000ED8472859D829282DD8252852D054D878
:1049C80020287AD02338D0F1000B4BEB000B74E091
:1049D8004C382E2849D8DFE800F070484848484845
:1049E8004848484848484B4848484848484848592B
:1049F800484B4B595959704B6D487048184B1848DB
:104A080048827F4B48484B487F0000204FF0000BFE
:104A18004FF0040A38E001222A38C0B202FA00F046
:104A280010EA0E0F49D110F0625C2FD110EA020B88
:104A380043D06046013C5444B4FBFAF40AFB04F446
:104A4800002D61D0A3EB050CA444B4453FF66BAF31
:104A5800002868D1042B47D159F8043B236004236C
:104A680004342AE0019A013A01924FF0000B24E045
:104A780011F8010C6C2834D1002011F8023C83464F
:104A88006C2BC5D14FF0080A5346D3E709F1070943
:104A980029F00709073424F00704F9E802AB35B117
:104AA80006982044B0423FF63EAFC4E900AB4FF051
:104AB800000B08344FF0080A534611F8010F00287C
:104AC80078D0BBF1000F7FF470AF2528F5D14FF0F7
:104AD800010B019B013301934FF0040AECE75846A0
:104AE80094E700208346A5E7082B02D06FF0150055
:104AF8001BE709F1070929F00709F9E80223C4E9C6
:104B0800002308230834D8E768B9042B02D109F137
:104B18000409A4E7082BE9D109F1070929F00709D5
:104B280009F10809EDE7059A013A059259F8042BAD
:104B3800009210E7039A900720D54FF0010CA4EBE0
:104B4800050E4FEA9E00BEF5007FCFD20F2FCDD8BD
:104B5800F5B107F140020DEB020E019AC0B20EF852
:104B6800200C0EF8102CBCF1000F3FF41AAF60F0C7
:104B78007F000EF8200C08F101080137C5F1080282
:104B88004FF6DA7E0434069297E74FF0000CDAE726
:104B9800BCF1000F01D00136EFE702980236002879
:104BA800EBD10098CDE90631FEF796FBDDE9063139
:104BB8000644E2E7631BB3F5806F97D245B9A6F1C7
:104BC8000804E018B1E600BFF4F70600546C0900C9
:104BD800029A9B0828602B709DF81030C2B1EB70C8
:104BE80085F80280B8F1000F05D0002208A8C5F1A9
:104BF800010C97420ED14FF0000AC5F101030DF1E7
:104C0800200901930DF1300B574512D1601B8CE63A
:104C18006B70E5E710F8013B190608D504EB0C0E9C
:104C2800B64503F07F033FF67EAE04F8013B013240
:104C3800DFE7B8F1000F03D099F90020002A17DB4D
:104C4800029BD3B11AF80B2004F8012B0022019B18
:104C580098182044B0423FF666AE99F800000099D3
:104C680004F8010B204603926AF03BFD039A1444B2
:104C78000AF1010A09F10109C6E799F8002055F877
:104C880022300093029B009845F82230FEF724FB5F
:104C9800421CDCE76FF00D0047E600BF2DE9F04F3E
:104CA80097B000AFD7F880B03B62CBF3C00304469F
:104CB800894690F802A0FA62BB6141B9457800784C
:104CC8000AEB800020444D4517D8A0EB0409E3788F
:104CD800FB61BAF1000F02D01BF0010F16D1FB697E
:104CE80053BBFB6A1BB1494620463A6A98474D4672
:104CF80028465C37BD46BDE8F08F461C3046FEF7B7
:104D0800EBFA0130304409F10109DCE762682378E5
:104D18007A62FA6A9900796104EB8301002A40F00B
:104D280001810E464FF000084D4601EB0A094E4539
:104D38004CD101EB0A0610E01BF0020FD1D023780A
:104D48009A007A61626804EB83017A62FA6A002A3F
:104D580077D14D46904601EB0A061BF0050F0CBFB4
:104D680002230123FB62FB6906EB430A0BF00203F3
:104D7800BB625645BCD016F8021B16F8013C54F825
:104D88002390AF4B994502D3AE4B994536D3BB69B7
:104D9800002B40D0786A4EF06FFB00283BD0E946E4
:104DA8008AB06A46A84B53617B6AC2E906314FF460
:104DB80000731384A54B42F8103F00234FF412519F
:104DC800A34801F03DFD023DCD46D2E716F8013B70
:104DD800F96254F82300FEF77FFAD7F88430F96AAD
:104DE80001304BB1D7F8883098453EBFD7F88430AA
:104DF80023F8180008F10108054498E7BB6923B1B6
:104E0800786A4EF039FB0028C9D11BF0010F05D193
:104E1800FB6AED1AADE7BB6A002BAAD04846FEF73D
:104E28005BFAD7F8843053B1D7F8883098453FBF3C
:104E3800D7F88420431C22F8183008F101080544EB
:104E480097E7BAF1000F73D01BF0040673D0D04671
:104E5800002607F1480052463B61B9626AF041FCFE
:104E6800B96A3B6901EB0A02BA62FA69F969520048
:104E7800FA60BA6A02EB41023A610BF00202BA60C8
:104E88003A69B96A8A4258D162781BF0020F18BF92
:104E980000217A6208BF4FEA5801B2181BF0010FCF
:104EA800D2B240F09F801BF0040F14BF4046002090
:104EB800BB616270A070E17020463A6A7969FB6A4A
:104EC8009847051EFFF614AFBB69414623707B6AFD
:104ED8003A6A6370FB6984F802A0E37007F148003E
:104EE800FB6A9847B0F10008C0F2B4807B69A9EB6F
:104EF8000A01C91AFB683A6AC91AD7E90A03984726
:104F08000028C0F2A9804FF0000BA84408EB000568
:104F180007F1380AB34567D300213A6A0846FB6AA5
:104F28009847E5E656464FF0000807F1380092E743
:104F38005646D04696E7B04694E7BA6A12F8021B7E
:104F480012F8015CBA6254F825003D4A904202D337
:104F58003C4A90421ED3BA6932B1786A7B604EF0FF
:104F68008BFA7B6800288BD1BA6802BB08F128024B
:104F780007F1300C08F10100944407F1580208F1D8
:104F8800020852FA80F00CF8101C5FFA88F800F852
:104F9800105C75E7BA693AB1786A7B604EF06CFAD2
:104FA8007B6800287FF46CAF1BF0010F09D006F175
:104FB800280207F13000711C161806F8205CCEB2E2
:104FC8005EE71BF0040F3FF45BAF08F1280207F11E
:104FD800300008F1010102EB000808F8105C5FFAE4
:104FE80081F84DE7002063E71BF80A3054F8239056
:104FF80087F83730D7F88430FBB133F81B800121AC
:105008003A6AFB6A07F137009847002824DB054411
:10501800B8F1000F06D14846FEF75EF900F1010825
:105028001FFA88F8414648463A6AFB6A98470028BA
:1050380012DB05440BF1010B6CE7D7F88480DEE73F
:10504800F4F70600546C09006B4B070004000001DC
:1050580074FD060045464BE6054649E6014B1860D7
:10506800704700BFE801002080B505460E46174688
:10507800984642F051FD03466AF0AEFB0446DFF85D
:105088001890424649F8003039463046A84754F847
:1050980009001CF0A9FD00BF0800000000B5162299
:1050A8006AF09AFB024B1A504FF0FF305DF804FB90
:1050B8000C0000000F2800B508D96AF08DFB092202
:1050C800074B1A504FF0FF305DF804FB3022054BB8
:1050D80002FB0033D3E8AF3F002BEED00020F3E70C
:1050E8000C000000F40100203023434330B50D4983
:1050F80008330B44D3E8AF2F92B1541ED3E8EF5FC7
:10510800954204D1C3E8EC4FBCF1000FF6D1F1D1C0
:10511800012A05D13023584300230A180B50536045
:1051280030BD00BFEC01002038B504461546FFF736
:10513800C1FF00280BDB094A59B1302303FB0423C4
:105148005B688B4205D06AF047FB054B1D50002079
:1051580038BD30235C431059FAE700BFEC0100204A
:105168000C0000002DE9F041184E90461F4600241F
:1051780035463368984202D1736899420BD001349E
:10518800102C06F13006F4D16AF026FB17224FF0F6
:10519800FF340F4B1A502046FFF78CFF002812DB14
:1051A800B8F1000F05D0302101FB04510C31C8F8CB
:1051B800001017B90120BDE8F081302303FB045526
:1051C80020353D60F6E70020F5E700BFEC01002040
:1051D8000C00000038B504461546FFF76BFF0028A1
:1051E8000DDB30236343074AD0184068086015B1C7
:1051F8000C3313442B6030235C43105938BD002016
:10520800FCE700BFEC01002070B500254FF0FF332C
:105218004FF0FF3217484EF078F9174BD3E8AF2F0D
:1052280082B10135102D03F13003F7D16AF0D4FAB9
:1052380017224FF0FF35114B1A500E484EF067F900
:10524800284670BD30246C43D3E8EF0F0130C3E823
:10525800E10F0029F8D10A4E331932515A6004F18E
:105268000C00304465F069FB04F12000304465F01F
:10527800A6FDE2E7780D0020F40100200C000000F4
:10528800EC01002030B40446302510466C43084A2F
:10529800151911516860EB6240B1C36833B10C3421
:1052A800131940F2051230BC4EF01EB930BC7047DD
:1052B800EC010020F8B50546FFF7FCFE00281ADBD4
:1052C80030246C430D4F04F10C063E444FF0FF327E
:1052D8004FF0FF3330464EF018F93B195B683859E8
:1052E8009B689847044630464EF011F92846FFF768
:1052F800FBFE2046F8BD4FF0FF34FAE7EC01002032
:105308002DE9F047058B04462807904611D4022959
:1053180005F0070540F0CC8020464EF0AAFC78B195
:105328000138218B042811D8DFE800F0C2106D8500
:10533800950001290CBF45F0100545F0200525838F
:1053480088F31188BFF36F8FBDE8F08701F0070A73
:10535800AA4500F0A5800027B9463E46A368002B61
:1053680000F0BC8041F00801218388F31188BFF365
:105378006F8FA168002900F0BA800D68002900F03D
:10538800B680334652462046D1F80480C047002DE7
:1053980076D02B6829461D46F0E701F007035A1F0F
:1053A800012A1BD8002221F00701062B276889B2A1
:1053B800C4E9002209D13B4603E0628B01326283D3
:1053C8001B68002BF9D141F00201204621834EF0E1
:1053D80050FC00287AD041F0200176E0042B0AD155
:1053E80021F0070189B2204621834EF042FC10B11A
:1053F80041F020012183218B01F0070AAA454FD0F3
:105408000027B946AAE7236921F0070141F0060100
:10541800062DD3F8009021832DD1B9F1000F3FD08C
:1054280041F00801218388F31188BFF36F8F20466C
:105438003949C84729E021F00701236941F00401EF
:1054480089B2042DD3F804902183E6D000274FF0C9
:10545800040A3E4682E721F00701236941F005016D
:1054680089B2052DD3F808902183D6D000274FF0B4
:10547800050A3E4672E700274FF0060A3E466DE7EA
:105488002B4687E7B9F1000FD1D1EFF3118820231C
:1054980083F31288BFF36F8F238B23F008032383D2
:1054A800258BEA062ED525F01003238305F0070582
:1054B8006669218B002EBFF670AF00232768C4E908
:1054C800003321F0070141F001012183218B4FF0C6
:1054D800000901F0070AAA457FF440AF002F9CD0CD
:1054E80041F00801218388F31188BFF36F8F002FE3
:1054F800C8D03D6839463346524620464EF0E5FB53
:105508002F46F4E7AB067FF51BAF25F02003238376
:1055180005F0070500E700BFFF3C05002DE9F7434C
:105528000F4606460821C06A4EF018FD80463C68C2
:10553800DFF84890241A3C6004EA0905AC4203D815
:10554800002003B0BDE8F08308236A4621463046B0
:105558004EF09AFC0028F4D1694630464EF008FD1A
:1055680040B1BDF80230BDF8042005EA090513442E
:105578001D443C60A4EB0804E0E700BF0000FFFF07
:1055880073B504464FF6FF72C06A08214EF0E6FC78
:10559800002563680F4EADF800208DF80620A2891B
:1055A800191833401344181A60606846ADF80210A1
:1055B800ADF804504EF0C9FC694620464EF098FDFF
:1055C8002046211D4EF099FC284663683340A360AD
:1055D80002B070BD0000FFFF2DE9F04704468AB015
:1055E80000F11407384665F0A8F9A06A8368DB68FB
:1055F8009847E06250B9864A012186484EF08AFCF5
:105608006FF0150528460AB0BDE8F087A06A8368E0
:10561800DB6898470368013B1F2B01D97E4AEBE7FB
:10562800A06A216807AA62F06CF808B17B4AE3E730
:10563800A5892DB1089BB5FBF3F203FB12550DB1FB
:10564800774AD9E7E389012B01D8764AD4E7E36A98
:10565800029593F805904FF0FF334FF0FF3238462C
:1056680041F0F4FA0821E06A4EF078FCA8460646B4
:10567800E3891FFA85FA534508D8E389434523D1BE
:10568800384641F05BFB6FF02C05BBE7A1892B0482
:10569800891B13FA81F14A460823204602914EF0ED
:1056A80001FC78B1204602A94EF027FC08F1010858
:1056B80008234A46204602991FFA88F84EF0F2FB62
:1056C8000028DAD00135D3E753450BD102990823D6
:1056D8004A462046891B4EF0E5FB18B9204602A928
:1056E8004EF00BFC204602A9FFF718FF054618B13B
:1056F800384641F023FB85E7029B4FEA13484FEAFF
:1057080008486360C4F80880D4E9011399420FD3AC
:105718000823204603AA4EF0B7FB05460028E7D128
:1057280003AB13F8012B91453DD10135082DF8D174
:10573800636820461B0C1B0402A902934EF0DDFB94
:105748004A462046A38902994EF0ACFB051ECFDBE2
:1057580063687BD04FF6FF7906EB0308A3891FFA2D
:1057680088F29B1B9A42CDF8088038D303212E4A31
:1057780028484EF0CFFB204661684EF0CDFB054629
:105788000028B5D16368294AA18913400B44A3EBCB
:105798004603636013402046A3604EF0D1FC0546E3
:1057A800002D6FD0A4E7204603A94EF0E1FB626804
:1057B80010B9921B6260A7E7BDF81050BDF80E1033
:1057C800E06AC4F8088029444EF0C8FB404490427F
:1057D800A060EED1002DECD06FF01C057DE0082311
:1057E8004146204605AA4EF04FFB054600287FF4A7
:1057F8007FAF204605A94EF0BBFB38B1BDF8143089
:105808004B4503D1BDF81830002B6CD0B044A5E748
:10581800334C0700A4FD0600554C0700724C0700E6
:105828008A4C07009E4C0700FB4C07000000FFFF56
:105838004A4620465B1A4EF035FB051EFFF658AF68
:1058480008D0E26AA36812681344A360D4E901315E
:105858008B42EDD86168A38901EB46029A429FD139
:10586800DFF8A880A26801EA08039A4298D0204687
:105878004EF052FB054600287FF43AAF636803EA0E
:105888000803A360A389A288A3EB46039A4220D009
:10589800384641F053FA0123A2892374E38903218E
:1058A80000921B481B4A4EF0BFFF63689AB20092F1
:1058B8000321194A16481B0C4EF0B6FFA3689AB28A
:1058C80000920321154A12481B0C4EF0ADFF00252B
:1058D80098E620464EF01DFC0546384641F02EFA63
:1058E800002DD8D08EE60E4A032109484EF012FB4F
:1058F800636820461B0C1B0402A902934EF0FDFAB4
:10590800204602994EF008FB49E700BF0000FFFF60
:10591800A4FD0600C14C0700D84C0700EA4C07005C
:10592800224D07002DE9F04F1D46037C91B0044637
:105938000291009253B90121634A64484EF0EAFA91
:105948006FF00C06304611B0BDE8F08FC26A08212E
:1059580010464EF003FB2946019010464EF0FEFA21
:10596800A389019A0746A3EB8203AB42C0F0A98042
:105978001DB1009B002B00F0A480636805932046AE
:1059880006AA05A9DDF814A04EF02FFB064600284C
:10599800D8D1BDF81830029A934206D06268059BA8
:1059A8009A42ECD1002D36D1CCE7204606A94EF01C
:1059B800DFFA0028F2D0BDF81A80BDF81C3045B3D4
:1059C8009D4228D14FEA1A4A4FEA0A4AD044AA46C9
:1059D800E36ADDF800B01B685B4203F02003039321
:1059E800DDF80C904146D14528BFD14620464B46AC
:1059F80008AA4EF049FA00284AD14A46584608A94A
:105A080069F04CFD38B9BAEB090AC844CB44E7D170
:105A180098E7002B96D0002F3DD1B84604F1140A20
:105A28004FF0FF324FF0FF33504641F00FF9E38952
:105A38009E4243D0A168626808EB01039A422FD3C3
:105A4800029B2046ADF82030FF23009A8DF82630BF
:105A58002B46ADF82210ADF824504EF010FB294625
:105A68000746E06A4EF07AFAA3680344A36057B980
:105A780008A84EF06AFA204608A94EF039FB00281B
:105A880014BF07462F46504641F058F93E4659E79D
:105A9800C1DC064656E7019B1F441FFA87F8BDE79D
:105AA8002046FFF76DFD07460028ECD120464EF052
:105AB80047FB07460028E6D10136B8E76FF01B0719
:105AC800E1E76FF015063DE71F4C0700A4FD06004F
