:100000002891002021300000155901000D3000001A
:100010000D3000000D3000000D3000000D300000EC
:10002000000000000000000000000000D9310000C6
:100030000D30000000000000993100000D3000007C
:100040009933000099330000993300009933000080
:100050009933000099330000993300009933000070
:100060009933000099330000993300009933000060
:100070009933000099330000993300009933000050
:100080009933000099330000993300009933000040
:100090009933000099330000993300009933000030
:1000A0009933000099330000993300009933000020
:1000B0009933000099330000993300009933000010
:1000C0009933000099330000993300009933000000
:1000D00099330000993300009933000099330000F0
:1000E00099330000993300009933000099330000E0
:1000F00099330000993300009933000099330000D0
:1001000099330000993300009933000099330000BF
:1001100099330000993300009933000099330000AF
:10012000993300009933000099330000993300009F
:10013000993300009933000099330000993300008F
:10014000993300009933000099330000993300007F
:0401500099330000DF
:1001540053B94AB9002908BF00281CBF4FF0FF312A
:100164004FF0FF3000F00CB8ADF1080C6DE904CE8F
:1001740000F010F8DDF804E0DDE9022304B0704774
:10018400704700BF034613F8012B002AFBD1181A4D
:10019400013870472DE9F04786468C460846089E8C
:1001A400154674461946002B40F0C1808542B2FAC8
:1001B40082F245D94AB1C2F1200300FA02FC95400B
:1001C40094402EFA03F343EA0C0C4FEA154EA8B2FE
:1001D400230CBCFBFEF80EFB18CC08FB00F943EA29
:1001E4000C43994528D9EB1808F1FF3704D29945F7
:1001F40002D9A8F102072B44A3EB0903A4B2B3FB71
:10020400FEFC0EFB1C330CFB00F044EA0344A0424A
:1002140014D92C190CF1FF3304D2A04202D9ACF149
:1002240002032C44241A43EA07401EB1D44000239D
:1002340034607360BDE8F0874746DDE76346F1E765
:1002440092BB431B01214FEA154EAFB2200CB3FB06
:10025400FEFC0EFB1C330CFB07F840EA03439845F5
:1002640061D9EB180CF1FF3004D2984502D9ACF1F6
:1002740002002B44A3EB0803A4B2B3FBFEFC0EFB69
:100284001C330CFB07F744EA0344A7424DD92C194D
:100294000CF1FF3304D2A74202D9ACF102032C447F
:1002A400E41B43EA0040C0E7C2F1200395409440B8
:1002B40020FA03F12EFA03F34FEA154E9040AFB241
:1002C4000343B1FBFEFC0EFB1C10190C0CFB07F8DE
:1002D40041EA0041884522D969180CF1FF3004D263
:1002E400884502D9ACF102002944A1EB08019BB274
:1002F400B1FBFEFC0EFB1C110CFB07F743EA0143A8
:100304009F420ED9EB180CF1FF3104D29F4202D95F
:10031400ACF102012B44DB1B41EA004193E7604648
:10032400E3E76146F7E76046A4E76346B8E783423C
:1003340006D916B9002108467CE7C6E900E0F9E7CA
:10034400B3FA83F78FB9834201D3724508D8BEEB61
:10035400020460EB030301209C461EB9002169E7F7
:100364003846FAE7C6E9004CF8E7C7F1200CBB4071
:100374000EFA07F522FA0CF42EFA0CF1BA401C43DB
:1003840020FA0CF3B8404FEA144901431FFA84FEE3
:10039400B3FBF9F809FB18300B0C08FB0EFA43EA1F
:1003A40000439A4540D9E31808F1FF3004D29A4536
:1003B40002D9A8F102002344A3EB0A0389B2B3FBD8
:1003C400F9F809FB183308FB0EFE41EA03418E4598
:1003D4002CD9611808F1FF3304D28E4502D9A8F153
:1003E4000203214443EA0040A1EB0E01A0FB029862
:1003F4004145CE46434602D306D14D4504D2013889
:10040400B9EB020E68EB0403002EA7D0B5EB0E0285
:1004140061EB030101FA0CFC22FA07F3F9404CEA00
:100424000303C6E9003199E74046C5E74346D9E7E7
:1004340008B570B90F494FF487630F4A0F4814F099
:10044400A9FF0F4814F0A6FF4FF487610A4814F07F
:1004540098FF006860B90B4940F23943064A0748DF
:1004640014F098FF064814F095FF40F23941EDE787
:10047400103008BDF17C0100C27C0100F77C010052
:10048400147D0100177D01002DE9F0432F4B93B03B
:10049400994205D00133994242D013B0BDE8F083AC
:1004A4002B4D84682B680133012B2B600DD1294B14
:1004B400294A0393294B2A4902932A4B2A48019338
:1004C4002A4B00932A4B14F04FFF2022214609A8FF
:1004D40016F0B9FD002394F823008DF844302E68FB
:1004E40094F8207094F8228094F9259004F064FB29
:1004F40094F82C3005468BB11223062104AA04F18A
:10050400260005F021F8CDE902503B463146CDE9FD
:100514000089184809AA14F027FFBEE71648F2E735
:1005240083681B686BB10121144A154815F044F91E
:100534000022074B1A60134813B0BDE8F0430EF0D5
:100544000FBF114814F010FFF2E700BF010056D1AD
:100554009C1000205C7D01005D7D0100627D010036
:100564002B7D01006B7D01002F7D0100707D01005A
:10057400257D0100757D0100167D0100A27D01002D
:100584006C750100D8040020BB7D01000022F0B589
:10059400724B8DB072481A60724B00AF4360724B5D
:1005A400036105F037F900214FF4004010F024FDF9
:1005B4006E4B6F491A686F4B6F48B2FBF3F214F03D
:1005C400D3FE04F04DFDFFF733FF002834D0037948
:1005D400062B31D103681D7858789E78D9781A791A
:1005E4005C791DB3EA0727D4644D04F039FD044651
:1005F40018220021384616F0BFFD18220021384683
:1006040016F0BAFD18233A462146284604F0E0FACB
:10061400002800F099800121594A5A4815F0C3F87E
:1006240000214FF4A02010F0E7FCDEE740EA0603C7
:100634000B4313431C43D7D104F012FD064670B993
:1006440051494FF43263514A514814F0A3FE5148C2
:1006540014F0A0FE4FF432614C4814F092FE03688B
:1006640063B94D494FF45273484A494814F092FE15
:10067400484814F08FFE4FF45271EDE70C33D3E881
:10068400AF3FDB070DD504F04FFD041E09DA14F16A
:10069400780F06D02346414A01213A4815F08CF8D8
:1006A4001CE03F4D12212A46384615F0A2FA0446B2
:1006B400C0B16E468AB06B463A4AD861C3E9052593
:1006C4004FF400721A841A46374B42F8103F002345
:1006D4004FF411512B4801F03BFDB5462046343709
:1006E400BD46F0BD30233A463146304804F0DAF8CE
:1006F400304604F0C7FC041E05DA14F1780F02D06A
:100704002B4A2346C8E73046FFF792FE046830467A
:10071400FFF78EFE18230179264A204604F014FFC1
:100724006C4688B06A46244BC2E905304FF4007326
:100734009383224B42F8103F00234FF4E6511148B3
:1007440001F006FDA5464FE71D4814F00DFE4FF4D9
:10075400A02200231B480EF045FE61E79C100020F8
:10076400881000208D0400000B0056D1C00000202A
:10077400CE7D010040420F00D87D0100010056519A
:10078400A17E01006C750100F17C0100C27C0100B6
:10079400F77C0100147D0100177D0100007E01003B
:1007A4001D7E01002F7E0100040000010400085298
:1007B400547E0100383100206F7E010003000001E7
:1007C400B57E0100D8040020F8B50F4600293BD0BF
:1007D40006680122304614F0D6FB01460446304632
:1007E40014F099FBC3070DD4AF23184A18491948CC
:1007F40014F0D0FD3946184814F0CCFDAF2113484D
:1008040014F0BFFD2146304614F09BFB2518294601
:100814000022304614F07FFB2D1AAC420BD0B723D4
:100824000A4A0E490B4814F0B5FD39460C4814F039
:10083400B1FDB721E3E72146304614F088FB214699
:10084400BDE8F84014F0C4BCF8BD00BFCA7E010086
:10085400ED7E0100F77C0100FE7E0100367F010081
:100864005C7F01002DE9F8430F4606681446B26820
:100874004B1EB2F5004F34BF042108213B4010D079
:10088400C7F1000909EA0709494503F1FF3028BF08
:10089400494618420CD11F46DCB900252846BDE85C
:1008A400F8838F4213D82146BDE8F84314F0D2BC34
:1008B4002E494FF4A2732E4A2E4814F06BFD2E4895
:1008C40014F068FD4FF4A271294814F05AFD9946BA
:1008D400E2E7B2EBD40FE0D9E319591A104614F049
:1008E4005CFB0146304614F0B2FB80460028D4D0AD
:1008F400B36809EBC005B3F5004F34BF04230823E4
:100904001D4435447B1E1D44B5FBF7F57D43A5EB23
:1009140009052946304614F036FB2C44073424F0EC
:100924000704A41B804507464FEAE40408D20246A4
:100934004146304614F0C5FB4146304614F006FCEF
:100944003946304614F0FDFA3844844208D2394618
:100954003046224614F0B5FB2146304614F0F6FB2F
:1009640001223946304614F0F2FA97E7987F0100E5
:10097400CA7E0100F77C0100B37F0100B2F5802F2D
:100984002DE9F04110D2042A28D843494FF4F973D1
:10099400424A434814F0FEFC424814F0FBFC4FF476
:1009A400F9713E4814F0EDFC0823D21ACC1D114411
:1009B40024F0070421F00701091B17294FEAD10687
:1009C4000ED8394940F2FB13344A354814F0E2FC9E
:1009D400344814F0DFFC40F2FB11E2E70423E4E7BF
:1009E4000027046031463046A660E76014F0DEFA62
:1009F4000121421D8046304614F0CFFA9200D51DE5
:100A0400ED082844B0423AD8B8F1FF3F3946A2F184
:100A1400100204F11000B8BF3A4616F0ADFB2A46A6
:100A24003946204614F0ABFA3B463A46394620464E
:100A340014F07CFAA6EB050820463946012214F08E
:100A440086FA4246294614F09AFA2B463A46294633
:100A5400204614F06BFA3146204614F090FA4346CF
:100A64003A463146204614F061FA314620460122C6
:100A740014F06DFA2946BDE8F04114F067BB0B4948
:100A84004FF40373054A064814F084FC054814F037
:100A940081FC4FF4037184E7D07F0100CA7E01001A
:100AA400F77C0100F17F01000A800100338001001E
:100AB4002DE9F04F97B000AF89460446D7F880B0CF
:100AC400FA623B6258B9A9494FF46673A84AA94827
:100AD40014F060FC4FF46671A54814F052FCCBF39B
:100AE400C00390F802A0BB6141B9457800780AEBD5
:100AF400800020444D4517D8A0EB0409E378FB613E
:100B0400BAF1000F02D01BF0010F16D1FB6953BBE1
:100B1400FB6A1BB1494620463A6A98474D46284627
:100B24005C37BD46BDE8F08F461C3046FFF72AFB14
:100B34000130304409F10109DCE7626823787A6204
:100B4400FA6A9900796104EB8301002A40F002817A
:100B54000E464FF000084D4601EB0A094E454CD1B4
:100B640001EB0A0610E01BF0020FD1D023789A00A3
:100B74007A61626804EB83017A62FA6A002A77D1A7
:100B84004D46904601EB0A061BF0050F0CBF0223ED
:100B94000123FB62FB6906EB430A0BF00203BB6211
:100BA4005645BCD016F8021B16F8013C54F82390A5
:100BB400714B994502D3714B994536D3BB69002BD0
:100BC40040D0786A14F0A9FB00283BD0E9468AB0EB
:100BD4006A466B4B53617B6AC2E906314FF400737A
:100BE4001384684B42F8103F00234FF412516648B7
:100BF40001F0AEFA023DCD46D2E716F8013BF962A8
:100C040054F82300FFF7BEFAD7F88430F96A0130AC
:100C14004BB1D7F8883098453EBFD7F8843023F8D5
:100C2400180008F10108054498E7BB6923B1786A04
:100C340014F073FB0028C9D11BF0010F05D1FB6A26
:100C4400ED1AADE7BB6A002BAAD04846FFF79AFA23
:100C5400D7F8843053B1D7F8883098453FBFD7F8D8
:100C64008420431C22F8183008F10108054497E752
:100C7400BAF1000F74D01BF0040674D0D0460026DD
:100C840007F1480052463B61B96216F04EFAB96A60
:100C94003B6901EB0A02BA62FA69F9695200FA6027
:100CA400BA6A02EB41023A610BF00202BA60BA6A14
:100CB40039698A426AD162781BF0020F18BF002199
:100CC4007A6208BF4FEA5801B2181BF0010FD2B282
:100CD40040F0E5801BF0040F14BF40460020BB61C8
:100CE4006270A070E17020463A6A7969FB6A98479D
:100CF400051EFFF614AFBB69414623707B6A3A6A4E
:100D04006370FB6984F802A0E37007F14800FB6A92
:100D14009847B0F10008C0F2F0807B69A9EB0A01A2
:100D2400C91AFB683A6AC91AD7E90A03984700281E
:100D3400C0F2E5804FF0000BA84408EB000507F172
:100D4400380AB345C0F0AD8000213A6A0846FB6A10
:100D54009847E4E656464FF0000807F1380091E75B
:100D64005646D04695E7B04693E700BFF3800100AE
:100D74005E800100F77C0100B07101007C5F02001D
:100D84000E8101000400000114750100BA6A12F812
:100D9400021B12F8015CBA6254F82500594A9042C9
:100DA40002D3594A904218D3BA693AB1786A7B603F
:100DB40014F0B3FA7B6800287FF479AFBA68002A8C
:100DC4004CD00F2E40D9514940F24C43504A51481F
:100DD40014F0E0FA40F24C417EE6BA693AB1786A1E
:100DE4007B6014F09AFA7B6800287FF460AF1BF0F4
:100DF400010F0BD00F2E27D9444940F24243444AF5
:100E0400444814F0C7FA40F2424165E61BF0040F6F
:100E14003FF44DAFB8F10F0F09D93F4940F24543B4
:100E24003B4A3C4814F0B6FA40F2454154E608F116
:100E3400280207F1300008F1010102EB000808F86C
:100E4400105C5FFA81F832E706F1280207F13000FE
:100E5400711C161806F8205CCEB228E7B8F10F0F03
:100E640009D92D4940F24F43294A2A4814F092FAED
:100E740040F24F4130E608F1280207F1300C08F146
:100E84000100944407F1580208F1020852FA80F074
:100E94000CF8101C5FFA88F800F8105C07E70020D3
:100EA4001DE71BF80A3054F8239087F83730D7F839
:100EB4008430FBB133F81B8001213A6AFB6A07F1E5
:100EC4003700984700281ADB0544B8F1000F06D113
:100ED4004846FFF757F900F101081FFA88F8414620
:100EE40048463A6AFB6A9847002808DB05440BF138
:100EF400010B26E7D7F88480DEE745460FE6054672
:100F04000DE600BFB07101007C5F0200B1810100F9
:100F14005E800100F77C0100D0810100014B1B6859
:100F2400184700BF00000020014B1860704700BF45
:100F34000000002030B585B004460D461022002183
:100F4400684616F019F902238DF80230044B2A463C
:100F540021466846019313F05BFD05B030BD00BF28
:100F6400210F000080B505460E461746984610F03E
:100F740097F8034616F010F90446DFF81890424635
:100F840049F8003039463046A84754F8090002F0C1
:100F9400B3F800BF0800000038B50D46044620220F
:100FA400002116F0E9F80022EB68E361AB68A36165
:100FB4002B6823626B68A26263622A6923B1591E9B
:100FC400194208BF42F0010222610122002104F10A
:100FD4002C0015F078FE48B1054906482F23064A2F
:100FE40014F0D8F92F21044814F0CBF938BD00BF10
:100FF40027820100F77C0100018201002DE9F04FF6
:10100400002789B0CDE90123436A04468B42884610
:10101400BA460597079755D34FF0200B00F11406F5
:10102400EFF3118300938BF31288BFF36F8F304675
:10103400DDF8009010F0F0F958B988234A4A4B497A
:101044004B4814F0A7F931464A4814F0A3F9882113
:1010540060E0304610F004FA079A2AB13946204677
:1010640014F079FA0023079306A9204614F09FF997
:101074000699054641452ED32268236A204613F873
:10108400221003EB820A21F0030103F822102168E5
:10109400424614F0B0F9E3682060984216D0002567
:1010A400304610F0C7F940B389F31188BFF36F8F4E
:1010B400059929B1A2690AB12046904700230593F6
:1010C400002DADD1504609B0BDE8F08F236943F03F
:1010D40008032361E3E718B1204614F0A6F9DFE71B
:1010E400DDE90132134337D0039115F060FE039913
:1010F40090BB304610F09EF978B940F231131A4A89
:101104001D491B4814F046F931461C4814F042F9B5
:1011140040F23111144814F034F9009B83F3118820
:10112400BFF36F8F04F12C00DDE901230EF05AF9AF
:101134000546EFF311898BF31288BFF36F8F3046A6
:1011440010F06AF900283FF478AFB5FA85F5304617
:1011540010F086F96D09A3E7204607AB05AA2768B6
:1011640014F082F905469BE7308201005D8201009C
:10117400F77C010072820100888201009F820100D5
:101184002DE9F0410446C36908460E46984704F128
:1011940014050746EFF31188202383F31288BFF365
:1011A4006F8F284610F038F968B988231A4A1B490A
:1011B4001B4814F0EFF829461A4814F0EBF888217C
:1011C400154814F0DEF8284610F04AF933783A4608
:1011D40043F0010333706168204614F00CF9606039
:1011E400204614F0D3F9284610F024F968B940F2E7
:1011F4003113094A0C490A4814F0CCF829460B4823
:1012040014F0C8F840F23111DAE788F31188BFF31B
:101214006F8FBDE8F08100BF308201005D82010064
:10122400F77C010072820100888201009F82010024
:101234002DE9F843044600F11407EFF31188202345
:1012440083F31288BFF36F8F384610F0E5F8054634
:1012540068B98823344A3549354814F09BF839462F
:10126400344814F097F888212F4814F08AF8384647
:1012740010F0F6F82369A26813F0080F02D163682E
:101284009A4200D9636A9B1A002B3FD0216A11F855
:10129400223001EB820913F003003AD0022803D173
:1012A40051F82260B60805D1D8071FD44846E3692F
:1012B40098470646A1683246204614F09CF8314609
:1012C400A060204614F0A5F8384610F0B3F810BB1F
:1012D40040F23113144A1849154814F05BF83946A2
:1012E400164814F057F840F23111BDE743F00203F9
:1012F40001F82230E3694846A56898472946024622
:10130400204614F078F80025A060DDE71D46A946C4
:10131400DAE70546FBE788F31188BFF36F8F002DEA
:101324008BD14846BDE8F883308201005D8201001C
:10133400F77C010072820100888201009F82010013
:101344002DE9F0410446C36908460D46984704F167
:1013540014060746EFF31188202383F31288BFF3A2
:101364006F8F304610F058F868B98823274A284907
:10137400284814F00FF83146274814F00BF8882158
:10138400224813F0FEFF304610F06AF82B786FF312
:1013940000032B7023699B0705D5E268236A03EBDE
:1013A40082039D4222D12B786FF341032B70D4E941
:1013B4000231994204D13A46204614F01CF8A06048
:1013C4003946204614F025F8304610F033F890B929
:1013D40040F231130D4A11490E4813F0DBFF314638
:1013E4000F4813F0D7FF40F23111C9E72B6867F3B8
:1013F4009F032B60E8E788F31188BFF36F8F04F134
:101404002C00BDE8F0410DF0ABBF00BF30820100FD
:101414005D820100F77C0100728201008882010074
:101424009F82010070B5044600F11405EFF31186A4
:10143400202383F31288BFF36F8F28460FF0ECFF4D
:1014440068B988231A4A1B491B4813F0A3FF29468D
:101454001A4813F09FFF8821154813F092FF28467D
:101464000FF0FEFF2369A06813F0080F02D1636830
:10147400984213D9646A241A28460FF0DBFF78B91E
:1014840040F231130A4A0E490B4813F083FF2946F0
:101494000C4813F07FFF40F23111DDE71C1AEBE733
:1014A40086F31188BFF36F8F201E18BF012070BD13
:1014B400308201005D820100F77C0100728201002C
:1014C400888201009F8201002DE9F84F0446A38B16
:1014D40008461907154612D4022803F0070165D1FE
:1014E400204614F06EF888B10138042800F23781E0
:1014F400DFE810F05C0035018200D400040101280B
:101504000CBF43F0100143F02001A18314342046A2
:101514000FF090FF002840F09D819A4940F231136A
:10152400994A9A4813F036FF2146B1E003F00702C6
:10153400501F01281ED80020062A2768C4E900008D
:1015440014D13A4603E0E08B0130E0831268002AAC
:10155400F9D123F0070343F002022046A28314F0DA
:1015640030F890B342F02002A2832EE023F0070368
:101574009AB2F2E7042A33D123F007039AB2204641
:10158400A28314F01EF810B142F02002A283A38BB0
:1015940003F00709894540F0EC80A18BCA0640F1AD
:1015A400508121F01003A38301F00701D4F81880BF
:1015B400A38BB8F1000FB9DA0022276823F00703E0
:1015C400C4E9002243F00103A383A38B03F00709BA
:1015D400894540F0CF80002FDFD00026B24644E09A
:1015E4006B4940F21B136B4A684813F0D3FE40F278
:1015F4001B11684813F0C5FE49B167494FF4AB733A
:10160400644A624813F0C6FE4FF4AB71F1E72368F5
:101614004BB9624940F257135E4A5C4813F0BAFE74
:1016240040F25711E5E723691E684EB95C494FF44F
:10163400AD73584A554813F0ADFE4FF4AD71D8E779
:101644000F4688464FF00609A38B23F0070343F0A7
:1016540006039BB2A383A268002A40F08D80002F6A
:1016640040F08D80002E98D0BA4643F0080304F170
:10167400140B5846A3830FF0DDFE002840F09A8037
:10168400404940F23113404A404813F083FE594622
:10169400444813F07FFE40F23111ADE0022909D035
:1016A400414940F25D133B4A384813F073FE40F25F
:1016B4005D119EE7E78B4FB13C494FF4AF73354A58
:1016C400324813F067FE4FF4AF7192E723695E6806
:1016D4004EB9334940F261132E4A2C4813F05AFE96
:1016E40040F2611185E7A38BB84623F0070343F06A
:1016F40004039BB24FF00409A383ACE7012909D08A
:101704002B494FF4B273234A204813F043FE4FF49D
:10171400B2716EE723684BB9204940F265131D4A44
:101724001A4813F037FE40F2651162E723699E6898
:101734004EB91B494FF4B473164A144813F02AFEE9
:101744004FF4B47155E70027A38BB84623F0070381
:1017540043F005039BB24FF00509A3837BE70C49D3
:1017640040F26B130B4A094813F014FE40F26B115C
:101774003FE7002700266EE74FF0010A75E792461F
:1017840073E700BF8882010030820100F77C01000A
:101794003D5F0200B4820100D9820100E5820100AC
:1017A400088301009F8201001F830100358301002B
:1017B4004483010085F31188BFF36F8FBAF1000FE2
:1017C4001CD177BB16B120462549B047EFF31185EC
:1017D400202383F31288BFF36F8F58460FF01CFE4B
:1017E40038BB88231F4A2049204813F0D3FD5946AB
:1017F4001F4813F0CFFD88211A48FBE6A168002991
:10180400DFD00D680029DCD043464A462046D1F893
:1018140004A0D0471DB12B6829461D46F2E72B468C
:10182400FAE7394643464A4620463F6813F0F5FE38
:10183400C7E758460FF014FEA38B23F00803A383D5
:10184400ABE68B067FF562AE21F02003A38301F0A3
:10185400070145E685F31188BFF36F8FBDE8F88F64
:1018640079180000308201005D820100F77C0100DC
:1018740072820100F8B504460D4600F11406EFF338
:101884001187202383F31288BFF36F8F30460FF044
:10189400C3FD68B988230C4A0C490D4813F07AFD3E
:1018A40031460C4813F076FD8821074813F069FD92
:1018B40030460FF0D5FDA5613A462046BDE8F84014
:1018C4000121FFF701BE00BF308201005D820100EB
:1018D400F77C0100728201002DE9F04704460F46AF
:1018E40013F08BFE051E68DB04F11409EFF3118A73
:1018F400202383F31288BFF36F8F48460FF08CFDCB
:10190400804660B98823384A3849394813F042FD83
:101914004946384813F03EFD8821334842E04846A2
:101924000FF09EFD4FF6FF72E38BA68B934206F0F9
:10193400070645D0022E15D135460133E3834846C8
:101944000FF078FD002841D140F23113264A2A498C
:10195400274813F01FFD4946284813F01BFD40F2A9
:101964003111DAE7062E13D8DFE806F0092D12123A
:10197400090409006FF085054FF00008DFE7002334
:101984003B60636883B9C4E9007786B13546F3E701
:101994001B4917484FF4E4731A4A13F0FBFC4FF445
:1019A400E471184813F0EDFC1F606760EDE75246E0
:1019B40002212046FFF788FD35462846BDE8F0871A
:1019C4006FF00A05D8E76FF00405D5E78AF31188AC
:1019D400BFF36F8FB8F1000FEFD0002332463946C2
:1019E400204613F01AFEE8E7308201005D82010010
:1019F400F77C010072820100888201009F8201004D
:101A040044830100B482010008B54268034602F031
:101A14000302022A81600AD0032A4FF0000103D096
:101A2400012A0AD1596006E01868596008BD18688F
:101A340000225A6058B90020F8E7064906484523B1
:101A4400064A13F0A7FC4521044813F09AFC10F051
:101A5400F9F8F0E73D5F0200F77C01005A830100CA
:101A640030B5002289B00F490F4815F052FA002210
:101A740000230024CDE906230E230C4DCDE90334C5
:101A84004FF400622846CDE90144094B094900940A
:101A94000EF0B6FA0849284615F08FF9204609B029
:101AA40030BD00BF051C0000680A0020E0050020CE
:101AB400F11E000098330020808301002DE9F047D7
:101AC400044607464FF00109DFF8508014B9384640
:101AD400BDE8F08794FAA4F5B5FA85F509FA05F39B
:101AE4002E0108EB05156FEA030A24EA03042B7B95
:101AF400002BEBD058F806301B694BB94644736889
:101B040004222846196807EA0A0700F0FBFADDE711
:101B1400284698470028D9D1F0E700BF9C750100FA
:101B24002DE9F047DFF8B8902E4C8046A9EB04036A
:101B34008F2B0F460BD92C4940F23F132B4A2C48CC
:101B440013F028FC40F23F11284813F01AFC2948EE
:101B540013F0B5FD064660B300252846BDE8F087BE
:101B6400237B6BB12368DB680BB12046984723685D
:101B74001B69B3B9636804222046196800F0C2FAED
:101B8400013610344C4518D91B494FF4A673174A33
:101B9400174813F0FFFB194813F0FCFB4FF4A67130
:101BA400D2E7204698470028E4D00AFA06F31D43FA
:101BB400E6E705464FF0010AE4E7D1D3B8F1000F98
:101BC400CBD0002DC8D02846FFF778FF0546002F5C
:101BD400F7D000214FF4A4700FF00EFAF1E700BF24
:101BE400AC7501009C750100B58301008883010078
:101BF400F77C0100B4100020E58301000684010095
:101C040001480DF0ADBB00BFC0040020014B53F8E8
:101C1400200070472C76010008B5034608462BB116
:101C2400044A136000F03CFD002008BD6FF015006D
:101C3400FBE700BF0400002010B5044C237813B95F
:101C440003480DF08DFB0123237010BD503100209B
:101C5400C004002010B50446094813F030FD3CB11F
:101C6400084BD3E8EF1F0139C3E8E21F002AF8D17B
:101C7400054815F05AF9BDE8104004480DF070BB52
:101C8400AC100020B0100020680A0020C00400201E
:101C940000200146034BD3E8EF0FC3E8E21F002AFC
:101CA400F9D17047AC10002070B5FFF7F1FF05467D
:101CB4000F4C104EB44219D90F4940F2FF130F4A8A
:101CC4000F4813F067FB0F4813F064FB40F2FF1159
:101CD4000A4813F056FB63685B792BB123685B6891
:101CE40013B12946204698471034E3E7F3D370BD77
:101CF4009C750100AC750100E58301008883010037
:101D0400F77C01000684010010B5044C0449204608
:101D1400FFF742F9034B1C6010BD00BF50030020C5
:101D240018760100A410002008B50023074A4FF4D8
:101D340000411370064A07481360074A1360FFF70F
:101D44006BFFBDE80840FFF7DFBF00BF5131002043
:101D5400AC100020BF560100B01000200146002244
:101D640000230148FFF74AB9500300200148FFF758
:101D74005FBA00BF50030020024B01461868FFF70A
:101D8400DFBA00BFA41000200148FFF74BBB00BF1F
:101D94005003002070B52E4B1878002857D0FFF759
:101DA400E5FF054640B32B4BD3E8EF1F0139C3E8E9
:101DB400E21F002AF8D1284C284EB44218D92849E9
:101DC40040F2F313274A284813F0E4FA274813F0A3
:101DD400E1FA40F2F311234813F0D3FA63685B7914
:101DE40023B12368294620461B6898471034E4E74A
:101DF400F4D32846FFF7C0FF1D4B1E4C1B68002B75
:101E040019DD15F03FF84FF47A72A0FB020302FBD0
:101E14000131C30B43EA4143D4E900209B1A40F249
:101E2400E9324FEAD13161EB0001934271F10001D3
:101E340001D3FFF739FFD4E9003213F57A7342F185
:101E44000002C4E90032BDE87040FFF79DBF70BDD9
:101E540050310020B01000209C750100AC750100C9
:101E6400E583010088830100F77C010006840100FA
:101E7400AC100020600A002070B5154D297829BBEC
:101E84000120FFF74DFE134C134EB44217D91349EA
:101E94004FF4DC73124A134813F07CFA124813F01F
:101EA40079FA4FF4DC710E4813F06BFA63685B79CE
:101EB4001BB1236820469B6898471034E5E7F5D3A7
:101EC400FFF768FF0028FBD101232B7070BD00BF12
:101ED400513100209C750100AC750100E5830100BF
:101EE40088830100F77C0100068401002DE9F04796
:101EF400304B314FFB1A1B090BD1304940F292335E
:101F04002F4A304813F046FA40F292312C4813F02D
:101F140038FA00210846FFF703FE044650B340F2A6
:101F240067684FF0000915F037F9274B274A1B580B
:101F3400136033B1264B1B68092B02DD25480DF0D5
:101F44000FFA0025DFF88CA044B12046FFF7B6FD58
:101F5400044618B94FF0FF384FF0FF39FFF71AFF66
:101F6400064628B95DB942464B4650460DF03AFA4A
:101F74003546E9E74FF0FF384FF0FF39D3E70D4D11
:101F840008E0F0D22B689B691BB100222846114659
:101F940098471035BD42F4D90F4940F28633084AB8
:101FA400084813F0F7F90D4813F0F4F940F28631BC
:101FB400ACE700BF9C750100AC75010025840100ED
:101FC40088830100F77C010008000000A8100020AD
:101FD400B0100020C0040020E58301000684010045
:101FE40013B52C4813F06BFB2B4B1B78002B35D00F
:101FF400EFF31184202383F31288BFF36F8F2748F4
:102004000FF00AFA68B98823254A2649264813F0AE
:10201400C1F92249254813F0BDF98821204813F05D
:10202400B0F91E480FF01CFAFFF7B4FE1B480FF07E
:1020340001FA68B940F23113194A1D491A4813F0DC
:10204400A9F916491B4813F0A5F940F23111E5E747
:1020540084F31188BFF36F8F02B010BD164B1B6859
:10206400002BF9D050B9002200231448CDE90023F5
:102074004FF4004200230FF023FDEDE70928EBD1D4
:102084000E4814F052FF0E4802B0BDE810400DF0A7
:1020940067B900BFB010002051310020A01000200B
:1020A400308201005D820100F77C01007282010030
:1020B400888201009F820100A8100020680A002085
:1020C400C004002010B5064B04461B6898472146FF
:1020D400A0600448FFF754F8BDE81040FFF780BF44
:1020E4000400002050030020044A054B9B1AB1EB66
:1020F400D30F34BF52F8310000207047147501002B
:102104009C7501000E4B10B5C31A1B110133DBB2D1
:1021140048B90C490C48DF230C4A13F03BF9DF2182
:102124000A4813F02EF94468237143689A71012216
:102134004368196043685A71BDE81040FFF77CBDDD
:102144009C750100C5840100F77C01008D840100A9
:102154002DE9F04F8FB0C1F34A2804AF0D469146E4
:10216400B8607B600C0DB8F1000F68D000264FF00A
:10217400040B4FF00A0A07F11403C7F80C80C7E9EF
:1021840007667E620193CDF808B0CDF800A007F190
:102194001C0332464846F968FEF78AFCB0F5006F26
:1021A40003461CD36C468AB0D9F8041004AB2C48FF
:1021B4001A46C3E9050140F2FF71D9614FF4007179
:1021C4001984284B42F8103F4FF4125133462648E5
:1021D400FFF7BEFFA5462C37BD46BDE8F08FC0F320
:1021E4000A0804F11700184420F0070080083B6037
:1021F400FFF7B4FD68F35325044640B33B6800F190
:102204001001C7E9083607F11403F961CDE900A309
:10221400CDF808B04846154AF96807F11C03FEF7E3
:1022240047FC002813DA124912484FF4A373124AE8
:1022340013F0B0F84FF4A3710F4813F0A2F804F1AF
:10224400170020F007008008FFF788FD044668F3B4
:1022540053252A4620467B68B96813F054FABAE736
:10226400E5840100040000012C750100DF56010023
:1022740050850100F77C010024850100406820B1ED
:10228400034BC01A40F3CF0070474FF0FF30704744
:10229400147501000EB403B503AB53F8042B0146C7
:1022A4000448019301F04AFB02B05DF804EB03B06B
:1022B400704700BFD9220000CA0605D48B064CBF64
:1022C40002490349FFF7E6BF704700BF157D0100CF
:1022D4005985010038B54B6805461A68CB680C4629
:1022E4009A4202D1084613F08BFA6368D3E8EF2FC1
:1022F400511CC3E8E01F0028F8D1A3689D5463680B
:102304001A68E3689A4209D9054906487B23064AB4
:1023140013F040F87B21044813F033F8002038BD53
:102324008B850100F77C01005C8501002DE9F04FED
:1023340089B09B46149B9DF84CA00693159B0446BC
:102344000593169B0D469046179E0493BAF1000F11
:1023540000F0AD80BAF1040F0BD9A34940F24D232C
:10236400A24AA34813F016F840F24D219F4813F0F7
:1023740008F806F48073079313F0ADF906F0020928
:10238400024600283FD020469A49FFF783FF0746BC
:10239400B9F1000F08D016F0440F36D12A46204672
:1023A4009549FFF777FF074406F0010353B1934BB8
:1023B400204653F82A20924B9249002A08BF1A4615
:1023C400FFF768FF06F48073002B4AD006F0080379
:1023D400002B64D1B8F1000F67D0424620468A49E9
:1023E400FFF758FF0546069B3D44002B6ED1049B26
:1023F400002B40F08380F30700F1F0803146204643
:10240400FFF75AFFE4E00746C2E7804B186800284C
:10241400C9D07F4B4FF47A791B684FF46161B5FBE7
:10242400F3F5B5FBF0F300FB135509FB05F5B3FB1E
:10243400F1F2B5FBF0FE4FF03C0C01FB123100FB56
:102444001E55B1FBFCF309FB05F5B5FBF0F50CFBE0
:10245400131120460091CDE901E56E49FFF71AFFFB
:10246400A1E706F00803EBB16B4B204653F82A2092
:102474006A49FFF70FFF0546B8F1000F05D0424641
:1024840020466149FFF706FF0544BBF1000FAAD0BF
:102494005A4620466249FFF7FDFE0544A3E74FF084
:1024A400000BE1E706F00805E6E745469BE7BBF1CC
:1024B400010F069B06D1DBB9049B002B00F088803A
:1024C40000251BE0002BF7D0564812E05648224660
:1024D400069B564912F0F0FE00280CDA544940F2EB
:1024E400A723424A424812F055FF40F2A7213DE794
:1024F4004D485546EBE7049B002B65D0DFF834814B
:10250400DFF83491049F3146102F204628BF10274E
:102514004FF0000BFFF7D0FE5D4542DC059B4946BA
:1025240020461A78FFF7B6FE4FF0010B1BF0070F99
:1025340003D141462046FFF7ADFE5F4538D9059BE0
:102544004946204613F80B20FFF7A4FE0BF1010BBC
:10255400BBF1100FEAD14FF0000B20463749FFF7CB
:1025640099FE5A46059B20469A5CA2F120015F29F8
:1025740028BF2E223249FFF78DFE0BF1010BBBF170
:10258400100F1AD01BF0070F03D141462046FFF766
:1025940081FE5F455A46E5D841462046FFF77AFE5C
:1025A400EBE741462046FFF775FE0BF1010BB3E75D
:1025B40020462449FFF76EFEC8E7059B3B4405937C
:1025C400049BDB1B04939DD1BAF1000F7FF413AF7E
:1025D400204609B0BDE8F04F13F012B92046084A6E
:1025E4000849FFF757FE09E7C08501005C85010033
:1025F400F77C0100CC850100D08501003C76010008
:10260400BB8501009E7E0100F5850100BC10002001
:10261400B8100020D985010050760100F985010029
:10262400FF8501001F580100D92200004139000034
:1026340004860100158601000D860100178601003D
:10264400198601001386010042F20F7373B58B42A1
:1026540028BF0B4605680446052168460D4A12F05A
:1026640035F90646636828460B225B680A4913F06D
:10267400B9F863683246694628465B6813F0B2F8D5
:1026840063681B2228465B68044913F0ABF802B068
:1026940070BD00BFEE3B0200388601001C860100BD
:1026A40000210123064A904206D8064A01B90123B3
:1026B4001360054B18607047012140085B00F2E786
:1026C40040420F00B8100020BC100020F8B50D46A1
:1026D4000446064F4618B44201D12846F8BD14F802
:1026E400011BBB6801485B689847F4E7B0720100BE
:1026F40010B543681C68094814F055FA48B90849EC
:1027040008489923084A12F045FE9921064812F018
:1027140038FE23685B685C6010BD00BFB0720100C6
:10272400A2860100F77C010064860100014B03606E
:10273400002070479876010008B5044812F014FE92
:10274400BDE80840024812F00FBE00BFD686010063
:102754000B870100F0B5054689B000AF20220021A7
:10276400384614F009FD3B4647F6F07228461A49EC
:1027740009F004FB04460646B8B16D4688B06A46C3
:10278400164B5361164B93614FF400739383154BAF
:1027940042F8103F00234FF4E2511348FFF7D8FCEE
:1027A400AD4620462437BD46F0BD3946284609F0DB
:1027B4009DFB04460028F4D06D4688B06A460B4B56
:1027C4005361074B93614FF400739383054B42F8B5
:1027D400103F3346DFE700BF8D87010039870100D2
:1027E4007C870100030000018C7501005B870100F8
:1027F40001480FF061BB00BF9876010038B504466C
:1028040018B90F4B0F485B6898476168B1F5683F8A
:1028140010D0B1F5680F0DD00B4DA9420AD011F4B8
:102824006861206807D0014608480CF019F90023B4
:102834002360656038BD142214F09EFCF9E700BFE4
:10284400D00200207D0702002C5F5CA9EC1500205B
:1028540008B560B34368B3F5683F0ED0B3F5680FAD
:1028640018D0144A934220D000684FF0FF324FF042
:10287400FF330CF00FFB58B115E001220368D3E8D5
:10288400EF1F002903D1C3E8E02F0028F7D10AD1B4
:10289400002008BD0368084A1B7803F5807352F8CA
:1028A4002330002BF4D00548F3E70548F1E76FF433
:1028B400E040EEE72C5F5CA900000350E98FFFFFC6
:1028C400EA8FFFFF08B520B34368B3F5683F09D02A
:1028D400B3F5680F13D0114A93421DD000680CF071
:1028E400A9FB14E000220368D3E8EF1F012903D1F8
:1028F400C3E8E02F0028F7D109D0094808BD00211A
:102904000368084A1B7803F5807342F823100020FB
:10291400F4E76FF4E040F1E70348EFE72C5F5CA9CC
:10292400E98FFFFF00000350EA8FFFFF10B5044654
:1029340018B91D4B1D485B6898476368B3F5683F39
:102944002FD0B3F5680F2CD0194A934219D12368BC
:1029540003BB4FF0FF324FF0FF33214615480BF015
:10296400F3FF08B923681BB90F4B13485B689847FA
:1029740014220021206814F0FFFB4FF468636360A5
:1029840008E0B3F5683F0DD83A2B03D040F6BA629D
:102994009342DED1206814F079F9636843F03A0376
:1029A400636010BD054AF3E7D00200207D070200F2
:1029B4002C5F5CA9EC150020A30702003A00003A42
:1029C40008B5064940231422054814F048F9BDE827
:1029D4000840044904480FF033BB00BFEC1000204A
:1029E400EC150020A0760100B47601002DE9F04733
:1029F40006460C4600AF002936D0D1E90012E9465C
:102A04008AB06D46A3684FF0050AA8461F48C5E979
:102A14000723C5E9050148F810AF002342464FF4E7
:102A240021511B48FFF794FBD4E90312CD46636997
:102A3400AD461848C5E90723C5E90501C5F810A046
:102A4400002342464FF421511148FFF781FBCD4644
:102A5400E3690121104A0E4812F0AEFEA369012178
:102A64000E4A0B4812F0A8FE012E07D1EFF305839E
:102A74000B4A31460648103B12F09EFE2146304672
:102A84000BF02CFCBD46BDE8F08700BFD007020068
:102A940064750100FF0702002E0802003D080200D1
:102AA4006B08020030BFFFF7FDBF00BF2DE9F04106
:102AB40005460B4EDFF82C80324606EB0807CC1B8C
:102AC4002046094914F031FBA01942460021083C74
:102AD40014F052FB6C6707F10800BDE8F08100BFF9
:102AE4000000000008000000AC750100074A93686C
:102AF40093F90E10002907DB526993421FBF044A61
:102B0400536843F0805353600DF0F2B91C26002043
:102B140000ED00E070B5344C06460D4633483449A8
:102B240012F0FDFEA36AD9064DD53048314912F0A2
:102B3400F6FE1120A36A1A0704D52C482E4912F078
:102B4400EEFE1220284CA36A9B0712D52B49274876
:102B540012F0E5FE636BA26A110609D50121284A29
:102B6400224812F029FE1EB1A36A23F08003A36257
:102B740013201D4CA36ADA0704D51C48214912F01E
:102B8400CEFE1420A36A9B0604D518481E4912F0F1
:102B9400C6FE1520144B9A6AD60602D49A6A940784
:102BA40013D59B6AD90610D5184940F26313184A05
:102BB400184812F0EFFB184812F0ECFB40F26311D6
:102BC400134812F0DEFB1020B4E7074B9A6A920612
:102BD40042BF5A6A22F400525A629A6A42F0FF02D1
:102BE4009A6200232B7070BD00ED00E06475010053
:102BF4007E08020094080200C7080200DA080200F6
:102C0400F2080200080902002709020088090200EC
:102C140056090200F77C0100D209020010B5244CC9
:102C24002449254812F07BFEA36A99013ED5224827
:102C3400224912F074FE1E20A36ADA0104D51E484C
:102C44001F4912F06CFE1F20194CA36ADB0204D545
:102C540019481C4912F063FE0220A36A1C0304D520
:102C64001548194912F05BFE2120114CA36A59033F
:102C740004D51148154912F052FE2220A36A9A0382
:102C840004D50D48124912F04AFE2320084CA36AC9
:102C9400DB0304D508480F4912F041FE2420A36A3F
:102CA4006FEA03436FEA1343A36210BD1D20C3E719
:102CB40000ED00E0360A0200647501004E0A0200CD
:102CC400610A02007B0A0200A50A0200C30A02008C
:102CD400E80A0200020B020070B5294C06460D46B4
:102CE4002848294912F01BFEA36AD9043CD525487B
:102CF400264912F014FE1720A36A1A0504D52148A8
:102D0400234912F00CFE18201D4CA36A9B0512D512
:102D14001C48204912F003FEA36BA26A100409D5D3
:102D240001211D4A174812F047FD1EB1A36A23F47E
:102D34000043A3621920124CA36A590504D5114813
:102D4400164912F0ECFD1A20A36ADA050ED50D48D7
:102D5400134912F0E4FD1B20094A936A43F47F43AC
:102D6400936200232B7070BD1620C5E7A36A9B04F1
:102D7400F2D504480B4912F0D2FD1C20ECE700BF49
:102D840000ED00E0647501002D0B0200430B02000E
:102D9400C7080200540B02006D0B0200820B0200F4
:102DA4009D0B020027090200F0B58BB0794B044655
:102DB4005868002600AFC0F3080386F31188BFF3F8
:102DC4006F8F02F07F45B5F17F4F07D102F00C05FC
:102DD400082D12D17049714812F0A1FD70494FF4C9
:102DE4008B63704A704812F0D5FA704812F0D2FA28
:102DF4004FF48B616B4812F0C4FA15074CBF0C46B4
:102E04000126002CEAD06A4A14600022FA71DA1E04
:102E1400092A00F29D80DFE802F0059396769B9BD9
:102E24009B9B9B9963495D4812F079FD0023594DA2
:102E3400FB71EB6A9A0705D55F49584812F06FFD9C
:102E4400002329E0EB6A002B01DA5C49F5E7EB6A21
:102E54005B0068D55A49514812F061FD6B69A2695B
:102E640043F480736B61BFF34F8FBFF36F8F6B6954
:102E740032F8022C23F480736B61BFF34F8FBFF3DE
:102E84006F8F4DF602739A4227D1236801214D4A70
:102E9400424812F091FC2368FA79DAB907F108057F
:102EA40004F1200C2A4620686168083403C2644592
:102EB4001546F7D17A6A002E66D0C2F3080121B90B
:102EC4006FEA52226FEA42227A62184607F1080139
:102ED400FFF78CFD2C37BD46F0BDAB6ADBB22BB1DE
:102EE4000120F91DFFF716FE0346D5E7AB6A13F47C
:102EF4007F4F04D00120F91DFFF7EEFEF4E7AB6A23
:102F0400B3F5803F02D3FFF789FEEDE72E4940F287
:102F14002A33244A244812F03DFA2C4812F03AFA93
:102F240040F22A3166E7284940F22E331D4A1E48F2
:102F340012F030FA264812F02DFA40F22E3159E7F9
:102F44000020F91DCEE70020F91DD5E7214974E7DB
:102F5400214A6D4610F4F87F8AB0204918BF114603
:102F64006A46103BD3614FF400731D4813841D4B14
:102F7400C2E9050142F8103F00234FF411510748FC
:102F8400FFF7E6F8AD465BE722F4FF7222F0010298
:102F94009AE700BF00ED00E0E30B02006475010056
:102FA4000E0C020056090200F77C0100210C0200FD
:102FB400101600205F0C0200760C0200970C020031
:102FC400A50C0200C40C02003D5F0200E00C0200EC
:102FD400040D0200340D0200CA0B0200B50B0200FE
:102FE400580D020004000001064B5A6942F0100219
:102FF4005A615A6942F480625A615A6922F008029D
:103004005A61704700ED00E0EFF30880EFF30981A7
:1030140001B57246FFF7C8FE01BD00BF002080F372
:103024001488BFF36F8F002080F30A8880F30B8825
:1030340004F0EEFF002011490860BFF34F8F1048E1
:1030440080F3088800F032F8202080F311880D48BE
:103054004FF0AA014FF4006213F0D0FD09484FF479
:103064000061401880F30988EFF3148002210843BB
:1030740080F31488BFF36F8F00F01EF994ED00E025
:103084002891002098730020002318460649D1F89F
:103094009020C2F30722934200DB7047C1F89830B6
:1030A400C1F8A0000133F6E700ED00E010B572B6F8
:1030B400002484F31388FFF7E7FF23464FF0FF3023
:1030C4000C4A03F120010133102B42F82100F8D1FE
:1030D40000234FF0FF30074A03F160010133102B46
:1030E40042F82100F8D162B6BFF34F8FBFF36F8F60
:1030F40010BD00BF00E100E0084B9B6883420BD188
:10310400EFF3058343B1064B5A6842F080525A608C
:103114005A6A22F400425A620DF0C8BF1C260020ED
:1031240000ED00E06FF00A01084A9368D967084986
:1031340098674B6843F080534B60002383F31188F6
:10314400BFF36F8F9368D86F704700BF1C260020B1
:1031540000ED00E0EFF31183202383F31288BFF323
:103164006F8F4FF00061084A53699360074A5160BA
:10317400596F074A116000219A6F996782F3118889
:10318400BFF36F8F704700BF1C26002000ED00E0E6
:103194000C1600200E498A684FF030001044EFF3FB
:1031A400098C80E8F01F74467046FFF7D3FFA646EB
:1031B40007498A6802F1300090E8F01F8CF309880F
:1031C40002F1000004B512F0B2FBBDE80440704700
:1031D4001C2600201EF0040F0CBFEFF30880EFF351
:1031E4000980816911F8021C0229FFD001B512F08F
:1031F4008BFB01BD40B2002807DB01234109034AD0
:1032040000F01F00834042F82130704700E100E0E5
:1032140040B200280CDB01220649430900F01F00DC
:103224008240203341F82320BFF34F8FBFF36F8FC9
:10323400704700BF00E100E0054B420953F822202B
:10324400012300F01F0003FA00F01040704700BF94
:1032540000E100E038B54B1C072B04460D460FD99E
:103264005823104A1049114812F094F8294610487E
:103274000723224612F08EF858210A4812F081F8EA
:1032840040B20028ACBF00F160400A4A4FEA431341
:10329400DBB2ABBF00F5614000F00F0080F80033F3
:1032A400135438BD6B0D0200A20D0200F77C01001F
:1032B400BD0D020014ED00E00B4A08B50B4B22F0E3
:1032C4007F029A60BFF34F8FBFF36F8FD3F88820CC
:1032D40022F47002C3F888200BF042F90EF0C8F80B
:1032E40000F04CF80BF07CF90000000000ED00E069
:1032F40042F8203C009B0B4942F81C3C019B21F006
:10330400010142F8183C029B42F8081C42F8143CA4
:103314004FF0807342F8043C0023203A026583672F
:10332400704700BF690F000000B50D4B154698604B
:10333400426F0C4B0E461A60436E83F30B882C4687
:1033440086F309884FF00000074B984720464FF05A
:1033540000014FF000024FF00003044C204700BF6F
:103364001C2600200C1600203B590100690F0000A8
:103374001022014B1A61704700ED00E00023202168
:103384000348C2180133452B82F80013F9D1704762
:1033940000E100E008B5EFF30583064A103B02EBB9
:1033A400C30152F8330049688847BDE80840FFF775
:1033B4009DBB00BFEC72010037B50546144B18687D
:1033C4001B7900908DF8043005B3124C442200217F
:1033D400204613F0D1FE2B68052123606B686846F4
:1033E4006360AB68A360EB68E3602B6923616B697E
:1033F4006361AB69A361EB69E361074B1B682362FB
:1034040000F000FF4421204600F0FCFE03B030BD74
:103414000076010053310020101600201FB5094C1E
:10342400094A23460121094800F012F900230393B5
:10343400074B0121E41A01A80193029400F02CF92E
:1034440004B010BD0000072000000020C476010075
:10345400E005002010B50C7A0B6804F01F0223F07D
:103464001F031A43CB68640923F01F03054943EA89
:10347400440343F00103C1F89800C1F89C20C1F84B
:10348400A03010BD00ED00E010B50A4BD3F8903029
:10349400C3F30723013B984208D901210346064A96
:1034A400064812F089F96FF0150010BDFFF7D2FF3E
:1034B400FBE700BF00ED00E0010E02004C750100C7
:1034C4002DE9F04F8946144606464FF00008514D49
:1034D40085B0C84527DAD6F804A0BAF1000F44D065
:1034E400BAF11F0F17D91AF01F0F14D1D6F800B074
:1034F4001BF01F0F0FD1584612F05BFA07460AEB78
:103504000B00013812F055FA874210D06FF01507FE
:10351400414A3B4601E04346404A0121404812F0FB
:103524004BF96FF01504204605B0BDE8F08F17F194
:10353400160FEDD0BC42EBDDC5F89870D5F89C10A1
:10354400C5F89870D5F8A03021F01F0143F01F0B87
:10355400D6E900321A44994202F1FF3A1DD1D3450B
:1035640007D13146F8B212F02DFA08F101080C36F1
:10357400AFE73146C5F89870D5F89C3022F01F02A9
:1035840003F01F031343C5F89C30E0B212F01AFA9B
:1035940010F1160FC5D0441CE7E7C5F89870D5F8AC
:1035A400A020013B23F01F0302F01F021343D34565
:1035B4003146E0B2C5F8A030E8D012F003FA10F1B9
:1035C400160FAED0C5F89870D5F89C209DF8083039
:1035D4000BF1FF3B62F304038DF80830D5F8A030FB
:1035E4009DF808205B0863F347128DF80820D6E99C
:1035F40000321344009323F01F035B44A3EB0A033C
:10360400013023F01F036946C0B20393FFF73CFF68
:10361400BEE700BF00ED00E04A0E0200270E0200E4
:103624004C7501000522044BC3F89420BFF34F8F5F
:10363400BFF36F8F704700BF00ED00E0BFF35F8FF3
:103644000022024BC3F89420704700BF00ED00E055
:1036540038B50C4D0C462A78FFF732FF2870163027
:103664000FD14FF4B473084A0849094811F092FE87
:103674002146084811F08EFE4FF4B471024811F04F
:1036840080FE38BD973100206D0E02003D5F0200C0
:10369400F77C01009C0E02002DE9F74F314E89465C
:1036A40005464FF00008B3462F4FC84502DB03B070
:1036B400BDE8F08FD5F804A0BAF1000F4CD029680A
:1036C4000846019112F075F9019904460AEB0100CC
:1036D400013812F06EF984424FF01402234B15D0D6
:1036E40002FB08F36FF015024BF803204FF4BC7390
:1036F4001F4A2049204811F04DFE49461F4811F049
:1037040049FE4FF4BC711A4811F03BFE14F1160F38
:103714003460EBD01978A142E8DD02FB08B0C7F8A9
:103724009840C7F89840D7F89C4000F10801007B06
:1037340064F304000871D7F8A0000C79400860F322
:1037440047140C71D7F89C1021F01F017160D7F851
:10375400A01021F01F01316108F1010814360C3565
:10376400A3E700BF1416002000ED00E0973100200D
:103774006D0E02003D5F0200F77C0100C80E0200DE
:103784002DE9F041574C584ED4F890303568C3F3C6
:1037940007239D4286B013D940F29F13534A5449DC
:1037A400544811F0F7FDD4F8902029465248C2F34A
:1037B400072211F0EFFD40F29F114C4811F0E1FD9A
:1037C4000020FFF73BFF4D4BC4F8C03085421AD1AF
:1037D4004B4C01A82570FEF7A9FF002506464FF0C3
:1037E4004108484FAE4215D1002023783D49D1F815
:1037F4009020C2F3072293426DDB0020FFF712FFF3
:1038040006B0BDE8F081716801EB0011FFF722FEFC
:103814000130DBE7019A290102EB0513D3F80CC050
:103824000CEA0700B0F5001F27D0B0F5800F40D098
:10383400B0F5801F4DD1586852589B68CDE90202FB
:103844002122013B20F01F010B4423F01F038DF8BC
:1038540010200593207802A9FFF716FE002835DA18
:10386400234940F2C913214A224811F093FD264806
:1038740011F090FD40F2C9119FE758689B685258B7
:10388400013B20F01F010B4423F01F031CF0010F28
:10389400CDE902028DF810800593DBD01B496D231E
:1038A400124A144811F076FD194811F073FD6D2188
:1038B40083E758689B685258013B20F01F010B4472
:1038C400CDE9020223F01F030622C0E72378013367
:1038D4002370013586E7C1F89830C1F8A0000133A0
:1038E40085E700BF00ED00E0D07601006D0E020018
:1038F4003D5F0200F77C0100F70E0200AAFF4400BE
:10390400973100200000F0FF800F02002B0F02000F
:10391400510F020008B5024B1B689847002008BDF0
:1039240028160020034B044A1860937843F00203DE
:10393400937070472816002030000020F0B587B03F
:1039440007460E4614460021102268461D4613F011
:1039540013FC02238DF80230054B2A4621466846A3
:10396400CDE90476019311F053F807B0F0BD00BF20
:10397400FB59010008B50649064821F00701C1F1C9
:10398400005202F5E022FCF7F9FF002008BD00BF59
:103994001F0101202C160020827A3420074B00FBE3
:1039A4000233DB6A586811F8043C013BDBB201F8CE
:1039B400043C13B904390AF04BBF7047F0040020EB
:1039C40038B53425847A0748096805FB0400C06AC1
:1039D4000431406813F01FF910B1012300F8043BCF
:1039E40038BD00BFF004002070B541690446867AF2
:1039F4000A4D59B1437ADB0706D4342303FB06533B
:103A0400DB6A1B689B689847002363613420214666
:103A140006FB0050BDE8704013F04BB9F0040020E1
:103A240008B5437A4BB10C495A230C4A0C4811F09F
:103A3400B1FC5A21094811F0A4FC43683BB109497F
:103A44005B23064A064811F0A5FC5B21F2E70382DA
:103A54004369C36008BD00BFDE0F0200B90F020056
:103A6400F77C0100EF0F02002DE9F04F054685B009
:103A7400684614469946039113F006FADDE9006797
:103A840045B96549EE23654A654811F083FCEE218A
:103A9400624818E005F11C08EFF3118A202383F330
:103AA4001288BFF36F8F40460DF0B6FC68B98823C7
:103AB4005C4A5D495A4811F06DFC41465B4811F07F
:103AC40069FC8821574811F05CFC40460DF0C8FCA5
:103AD400B5F822B0BBF1000F5CD02B8C5B4539D913
:103AE4000022002328460BF0CFFB0446002831D0E7
:103AF40040460DF09FFC68B940F23113494A4C49E5
:103B0400474811F047FC41464A4811F043FC40F253
:103B14003111D7E78AF31188BFF36F8F039D002D0E
:103B24006AD032463B46684613F0D2F93421A27A71
:103B3400414B204601FB0233DB6A03A91B681E6864
:103B4400DDE90023B0476061002845D12046FFF736
:103B54004BFF3CE06C8C4046631E6B840DF06AFCAA
:103B64000028C9D08AF31188BFF36F8F95F82430E9
:103B74002A8C1B33121B2C6B23F0030302FB03441C
:103B84002D4B2E4AEB1A9B105343A37295F8243005
:103B9400E372C3E740460DF04DFC0028ACD08AF335
:103BA4001188BFF36F8F54EA090308D013F0F4FAB5
:103BB400234A244B12589A4204BF5C46A14622462B
:103BC4004B4628460BF060FB04460028A6D100248F
:103BD400204605B0BDE8F08F039B9D420DD91A49DC
:103BE40040F24B130D4A0E4811F0D4FB174811F064
:103BF400D1FB40F24B114BE7656101230021238186
:103C0400039BE27A6160638204F1180013F0B4FA52
:103C14002046FFF705FFDBE709100200B90F020099
:103C2400F77C0100308201005D8201007282010094
:103C3400888201009F820100F0040020C54EECC47C
:103C440008000000480F00200E100200147D01003F
:103C540070B5044698B13426104D2046037A646842
:103C6400013BDBB203724BB9C3604360837A06FB4A
:103C740003539B6A7BB19847002CEED170BD084971
:103C840008484FF4E673084A11F084FB4FF4E671D8
:103C9400054811F076FBFFF7A7FEEDE7F0040020DE
:103CA40023100200F77C0100B90F020008B5034697
:103CB40058B90849084840F24123084A11F06AFB00
:103CC40040F24121054811F05CFB18465B68002B6B
:103CD400FBD108BD23100200F77C0100B90F0200DC
:103CE40008B5828803468A420BD20949094840F242
:103CF400C313094A11F04EFB40F2C311064811F0F8
:103D040040FB521A828000680844186008BD00BF56
:103D140062100200F77C010027100200F8B58588C4
:103D240003680E4604465F1911F077FEB04209D2CB
:103D3400064907483E23074A11F02CFB3E2105485B
:103D440011F01FFB3544A5803846F8BD72100200FF
:103D5400F77C01002710020008B543090DD0012BA0
:103D64001CD0134913484FF46C73134A11F012FB1F
:103D74004FF46C71104811F004FB4FF0FF33C34053
:103D8400DA07EED50D4B03EB8003D3F8002222F0C3
:103D9400E04242EA0171C3F8001208BD4FF6FF7316
:103DA40000F01F00C340DB07DBD5054BEBE700BF8A
:103DB400D8100200F77C0100A510020000258450F1
:103DC4000028845038B50124134B144DC3F8004522
:103DD40002230321C5F8D0360020FFF7BDFF20469B
:103DE4000321FFF7B9FFC5F804472146C5F8044984
:103DF4002120C5F8004BFFF7AFFF21462020FFF735
:103E0400ABFF21462520FFF7A7FF21462420FFF71B
:103E1400A3FF002038BD00BF001000500040005038
:103E240007B50DF1070004F079FA114B98421CD143
:103E34004FF480620F4B1049C3F8B8254FF4006269
:103E4400C3F83C259DF8070004F024FA0B499DF8BB
:103E5400070004F007FA01209DF80730984004F0A9
:103E6400F5F9002003B05DF804FB6FF00B00F9E7EF
:103E74000000AD0B00A002502CA0025028A102505B
:103E8400052370B5144D154E2C780134B4FBF3F3AF
:103E940003EB8303E41A12F024F8114A137823B1D4
:103EA40056F82430C01A072814D94FF05023D3F8F9
:103EB400141141B10021C3F81411D3F814312C703A
:103EC4000CB9012313702C7812F00BF846F8240077
:103ED400012070BD0020FCE7993100203816002035
:103EE4009831002048B1054B054A1B68B3FBF2F337
:103EF4005843044B43F0010318477047C0000020A7
:103F040040420F00107601000149024811F09BBBAA
:103F1400047701004C1600204FF47F032DE9F04193
:103F2400D3F830210646072A0D46D3F8343120D180
:103F3400023B032B02D8124AD35CD3B14FF0502476
:103F44004FF0010800270520C4F81886C4F8147639
:103F540012F04EF84046C4F8148612F049F8C4F83A
:103F64001476C4F8187630462B46BDE8F04100219B
:103F740018474FF050230022C3F81426F3E700BF7C
:103F8400FF1002000F2AF8B50446154608461F46DE
:103F94000BD90F490F4840F2F3130F4A11F0FAF905
:103FA40040F2F3110C4811F0ECF902F0D7FC0B4E7F
:103FB400AD0001462E4420462FB144F0004404F0E5
:103FC40069F93460F8BD04F093F93760FAE700BF8B
:103FD40035110200F77C01000311020080A1025098
:103FE4007FB5284B01A90293002302A88DF80C3059
:103FF40004F09AFB244B984241D102F08BFE041E3C
:104004000BDA9DF8041002A804F096FB0121234664
:104014001E4A1F4811F0D0FB2EE040F607031D4D49
:104024008DF80540AE68ADF806307468019B14B98C
:104034006FF05704EAE708212846174AA047041EF0
:10404400E4DB3369002BF3D001220821284698478A
:10405400041EDBDB01259DF8040005FA00F004F0E2
:10406400F5F82B469DF807209DF805109DF80400EF
:10407400FFF788FF002CC9D1204604B070BD6FF053
:104084001204C3E7007001500000AD0B40110200A0
:104094007C750100C47201003D41000073B5069EA9
:1040A400C6F30744F5B2C6F30726304602F03CFCDB
:1040B4000F2C01460BD91849184840F2ED13184A41
:1040C40011F068F940F2ED11154811F05AF928463B
:1040D40004F0F8F800220120124BA400E4B21A51B3
:1040E400114BA84000938DF8042004F0B5F8304635
:1040F40002F02EFE2946684604F01EFB0B4B984244
:1041040008D00B49054876230A4A11F043F9762171
:104114000848DAE702B070BD35110200F77C0100EF
:104124000311020080A00250007001500000AD0B8A
:1041340097110200681102002DE9F74314468368C1
:104144001B694BB922492348CA23234A11F022F997
:10415400CA21214811F015F9002298470646002883
:10416400F0D1C4F30728404602F012FC5FFA84F948
:1041740041463346220E07464846FFF703FF4046B2
:1041840002F0D2FBC4F307450F2D01460AD91349A7
:10419400104840F2ED13124A11F0FCF840F2ED1110
:1041A4000F48D7E70F4BAD0049F00042EDB25A512A
:1041B400484604F057F80C4B07F13202009340468E
:1041C40033460194520002F0B3FC03B0BDE8F0831F
:1041D40027820100F77C01006811020035110200FA
:1041E4000311020080A00250A1400000014B1B6893
:1041F400184700BF40000020014B5B68184700BF10
:104204004000002018B111B1014B9B68184770475A
:104214004000002030B5044685B0C0B1884216D2B3
:104224004D238DF8043001238DF8053000238DF8DB
:104234000630084B0D1ACDF80700CDF80B1001A875
:104244000B219B68984729462046FFF7DBFF05B002
:1042540030BD00BF400000207FB50D460646144621
:10426400FFF7C4FF44F25A53ADF804300223ADF80B
:1042740006304FF4A0230396029311F098FB0D4BE4
:10428400ADF808000C219B6801A8984715B1284691
:10429400FFF792F84CB1204604F18001FFF7BAFF12
:1042A400D4E919010144FFF7B5FF04B0BDE870403B
:1042B400FFF7A2BF4000002010B9034B18687047F5
:1042C4006FF08500704700BF6C16002010B9034BD7
:1042D400186070476FF08500704700BF6C160020AF
:1042E4002DE9F0470E46044600AF00B121B96FF046
:1042F40015020026204B1A60DFF88080DFF88090DA
:104304006EB10025207808EB0501000911F04BF986
:104314000028A24606DA6FF01502174B1A60BD4654
:10432400BDE8F0879AF80000691C58FA81F100F0A2
:104334000F0011F038F9002804F10104EBDB023519
:10434400EDB2402D06F1FF3601D0002EDAD1002364
:1043540008F805306D4688B06A464FF400719183C1
:104364000849C2E9059842F8101F4FF4E251064883
:10437400FDF7EEFEAD46C3E76C1600209A3100202F
:10438400B41102000300000124750100002208B5E5
:10439400074B1A60FDF7FEFC0028FBD1FDF76CFD0E
:1043A400BDE808400121034A034811F0FCB900BFED
:1043B4006C160020BB1102002475010008B5074BE0
:1043C4001B6823B10121064A064811F0ECF9BDE847
:1043D40008400121044A034811F0E5B96C16002095
:1043E400C611020024750100DD11020010B570B978
:1043F400134940F2B233134A134810F0CBFF134869
:1044040010F0C8FF40F2B2310E4810F0BAFF036852
:1044140063B90F4940F2B3330A4A0B4810F0BAFFAC
:104424000A4810F0B7FF40F2B331EDE71B689B6810
:1044340023B15B6813B1BDE810401847002010BDDC
:10444400F17C0100C27C0100F77C0100147D0100B5
:10445400177D010008B570B90F4940F2A3330F4A24
:104464000F4810F097FF0F4810F094FF40F2A3316B
:104474000A4810F086FF036863B90B494FF4697367
:10448400064A074810F086FF064810F083FF4FF4F1
:104494006971EDE7986808BDF17C0100C27C0100F8
:1044A400F77C0100147D0100177D010008B570B987
:1044B4000F4940F2B2330F4A0F4810F06BFF0F4818
:1044C40010F068FF40F2B2310A4810F05AFF036856
:1044D40063B90B4940F2B333064A074810F05AFF58
:1044E400064810F057FF40F2B331EDE7186808BDF5
:1044F400F17C0100C27C0100F77C0100147D010005
:10450400177D0100F8B50C460646FFF7A3FFA76820
:10451400F96809B90220F8BD3B8A0D2BFAD94DF68A
:1045240086528D896BBA954298B224D048F2DD62E6
:1045340090420CD8082D02D0B5F5C16FEAD1012004
:1045440094F8332060F3061284F8332003E048F62D
:1045540088629542DED18A1D226240F20632A1624F
:10456400A284A28523860B78FF2B08D0332B15D188
:104574004B78332B11E0022094F83320E2E74B7898
:10458400FF2B0BD18B78FF2B08D1CB78FF2B05D1D8
:104594000B79FF2B02D14B79FF2B26D076B9294911
:1045A4004FF48763284A294810F0F4FE284810F095
:1045B400F1FE4FF48761244810F0E3FE336863B9D9
:1045C400244940F23943204A204810F0E3FE2048B1
:1045D40010F0E0FE40F23941EDE71A7D062A99D148
:1045E400186912F020FD002894D10E2107F10C0067
:1045F400FFF776FBA26813462BB948F688639D4201
:1046040003D1012087E75B68F6E794F83330D1687B
:10461400C3F30213012B10D14B885BBA9BB22D2B31
:10462400EFD8118A8B4298BF138252688ABF5B1AF3
:1046340000239BB2002AF4D1E3E78B885BBA2833CA
:10464400ECE700BFF17C0100C27C0100F77C0100B3
:10465400147D0100177D0100F8B506460C46FFF7EE
:1046640025FF87683046FFF7F5FE002F6FD0FB6902
:10467400002B6FD094F83330C3F30213022B69D1AB
:10468400A36A23B9354BA362062384F82C3040F681
:10469400CD4200230E21204600F096FF0546002857
:1046A40041D094F83320C368C2F30212022A34D1F1
:1046B400A268D268127EFF2A2FD1294A12881A8052
:1046C400A268D268526AC3F80220226A05F10C007B
:1046D4001168C3F8061092880E215A816FF079028E
:1046E4001A736FF022025A73FFF718FB294620460B
:1046F40011F0E5FA204611F0ECFA3046FD69FFF7B7
:10470400D5FE2146A847054688B1A0684368A36042
:104714000023436011F0AFFA07E0A26A1168196040
:1047240092889A80D1E76FF00B052846F8BDA068FF
:10473400034643B94268A260436011F09CFA2046E4
:1047440011F09DFAF1E71A8A5B681544F1E76FF0FE
:104754000105EAE76FF08505E7E700BFEF11020006
:10476400F511020038B50546FFF774FE012304462F
:1047740003764561084904300BF098F8284611F097
:1047840079F9430542BF237E43F004032376637E15
:1047940043F00203637638BD915A010008B570B93D
:1047A4000F4940F2B2330F4A0F4810F0F3FD0F489F
:1047B40010F0F0FD40F2B2310A4810F0E2FD036857
:1047C40063B90B4940F2B333064A074810F0E2FDDF
:1047D400064810F0DFFD40F2B331EDE7186808BD7C
:1047E400F17C0100C27C0100F77C0100147D010012
:1047F400177D010008B570B9124940F24733124AD7
:10480400124810F0C7FD124810F0C4FD40F24731C1
:104814000D4810F0B6FD036863B90E494FF45273A6
:10482400094A0A4810F0B6FD094810F0B3FD4FF4E8
:104834005271EDE70C33D3E8AF0F084100F00100EB
:1048440008BD00BFF17C0100C27C0100F77C0100BF
:10485400147D0100177D010010B5044670B90D499F
:1048640040F608330C4A0D4810F094FD0C4810F043
:1048740091FD40F60831084810F083FD0021FFF750
:10488400B9FF18B108212046FFF7B4FF00F001007A
:1048940010BD00BFF17C0100C27C0100F77C010067
:1048A400147D01002DE9F04380468DB008460E4684
:1048B40014469946FFF772FF8768054630220021A7
:1048C400684612F059FC002F00F018813B6923B9A7
:1048D4006FF085000DB0BDE8F083002C00F08580FA
:1048E400B9F1300F40F08180864B4344122B7CD8C1
:1048F400DFE813F0130025004B00560064007E002F
:10490400A400B700CC007B007B007B007B007B0015
:104914007B00D900E9007B00F6000821284611F04D
:10492400EAF80028D4D0237800248DF800303046EB
:104934003D69FFF733FF6A462146A847CAE7237853
:1049440053B11021284611F0D6F80028C0D0012315
:104954008DF800300124EAE763784BB12021284622
:1049640011F0C9F80028B3D001238DF80130F1E724
:10497400A378002B39D04021284611F0BCF8002838
:10498400A6D001238DF80230E4E78021284611F0F7
:10499400B2F800289CD0237802248DF80030C6E7B2
:1049A4003046FFF759FF10B16FF00C0092E7206812
:1049B400A38800900324ADF80430B8E74FF40071E5
:1049C400284611F098F8002882D0237953B1023B8D
:1049D400012B0AD96B462068616803C3A0680424CC
:1049E4001860A4E7A368642BF4D96FF0150071E78D
:1049F4004FF40031284611F07EF800283FF468AFE8
:104A04006379012BF1D02379032B0AD13E4B226A1F
:104A14009A42EAD8D4E904128B424FF0000393413E
:104A2400E3D36A4604F1300513462068616808340C
:104A340003C3AC421A46F7D1052478E74FF480212A
:104A4400284611F058F800283FF442AF2379042B8C
:104A5400CBD06B462068616803C3A0680624186045
:104A640065E74FF40021284611F045F800283FF48B
:104A74002FAF3046FFF7F0FE002895D16B46206833
:104A8400616803C3A0680724186050E74FF480618D
:104A9400284611F030F800283FF41AAF2378082490
:104AA4008DF8003043E73046FFF7D6FE00287FF448
:104AB4007BAF2068A288A37900900C24ADF8042071
:104AC4008DF8063033E74FF48011284611F013F8BF
:104AD40000283FF4FDAE23780D248DF8003026E73E
:104AE4004FF48051284611F006F800283FF4F0AE48
:104AF4006B46206861680A2403C318E76FF001005D
:104B0400E8E600BFFFFFF7ADFFC99A3B002301466B
:104B14001A46014800F0A2BE010008D20023014653
:104B24001A46014800F09ABE020008D208B570B9CE
:104B34000F4940F2B2330F4A0F4810F02BFC0F48D4
:104B440010F028FC40F2B2310A4810F01AFC036855
:104B540063B90B4940F2B333064A074810F01AFC14
:104B6400064810F017FC40F2B331EDE7186808BDB1
:104B7400F17C0100C27C0100F77C0100147D01007E
:104B8400177D01000B4613B5014638B142B90193B4
:104B9400042307480DEB030200F060FE02B010BDD1
:104BA4002D23044802B0BDE8104000F057BE00BFFA
:104BB400020056D1010056D10A289ABF024B53F87D
:104BC40020000248704700BF10770100FB1102006B
:104BD40070B508460C461646FFF7A8FF0546204662
:104BE40010F097FF38B103682BB131462846BDE871
:104BF4007040024A18476FF0850070BD894B000071
:104C040008B570B90F494FF487630F4A0F4810F085
:104C1400C1FB0F4810F0BEFB4FF487610A4810F047
:104C2400B0FB006860B90B4940F23943064A0748B3
:104C340010F0B0FB064810F0ADFB40F23941EDE74F
:104C4400103008BDF17C0100C27C0100F77C01003A
:104C5400147D0100177D010008B570B90F4940F2B9
:104C6400B2330F4A0F4810F095FB0F4810F092FB37
:104C740040F2B2310A4810F084FB036863B90B496F
:104C840040F2B333064A074810F084FB064810F09C
:104C940081FB40F2B331EDE7186808BDF17C0100F7
:104CA400C27C0100F77C0100147D0100177D010026
:104CB40008B570B9124940F24733124A124810F04D
:104CC40069FB124810F066FB40F247310D4810F0C2
:104CD40058FB036863B90E494FF45273094A0A48F2
:104CE40010F058FB094810F055FB4FF45271EDE7F2
:104CF4000C33D3E8AF0F084100F0010008BD00BF3A
:104D0400F17C0100C27C0100F77C0100147D0100EC
:104D1400177D010008B570B9144940F20533144AEF
:104D2400144810F037FB144810F034FB40F20531FE
:104D34000F4810F026FB036863B9104940F20633AC
:104D44000B4A0C4810F026FB0B4810F023FB40F2F2
:104D54000631EDE701220C3302FA01F1D3E8EF0F3B
:104D64000843C3E8E20F002AF8D108BDF17C010032
:104D7400C27C0100F77C0100147D0100177D010055
:104D840008B570B9154940F22533154A154810F095
:104D940001FB154810F0FEFA40F22531104810F0DE
:104DA400F0FA036863B9114940F226330C4A0D48FE
:104DB40010F0F0FA0C4810F0EDFA40F22631EDE76D
:104DC400012202FA01F1C9430C33D3E8EF0F084082
:104DD400C3E8E20F002AF8D108BD00BFF17C01004E
:104DE400C27C0100F77C0100147D0100177D0100E5
:104DF40010B570B90B4940F2D5230B4A0B4810F09B
:104E0400C9FA0B4810F0C6FA40F2D521064810F052
:104E1400B8FA4FF0FF32BDE810404FF0FF331830BE
:104E240010F0A5BEF17C0100C27C0100F77C0100FA
:104E3400147D010008B570B909494FF43773094A64
:104E4400094810F0A7FA094810F0A4FA4FF4377192
:104E5400044810F096FA1830BDE8084010F089BEF6
:104E6400F17C0100C27C0100F77C0100147D01008B
:104E740010B570B9174940F21633174A174810F0A5
:104E840089FA174810F086FA40F21631124810F0E9
:104E940078FA036863B9134940F217330E4A0F488E
:104EA40010F078FA0E4810F075FA40F21731EDE779
:104EB40001220C3302FA01F1D3E8EF2F42EA010098
:104EC400C3E8E40F002CF7D1114214BF01200020E5
:104ED40010BD00BFF17C0100C27C0100F77C010021
:104EE400147D0100177D010038B570B9174940F2EF
:104EF4003633174A174810F04DFA174810F04AFA9B
:104F040040F23631124810F03CFA036863B9134991
:104F140040F237330E4A0F4810F03CFA0E4810F0B6
:104F240039FA40F23731EDE7012202FA01F1C843C0
:104F34000C33D3E8EF2F02EA0004C3E8E54F002D59
:104F4400F7D1114214BF0120002038BDF17C0100CB
:104F5400C27C0100F77C0100147D0100177D010073
:104F640038B50368002104469D7FFFF7A1FE88B988
:104F74000220236823BB324940F25D33314A324870
:104F840010F008FA314810F005FA40F25D312D486E
:104F940010F0F7F92046FFF75FFE11F004FE68B148
:104FA40009212046FFF784FE0028E1D00A2120468B
:104FB400FFF77EFEC0F10600C0B2DAE70320D8E7AF
:104FC400987723689B7F984238D106282BD1062DE9
:104FD40034D0204610F0B6FD90B92046FFF710FEFD
:104FE40003686BB91A4941F295431A4A164810F0FE
:104FF400D1F9164810F0CEF941F295411548C7E7AA
:1050040008212046FFF786FE002321461A4612484F
:1050140000F024FC204610F095FD78B92046BDE848
:10502400384010F097BD062D08D108212046FFF71F
:10503400A7FE002321461A460848E9E738BD00BF09
:10504400177D0100C27C0100F77C0100147D010082
:10505400EC140200C2140200020001D0010001D0CD
:10506400054B064A934205D0054A1068002808BF3C
:105074001846704700207047580500209C05002002
:105084007C16002038B50546FFF7B2FE00212846FD
:10509400FFF70EFE002837D1284610F04EFD0446D7
:1050A40000B38468F4B12846FFF7D6FD70B91949F6
:1050B40041F23F53184A194810F06CF9184810F09F
:1050C40069F941F23F51144810F05BF911F06BFD9E
:1050D400E8B1284610F031FD01218368284698473D
:1050E400041E0CDB00212846FFF714FE00230D48A4
:1050F4001A46294600F0B2FB2846FFF731FF28463E
:10510400FFF798FE204638BD6FF07704F7E76FF09D
:105114000504F4E7791C0200C2140200F77C0100C4
:10512400147D0100040001D038B50546FFF760FE88
:1051340000212846FFF7BCFDE8B1284610F0FDFC2D
:10514400044630B1846824B100212846A047041ED7
:105154000CDB00212846FFF713FE002307481A46FC
:10516400294600F07BFB2846FFF7FAFE2846FFF7A6
:1051740061FE204638BD6FF07704F7E7030001D0E5
:1051840010B5044670B90F4941F289530E4A0F48CD
:1051940010F000F90E4810F0FDF841F289510A4868
:1051A40010F0EFF8FFF724FE09212046FFF760FE18
:1051B40010B92046FFF7D4FE2046BDE81040FFF7A3
:1051C40039BE00BFF17C0100C2140200F77C01006B
:1051D400147D010010B5044670B90F4941F296538D
:1051E4000E4A0F4810F0D6F80E4810F0D3F841F2EA
:1051F40096510A4810F0C5F8FFF7FAFD0921204638
:10520400FFF772FE10B12046FFF7AAFE2046BDE864
:105214001040FFF70FBE00BFF17C0100C214020072
:10522400F77C0100147D010010B5044670B90F49E4
:1052340041F2A3530E4A0F4810F0ACF80E4810F098
:10524400A9F841F2A3510A4810F09BF8FFF7D0FDEA
:105254000A212046FFF70CFE10B92046FFF780FE16
:105264002046BDE81040FFF7E5BD00BFF17C01001A
:10527400C2140200F77C0100147D010008B5024647
:1052840010F060FC0346104653B1FFF7E5FC836859
:10529400986820B18047032814BF0020012008BD6E
:1052A40010F04BFC1349814222D172B9124940F2E9
:1052B400A333124A124810F06DF8124810F06AF83D
:1052C40040F2A3310D4810F05CF8136863B90E493D
:1052D4004FF46973094A0A4810F05CF8094810F061
:1052E40059F84FF46971EDE79B68987E0128D3E77C
:1052F4001846D4E7BC050020F17C0100C27C010003
:10530400F77C0100147D0100177D01002DE9F843AD
:105314000C46054688B381B30846FAF733FF0F28D5
:1053240006462DD8194FDFF8688000F1010947457A
:1053340019D9184941F2E463174A184810F02AF8B9
:10534400174810F027F841F2E461134810F019F8F7
:10535400AF4206D04A46214607F1080011F063FE29
:1053640088B14437E3E7F3D32146721C05F1080002
:1053740011F0DBFE0020BDE8F8836FF01500FAE7BA
:105384006FF05A00F7E76FF07700F4E75805002054
:105394009C05002037150200C2140200F77C0100AE
:1053A400068401002DE9FF47414C4FF0FF324FF0D6
:1053B400FF33404810F0DBFB0026A0463E4DDFF8EB
:1053C400FC903F4FAC4257D93E4941F24D733E4A9F
:1053D4003E480FF0DFFF3E480FF0DCFF41F24D7115
:1053E40039480FF0CEFF1022002104F1080011F01B
:1053F400C3FE2046FFF730FCD0F808A0BAF1000F36
:1054040014D0DAF800308BB104F1180011F03EFC2E
:1054140004F12C0011F03AFCDAF8003020469847E9
:1054240094F8403023F0030384F84030237A83B99E
:105434002046FFF723FF78B1264A1368591C1160F0
:10544400254A102168460FF041FA69462046FFF7C5
:105454005DFF01364434B5E7204610F06EFB81450C
:1054640005D11E4A1368591C11601D4AE9E73B68BF
:105474005A1C3A601B4AE4E7B5D39EB14423A5EB1A
:105484000805B5FBF3F5AE420CD0174941F26D7334
:105494000D4A0E480FF07EFF14480FF07BFF41F2D7
:1054A4006D719DE7034804B0BDE8F04710F061BB9F
:1054B40058050020140400209C050020BC05002091
:1054C400701600201D150200C2140200F77C0100B2
:1054D4000684010078160020571502007416002077
:1054E4005E150200641502006A150200147D0100B5
:1054F40038B50F4C0F4DAC4218D90F4941F28573A2
:105504000E4A0F480FF046FF0E480FF043FF41F2DA
:1055140085710A480FF035FF03212046FFF7C8FBC9
:1055240010B92046FFF7AEFD4434E4E7F4D338BDA8
:10553400580500209C0500201D150200C21402001D
:10554400F77C0100068401002DE9F041154606466A
:1055540010B30229DCB202D0082918BF062114B9FD
:105564000020BDE8F08128464FF03A08771801235F
:1055740016F8011B412210F022FB033CBE420346F5
:10558400E4B200F8018B01D0002CF0D18542E7D0C1
:10559400002228461A70E4E70048E2E79C1502005E
:1055A4004FF0FF320121014811F08DBB801600201D
:1055B4000146014810F04CBBF004002001460148AC
:1055C40010F046BB2405002010B404460846646865
:1055D40004498C4202D110BCFFF7EABF10BCFFF7AC
:1055E400EDBF00BF980300202DE9F0474F4F504D09
:1055F40098B003AE002200233146384609F08EFBF2
:1056040010B118B0BDE8F0874FF0FF324FF0FF3310
:10561400484809F03FFC484CDFF820914C4529D913
:105624004749FC23474A48480FF0B4FE47480FF067
:10563400B1FEFC2143480FF0A4FE1698236880EACB
:10564400030280EA0301C2F30172C1F30A410A436F
:105654000ED182B222B19AB212B103409BB23BB1D5
:10566400A368324600931799159BD4F804C0E04709
:105674000C34D3E7E1D32C682CB14FF0000AD046A8
:10568400D4F800902CB92B4810F02AFB0BF070FBD7
:10569400AFE7169B226983EA020183EA0200C1F3A1
:1056A4000171C0F30A40014325D199B221B191B2ED
:1056B40011B113409BB2F3B1159B23B3A660159BA4
:1056C4001201E360636828D5996911B1179A914270
:1056D40011D1169A2261179A9A612268BAF1000FC1
:1056E40013D16B682A609C4200D16A606068C4F878
:1056F400008009F035FEB9F1000F14D0D9F800305C
:105704004C469946BEE7A360DAE7CAF800206B6806
:105714009C4208BFC5F804A0E8E72046DDE916125C
:105724009847A246E7E74B46EAE700BF8C0400200F
:10573400EC160020280400201475010014750100E3
:10574400D2150200A6150200F77C010006840100B0
:1057540000210C4B1A6802B9704782420FD10268CB
:1057640039B959681A60884200D15A60002303602D
:1057740070470A605A68904208BF5960F6E71146BC
:105784001268E8E7EC16002000231A46194910B500
:1057940019481A4C0B60A04213D903B10A60184986
:1057A400A323184A18480FF0F5FD18480FF0F2FD2E
:1057B400A32114480FF0E5FD50F80C3B1A430123D4
:1057C400E9E7F9D303B10A60114B1B6833B11A68D6
:1057D4000024086823B904B1086010BD1A46F7E72D
:1057E4001B69184322B11468134622460124F1E7C9
:1057F4001446F9E7F416002014750100147501002D
:10580400D2150200A6150200F77C010006840100EF
:10581400EC16002010B504464FF0FF324FF0FF3372
:105824000B4809F037FB2046FFF792FF094B1A6833
:1058340022605A681C6002B95C60074A23691168D7
:1058440003480B431360BDE8104010F049BA00BF91
:1058540028040020EC160020F41600202DE9F04165
:105864001E46234B17461B68040F020C24EA1374CC
:1058740022EA134204F00304C2F30A0220EA0303F7
:1058840014439BB21C43054688462ED14FF0FF3289
:105894004FF0FF33174809F0FDFA174B542218460E
:1058A400214611F069FC034647B13EB1482E17D892
:1058B4003246394611F039FC03468664C3E913586D
:1058C4000D494FF4203200230C4809F06FF90948C0
:1058D40010F006FABDE8F04109490A4811F057BA38
:1058E4000448BDE8F04110F0FBB9BDE8F08100BF09
:1058F400F41600203C040020981600208C0400209C
:1059040054000020A00A00201FB5FFF73DFF00232C
:10591400094C0393094B204602930AF0C5F802ABE5
:1059240000934FF400624FF0FF33204604490AF01D
:10593400D5F804B010BD00BFA00A00200016020074
:10594400985B002037B540230C460A490093411A5E
:10595400491105462346084A084810F0C3F9011EB8
:1059640005DA2846234603B0BDE83040184703B0A3
:1059740030BD00BF0C170020555D010060720100AE
:10598400C9B2032908B509D909490A487A230A4A38
:105994000FF000FD7A2108480FF0F3FC0C22036994
:1059A40001FB0233D3F8880000F0070008BD00BFF4
:1059B40046160200F77C01000916020070B5C9B250
:1059C400032903690BD91949194840F25D13194A8F
:1059D4000FF0E0FC40F25D1116480FF0D2FCEFF33B
:1059E4001185202484F31288BFF36F8F0C2606FBE5
:1059F4000134D4F8884014F0C00408D0A24206D080
:105A040085F31188BFF36F8F4FF0FF3070BD012213
:105A140071430B44C3F8882085F31188BFF36F8F5B
:105A240043680B445B6898470020EFE74616020082
:105A3400F77C01000916020070B50D4606490446BC
:105A4400411A491140220548FFF7B8FF2B46014689
:105A54002046BDE8704018470C1700206072010012
:105A64002DE9F8430022012106460520FDF7F2FB4B
:105A7400114802F021FD114B984219D102F02CFD7E
:105A840000244FF00C080127DFF8349035694946AB
:105A940005EB44100FF0D7FD002807DB08FB045585
:105AA4000134042CC5F88870F0D10020BDE8F883D7
:105AB4006FF00400FAE700BF8D5B00000000AD0B3F
:105AC400547701007FB500220123CDE9022304AB02
:105AD400CDE90433094A6B46CDF800D0CDF804D0A3
