:020000040000FA
:10000000806B0020012200003F7E0000ED210000F7
:10001000ED210000ED210000ED210000ED210000A8
:100020000000000000000000000000006523000048
:10003000ED21000000000000D1220000ED210000B1
:100040006D2500006D2500006D2500006D25000068
:100050006D2500006D2500006D2500006D25000058
:100060006D2500006D2500006D2500006D25000048
:100070006D2500006D2500006D2500006D25000038
:100080006D2500006D2500006D2500006D25000028
:100090006D2500006D2500006D2500006D25000018
:1000A0006D2500006D2500006D2500006D25000008
:1000B0006D2500006D2500006D2500006D250000F8
:1000C0006D2500006D2500006D2500006D250000E8
:1000D0006D2500006D2500006D2500006D250000D8
:1000E0006D2500006D2500006D2500006D250000C8
:1000F0006D2500006D2500006D2500006D250000B8
:100100006D2500006D2500006D2500006D250000A7
:100110006D2500006D2500006D2500006D25000097
:100120006D2500006D2500006D2500006D25000087
:100130006D2500006D2500006D2500006D25000077
:100140006D25000053B94AB9002908BF00281CBF1B
:100150004FF0FF314FF0FF3000F00CB8ADF1080C5C
:100160006DE904CE00F008F8DDF804E0DDE90223D3
:1001700004B07047704700BF2DE9F04786468C46B3
:100180000846089E154674461946002B40F0C1806B
:100190008542B2FA82F245D94AB1C2F1200300FA8F
:1001A00002FC954094402EFA03F343EA0C0C4FEA0C
:1001B000154EA8B2230CBCFBFEF80EFB18CC08FBB6
:1001C00000F943EA0C43994528D9EB1808F1FF37A9
:1001D00004D2994502D9A8F102072B44A3EB0903E5
:1001E000A4B2B3FBFEFC0EFB1C330CFB00F044EA94
:1001F0000344A04214D92C190CF1FF3304D2A042BD
:1002000002D9ACF102032C44241A43EA07401EB180
:10021000D440002334607360BDE8F0874746DDE7D3
:100220006346F1E792BB431B01214FEA154EAFB283
:10023000200CB3FBFEFC0EFB1C330CFB07F840EA62
:100240000343984561D9EB180CF1FF3004D298456F
:1002500002D9ACF102002B44A3EB0803A4B2B3FB18
:10026000FEFC0EFB1C330CFB07F744EA0344A742D9
:100270004DD92C190CF1FF3304D2A74202D9ACF1AD
:1002800002032C44E41B43EA0040C0E7C2F1200310
:100290009540944020FA03F12EFA03F34FEA154EED
:1002A0009040AFB20343B1FBFEFC0EFB1C10190CD7
:1002B0000CFB07F841EA0041884522D969180CF186
:1002C000FF3004D2884502D9ACF102002944A1EBE9
:1002D00008019BB2B1FBFEFC0EFB1C110CFB07F7E7
:1002E00043EA01439F420ED9EB180CF1FF3104D2CF
:1002F0009F4202D9ACF102012B44DB1B41EA0041D1
:1003000093E76046E3E76146F7E76046A4E76346A4
:10031000B8E7834206D916B9002108467CE7C6E94A
:1003200000E0F9E7B3FA83F78FB9834201D372454E
:1003300008D8BEEB020460EB030301209C461EB903
:10034000002169E73846FAE7C6E9004CF8E7C7F14B
:10035000200CBB400EFA07F522FA0CF42EFA0CF131
:10036000BA401C4320FA0CF3B8404FEA1449014349
:100370001FFA84FEB3FBF9F809FB18300B0C08FBDD
:100380000EFA43EA00439A4540D9E31808F1FF30DA
:1003900004D29A4502D9A8F102002344A3EB0A0330
:1003A00089B2B3FBF9F809FB183308FB0EFE41EAEA
:1003B00003418E452CD9611808F1FF3304D28E45D4
:1003C00002D9A8F10203214443EA0040A1EB0E0147
:1003D000A0FB02984145CE46434602D306D14D4587
:1003E00004D20138B9EB020E68EB0403002EA7D04B
:1003F000B5EB0E0261EB030101FA0CFC22FA07F3E4
:10040000F9404CEA0303C6E9003199E74046C5E7E5
:100410004346D9E7F0B5394B394A4921C3F800269C
:100420003848C3F8042687B0C3F80826C3F80C265A
:10043000C3F81026C3F81426C3F81826C3F81C26E0
:1004400007F057FC06F0E6FF00F09EFA054603A809
:1004500000F040FD0446284600F0A6FA2A4B1B682F
:10046000A34205D04521294807F043FC07F01CF9B9
:100470004921059A264807F03CFC039925484B7D05
:100480000A7DC98A0091492107F033FC492122489D
:1004900007F02FFC4FF4C031002003F077FA044638
:1004A00020B145211D4807F024FCFEE702A99DF874
:1004B000100000F037F8029B059D1D44039B1E8928
:1004C00003F04CFAAF1901F06FF801F03FF801F0BA
:1004D00059F884F30B8884F30A88AB5983F30888AE
:1004E00084F31488BFF36F8FBFF36F8F7B689847D7
:1004F00045210B4807F0FDFBFEE700BF00800150DF
:100500003546526E4A9C000008000020639C0000A3
:10051000869C0000B59C0000D39C0000F89C000065
:100520002B9D0000024608B538B10548002345213F
:1005300007F0DFFB6FF0150008BD0860FCE700BFA7
:100540004E9D000021B1012906D06FF015007047C3
:10055000044B53F830007047024B03EBC00358685C
:10056000704700BF689700002DE9F04F9B468C4B09
:10057000DBB01546DDE965891E6807460C4600F0CC
:10058000AFFF0122874B3AA8C3F8002505F060FEB3
:10059000B8F1000F07D0B9F1000F04DD4A4641461B
:1005A0003AA807F08BFA4FF0000823896289D4F843
:1005B0000CA013449A44C2456AD80DA93AA805F084
:1005C000B9FE0022774BC3F80025C3F80025679BCE
:1005D00023B1202218460DA907F07AFC00232A46F1
:1005E000009321464FF6FF7307A806F014FF8046DC
:1005F00000285ED1294638460C9C00F0AFF98442B1
:1006000057D84FF0FF34DFF8A8B1DFF898910DF11B
:10061000160305AA06A907A806F04BFF002848DB29
:1006200040F0B480069907A806F08FFF50B94FF646
:10063000FF71BDF816005C4A32F8023B8B4238D09D
:100640009842F9D1BDF81670102F3CD0222F7AD0E5
:10065000012FDCD1BDF81430202B2AD8284606996A
:100660003AAA07F054FB044618BB9DF81430202B1F
:1006700002930AD8DBF80030DFF838A10393039B1C
:100680009C423FDB0023C9F800354FF0FF34BEE742
:10069000649BAAEB0809994528BF99465A464B46E0
:1006A0004146284607F033FB30B100223D4BC3F8EA
:1006B00000253B4B1E686CE04A4659463AA807F0B5
:1006C000FDF9C84477E7BDF81470202FF1D13B46FF
:1006D000284606993AAA07F01AFB0028E9D100F04B
:1006E00053F93A4680463AA90DA800F0E7F80746C4
:1006F000404600F059F92D4B1B68BB42D9D14FF051
:10070000010884E700F0ECFEC9F800751DA805F0AB
:100710009FFDDAF804201DA812685AF8081B07F09C
:10072000CDF915A91DA805F005FE0022C9F8002580
:10073000029A3AA915A807F0BBFB10B9C9F8000541
:1007400065E701349BE7631C3FF461AFDBF80030E1
:10075000A3429ADDBDF81430802BAAD8284606990A
:100760003AAA07F0D4FA0028A3D100F00DF9E4B2B8
:1007700007462021BDF814303AAA00940DA800F0D5
:100780001BF80646384600F00FF97EE7B8F1000F77
:100790008FD000F001F930465BB0BDE8F08F00BFAC
:1007A00004000020000084501C9C00000800002071
:1007B00070970000749700002DE9F04796B0164638
:1007C0001D469DF87820384B074653F8321003EB4E
:1007D000C2035B6801911868DFF8DC8001443023B4
:1007E00002AA01A8D8F8009007F0F6F8002851D125
:1007F000DDE901431C44214606AB03AA01A807F02A
:1008000013F9002846D1049A072A43D127490598AD
:1008100007F04EFB00283DD1079A082A3AD1244917
:10082000089807F045FBA8BB214602AA01A807F0DB
:10083000E7F878BBDDE901A30AEB0302944229D172
:10084000412B27D135443023294603AA02A802961A
:1008500007F0C2F8E0B9DDE9023213449D4217D334
:100860002A4602A906A806F07EFE88B92A4602A9F1
:100870000EA806F078FE58B99AF80030042B07D17C
:100880002023384606AA0AF1010100F041FE38B1E2
:10089000D8F8009000F080F8484616B0BDE8F08720
:1008A000044BD3F80090F5E7749700007D9D00009D
:1008B000749D0000080000200400002070B5094B62
:1008C00004461D680023934205D1074B1D6800F0C4
:1008D00063F8284670BDE65CC85C8642F7D10133F8
:1008E000F1E700BF0400002008000020094A400092
:1008F0000B7852F820108B4209D0013052F82000BA
:10090000834214BF4FF0FF304FF4407070474FF4F4
:10091000407070477C9700001FB5582303FB01000F
:10092000046A1023A1686A462046103907F0EFF9DF
:10093000034640B122784521064807F0DAF9002441
:10094000204604B010BD10226846034907F0B0FAF3
:10095000F6E700BF859D00003A9C000013B50846ED
:100960000C4606F031FE6A460146204606F039FD87
:1009700030B10448452107F0BCF9002002B010BD99
:100980000098FBE7B19D0000024B1868421C1A60FA
:10099000704700BF68040020024A1368013B1360DF
:1009A000704700BF68040020034B1B68834201D0DE
:1009B00006F07ABE704700BF680400202DE9FF47AB
:1009C0002C2707FB01073D6A0446284690460E4641
:1009D00007F0E8F97B1EFA1C13F8011F814227D1AA
:1009E0009A42F9D1BEB12946204606F0F2FE98F8A7
:1009F0000730042B0AD12046216A06F0EAFE02469F
:100A000048B949212C4807F074F904E0002003F0AC
:100A100051F80428EFD0294B1C68FFF7BDFF204692
:100A200004B0BDE8F087264B1C6836E0254A40E05C
:100A30002C237343E1180869C206D3D4E258224B31
:100A40009A42F0D1CA680B899B18ECD24A89D21815
:100A5000E9D2AB689A42E6D240F60C6A10EA0A0A7A
:100A6000E1D1FFF791FF8046FFF78EFF4FF48073CF
:100A700081462A46394600932046144BCDE902AA06
:100A8000CDF804A0FFF770FD04464846FFF78CFF41
:100A9000FFF782FF4046FFF787FF0D4B1B68A3421D
:100AA000BBD0002EC2D0AA680021284607F059F911
:100AB000084A45210848A6E7FE9D000000000020E6
:100AC00004000020EC9D00003DB8F396F8200020C3
:100AD00008000020F49D00003D9E000073B50D4607
:100AE000002104462846CDE9001106F031FE28B366
:100AF00023681A4EB34203D1204601AA06F08CFDAA
:100B0000E36AB34204D16A460121204606F084FD1F
:100B1000DDE90032934288BF0193019BAB60019AEB
:100B20002946204600F0DAFB0D4B1A68002A03DD47
:100B300057210C4807F0DDF802B070BD0146204691
:100B4000FFF7EAFE064605F1080106F048FDAB682E
:100B50003046019307F0DAF8E1E700BF3DB8F396BD
:100B6000CC180020659E00002DE9F84F884691467C
:100B70009A460026DFF870B0194C1A4D0B9B9E4226
:100B800001D300200FE00B9B40469F1BB7F5806F01
:100B900028BF4FF48067144A3B4606EB0A0107F072
:100BA000B6F810B10120BDE8F88F0A993B465A46C5
:100BB0004846711807F0C0F80028F3D1C4F8005671
:100BC0003E44C4F80456C4F80856C4F80C56C4F899
:100BD0001056C4F81456C4F81856C4F81C56CDE77D
:100BE000008001503546526E6C0400202DE9F04122
:100BF0000E460021AE4B0446436203F5006388B005
:100C000003650846FFF79EFC04F120010546C0B2CB
:100C100001F062F848B100232A4645210190009373
:100C2000A44807F066F806F03FFD01210020FFF719
:100C300089FC04F14C010546C0B201F04DF850B1F9
:100C400001232A464521019000939A48002307F08A
:100C500050F806F029FD204606F04FFD054668B91C
:100C600000222046114606F032FD054608B3002258
:100C70005721914807F03DF80123A1E04FF480721D
:100C800057218E4807F035F801239D4284F85830EB
:100C9000E6D194F85830042B8DF8173000F2938089
:100CA000012B00F2978000F0AA80FF2384F85830CF
:100CB000A5E0204600F01AFA0028DDD004A806F0CE
:100CC0003EFD0146204606F0D0FD18B12A465721C8
:100CD0007B48CFE704A806F03BFD80F0010104AAA1
:100CE0002046C9B206F0F3FC02460028BFD104A892
:100CF00006F02EFD054660BB204604A9FFF7EEFE78
:100D00009DF8173084F85830033B012B06D828464D
:100D100000F010F910B1FF2384F858309DF8173017
:100D2000023B022B0BD8002000F0EEF838B1FF2375
:100D300084F858304521634806F0DBFFFEE794F85D
:100D40005830FF2BF6D000222046114606F0BFFC9B
:100D500092E79DF81770012F1FD1104602F0AAFEEE
:100D6000831E022B054615D8FFF70EFE3946804636
:100D700004AA2046FFF722FE07464046FFF714FE6E
:100D8000514B1B689F4205D0504B1D68AF4214BFAA
:100D90000525012584F858507BE7FFF7F5FD012173
:100DA000074604AA2046FFF709FE05463846FFF726
:100DB000FBFD454B1B689D4214BF05239DF8173072
:100DC00084F8583065E7052B7FF46FAF002000F002
:100DD000B1F811E0204604A9FFF780FE94F85830DE
:100DE000DA1E012A34D8002000F0A4F800287FF48D
:100DF0005CAF002000F088F800287FF456AF94F82C
:100E00005830FF2B05D145212E4806F072FF06F021
:100E10004BFC002294F858302D4F012B03921AD02E
:100E20001146204606F053FCA8B13D68102200216F
:100E30000DEB020007F057F8E06C06F067FF206A40
:100E400006F064FFFFF7A8FD284608B0BDE8F08172
:100E5000022BD4D1CDE7FFF797FD00228046114643
:100E60002046FFF7ABFD05464046FFF79DFDDFF846
:100E70005880D8F800309D42D7D13B689D42D4D0ED
:100E8000124B1B689D42D0D0039B01330393039BFD
:100E9000012B01D006F008FC206A06F0A0FA3071A0
:100EA000236A5B683460D8F80050B360BEE700BFC7
:100EB0006C080020949E0000239F0000E19E00002B
:100EC0004F9F0000799F00000800002000000020D4
:100ED0000400002070B50B4E04466022002130460D
:100EE00007F001F8FFF750FD214605463046FFF7B1
:100EF0007DFE04462846FFF757FDFFF74DFD2046CF
:100F000070BD00BF6C18002013B5094B01A913F880
:100F1000300000F0E1FE48B9019807F03FFF0446B9
:100F2000019806F0F3FE204602B010BD0124FAE756
:100F3000849700001FB50F4B01A913F8300000F093
:100F4000CBFEA8B9019802A902F05EFD044668B97B
:100F50009DF80B30032B03D1019807F0EDFE0446FA
:100F6000019806F0D3FE204604B010BD0124F7E737
:100F70000124F8E7849700002DE9F34106460C466A
:100F800017461D460BB9002121E0184606F0E0FB8C
:100F900001460028F7D13046FFF7BEFC18B9012002
:100FA00002B0BDE8F08101A906F019FB0028F6D1D6
:100FB0000199304606F0A7FC736A59686B79012BDA
:100FC00018D1002CDFD12B68834298BF00212C233D
:100FD00003FB04663A462023306A06F098FE002898
:100FE000DDD1002DDCD038680D4BC01A18BF4FF092
:100FF000FF30D5E7022BC6D12B68012B05D98342E0
:10100000C1D8B4FA84F46409BDE7BCD1002CDED0A9
:10101000012CB8D12C79023C18BF0124B3E700BFE2
:101020003DB8F3962DE9F04F07460C4685B00146D2
:1010300000201646FFF75AFC051E51DB3846E46DCA
:1010400006F0C2FA5FFA84F94FF0000A4FF0010B84
:101050004FF0FF346B1E09FB03089DB9BAF1010F75
:1010600003DD4521204806F044FE631C06D0FF2C1A
:101070002ADC40F2011301343460B380284605B005
:10108000BDE8F08F6B1E00934146012338460DF1F9
:101090000F0206F03CFE031E019323DB01223846BB
:1010A0000DF10F0107F0E3FD019B40B15B4501D05D
:1010B0000AF1010A9B46009DA8EB0908CDE7B4F1AF
:1010C000FF3F08BF2C46F5E70223A4F58074737137
:1010D000631004F001040133013433603471CDE74F
:1010E0000725CBE70125C9E7859F0000F8B5866A8B
:1010F000456D044606F0F6FBAE420AD06B1CB342C7
:1011000007D0834205D05721174806F0F2FD002092
:10111000F8BDB6F5807F19D957211448F5E7626A02
:1011200002EBC3025768226D02EBC302526897427A
:1011300002D057210E48E8E701339D42EFD1204607
:1011400006F0D7FC28B957210A48DEE700231F46DE
:10115000F3E7AE4205D9636A03EBC5035B68BB42A4
:10116000E7D10120D4E700BFA89F0000E09F000066
:101170000FA000003BA0000010B588B0044604A9F1
:10118000006A02F041FC9DF81020012A40D0254B56
:101190002549032A08BF0B469DF8132049210292D6
:1011A0009DF81220214801929DF811200092204ABA
:1011B00006F09FFDE06C06A902F026FC9DF81820C1
:1011C000012A27D0174B1849032A08BF0B469DF860
:1011D0001B20492102929DF81A20144801929DF883
:1011E00019200092134A06F084FD9DF81030012B5F
:1011F00012D19DF81230032B0ED19DF81830012B1F
:101200000AD00D48492106F074FD022008B010BD37
:101210000A4BC1E7094BDAE70948492106F069FDA5
:101220000020F3E774A000007DA0000091A0000062
:1012300083A00000D2A00000E2A0000078A000007F
:1012400001A1000070B54B6814461E4A03F0FF234D
:10125000934206460D4686B02FD10B68012B2CD148
:10126000204604A902F0D0FB9DF81020012A26D0C8
:10127000154B1649032A08BF0B469DF81320492138
:1012800002929DF81220124801929DF811200092BE
:10129000104A06F02EFD9DF81030032B0DD121468B
:1012A000304606F096FA204607F046FD2046A9682B
:1012B00006F0A3F9204602F087FB06B070BD064B8E
:1012C000DBE700BF0001000474A000007DA0000067
:1012D00091A00000D2A0000078A000002DE9F04FFE
:1012E0001646054689B00C467448492106F001FDB2
:1012F0003146284606F007FB6B6A824620465E6848
:1013000006F026FAE8B1E86D06F059F90023AF6A55
:10131000013F3344984201D9013FFAE7BA4510D35F
:101320005721674806F0E5FC07FB06F357210AFB47
:101330000662644806F0DDFC0123E37109B0BDE8F4
:10134000F08F06A9052000F0C7FC07A90B2000F0CC
:10135000C3FC21462846079AFFF774FF6379012BE7
:101360004BD15746DFF860B141E02268C2F101037A
:1013700053449F423AD86B6A012A196853F83700E0
:1013800003EBC70353F8083CA0EB0109A3EB0103EF
:10139000049311D1079B0393E368022B08D04146C5
:1013A000284606F016FA22464146284606F03EFA3E
:1013B0002846039906F00DFA32464946404606F0A3
:1013C00006FA049B424641462846CDE90096FFF7BF
:1013D000CBFB2146284606F0C8F923680133236079
:1013E00020B1DBF800300133CBF80030013FDDF8ED
:1013F0001880002FB9D101232360022301276371D4
:10140000BA45DDF8189006D2484606F07FFC0798EA
:1014100006F07CFC92E723689F424DD36A6AFB008A
:1014200052F83710083B04911168DDF81CB00391A5
:10143000D1582A6DD0581368A0EB03082379012BEB
:1014400038D1039B3246C91A4846059106F0BFF9C8
:10145000059943464A460091284659460196FFF7AA
:1014600083FB2146284606F080F90223237118B138
:10147000154A13680133136032464146584606F058
:10148000A6F9DDE9032349469B1A28465A46CDE9C9
:101490000086FFF769FB2146284606F066F92368B7
:1014A000013323600123237130B1074A13680133EC
:1014B000136001E0022BDFD00137A1E718A1000083
:1014C00041A1000070A10000CC1800200A4619B10B
:1014D000024B00211B681847704700BF0C0000201A
:1014E00070B5094D2B780BB1002070BD0126074C5B
:1014F000C4F8006504F04EFF18B92E70C4F800055A
:10150000F2E74FF0FF30F0E7F821002000008450B0
:101510002DE9F041ACB01F4606460C461546FFF7D4
:10152000DFFF0123DFF820802A46C8F80035214676
:101530003346009703A807F014FF0023C8F80035CE
:101540002CB0BDE8F08100BF00008450BFF36F8F66
:1015500072B600234FF0FF30094A03F12001013336
:10156000102B42F82100F8D100234FF0FF30044A3D
:1015700003F160010133102B42F82100F8D17047CC
:1015800000E100E0002318460649D1F89020C2F39C
:101590000722934200DB7047C1F89830C1F8A000E1
:1015A0000133F6E700ED00E02DE9F8434FF0FF3599
:1015B00001274FF00008204BDFF884905F60C3F8EC
:1015C0004853C3F8085303F580535F60C3F848538A
:1015D000C3F8085359F8044B002644F30730C4F805
:1015E000085300F0DFFE80226760C4F84C61D4F835
:1015F0004C31C4F81061D4F81031C4F8446131465C
:10160000D4F84431A018C4F8006506F06CFC8022C0
:10161000314604F5C07006F066FCB8F1000F08D042
:10162000064BC3F808554FF05023C3F80853BDE8E4
:10163000F8834FF00108CDE70040015000700150E1
:1016400090970000014B1B68184700BF1000002056
:10165000014B1860704700BF1000002007B50B4613
:10166000002102460091034800F006F803B05DF83F
:1016700004FB00BF451600002DE9F04F82464FF0F5
:1016800000098DB01D46531E01910393039B5878AA
:101690005C1C252819D100204FF0FF381E46444617
:1016A00003460236029031780396392955D81F290E
:1016B00014D8002900F0EF8101992520D047019925
:1016C0003078D04709F10209E0E7002800F0E38113
:1016D0000199D04709F101090394D7E7A1F120024C
:1016E000192AE9D801A757F822F000BF55170000C2
:1016F000B9160000B916000055170000B916000011
:10170000D5170000B9160000B9160000B916000080
:10171000B91600002118000055170000B916000086
:1017200035180000E1170000B9160000EF1700009F
:101730000F1800000F1800000F1800000F1800000D
:101740000F1800000F1800000F1800000F180000FD
:101750000F18000008460136A5E7582900F0EB8075
:10176000A1F16302D7B2172FA6D8172AA4D801A7D0
:1017700057F822F0DD1900005B180000B9160000D0
:10178000B9160000B91600003B1800005B180000F5
:10179000B9160000B91600003B180000B916000089
:1017A000B9160000B916000011190000B9160000A2
:1017B000B9160000B1190000B91600005B1800004E
:1017C000B9160000B916000011190000B916000082
:1017D0003B18000025200199D04709F1010955E780
:1017E000029A4FF0000802F0FE020292B3E7002CCA
:1017F0000DDAB8F1000F0DDA029A002A00F04381E9
:101800000A2224EAE47402FB0414303CA3E7B8F192
:10181000000FF5DB0A2202FB0812A2F130089AE75A
:10182000B8F1000F55F8042B80F22F81002A80F2C6
:101830002E815442022202928DE7682903D1682B3F
:1018400006D1482387E76C2902D16C2B00F0218157
:10185000002B7FF431AF0B467DE77A2B06D175293B
:1018600055F8046B14D14FF0000B0CE06C2BF6D044
:101870004C2BF4D1073525F00703752903F1080532
:10188000D3E9006B06D120283BD1854F013C09E00C
:101890004FEAE67BBBF1000FF5DA7642814F6BEB46
:1018A0004B0B013C0DF12D030593002304933046AF
:1018B00059460A220023FEF745FC059BB446303208
:1018C00003F8012D5A460593049BBCF10A0F8B4681
:1018D00072F1000203F1FF3106460491E7D2C3F131
:1018E000010B30330DEB0306B8F1000FA6F104062F
:1018F0006DDA029BD9077DD4A8EB0B03A4EB0B0494
:1019000013E02B280ABF684F684F04F1FF34C9E782
:1019100070290FD155F8042B0023FAB96FF0040396
:101920004FF0050B614F624E053C029A920770D44E
:10193000A04666E078216C2B03D1002355F8042BD8
:1019400008E04C2BF9D1073525F007031D465B68ED
:1019500055F8082B232825D1880621D5554F023C60
:10196000002601F06001A1F1390B0DF12D0E02F0FE
:101970000F01092988BF594430310EF8011D102A82
:101980004FEA121141EA03714FEA131C73F100038D
:1019900006F1FF3008D2C6F1010B06F13003A1E7D2
:1019A000454FDCE7414FDBE706460A466346DEE784
:1019B00055F8046B304606F074FAB8F1000F834610
:1019C00002DB4045A8BFC3464FF00008374FA8EBE5
:1019D0000B03002B92DDA4EB0804A6E755F8043BAB
:1019E0004FF0010B8DF81830304F4FF0FF33013CB2
:1019F00006AE9AE7A046EAE7029320200199D04775
:101A0000029BB8F10108F7D524EAE472013C914445
:101A1000A41AB84606E0049302920199D047029AAC
:101A2000049B9046424612F8010B0028F3D11A4657
:101A3000013A15D5002BACBFC7EB03077F425B46CD
:101A4000013B15D5BBF1000FA8BF5F4426464F44AC
:101A5000013E14D5002CA8BF3F1907EB080915E675
:101A60000493029230200199D047049B029ADFE749
:101A70000293019916F8010BD047029BE0E7019908
:101A80002020D047E4E70122D5E6904663E61446DD
:101A900061E64C235FE648460DB0BDE8F08F00BF1D
:101AA000FEA10000FCA1000000A20000B09D00000B
:101AB00008A2000002A2000005A200002DE9F047E4
:101AC000058B04462807904611D4022905F0070526
:101AD00040F0CC80204606F033F878B10138218BF5
:101AE000042811D8DFE800F0C2106D8595000129A7
:101AF0000CBF45F0100545F02005258388F31188BB
:101B0000BFF36F8FBDE8F08701F0070AAA4500F028
:101B1000A5800027B9463E46A368002B00F0BC8094
:101B200041F00801218388F31188BFF36F8FA1680A
:101B3000002900F0BA800D68002900F0B680334615
:101B400052462046D1F80480C047002D76D02B683D
:101B500029461D46F0E701F007035A1F012A1BD84A
:101B6000002221F00701062B276889B2C4E9002270
:101B700009D13B4603E0628B013262831B68002B74
:101B8000F9D141F002012046218305F0D9FF002858
:101B90007AD041F0200176E0042B0AD121F0070130
:101BA00089B22046218305F0CBFF10B141F020011E
:101BB0002183218B01F0070AAA454FD00027B9469F
:101BC000AAE7236921F0070141F00601062DD3F8A9
:101BD000009021832DD1B9F1000F3FD041F00801D1
:101BE000218388F31188BFF36F8F20463949C84796
:101BF00029E021F00701236941F0040189B2042D95
:101C0000D3F804902183E6D000274FF0040A3E4623
:101C100082E721F00701236941F0050189B2052D12
:101C2000D3F808902183D6D000274FF0050A3E460E
:101C300072E700274FF0060A3E466DE72B4687E71E
:101C4000B9F1000FD1D1EFF31188202383F312886B
:101C5000BFF36F8F238B23F008032383258BEA06C2
:101C60002ED525F01003238305F007056669218B27
:101C7000002EBFF670AF00232768C4E9003321F0BF
:101C8000070141F001012183218B4FF0000901F090
:101C9000070AAA457FF440AF002F9CD041F008010D
:101CA000218388F31188BFF36F8F002FC8D03D6860
:101CB000394633465246204605F06EFF2F46F4E77C
:101CC000AB067FF51BAF25F02003238305F0070546
:101CD00000E700BFC57B000070B5104B0D461C68C7
:101CE000B4B10F4B196800238B4202DB6FF0010087
:101CF00070BD224612F8106B864202D014460133A2
:101D0000F2E7E06807F0ACF928B100202C60EFE7BB
:101D10006FF00C00ECE76FF01200E9E71400002010
:101D20009897000010B5436888B0029383680C460A
:101D3000CDE9033200230A68C068CDE906230549CE
:101D400001AA059306F0A0F9079808B9059B23603E
:101D500008B010BDB37D000008B5054805F0D9FEF8
:101D6000044805F0D6FEBDE80840034805F0D1BEA2
:101D70000EA2000046A2000079A20000014803F074
:101D80007FBF00BF9C98000038B5044618B90F4BC0
:101D90000F485B6898476168B1F5683F10D0B1F5AE
:101DA000680F0DD00B4DA9420AD011F4686120686C
:101DB00007D00146084807F0AEF9002323606560AC
:101DC00038BD142206F08FF8F9E700BF2801002083
:101DD000A7A200002C5F5CA9D01D002008B500B3AD
:101DE0004368B3F5683F0CD101220368D3E8EF1FC5
:101DF000002903D1C3E8E02F0028F7D10DD100203E
:101E000008BD094A93420AD000684FF0FF324FF0F4
:101E1000FF3303F0B9F80028F1D00448F0E7044894
:101E2000EEE76FF4E040EBE72C5F5CA9E98FFFFF82
:101E3000EA8FFFFF08B5B8B14368B3F5683F0CD12E
:101E400000220368D3E8EF1F012903D1C3E8E02F84
:101E50000028F7D10BD1002008BD074A934208D0D3
:101E6000006803F009F9F6E76FF4E040F4E703488F
:101E7000F2E70348F0E700BF2C5F5CA9E98FFFFFA2
:101E8000EA8FFFFF10B5044618B91D4B1D485B686B
:101E900098476368B3F5683F2FD0B3F5680F2CD02F
:101EA000194A934219D1236803BB4FF0FF324FF018
:101EB000FF332146154803F039F808B923681BB9E8
:101EC0000F4B13485B68984714220021206806F0E6
:101ED0000AF84FF46863636008E0B3F5683F0DD813
:101EE0003A2B03D040F6BA629342DED1206807F065
:101EF0005CF9636843F03A03636010BD054AF3E799
:101F000028010020A7A200002C5F5CA9D01D0020A2
:101F1000CDA200003A00003A08B506494023142239
:101F2000054807F0EAF8BDE808400449044803F012
:101F300019BF00BFD0180020D01D0020A4980000B9
:101F4000B898000030BFFFF7FDBF00BF074A936895
:101F500093F90E10002907DB926993421FBF044AD0
:101F6000536843F080535360704700BFE81E002061
:101F700000ED00E0154B9A6A12F0007F9A6A14BFD8
:101F80001E201D2012F0807F9A6A18BF1F2012F4B5
:101F9000801F9A6A18BF022012F4002F9A6A18BF95
:101FA000212012F4802F9A6A18BF222012F4003FD9
:101FB0009A6A18BF232012F4803F9A6A18BF24201F
:101FC0006FEA02426FEA12429A62704700ED00E047
:101FD00010B5194B0246986A9C6A10F4805F14BFD2
:101FE0001720162014F4006F9C6A18BF1820A4054F
:101FF00009D5986B986A000404D51AB19A6A22F43C
:1020000000429A6219200C4B9A6A12F4806F9A6A05
:1020100018BF1A20D2050CD49B6A13F4005F18BFB6
:102020001C20054A936A43F47F43936200230B709C
:1020300010BD1B20F5E700BF00ED00E010B51C4B04
:102040000246986A9C6A10F0100F14BF11201020ED
:1020500014F0080F9C6A18BF1220A40709D5586B0A
:10206000986A000604D51AB19A6A22F080029A6230
:1020700013200F4B9A6A12F0010F9A6A18BF1420AE
:1020800012F0200F9A6A18BF1520D40658BF9B6A19
:10209000074B9A6A920642BF5A6A22F400525A6269
:1020A0009A6A42F0FF029A6200230B7010BD00BFD3
:1020B00000ED00E070B5444B06465B6800259CB01F
:1020C000C3F3080385F31188BFF36F8F02F07F40DD
:1020D000B0F17F4F11D102F00C0008280DD010078D
:1020E0004CBF0E4601250022033B8DF80720032B31
:1020F00005D8DFE803F01E5C60592E46F3E70024A4
:102100009DF807309BB96822314602A805F0E0FE31
:10211000099B002D53D0C3F3080222B96FEA532361
:102120006FEA43230993204602A905F07EFE1CB006
:1021300070BD254BDA6A9107E1D4DA6A002ADEDB4A
:10214000DA6A5200DBD55A69B16942F480725A6189
:10215000BFF34F8FBFF36F8F5A6931F8021C22F41F
:1021600080725A61BFF34F8FBFF36F8F4DF60272CB
:10217000914209D09A6AD2B242B101200DF1070111
:10218000FFF75CFF0446BBE73468B9E79A6A12F4CC
:102190007F4F05D001200DF10701FFF719FFF1E78F
:1021A0009B6AB3F5803FAAD3FFF7E4FEEAE700207D
:1021B0000DF10701E4E700200DF10701EDE723F43D
:1021C000FF7323F00103ADE700ED00E0064B5A6911
:1021D00042F010025A615A6942F480625A615A69A7
:1021E00022F008025A61704700ED00E0EFF308802A
:1021F000EFF3098101B57246FFF75CFF01BD00BF37
:10220000002080F31488BFF36F8F002080F30A88CA
:1022100080F30B880F4880F3088801F009FD002047
:102220000D490860BFF34F8F00F01AF8202080F3AB
:1022300011880A484FF40061401880F30988EFF3D1
:1022400014800221084380F31488BFF36F8F00F0DD
:10225000E1F80000806B002094ED00E040220020B7
:1022600072B6002383F313884FF0FF300C4A03F15A
:1022700020010133102B42F82100F8D100234FF048
:10228000FF30074A03F160010133102B42F82100AF
:10229000F8D162B6BFF34F8FBFF36F8F704700BFA7
:1022A00000E100E0084B9B6883420BD1EFF305830C
:1022B00043B1064B5A6842F080525A605A6A22F47F
:1022C00000425A6203F054BAE81E002000ED00E01C
:1022D00022498A6882F8BDE04FF030001044EFF3E5
:1022E000098C80E8F01F1EF0100F03D102F17C0072
:1022F00080EC108A202080F31288BFF36F8F184F74
:102300004FF000668A698A603E6092F9BDE0506FC6
:102310000023536780F311881EF0100F03D00023B1
:10232000E1EE103A03E002F17C0090EC108AEFF34A
:10233000148323F0040383F31488BFF36F8F02F137
:10234000300090E8F01F8CF3098802F1000004B51A
:1023500005F080FDBDE8044070470000E81E002045
:1023600004ED00E01EF0040F0CBFEFF30880EFF364
:102370000980816911F8021C0229FFD001B572465B
:1023800005F059FD01BD00BF40B2002807DB012365
:102390004109034A00F01F00834042F82130704792
:1023A00000E100E040B200280CDB012206494309AD
:1023B00000F01F008240203341F82320BFF34F8FED
:1023C000BFF36F8F704700BF00E100E0054B42098B
:1023D00053F82220012300F01F0003FA00F0104000
:1023E000704700BF00E100E040B2002801F10101A8
:1023F000ACBF00F16040064B4FEA4111C9B2ABBF20
:1024000000F5614000F00F0080F800131954704788
:1024100014ED00E0144A08B5144B22F07F029A60D4
:10242000BFF34F8FBFF36F8FD3F8882022F4700271
:10243000C3F88820D3F8882042F4A002C3F888208B
:102440004FF04042C3F83422BFF34F8FBFF36F8F7A
:102450000023E1EE103A02F0ADFC03F099FA00F02F
:1024600079F802F0E7FC00BF0000000000ED00E09A
:1024700042F8203C009B0D4942F81C3C019B21F096
:10248000010142F8183C029B42F8081C42F8143C37
:102490004FF0807342F8043C002343674FF47D43C0
:1024A000203A0265C0F8BC30704700BF2D7B0000A9
:1024B000104B9B6883421AD1EFF30580B8B9EFF354
:1024C0001181202282F31288BFF36F8F1A7B22F0D2
:1024D00002021A73EFF3148323F0040383F31488C6
:1024E000BFF36F8F81F31188BFF36F8F70476FF069
:1024F00015007047E81E00200E461546002300B563
:10250000E1EE103AEFF3148323F0040383F314880D
:10251000BFF36F8FBFF36F8F084B9860436E83F3E9
:102520000B882C4686F309880020054B98472046E7
:10253000002100220023034C204700BFE81E00209A
:102540005D7E00002D7B00001022014B1A61704758
:1025500000ED00E0002320210348C2180133412B85
:1025600082F80013F9D1704700E100E008B5EFF3FD
:102570000583064A103B02EBC30152F83300496859
:102580008847BDE80840FFF7E1BC00BFB8940000F1
:10259000014B1860704700BF380000200122024B39
:1025A0000020C3F8402570470090035020B1034B32
:1025B000800143F001031847704700BF6097000097
:1025C000084B70B5C31A0D4607499B100446594382
:1025D0004022064805F09CFC2B4601462046BDE8FB
:1025E00070401847001E0020B76DDBB62C94000029
:1025F000402373B50B4C0093041B0B460D460A4950
:10260000A41061430646094A094805F0ACFC011EC6
:1026100005DA30462B4602B0BDE87040184702B0DC
:1026200070BD00BF001E0020B76DDBB6CF7F00007D
:102630002C94000010B5EFF31184202383F312884B
:10264000BFF36F8F074A136823F00201DB071160A5
:1026500002D4012006F02CFC84F31188BFF36F8FA5
:1026600010BD00BF501E002070B50022012104469D
:102670000520FFF7B9FE0F4801F00AFC0E4B984207
:1026800015D101F015FC26690C49304605F0A8FA71
:1026900000280BDB012535642469084904F11C007E
:1026A00005F09EFA002801DB0020E56470BD6FF0A4
:1026B0000400FBE7BD2700000000AD0BC898000038
:1026C0001FB500220123CDE902236B46084ACDF84D
:1026D00000D0CDF804D005F073FC002805DB4FF4E2
:1026E00080420023684602F04BFD05B05DF804FB14
:1026F000EF7F00000C22104B014602FB003300204C
:1027000030B4D3E90E529863EFF31180202484F3A0
:102710001288BFF36F8F1C6C04F0C00444F00204F5
:102720001C6480F31188BFF36F8F1DB12B4630BC42
:102730000248184730BC7047001E00202C9400004F
:1027400010B4EFF31182202383F31288BFF36F8F4D
:102750001848016841F002040460C80708D482F3F5
:102760001188BFF36F8F01205DF8044B01F0B4BBFB
:102770004FF05021D1F80C04D1F80C14C907EED554
:10278000EFF3118083F31288BFF36F8F0A490B6C4C
:1027900003F0C00343F002030B6480F31188BFF31E
:1027A0006F8F82F31188BFF36F8F00205DF8044BA9
:1027B000FFF7A0BF501E0020001E002010B101280E
:1027C00004D07047034B1B6C5B0701D1FFF792BF2E
:1027D000704700BF001E00202DE9F041012207468E
:1027E0003649D1E8EF3FC1E8E02F0028F9D133B9ED
:1027F000334934484B60CB608A6005F004FA7B1E95
:10280000012B2BD8012F07D14FF05023D3F81C34C4
:1028100003F00303022B21D006F0DAFC0546F8B9D9
:10282000294B1B78E3B14FF0502302220646C3F830
:1028300008234FF05024DFF89480D4F81824D4F8FB
:102840001834D20315D503F00303022B01D0012F56
:102850000FD16DB386F31188BFF36F8FBDE8F081A0
:10286000EFF31186202383F31288BFF36F8F0125C6
:10287000DFE7C5B1304605F005FBD4F81835DBB20B
:10288000012BDAD1D4F80421002AD6D00022C4F8D2
:102890000421D4F804210222C4F818252022C8F803
:1028A0008021A360C9E70021212006F001FDE4E7B3
:1028B0004FF050230222C3F80423CFE7FC1D002071
:1028C000EC1D00201C1E00203D22002000E100E045
:1028D00008B5074806F0C4FB38B10648FFF758FEB4
:1028E0000448FEF7B5FE002008BD6FF01200FBE7BC
:1028F00068940000F92800000A2838B50446074DFE
:1029000004D1AB680D2128465B689847AB68034843
:102910005B68E1B29847204638BD00BF689400006C
:10292000C3780F2B14D9C96B0B480B0E13708B0295
:1029300000EA911003F47C030906034301F0FE4111
:1029400010680B43054901400B430020136070479A
:102950006FF08500704700BF00FF0300FF0000809C
:10296000024B0B6001231360704700BF541E002010
:1029700000487047EC98000010B501220648114647
:1029800006F01AFC06F0FBFA044C206006F0F4FA9C
:102990006060002010BD00BF5C1E0020541E00209F
:1029A00070B50C46154606F0E7FA2946064620465D
:1029B00005F09FFB08B3B4FBF6F306FB1343E3B942
:1029C000B5FBF6F306FB1353BBB9AE4201D90020A9
:1029D00070BD4FF0FF324FF0FF33094802F0D0FBDB
:1029E00006F0CAFA0646204601F0A0FEAD1B3444AC
:1029F000F9D1034802F090FBE9E76FF01500E7E733
:102A00005C1E0020F8B50E461946304617461C4697
:102A100005F06FFB08B346EA040515F003051CD169
:102A2000A4B14FF0FF324FF0FF330D4802F0A8FB86
:102A300024F00304A54206EB050009D1094AD2F8A7
:102A40000034DB07FBD5064802F066FB0020F8BD2A
:102A5000795901F089FE0435ECE76FF01500F6E7CF
:102A60005C1E002000900350004870476C990000E5
:102A700038B545682B69B3B11035284601F032FDF1
:102A8000044680B90146284601F0FAFC084B9842FA
:102A90000BD122462846074901F0DAFC22460521DF
:102AA0000D20FFF7A1FC002038BD6FF00400FBE70C
:102AB0000000AD0BB92A0000430970B507D10B4BDC
:102AC000596821B101250C68094E854001B970BDD6
:102AD0008A682A4002D030464B6898471CB1236868
:102AE00021461C46F2E72346FAE700BF8C1E002071
:102AF000409400002DE9F04340F206354668D006C8
:102B000048BF0320337B02EA050558BFC2F34010DB
:102B100087B001F01F07B5F5837F144647EA4317D6
:102B20008DF8030042D00FD8062D18D007D8B5B1C4
:102B3000022D3DD06FF0150007B0BDE8F083B5F56C
:102B4000807FF7D101250AE040F20222954231D080
:102B5000B5F5407F30D0B5F5007FEBD102250123DC
:102B6000220303FA01F129D573689960326952BBD7
:102B700007F01F037F0973D13B4A84F4803102EBD5
:102B80008302D2F80032C1F30041C4F3404423F47D
:102B9000E16344EA410423F007031C4344EA800450
:102BA00044EA0524C2F800420020C5E70725D6E71D
:102BB0000425D4E70525D2E70325D0E7630344BF06
:102BC0007368D960D2E71036394630460DF10202FB
:102BD00001F044FC14F4403F80460CD139463046A5
:102BE00006F0C0F9214B9845DED130469DF8021021
:102BF00001F082FCD8E74FF0000901AB39463046BE
:102C000003AACDE90439CDE90199CDF80C9001F082
:102C1000F9FA164B98428DD114F4003315D09DF873
:102C2000033084F48034C4F300448DF80E30394608
:102C30004B46304603AA8DF80C508DF80D4001F03C
:102C40008FFB0A4B9842CDD074E7CDE90433394667
:102C50000DF10303304603AA039301F0D3FAF0E722
:102C6000803352F82330FFDE002584500000AD0B86
:102C7000F0B5406801F01F04057B87B044EA4514B5
:102C80000569002D5FD0B2F5001F00F1100506D1D7
:102C90002146284606F068F9002007B0F0BD00275D
:102CA000B2F5800F01AE0197776037D1B3F1007FA5
:102CB00014BF052304238DF804300023CDE90463F9
:102CC0000393836823FA01F111F0010118D1B2F1E5
:102CD000A07F15D104F01F03620903F1800338D1EE
:102CE0001D4A52F82330DB070AD40DF103063246A1
:102CF0002146284601F0B2FB184B984219D00296A3
:102D00002146284603AA01F07DFA154B98421DD1B1
:102D100001222146284601F0FBFBBDE7B3F1C06F5D
:102D200005D0B3F1007F14BF01230223C3E70323BF
:102D3000C1E73146284601F0E5FB094B9842DED059
:102D40006FF00B00A9E76FF08500A6E76FF01500A4
:102D5000A3E751F82330FFDE002584500400AD0BBB
:102D60000000AD0B2DE9F04740F2FF16594FDFF898
:102D700068C1DFF868E100EB8101814202D10020E7
:102D8000BDE8F087046814F4804FC4F3C325C4F38E
:102D9000080340F08C80240EB34208BF4FF0FF338D
:102DA0007D5D192C00F28680DFE804F00D13191CFC
:102DB0001F251C8484848436608484848484848471
:102DC000848463787B7EC2F80C355C1C5BD1043054
:102DD000D3E7C2F814355C1CF9D000245CE0C2F8DB
:102DE0000835F2E7C2F81035F5E75C1CC2F8083583
:102DF000EDD0002404E05C1CC2F80C35E7D00124BF
:102E00005FEA531859D14FF00109DFF8CC8009FA75
:102E100003FAC8F80CA008E0C2F80835002DDAD192
:102E20005C1CD4D000240625A146D0F800A00AF4EA
:102E30000048B8F1000F1CBF4FF00009012403F057
:102E40001F085B093FD10CEB8808D8F80032CAF3A1
:102E5000412A03EA0E0343EA8A0343EA052343EACD
:102E6000090343EA4403C8F80032B0E7C2F80C355E
:102E7000D4E7C2F86035B3F1FF3F0468A7D0C4F3CC
:102E80000044002CBBD05C091AD10124DFF8488033
:102E900004FA03F9C8F80890A146C6E7C2F86435F9
:102EA000E9E7C2F86835E6E7C2F86C35E3E76FF0AA
:102EB000150065E76FF0850062E70023DB60FFDE49
:102EC00000239B60FBE7002308F1800853F82830BB
:102ED000F5E700BF44A3000000258450F0F8FCFF94
:102EE0002DE9F04104460D46476806F071F94FF0B0
:102EF000200888B9264B1B7873B16426606805F0FA
:102F0000F4FCF0B9012005F073FF013EF6D1002179
:102F1000212006F0CDF9F0E7EFF31186314688F372
:102F20001288BFF36F8F606805F0DFFCA8B986F3E5
:102F30001188BFF36F8FEFE786F31188BFF36F8FB0
:102F4000E5E7EFF31186314688F31288BFF36F8F00
:102F5000606805F0CAFC0028EED0BB6900201D7037
:102F60006368BA691B68C3F844250122C3F8482581
:102F7000C3F82001D3F82041C3F85801D3F8580111
:102F80009A6081F31188BFF36F8FBDE8F08100BFB5
:102F90003D220020F7B50546426813691168C1F863
:102FA0002435137D507D927D03431343C1F86C3566
:102FB0006E68D6E9004313F0010348D02F6907F18A
:102FC000080000F05FFF304B98425AD1387A04F184
:102FD0000C0204F5907105F00DFF387A012707FA0D
:102FE00000F000F049FF0823C4F80035B369C4F8C5
:102FF00044350023C4F84835A760D4F85831002B75
:10300000FBD00021C4F800156B6801AADC682046DB
:1030100005F03EFC002805DB019B22681979186841
:10302000FFF7A0FE08216A681368C3F80015117A3B
:1030300051B9D269C3F834250122C3F83825C3F841
:103040001011D3F810111A60002003B0F0BD08224F
:10305000C4F80025B269C4F84425C4F848350123F2
:10306000A360D4F82031002BFBD00023C4F820311A
:10307000D4F820310123E3604FF48073C4F80433A3
:10308000BBE76FF00400E0E70000AD0B2DE9FF4166
:1030900005690646D0F80480A86C2B6D002835D150
:1030A000002B53D0B8F830406A6C9C4228BF1C46B5
:1030B000EF6CEB6C53B1296D41B107F06041B1F198
:1030C000005F03D0202C28BF20246F6E00926A6C12
:1030D000AC651AB1AA6C002A18BF2246CDE90127B7
:1030E0001BB12B6D002B18BF2346002269464046BA
:1030F000039301F0F1FC184B984229D06FF00401C2
:10310000304604B0BDE8F04105F018BD696CEF6CC5
:103110000A46B8F83040ABB1834228BF03469C4210
:1031200028BF1C460029C4D001F06043B3F1005F02
:10313000BFD0202C28BF2024286E224604F0C8FED1
:103140002A6EB6E7844228BF0446EBE71946D7E764
:1031500004B0BDE8F08100BF0000AD0B2DE9F04FD9
:103160008DB001934368884602938B880546990485
:10317000914604692DD44FF0FF324FF0FF3304F134
:10318000100001F0FDFFC4F80480D5F804B0D5F8B4
:1031900010A0DBF8083003939AF85D3023B1DAF819
:1031A0000030984500F09D80B8F804E01EF4006FF0
:1031B00016D06FF0850623689B8813F4005304D162
:1031C000636004F1100001F0A7FF30460DB0BDE8C8
:1031D000F08FA369002BCED163689845CBD1D4E79B
:1031E0001EF0090F02D06FF01506E4E7CEF3451389
:1031F000082BF8D1D8F800C08B4B9C45F3D904AE0E
:103200000BF10C070FCF0FC697E80F0086E80F00F1
:10321000039B634528BF63469C46844B9C4511D263
:10322000834B9C4546D8834B9C4545D8824B9C4557
:1032300044D8824B9C4543D88149824B824A8C4575
:1032400088BF13461EF0020F09930EF0040339D015
:10325000002B14BF032302238DF82830CEF3001374
:103260008DF82930DBF800301EF0020FD3F8082566
:1032700076484FF00103CEF340014FEA521625D1B4
:10328000002E40F0CB809340C3609AF85D302BB1A4
:10329000584601F0E5FB00238AF85D302B4658467E
:1032A0006B4A04A901F0A8FB6A4B984214D06FF056
:1032B000040680E7684BC5E7684BC3E7684BC1E786
:1032C000684BBFE7003B18BF0123C5E7002E40F065
:1032D000A78093408360D8E70123CAF800808AF86A
:1032E0005D30012384F85C30029B996B4A1C03D04B
:1032F00003F13C0000F0E8F8B9F1000F68D1C4F820
:1033000034900023A36304F1480204F1380104F16E
:10331000340005F03EFB019B6064002B60D1E36349
:103320000023236404F1500204F1400104F13C0045
:1033300005F02FFB002601213246E064266320467B
:1033400005F05EFB2846FFF7A1FE32463346A06B30
:1033500083424DD100231946266CB1424FD193428E
:1033600038BF134627464FF4FA524FF0000802FBCD
:1033700003F657F8203B4FF4004C1B684146B6FB60
:10338000F3F640F2E730C8364FF47A720023E6FBDA
:103390000C01FCF7D7FE02460B46384601F0F0FE62
:1033A000024618B9266B16F1740F2FD10298C4F893
:1033B000588001F055FB6FF07301284684F85D805A
:1033C00005F0BCFB384601F001FF6FF07306F2E632
:1033D000D9F800306363002B93D0D9F8043091E71B
:1033E000019B1B68E363002B9AD0019B5B6898E705
:1033F000616B01EBC301496801330A44A8E7E06B44
:1034000000EBC100406801310344A6E7002E3FF401
:10341000D2AE0146286905F0F3FACCE6C960FFDEBA
:1034200000239B60FBE700BF47E8010000127A0021
:10343000FF083D007F841E003F420F001FA10700D0
:103440008FD0030048E8010090D00300002584508D
:103450005F8B00000000AD0B00093D0080841E0062
:1034600040420F0020A107000123F0B587B08DF87E
:103470000230022300248DF804306B4403930F467E
:1034800001AB0DF10301049305460291059401F08F
:1034900039F80C4B064698420FD13946284603AA04
:1034A00000F0B0FEB0420BD028469DF8031001F0AA
:1034B00023F86FF0040007B0F0BD6FF01200FAE7D8
:1034C0002046F8E70000AD0B2DE9F0410D46064619
:1034D00005F04CFD002207462946304601F018F859
:1034E0006B0905F01F0429D1174B03EB8404D4F8B2
:1034F0000022164B134043F00C03C4F8003205F0D1
:1035000093FB80463368DB597BB100273046294660
:1035100005F02AFDD4F800220C4B3846134043F046
:103520000403C4F80032BDE8F08105F07DFBA0EB98
:1035300008000628E6D96FF07307E7E70023803418
:1035400053F82430FFDE00BF00258450F0F8FCFF64
:103550000123834070B5DC430B4AD2E8EF1F01EA38
:103560000405C2E8E65F002EF7D14FF480328240B6
:103570000648C0F80823BFF35F8FBFF36F8F0B427D
:1035800014BF0120002070BDB41E00200050015067
:1035900070B40E4922F07F46D1E90034D01AC31826
:1035A00044F10004C1E90034A6F50013B3F5400F5F
:1035B00009D2074B1B681A0A1B069C19054B42F1DE
:1035C0000005C3E9004570BC02F0A2BAF801002072
:1035D000B81E002000020020D9B101230D4A83400B
:1035E000D2E8EFCF4CEA030CC2E8E1CF0029F7D1D3
:1035F0004FF48033084A8340C2F80433074BD3E8C2
:10360000AF3FC340DB0742BF4FF40012044BC3F887
:1036100000217047B41E002000500150B01E002051
:1036200000E100E00D4B1868010A0006BFF35F8F50
:103630000B4BD3F80435181841F10001B3F5801F86
:103640000AD2084BD3E90023904271EB030303D263
:1036500010F1807041F10001704700BFB81E0020DA
:1036600000500150000200202DE9F04F85B01646B1
:103670001F4604469DF840A0FFF76AFF0190FFF740
:10368000D1FFB04271EB070352D23B4B301A67EBCC
:103690000101984271F100014DD2384B03EB041344
:1036A000D3E902239F4208BF964258D04FF4803896
:1036B000334908FA04F8204626F07F4BC1F84883C6
:1036C00005F0A6FA4FF00309584604F15005AD0085
:1036D000ADB205F1502504F5A87305F580350293C8
:1036E000029A20F07F4341F82230C1F84483D1F898
:1036F0000435244AC01A033820F07F4090422ED966
:10370000286868B1D1F80435A3EB0B0020F07F40A6
:10371000B0F5000F039322D9204605F079FA039BF8
:10372000BAF1000F07D109EB030009F10109D7E74E
:10373000BAF1000F09D06FF0150520460199FFF787
:103740004BFF284605B0BDE8F08F01230E4AA34089
:10375000D2E8EF0F1843C2E8E10F0029F8D107497A
:103760000E982301C8500F9B01EB04120025C2E9FB
:1037700002675360E1E700BF01008000E80100201C
:1037800000500150FDFF7F00B01E00207FB50025D6
:103790004FF0FF304FF0FF31194C1A4B0226C4F89E
:1037A0000833C4F84833184BC4F80855C3E902017C
:1037B0004FF480334FF40012C4F80433134B01214B
:1037C000C4F804631520C3F880212A46FEF70CFED6
:1037D0001520FEF7D9FD01230D4AA3602360136075
:1037E0000C4B0D4A009328460023CDE90155FFF705
:1037F0003BFF3046FEF7F0FF284604B070BD00BF27
:103800000050015003000F00E801002000E100E03B
:10381000B41E002091350000FFFF7F002DE9F74323
:103820002E4BD3F8042390070BD5D3F8042142B1D3
:103830000022C3F804212A4AD3F804311368013363
:103840001360264AD2F80433D90326D5254BD3E892
:10385000EF1F21F00100C3E8E40F002CF7D1CB07E4
:1038600002D4D2F84031C3B100251C4CC4F84051F9
:10387000D4F84031FFF7D6FEEFF31182202383F313
:103880001288BFF36F8F184BD3E90267B042B9417A
:1038900006D282F31188BFF36F8F03B0BDE8F083C7
:1038A0004FF0FF38D3E900104FF0FF391D60C3E936
:1038B00002894FF48033C4F84833C4F84051D4F837
:1038C000403182F31188BFF36F8F0029E5D000905B
:1038D00032463B4628468847DFE700BF005001508C
:1038E000B81E0020B01E0020E801002030B5431CA7
:1038F000124C85B005D08442A8BF0446012CB8BF45
:103900000124FFF78FFE0E4B0C4DD3E90013401A34
:10391000B0F5000F0FD22218AA4228BF2A46002075
:1039200052180849CDE90100009143F10003FFF767
:103930009BFE05B030BD2A46F1E700BFFFFF7F00C8
:10394000F80100209135000008B5FFF76BFE024B2F
:103950001B68C01A08BD00BFF8010020012310B584
:10396000074C15206360FEF71DFD4FF40012054B58
:10397000C4F80833C4F84833034BC3F8802110BDA2
:103980000050015003000F0000E100E040EA010395
:10399000C3F30E0330B58BB940F21515094CC90BB2
:1039A000C0F3C730994201D1002030BDC218D2B255
:1039B00002F5C07244F822500133F3E76FF01500AE
:1039C000F3E700BF0030005030B5816885B0103992
:1039D00021F00704054604F0E5F910220146684687
:1039E00004F081FA10226846064904F071FA1023A7
:1039F0006A462146284604F09FF9003818BF012086
:103A000005B030BD3A9C000030B50D46816887B0E6
:103A1000102302AA1039044604F079F9002802DACA
:103A2000012007B030BD1022204602A905F01FF981
:103A300000283AD110221E4902A804F039FA0028C1
:103A40000CBF012302232B70204605F0FCF8012354
:103A500001460DF10702204604F059F90028DFDB8A
:103A60009DF80730204603F00F021B096A702B7186
:103A700001220DF1070105F0FAF810B96B78042B5B
:103A800003D901236B7000232B71A2682046183ADA
:103A900022F00702083AA91C05F0FCF80028BFD163
:103AA0002046E91C05F04FF9BBE70323CBE700BF35
:103AB0003A9C0000F0B5354F85B046000546694692
:103AC00057F8260005F045F9044610B1FF2005B06F
:103AD000F0BD013657F8260002A905F03AF9012891
:103AE00037D12A4649212A4804F003F9294B8DF899
:103AF0000C40029300229DF800609DF80870264C4F
:103B00003146207805F0A5F850B33946607805F0C5
:103B1000A0F828B3A378042B03D09DF80310994292
:103B20001ED1E378042B03D09DF80B10994217D1D6
:103B30002379042B10D16279022A1DD1174B184822
:103B40002A46492104F0D5F86079831E022BBED99C
:103B5000BCE70028CED0B9E79DF802109942EAD020
:103B60000132032A04F10604CAD10E482A4649212B
:103B700004F0BFF80120AAE7032A05D00A4B0B493D
:103B8000042A08BF0B46DAE7094BD8E7889A0000F9
:103B90008CA300000301030321A400006EA3000016
:103BA000D7A30000FBA3000073A3000085A30000BF
:103BB00069A3000008B5EFF31083012B0C4A07D16D
:103BC000126ABFF34F8F511C4A424A41104608BD4A
:103BD00005F0ECF800B172B6126ABFF34F8F531CB8
:103BE0005A425A4105F0E2F80028EFD062B6EDE7FC
:103BF0000080FF0008B5EFF31083012B0B4A06D1BC
:103C0000D269BFF34F8F02F00102104608BD05F0E4
:103C1000CDF800B172B6D269BFF34F8F02F0010246
:103C200005F0C4F80028F0D062B6EEE70080FF008F
:103C300010B505F0BBF830B14FF050230022C3F8A7
:103C40001421C3F8182105F0C0F828B10122644BF3
:103C5000C3F8382AC3F878254FF47F02D2F8303100
:103C6000D2F83421BFF34F8FC3F30B03092B05D1D7
:103C7000012A1EBF01225A4BC3F8782505F0A5F88A
:103C800018B10E22574BC3F8E42E05F08FF830B16F
:103C90000022534BC3F80C270122C3F8102700223F
:103CA000D30003F57F03D3F80013BFF34F8F013127
:103CB00008D0D3F800130132D3F80433B2F5807F73
:103CC0000B60EDD1EFF31084FFF794FF00284DD087
:103CD000BFF34F8F444BD3F80024012AFBD1C3F824
:103CE0000425D3F80024012AFBD1012C03D005F0D0
:103CF0005DF800B172B6FFF77DFF58B13B4AD3695A
:103D000023F00103D361BFF34F8F374AD2F8003459
:103D1000012BFBD1FFF74EFF68B1344A136A23F041
:103D2000FF0343F020031362BFF34F8F2E4AD2F8F4
:103D30000034012BFBD1012C03D005F037F800B182
:103D400062B60022284BC3F80425D3F80024012AC8
:103D5000FBD1BFF34F8F2649264BCA6802F4E062BD
:103D60001343CB60BFF34F8F00BFFDE7FFF722FF88
:103D70000028ADD11E4AD2F88C3043F44063C2F81B
:103D80008C304FF47F03D3F83021D3F83431BFF3B4
:103D90004F8FC2F30B02092A16D1013B022B02D826
:103DA000154AD35C83B11148144903680E4A8B420B
:103DB0000CBF5A230023C2F8103EC36A8B420CBFCB
:103DC0005A230023C2F8003E094AD2F8883043F44F
:103DD0007003C2F88830BFF34F8FBFF36F8F10BDF1
:103DE0000040005000A00350009003500080FF00EE
:103DF00000ED00E00400FA0533A40000FA50FA5088
:103E000030B50468ACB1B4FA84F30122C3F11F03E6
:103E1000DBB29A4024EA0202D0E8EF5FA54204D167
:103E2000C0E8EC2FBCF1000FF6D1EAD102480B70CC
:103E300030BD0248FCE700BF0000AD0B0200AD0B37
:103E400010B50368CB40DB0710D401238B40026818
:103E500043EA0201D0E8EF4F944204D1C0E8EC1FDE
:103E6000BCF1000FF6D1F2D1014810BD0148FCE7CA
:103E70000000AD0B0400AD0B014BC3F80405704707
:103E8000007001500146014800F0B6B8A4000020BF
:103E9000044B1A7922B9012218601A71024870473E
:103EA00002487047BC1E00200000AD0B0C00AD0B9B
:103EB00008B5084B1B6833B10520FEF787FA10B927
:103EC0000520FEF761FA4FF050230122C3F81825B0
:103ED00008BD00BFBC1E002010B510B1012847D09E
:103EE00010BD4FF05023D3F81814D3F81824C90389
:103EF00022D502F00303022B05D0012B02D00020B3
:103F000004F07FFF01234FF050220220C2F8183541
:103F100008224FF48273002103F1502319601C68BA
:103F2000012402F150221460164A126822B34FF0A5
:103F30005023C3F80403D3E7D3F81424D207E1D500
:103F4000D3F81C2402F00302013A012AD7D80D4A03
:103F500012681AB10222C3F80423C1E7D3F804217E
:103F6000002AFBD00022C3F80421D3F80431B7E7BC
:103F700000224FF48073CEE71A68002AFCD0196043
:103F80001B68ADE7BC1E0020F8B54FF0502301259B
:103F90000026D3F80443174F04B9F8BDB4FA84F0EF
:103FA000C0F11F00830003F580739BB203F150231F
:103FB00005FA00F21968D2B224EA02040029EBD013
:103FC0001E601B684FF05023022AC3F808230DD14E
:103FD000D3F81814D3F8181401F00301012905D1FE
:103FE000C3F81825C3F804239960D5E73B68C0B22D
:103FF0009847D1E7BC1E00200079024B03EB00106C
:10400000FFF7FEBEAC000020036803F01F025B094F
:104010000260024818BF0020704700BF002584508E
:1040200070B50D4C00F1080334F813300546DA057D
:104030000E4607D5C3F3432304EBC302526854F87A
:1040400033309847A3682BB131462846E268BDE873
:104050007040184770BD00BFBC000020024611F040
:10406000010004D003490B6A13600B6203B90020FE
:10407000704700BF0025845010B4134AC0B2083006
:1040800032F81030D9051CD5C3F3432123F4F8537B
:1040900022F81030002002F10E0434F8023F13F42D
:1040A000807F03D0C3F3432399420AD001302028F4
:1040B000F3D1002342F8313004485DF8044BFFF798
:1040C000BFBE5DF8044B7047BC0000201401002007
:1040D000F0B5054600200126044607468C420BD168
:1040E000114BD3F87C2132B10022C3F87C21D3F8E4
:1040F0007C3140F00040F0BDE3B29B0003F58072DC
:104100009B0806FA03F31D420BD002F1A04202F510
:104110005042D2F800C0BCF1000F02D01760126804
:1041200018430134DAE700BF00D00050064BC0B29C
:10413000083033F81000830643BF400B800000F5C1
:1041400080704FF4BE707047BC000020CBB20246B6
:1041500008460D49083331F81330990611D59907EF
:104160000FD4012110685B0B9940C0F80813126846
:1041700002EB8303D3F8102522F00302C3F81025C5
:104180007047002104F0DFBEBC000020F7B5194ED7
:10419000CDB2083536F815300746DB070C4626D574
:1041A000FFF7D4FF36F815309A0608D55A0B3B684E
:1041B00003EB82030022C3F81025C3F81025204624
:1041C000FFF75AFF002301A826F815300194FFF7E6
:1041D0001BFF019B00EB8300D0F80022064B13402D
:1041E00043F00203C0F80032044803B0F0BD0448B5
:1041F000FBE700BFBC000020F0F8FCFF0000AD0BA7
:104200000400AD0B2DE9FF41136807460C46164626
:10421000FBB1DFF84481CDB2083538F8152002F043
:104220002202222A22D000222046CDE900228DF847
:104230000E208DF80F200DF10E010DF10F0204F08C
:1042400039FE38F8153023F0020343F0010328F853
:10425000153073684BB31A785868DFF8FCC0E3B2C6
:1042600008333CF813108D0702D5B0B138481FE071
:1042700021F02001C904C90C2CF8131068B1032ADD
:10428000F4D870683D68406890F800E005EB8E0552
:104290008AB9C5F81025C5F810253CF8131021F08F
:1042A0001C0141EA82022CF81320B3682BBB294879
:1042B00004B0BDE8F081D5F8108541EA4E3128F010
:1042C0000308C5F810853D6841F0200105EB8E0517
:1042D000D5F810052CF8131020F4473020F4407066
:1042E000C5F810052002D5F8107500F4F85040EA22
:1042F00002403843C5F81005CFE72046D3E90067F0
:10430000FFF7BAFE002ED2D0134DD5E90023964216
:1043100003D19F4201D1002209E010480DF10F01A5
:10432000FFF76EFD0B4B9842C2D19DF80F20E4B20F
:1043300005EBC20308345F6035F8143045F832608D
:1043400043EA422343F4807325F81430AFE700BFFB
:104350000400AD0B0000AD0BBC00002014010020D8
:104360002DE9FF4107460C461E4612B3DFF8D48004
:10437000CDB2083538F81530980701D4990621D404
:1043800013F01C0F02D05378012B1BD001238DF8A2
:104390000F3000232046CDE900230DF10F01931CBF
:1043A000013204F087FD38F8153043F0030328F894
:1043B0001530002E44D0234DE1B2083135F81120DC
:1043C000930703D4204804B0BDE8F081002096F89C
:1043D00000E03B6822F02002D20403EB8E03D20CF3
:1043E000C3F8100525F81120C3F8100596F801C090
:1043F0004FEA8E08BCF1000F22D03868B6784044EE
:10440000D0F810354FEA0C4C23F4981323F4F853EA
:10441000C0F81035230203F4F8530CF4403C360581
:10442000D0F8107543EA0C0306F48016334342EAD1
:104430004E323B4342F02002C0F8103525F81120DF
:104440000248C0E7BC0000200400AD0B0000AD0B2B
:10445000014BC3E902127047BC000020054BC9B2F2
:10446000083133F81130990643BF5B0B02481370D3
:1044700002487047BC0000200000AD0B0400AD0BEB
:1044800070B5154D064695F860401CBB214640228C
:1044900005F1100003F027FD214630682E6D8E4295
:1044A0000ED10023C0F87C31D0F87C3140F30730C6
:1044B000FDF76AFF0123094885F86030AB6570BDE0
:1044C000CBB29B0003F580727C2B04BF84508358D1
:1044D0000131E4E70248F2E7BC0000200000AD0B28
:1044E0000C00AD0B034B93F86000003818BF01209F
:1044F000704700BFBC0000200148FFF7A1BC00BF0F
:10450000100100200148FFF77BBC00BF1001002014
:1045100073B503680C46D3F804130029A4BF4FF009
:104520000041C3F804131E49E3B2083331F81330D5
:1045300099061AD513F0020617D15B0B05689C008B
:1045400004F580716E50695801682144D1F8104516
:1045500044F00104C1F810452AB10122016802FAB1
:1045600003F3C1F8043302B070BDC3F38203042B1C
:1045700011D0052B11D001A80194FFF745FD019A38
:104580000369D34003F00103991C204602B0BDE843
:10459000704004F0D8BC0321F7E70221F5E700BF23
:1045A000BC0000202DE9F347534B544FD3F80403CC
:1045B000396DC0B240F00040FFF78AFD051E18DAE1
:1045C00000236846F96D00934FF00108FFF746FDA0
:1045D00097F85C30DA0757D4396D4FF00040FFF799
:1045E00077FD6846F96DFFF739FD0028F0D125F019
:1045F00000450124002D66D102B0BDE8F08794FA91
:10460000A4F4B4FA84F4E00804F1080337F8139032
:1046100004F007021DF8003008FA02F223EA020350
:104620000DF8003001A80194FFF7EEFC019B4FEA62
:104630009901803350F82360C9F3820A4B07D146B1
:10464000C6F3014624D520465146FFF7E9FC01A8F0
:104650000194FFF7D9FC019BF6B2803350F8233068
:10466000C3F301439E4207D10021204604F06BFCB6
:104670003146204604F067FC01A80194FFF7C4FC12
:10468000019B08FA03F30362009C002CB7D1A3E757
:10469000022E0CD10321204604F055FC0AF005033C
:1046A000012BE9D149462046FFF7BAFCE4E7022195
:1046B000204604F048FCBAF1030FF3D0032EDBD1FF
:1046C000BAF1020FEDE795FAA5F3B3FA83F304FA12
:1046D00003F29B0003F1A04303F55043D3F8100508
:1046E000D3F81015C0F30420C1F3014125EA0205F7
:1046F000FFF796FC7EE700BF00D00050BC00002012
:104700000022034BC3F88425C3F80425704700BF7B
:1047100000900350044AD2F80834DB07FBD501604F
:10472000BFF35F8F704700BF0090035008B5C0F320
:104730000B0383B90222094BC3F88425C3F804256F
:104740004FF0FF320260D3F80024D207FBD5FFF709
:10475000D7FF034808BD0348FCE700BF00900350A3
:104760000000AD0B0A00AD0B012208B5054BC3F8E4
:104770008425C3F80425FFF7CDFFBDE80840FFF707
:10478000BFBF00BF00900350430904D10123034A77
:1047900083409360704700239B60FFDE00258450B8
:1047A0000C4B984213D00AD80B4B98420FD00B4BAE
:1047B00098420CD00A4BC31A584258417047094BD3
:1047C000984204D0084B984201D0084BF3E70120EF
:1047D000704700BF40420F0090D0030020A10700A7
:1047E00048E8010000093D0000127A0080841E00A4
:1047F000431C14D000F01F0340090BD1084A02EB00
:104800008302D2F80012074B0B4043F00203C2F8B8
:10481000003270470022803352F82330FFDE7047A9
:1048200000258450F0F8FCFF430904D10123034A1A
:104830008340D36070470023DB60FFDE0025845097
:1048400038B51446421C054616D0012902D1A3B141
:10485000FFF79AFF05F01F036D0911D10B4A41EADA
:10486000840402EB8303D3F80002094A0240144394
:1048700044EA4101C3F8001238BDFFF7D5FFE9E76C
:104880000022803352F82330FFDE00BF0025845021
:10489000F0F8FCFF2DE9F843504B4D6906469D4268
:1048A0000C4690F8049000F0848077D84C4B9D42E1
:1048B00000F082804B4B9D4200F081804A4B9D422C
:1048C0000CBF4FF000754FF080452422DFF82481A3
:1048D000E07E02FB0983997F60F3000199773379C9
:1048E000217C02FB03839A7F61F341029A77E77E82
:1048F000EFB9237E3A46012B94BF00230123012107
:104900002068FFF79DFF3B463A4601216068FFF7AC
:1049100097FF3B463946A27EA068FFF791FF237CB4
:104920003A460121E06883F00103FFF789FF242361
:1049300003FB0983E2681A62217C9A7F61F34102DA
:104940009A77277FA07C217E637E326847B9D4E9BD
:1049500000C7A468C2F808C5C2F80C75C2F81045B3
:10496000003B18BF01230229C2F8C005C2F8245534
:104970002BD003292CD0012901D143F00203C2F826
:10498000543524223379534358F803301BB330682D
:10499000BDE8F84340F30730FDF7F6BC134B9D42EA
:1049A00010D0134B9D420CBF4FF000454FF0804597
:1049B0008BE74FF0805588E74FF0806585E74FF033
:1049C000006582E74FF000557FE743F00403D6E728
:1049D00043F00603D3E7BDE8F88300BF40420F0071
:1049E00090D0030020A1070048E8010080841E0049
:1049F00000127A00C41E00202DE9F8430746242542
:104A000097F80480124C05FB08F504EB05091E46D7
:104A100099F81C30C3B999B14869FFF7C1FEA8B134
:104A200038466251C9F80460FFF734FF242303FBC2
:104A3000084400236377012306482377BDE8F88301
:104A40006251C9F80460F1E70348F7E70348F5E766
:104A5000C41E00200000AD0B0C00AD0B0400AD0B1C
:104A60002DE9F041044606790068194D40F30730FE
:104A7000FDF798FC24237343EB5853B12368154A80
:104A800006EBC601C3F80823206805EB810104F09A
:104A9000CCFA2368242404FB0654D3F80805D3F881
:104AA0000C75D3F81085A37FDB070AD4FFF7A0FEAF
:104AB0004046FFF79DFE3846FFF79AFE206AFFF753
:104AC00097FE242303FB065500232B77BDE8F081D6
:104AD000C41E00205201080024232DE9F043077969
:104AE000534D7B439046EA180E46517F814685B070
:104AF000002940F09B80EB5823B118F0140F04BF3D
:104B000001235377242496E80F0004FB075404F193
:104B10000C0C8CE80F00206A421C04D0A37F9B077A
:104B20001AD5FFF731FE3368D9F8004023B103F0FE
:104B30006043B3F1005F06D1B36883B103F0604313
:104B4000B3F1005F0BD02423002203FB0753394845
:104B50005A7705B0BDE8F083FFF766FEE3E718F08B
:104B6000010318BF0123C4F8503518F0020318BF21
:104B70000123EC46C4F8403596E80F008CE80F009E
:104B8000039BC4F84405C4F84815C4F83425C4F898
:104B900038350023C4F81831D4F818310723C4F885
:104BA000003524237B4318F0080F05EB03021DD1C9
:104BB0000121E858216158B9D4F81831002BFBD0F5
:104BC00062464021204604F0F2F924237B43EA1890
:104BD000EB5813BB106A461C13D107EBC7072046DE
:104BE00005EB870104F021FA1348B2E7EB58A3B9AB
:104BF000106A411CF8D0937F9A070BD5FFF714FE7B
:104C0000F2E7937F9B0702D5FFF70EFEE5E7FFF77C
:104C1000BBFDE2E7FFF7B8FDE6E7402318F0040F1D
:104C200014BFC4F80833C4F80433DDE7034890E741
:104C3000C41E00200A00AD0B0000AD0B0B00AD0B35
:104C400010B540210F4A104804F0B1F9C8B10F4C1B
:104C5000206A421C04D0A37F9B070FD5FFF7E4FD19
:104C6000637F1BB10949084804F0DFF90023237270
:104C70000748D4E90031BDE810401847FFF784FD2C
:104C8000EEE710BDD01E002000B00050C41E002072
:104C9000CC1E002038B5EFF31185202383F3128852
:104CA000BFF36F8F064B9C6804F0EDF985F3118814
:104CB000BFF36F8F2046BDE83840FDF7F3BA00BF61
:104CC000E81E002038B5094B53F82040013053F856
:104CD0002050A54200D838BD636823B1204604F0B7
:104CE000D5F90834F5E723689847FAE7909A000069
:104CF000012270B52A4B032086B01A70FFF7E2FF3D
:104D0000FDF72AF804F0DEF90420FFF7DBFF254C5D
:104D1000254D2646AE4204F1300410D300F028FCA5
:104D2000204C224EAC4226D300F036FCFBF772FB3F
:104D30001F4A137B23F00103137306B070BD54F8B0
:104D40000C3C059354F8103C049354F8143C039322
:104D500054F8183C029354F81C3C019354F8203C3E
:104D6000009354E90A2354E90C0100F05FFA54F867
:104D7000303C5E65CDE7D4E90A23B3F1FF3F08BFBD
:104D8000B2F1FF3F05D052EA0301206803D100F0E1
:104D9000C3FC3034C6E73146183000F043FEF8E774
:104DA0003D220020C0960000C0960000A99200009D
:104DB000C802002008B50348034A0021121A04F073
:104DC0007DF908BDE801002040220020C02370B515
:104DD000134E012203FB0066002386B0CDE90423B5
:104DE0000F220193CDE9023218234FF4A0720D4D2A
:104DF0000D4903FB0055044602FB00110B4B3046E6
:104E0000009500F013FA737B2C7423F00403737382
:104E1000074B013403EBC423EE606B6006B070BD3A
:104E200008020020E81E0020402A00208591000092
:104E300040220020BFB50020FFF744FF2A4B03F5B6
:104E4000006282F3088883F30A880024E023274D58
:104E5000274E85F82230EC772C766C76AC7685F888
:104E600020406B6A234F43F4E0236B6285F82340B4
:104E7000FDF7ACF9FDF768FB4FF0FF3340F201128C
:104E8000AB62EB621C4B1D4D9A81B360C3E91944C0
:104E90001C6704F0E4F80120FFF714FF0220FFF77D
:104EA00011FF00F0ADFB164BB561059301231549C9
:104EB0004FF48042CDE9034328463B46CDE9014407
:104EC000009400F0B3F906466A7B284622F00402FB
:104ED0006A7304F0BDF92046FFF778FF3A46314681
:104EE0002846FDF709FB00BF4022002000ED00E04E
:104EF000E81E0020F14C000088030020C8020020BA
:104F000036A40000802B0020002038B5054C064D4B
:104F1000AC4200D338BD204604F0D5F80028F9DBB8
:104F20001C34F5E7960100209601002073B50C466D
:104F3000EFF31181202585F31288BFF36F8FC568C9
:104F40005DB125602B68C3608369013383610020F4
:104F500081F31188BFF36F8F11E052EA030603D18A
:104F60006FF00B002560F3E7CDE90023024608301F
:104F700000F05EFA18B9034B9B685B69236002B0CE
:104F800070BD00BFE81E00202DE9F341044617461E
:104F90001E46EFF31188202383F31288BFF36F8F2F
:104FA000C368334A7BB180689168884219D057EA58
:104FB000060318D188F31188BFF36F8F6FF00F00CD
:104FC00002B0BDE8F081916891F90E100133E36001
:104FD00093682161A36088F31188BFF36F8F00206D
:104FE000EEE72169F2E791F90E1090F90E306FF0BB
:104FF0007E029942A8BF19469142B8BF11468B4222
:105000002DDD04F0CAF8054622464146CDE900767A
:10501000184800F00DFA0028E1D0EFF311862023A4
:1050200083F31288BFF36F8FA068D0B12368216922
:105030009C420AD04BB193F90E309942A8BF194651
:105040006FF07E039942B8BF194604F0A6F840B14C
:105050003146084800F066FA6FF00A00B0E7002514
:10506000D2E7002DF4D186F31188BFF36F8FF3E7F9
:10507000E81E00203E220020F8B583680546002B7C
:105080003FD0234A926893423ED1C368012B03D993
:10509000013BC3600020F8BDEFF31187202383F3A9
:1050A0001288BFF36F8F0169806804F076F82C686E
:1050B000AC4207D10023C5E9023387F31188BFF35F
:1050C0006F8FE7E7002CF5D0D4E90032002613609B
:1050D0005A60637BC4E9006623F002036373A66031
:1050E00004F1180004F016F9AC6094F90E30204673
:1050F0002B61A66704F0ACF83946064800F012FAB6
:10510000C8E76FF01500C6E74FF0FF30C3E700BFF8
:10511000E81E00203E22002070B5EFF31186202308
:1051200083F31288BFF36F8F0468A0421AD0CCB10A
:10513000D4E90032002513605A60637BC4E900554E
:1051400023F002036373A56004F1180004F0E2F891
:105150002046A56704F07CF83146BDE8704007485A
:1051600000F0E0B9D0E902329A4218BF01338360FF
:1051700086F31188BFF36F8F70BD00BF3E22002001
:1051800013B5EFF31181202484F31288BFF36F8FDE
:10519000846844B1013C846081F31188BFF36F8F50
:1051A000002002B010BD52EA030406D181F3118839
:1051B000BFF36F8F6FF00F00F3E7CDE900230246D6
:1051C000014800F035F9ECE73E2200202DE9F041DE
:1051D0000546EFF31188202383F31288BFF36F8F06
:1051E00000266FF00A072C68A54214D09CB1D4E9C0
:1051F000003213605A60637BC4E9006623F0020347
:105200006373A66004F1180004F084F82046A767D1
:1052100004F01EF8E7E70023AB604146BDE8F0412B
:10522000014800F07FB900BF3E2200202DE9FF4178
:105230000E9E00F1580506730426C0E91655002598
:10524000044646730D9EC0E906558673D61D0C9A1A
:1052500026F00706C0E919168560C573C566029277
:105260000B9A01EB060801920A9A00924246FDF75A
:10527000FFF8054B65659B6803B11B6F40462367CC
:1052800004B0BDE8F08100BFE81E00206FF00A0105
:10529000084A93689967084958674B6843F08053F8
:1052A0004B60002383F31188BFF36F8F9368986F6F
:1052B000704700BFE81E002000ED00E070B590F9D7
:1052C0000D20437B002A39DBD90637D18269002AB9
:1052D00034D11D4C63F07F032246437352F81C3FC8
:1052E00093422CD1216AC0E900210860206211E0BC
:1052F0009942F8D01B68002BF5D090F90E5093F925
:105300000E60B542F4D0AE42F2DD5968C0E900311A
:1053100008605860E569954200D005B9E568A36862
:105320005A7BD20604D1DA897F2A01D9AA6942B10F
:10533000AB4202D0284600F0D3FAA56170BD216AC5
:10534000D9E7A361FAE700BFE81E002038B590F95D
:105350000D200146002A437B04DA03F07F034373E8
:1053600003F03CFF0D4D2A4652F81C4FAB689442A7
:1053700000D004B9EC688B4207D05A7BD20604D126
:10538000DA897F2A01D9A2692AB1A34202D0204634
:1053900000F0A6FA2346AB6138BD00BFE81E00202E
:1053A00070B590F90D200146002A437B04DA03F022
:1053B0007F03437303F012FF1C4C4B7B224663F0C8
:1053C0007F034B7352F81C3F206A934207D1C1E917
:1053D00000200160216211E09842F8D01B68002B88
:1053E000F5D091F90E5093F90E60B542F4D0AE426B
:1053F000F2DD5868C1E9003001605960E569A368D1
:10540000954200D005B9E5688B4207D05A7BD20699
:1054100004D1DA897F2A01D9AA692AB1AB4202D024
:10542000284600F05DFA2B46A36170BDE81E0020FF
:10543000F8B5124B0C46DDE9067611469868104A1D
:105440001060EFF31182202282F31288BFF36F8F76
:105450009D68284603F0D4FEB6F1FF3F08BFB7F1C0
:10546000FF3F06D03A463346064905F1180000F0E2
:10547000D9FA2046BDE8F840FFF708BFE81E002033
:10548000101F0020A9920000F8B50446EFF3118622
:10549000202383F31288BFF36F8F437B49B2DA0670
:1054A00017D18269AAB903F07F031D4D437303F03E
:1054B00095FE2A46437B817363F07F03437352F862
:1054C0001C3F93422AD1286AC4E9002004602C6260
:1054D00016E00020A17386F31188BFF36F8FF8BD2B
:1054E0008342F1D01B68002BEED093F90E70B942C5
:1054F000F6D08F42F4DD5968C4E900310C605C607D
:10550000EC69944200D004B9EC68AB689C4202D0CC
:10551000204600F0E5F90120AC61DCE7286AE2E70B
:10552000E81E002049B9EFF3058030B9054B9A69B0
:105530009B689A4201D0FFF7A9BE81F31188BFF39F
:105540006F8F7047E81E0020034648B9EFF30582CD
:1055500032B9064A91699268914201D0FFF796BE2E
:1055600083F31188BFF36F8F704700BFE81E0020E0
:10557000EFF31181202383F31288BFF36F8F054B64
:105580009A68D37B013BD37381F31188BFF36F8F8C
:10559000704700BFE81E002070B5EFF3118620238E
:1055A00083F31288BFF36F8F144DAB68DA7B01323F
:1055B000DA732A4652F81C4F944200D004B9EC68C2
:1055C0005A7BD20604D1DA897F2A01D9A2692AB18D
:1055D000A34202D0204600F083F92346AB6186F354
:1055E0001188BFF36F8FEFF31180202383F31288AC
:1055F000BFF36F8FBDE87040FFF7A6BFE81E002025
:10560000024B03F11C02C3E907227047E81E002089
:1056100070B5EFF31186202383F31288BFF36F8FE9
:105620001B4CA168206A0B68814214BF1A460022F5
:1056300049680B605960A368216A2AB9154AC3E911
:1056400000210B6023620CE093F90E0092F90E50DA
:10565000A84218D0854216DD5168C3E900210B60CD
:105660005360E5690B4B9D4200D005B9E568A3681E
:105670009D4202D0284600F033F9A5613046BDE8CE
:105680007040FFF703BE8A42D8D01268D5E700BF4A
:10569000E81E0020041F002050EA01032DE9F0411C
:1056A00005460E4604D1FFF7B3FF0020BDE8F081A8
:1056B000831C71F1FF3324DB03F04DFE2C18EFF354
:1056C0001188202383F31288BFF36F8F0F4F104B85
:1056D000B8681860FFF73AFEB8680E492A463346A4
:1056E000183000F09FF9BA684046537B43F004033A
:1056F0005373FFF7CBFD03F02EFE201A20EAE07073
:10570000D4E76FF00104241AD9E700BFE81E002097
:10571000101F0020A992000038B50446183003F08D
:10572000F9FDEFF31185202383F31288BFF36F8F08
:10573000637B5A0704D485F31188BFF36F8F38BD9C
:1057400023F0040320466373FFF7B8FDEFF30583EE
:10575000002BF0D12946BDE838400148FFF7E2BEF2
:105760003E220020014B9868704700BFE81E0020D1
:105770002DE9F8430446EFF31187202383F31288C1
:10578000BFF36F8F067B16F001060DD087F31188EB
:10579000BFF36F8F002383F31188BFF36F8F042350
:1057A000184602DFBDE8F883437B1A0704D587F368
:1057B0001188BFF36F8FF5E7D90943F0080253D181
:1057C0004273A36813B1204603F010FD04F11800E2
:1057D00003F0A0FDA56D04F15808A84511D04FF0C5
:1057E000000975B1284603F001FD05F1180003F02A
:1057F00091FD2846C5F87890FFF760FDA56DA84596
:10580000EFD11D4DAB689C4204D1EFF30586003EFD
:1058100018BF0126D5F81C80184A904502D0B8F16F
:10582000000F01D1D5F80C80434502D0404600F06E
:1058300057F82046C5F81880FCF73AFE46B140F20A
:1058400001120F4B9A810022C3E919221A67AB603B
:10585000AB689C42ABD1EFF30583002BA7D1384650
:10586000BDE8F843FFF712BD03F07F0343F00803E0
:10587000437303F0B3FCA4E7E81E0020041F0020DC
:10588000880300200122044BC01A044BC010584367
:10589000034B1A54704700BF48040020ABAAAAAAC1
:1058A0003E220020C3897F2B12D80A4B1B6863B1AC
:1058B000094B90F90E201B689A4209DB437BDB06FB
:1058C00006D1064BC31A18BF012303F0010070472D
:1058D0000023FAE7181F0020141F002008020020F0
:1058E00070B50E4B0E4C1E7C054606EB460304EBD2
:1058F000C304204603F00EFD00220A4B28469A55A9
:10590000FFF7D0FF48B1084B2046BDE870401A6849
:105910000649013AD31700F085B870BDE81E002093
:10592000480400203E220020181F00208558000057
:1059300038B5EFF31185202383F31288BFF36F8FFF
:10594000104B114A9C681068A04206D1FFF7C8FFAF
:1059500085F31188BFF36F8F38BD00211B7C116068
:105960000A4AD35C002BF3D02046FFF79BFF0028A8
:10597000EED0637BDB0602D12046FFF711FD204607
:10598000E4E700BFE81E0020101F00203E22002098
:10599000074808B5074A0849121A03F091FBBDE809
:1059A00008400648064A0749121A03F089BB00BF9F
:1059B00000000020E80100203CA4000000000020BE
:1059C000000000203CA40000024B1868984208BF69
:1059D0000020704720010020034B1B680BB9FDF726
:1059E000B3BF0020704700BF1C1F002030B570B14E
:1059F0000B4B5B6898420AD0036843B1D3E904219A
:105A0000D0E90445121941EB0501C3E90421D0E9AD
:105A1000003213605A600023C0E9003330BD00BF7C
:105A200020010020B3F1FF3F08BFB2F1FF3FF8B5FE
:105A300004461D4616465AD08160EFF31187202395
:105A400083F31288BFF36F8F013275F1FF3321DAD0
:105A50006FF001032B49D1E900209B1A4FF0FF3270
:105A600062EB00009E1B60EB0500012E70F100034D
:105A700001DA01260020C4E90460FFF7A5FF224EE9
:105A800084467068BCF1000F0DD1C4E90060046069
:105A900074601CE0FFF7A0FF013645F100053618E1
:105AA00045EBE070E7E7DCE90425D4E904319342F3
:105AB00071EB050E1CDAD21ADCF8043065EB010537
:105AC000CCE90425C4E900C31C60CCF80440FFF70E
:105AD0007BFF844207D10D4B1C6824B903F001FC05
