:020000040000FA
:10000000785F0020596C0000317E0000456C0000D4
:10001000456C0000456C0000456C0000456C00001C
:10002000000000000000000000000000B96C0000AB
:10003000456C000000000000456C0000456C0000AD
:100040008D0900008D0900008D0900008D09000058
:100050008D0900008D0900008D0900008D09000048
:100060008D0900008D0900008D0900008D09000038
:100070008D0900008D0900008D0900008D09000028
:100470008D0900008D0900008D09000053B94AB9AB
:10048000002908BF00281CBF4FF0FF314FF0FF309C
:1004900000F00CB8ADF1080C6DE904CE00F008F8DE
:1004A000DDF804E0DDE9022304B07047704700BFC7
:1004B0002DE9F04786468C460846089E1546744648
:1004C0001946002B40F0C1808542B2FA82F245D92C
:1004D0004AB1C2F1200300FA02FC954094402EFA82
:1004E00003F343EA0C0C4FEA154EA8B2230CBCFBF5
:1004F000FEF80EFB18CC08FB00F943EA0C439945C3
:1005000028D9EB1808F1FF3704D2994502D9A8F190
:1005100002072B44A3EB0903A4B2B3FBFEFC0EFBC2
:100520001C330CFB00F044EA0344A04214D92C19FC
:100530000CF1FF3304D2A04202D9ACF102032C44E7
:10054000241A43EA07401EB1D4400023346073608C
:10055000BDE8F0874746DDE76346F1E792BB431B02
:1005600001214FEA154EAFB2200CB3FBFEFC0EFB8F
:100570001C330CFB07F840EA0343984561D9EB189C
:100580000CF1FF3004D2984502D9ACF102002B44A3
:10059000A3EB0803A4B2B3FBFEFC0EFB1C330CFB65
:1005A00007F744EA0344A7424DD92C190CF1FF3355
:1005B00004D2A74202D9ACF102032C44E41B43EA63
:1005C0000040C0E7C2F120039540944020FA03F1B7
:1005D0002EFA03F34FEA154E9040AFB20343B1FB3E
:1005E000FEFC0EFB1C10190C0CFB07F841EA004145
:1005F000884522D969180CF1FF3004D2884502D908
:10060000ACF102002944A1EB08019BB2B1FBFEFC56
:100610000EFB1C110CFB07F743EA01439F420ED966
:10062000EB180CF1FF3104D29F4202D9ACF1020168
:100630002B44DB1B41EA004193E76046E3E7614658
:10064000F7E76046A4E76346B8E7834206D916B9E0
:10065000002108467CE7C6E900E0F9E7B3FA83F732
:100660008FB9834201D3724508D8BEEB020460EB18
:10067000030301209C461EB9002169E73846FAE7CA
:10068000C6E9004CF8E7C7F1200CBB400EFA07F5AD
:1006900022FA0CF42EFA0CF1BA401C4320FA0CF3A7
:1006A000B8404FEA144901431FFA84FEB3FBF9F83E
:1006B00009FB18300B0C08FB0EFA43EA00439A457D
:1006C00040D9E31808F1FF3004D29A4502D9A8F1C5
:1006D00002002344A3EB0A0389B2B3FBF9F809FB38
:1006E000183308FB0EFE41EA03418E452CD96118F0
:1006F00008F1FF3304D28E4502D9A8F10203214448
:1007000043EA0040A1EB0E01A0FB02984145CE4612
:10071000434602D306D14D4504D20138B9EB020E4F
:1007200068EB0403002EA7D0B5EB0E0261EB0301CA
:1007300001FA0CFC22FA07F3F9404CEA0303C6E97C
:10074000003199E74046C5E74346D9E72DE9F04730
:10075000058B04462807904612D4022905F00705A8
:1007600040F0CD80204606F03FFB80B10138218B60
:10077000042800F29F80DFE800F0C29D657D8D00B7
:1007800001290CBF45F0100545F02005258388F3AD
:100790001188BFF36F8FBDE8F08701F007035A1F80
:1007A000012A1CD8002221F00701062B276889B2F4
:1007B000C4E9002209D13B4603E0628B0132628327
:1007C0001B68002BF9D141F002012046218306F07D
:1007D0000BFB002800F0A18041F020019CE0042BDD
:1007E0000AD121F0070189B22046218306F0FCFAE4
:1007F00010B141F020012183218B01F0070AAA45A5
:1008000075D00027B946A368002B00F08E8041F018
:100810000801218388F31188BFF36F8FA168002935
:1008200000F08C800D68002900F088803346524625
:100830002046D1F80480C047002D48D02B682946B7
:100840001D46F0E7236921F0070141F00601062D5E
:10085000D3F80090218335D1B9F1000F47D041F092
:100860000801218388F31188BFF36F8F20463D492B
:10087000C84731E021F00701236941F0040189B242
:10088000042DD3F804902183E6D000274FF0040A0A
:100890003E46B8E721F00701236941F0050189B21E
:1008A000052DD3F808902183D6D000274FF0050AF4
:1008B0003E46A8E701F0070AAA4518D00027B94626
:1008C0003E46A0E700274FF0060A3E469BE72B4630
:1008D000B5E7B9F1000FC9D1EFF31188202383F3F5
:1008E0001288BFF36F8F238B23F008032383258B9C
:1008F000EA062ED525F01003238305F00705666967
:10090000218B002EBFF649AF00232768C4E90033CE
:1009100021F0070141F001012183218B4FF00009F3
:1009200001F0070AAA457FF46EAF002F94D041F082
:100930000801218388F31188BFF36F8F002FC8D07F
:100940003D68394633465246204606F03BFA2F466C
:10095000F4E7AB067FF51BAF25F02003238305F0FA
:100960000705FFE6216E0000002318460649D1F86E
:100970009020C2F30722934200DB7047C1F8983001
:10098000C1F8A0000133F6E700ED00E0EFF30583C6
:10099000034A103B02EBC301496852F83300084791
:1009A00090A3000030B5104CD4F89030C3F3072367
:1009B000013B984215D80D7A0B6805F01F0223F011
:1009C0001F031A43CB686D0923F01F0343EA450355
:1009D00043F00103C4F89800C4F89C20C4F8A03088
:1009E00030BD6FF01500FBE700ED00E0244B254A19
:1009F0004FF47A611A600122234B2448C3F804247F
:100A0000D0F82436C3F30802C3F309434B4382F4FE
:100A100080721F49883201FB02334FF4FA215B00D8
:100A2000B3FBF1F201FB12331A49B3F57A3F28BF49
:100A30000132C1F80429D0F820364FF47A60C3F3AC
:100A40000802C3F30943434342F21C5082F480720C
:100A500002F2172200FB02334FF47A701B0AB3FB39
:100A6000F0F200FB1233B3F5FA7F4FF0010328BF19
:100A70000132C1F81C270020C1F80036704700BFC2
:100A80007C0100200020A107002008E000C0FF003A
:100A9000F82A008000001250084B70B5C31A0D46AA
:100AA00007499B10044659434022064806F022FAA3
:100AB0002B4601462046BDE8704018470024002020
:100AC000B76DDBB680880000402373B50B4C0093F4
:100AD000041B0B460D460A49A41061430646094A09
:100AE000094806F033FA011E05DA30462B4602B0FB
:100AF000BDE87040184702B070BD00BF0024002060
:100B0000B76DDBB6BD6F0000808800000023024A8D
:100B10000020C1E90023704700D01700004870474B
:100B20004C8C0000024B0B6001231360704700BF28
:100B3000448C0000024B034A0020C3F80C25704788
:100B400000B0045080000080014906F06EBA00BF7A
:100B500045770000004870473C8C00004209022A9B
:100B6000034670B503D0012A18D0CAB170BD0E4E2D
:100B7000326951680029F9D0012503F01F030C6880
:100B80009D400029F2D08A682A4002D030464B6846
:100B900098473CB1236821461C46F2E7034EE7E73D
:100BA000034EE5E72346F6E7C0880000A088000072
:100BB000E088000070B5EFF31181202383F31288E1
:100BC000BFF36F8F4FF0FF346FF04040074DD5E912
:100BD0000023944270EB0306F9D381F31188BFF32D
:100BE0006F8F1046C3F3130170BD00BF40270E5036
:100BF00038B5EFF31185202383F31288BFF36F8F8D
:100C0000124B1B6803BBFFF7D5FF114AD2E9003234
:100C1000C01A61EB0201400940EAC1630D4AD2E902
:100C20000004181844EBE37485F31188BFF36F8F49
:100C30004FF47A71A0FB010547F61222002301FB55
:100C40000451FFF71BFC38BD0023E7E7F423002025
:100C5000C0010020C8010020064BD3F840231C2A05
:100C600005D1D3F84403431E584258417047002031
:100C7000704700BF00C0FF00034BD3F84003A0F152
:100C80001C0358425841704700C0FF0003689A0790
:100C90000CD50368DB070DD50922074BC3F80C25DB
:100CA0000F22C3F8042501221A60FEE7034B0360FC
:100CB000EF3B0360704700BF00801050F000FA5017
:100CC00010B50368CB40DB0710D401238B400268CA
:100CD00043EA0201D0E8EF4F944204D1C0E8EC1F90
:100CE000BCF1000FF6D1F2D1014810BD0148FCE77C
:100CF0000000AD0B0400AD0B034A4309D35C00F0C8
:100D00001F001844C0B2704726A2000010B5044668
:100D10000846FFF7F1FF3C22237902FB0300034B57
:100D2000083033F81000C0F3401010BD0423002039
:100D300010B504460846FFF7DFFF3C22237902FB8B
:100D40000300034B083033F81000C0F3400010BD1F
:100D50000423002010B504460846FFF7CDFF3C22CF
:100D6000237902FB0300034B083033F81000400BDB
:100D700010BD00BF0423002070B505460846FFF7EC
:100D8000BBFF3C212A79184B01FB0202083233F8E1
:100D90001200C10526D578240026C0F3432120F493
:100DA000F85023F812002A7904FB02340E3434F888
:100DB000020F10F4807F03D0C0F34320814211D092
:100DC0000136232EF3D10020C2EB02120A4443F86D
:100DD000320078202A79BDE8704000FB0230603094
:100DE000FFF76EBF70BD00BF0423002070B505463D
:100DF0001446FFF78BFF70B10846FFF77DFF3C22DA
:100E00002B7902FB0300054B083033F810300448FF
:100E10005B0B237070BD0348FCE700BF0423002078
:100E20000000AD0B0400AD0BF0B50646002487B002
:100E3000114F019117F8012B06AB03EBD20313F806
:100E4000143C02F00702D34013F0010306D1013431
:100E5000032CEFD10023184607B0F0BD074A03ADBD
:100E600007CA85E8070055F824100A6A46F82420C6
:100E70000A62002AEBD0EEE723A20000E08900001E
:100E800048B1054B054A1B68B3FBF2F35843044BCA
:100E900043F00103184770477C01002040420F00D7
:100EA000F08900000128F7B5054615BF0420712020
:100EB000142204222C4918BF4FF48473C1F808038C
:100EC0004FF0010008BF4FF4807302F1A04202F519
:100ED00087121060002203F1A04303F587131A6004
:100EE0001B68FFF7C9FE044628B1012D1AD1CD6059
:100EF0000DF1070401E0012DFAD0002342F2107633
:100F0000194F8DF80730012D1CD0D7F84C3403F45D
:100F100080334CB923B10120FFF7B2FF013EF2D17B
:100F200003B0F0BD1446E8E7D7F84C2402F0030202
:100F30002270002BF4D09DF80730002BEBD0012D50
:100F4000EED106E0D7F80C3403F480332CB9002B33
:100F5000E1D10022054B5A71E2E7002B0CBF0123BF
:100F600000232370E7D1F4E700E01050F8230020BD
:100F700010B5EFF31184202383F31288BFF36F8F32
:100F8000074A136823F00201DB07116002D4012035
:100F9000FFF788FF84F31188BFF36F8F10BD00BF88
:100FA00050240020012838B5304A0546304C40D046
:100FB000D2F84C14D2F84C34C80322D503F0030302
:100FC000012B04D013B10020FFF76CFF2B46274AFA
:100FD0000420C2F8403410224FF48473002103F13E
:100FE000A04303F5871319601D68012502F1A04293
:100FF00002F58712156022688AB31C4BC3F80403FC
:101000000CE0D2F84834D907E0D5D2F850349B0729
:10101000D9D423681BB10423C2F8043338BDD2F8F5
:101020000831002BFBD00023C2F80831D2F8083178
:10103000F4E70023C2F81031D2F81011C2F81831C9
:10104000D2F81811C2F81431D2F81431FFF714FE97
:1010500000B1956000224FF480737120BEE71A68DA
:10106000002AFCD019601B68D8E700BF00E01050D0
:10107000F8230020124B70B553F82050013053F87C
:101080002060AE4200D870BD6C68B4B1237FDB072E
:1010900011D4636953B12046984738B10028B8BFCE
:1010A0004042FF28A8BFFF20E3681870E268537829
:1010B00043F0010353700835E3E72B689847FAE7DC
:1010C000088C000001680E4A0346914215D1C1699F
:1010D000A2F11022A2F1EF1291420ED18268012AF0
:1010E0000BD8C26812B101698A4206D0586928B18A
:1010F0009B691B1A5842584170470120704700BF36
:1011000055AA00FF70B50D4B9E68A6B13046FFF79B
:10111000D9FF044678B9F3686BB935690DB9204633
:1011200070BD2846FFF7CEFF28B9EB68B34202D165
:101130002E462D69F2E70124F1E700BFB822002016
:1011400038B514220021144807F061FB134B144AF0
:10115000144C1A60144B154A00211A6014F0030352
:101160000FBF4FF4006503F2FC75C3F10403E418EC
:101170002A46204607F04BFB074B0D4AC3E90045C2
:101180002260A2F11022203DA2F1EF129C60656066
:10119000E261DC60002038BDB82200205C01002044
:1011A000A1140000702E0020580100208D150000B1
:1011B00055AA00FF70B5164D1446A84225D8C0F5B3
:1011C000BE1303F580539A421FD8C2B140F20113F7
:1011D000104DC5F80035A1B107F00EFBBFF35F8FCE
:1011E000D5F81834DA0705D4230703D00123AB6000
:1011F000BFF35F8F4FF48072064BC3F800250020C9
:1012000070BDFF2107F003FBE8E76FF01500F7E77B
:10121000FFCF170000B0045010461A46084B10B517
:10122000994209D8C1F5BE1404F58054A24203D8EE
:1012300007F0E2FA002010BD6FF01500FBE700BFD9
:10124000FFCF170010B4EFF31182202383F312882D
:10125000BFF36F8F1648016841F002040460C807AD
:1012600007D482F31188BFF36F8F012010BCFFF702
:1012700099BE1049D1F80C14C903F2D5EFF31180CF
:1012800083F31288BFF36F8F0B490B6C03F0C0031D
:1012900043F002030B6480F31188BFF36F8F82F376
:1012A0001188BFF36F8F002010BC05F011B900BF8B
:1012B0005024002000E01050002400202DE9F047C9
:1012C00014461E46FFF776FCA042B141C0F0D38021
:1012D0006B4DD5E90012641A24F01F0366EB020679
:1012E0005B1842EB0602C5E90032EFF311822023BE
:1012F00083F31288BFF36F8FDFF888914FF0000AF5
:10130000D9F80000604F484508BF0020640944EA4E
:10131000C6645E4E3C609046D6E900213B6848B307
:10132000C4689C4202DDE41AC46023E0A21841EBC9
:10133000E471C0F80CA0C6E90021D0E900321360C6
:101340005A60C0E900AA88F31188BFF36F8F8368E1
:101350009847EFF31188202383F31288BFF36F8F30
:101360003B68D9F800001B1B484542463B60D2D180
:10137000D6E900219A1841EBE37100233B60D9F8CC
:101380000030C6E900214B4577D0002B75D0DC68D2
:1013900024EAE474FFF70EFCD5E900272023012599
:1013A000801A61EB0701C4FB0301402871F10004BE
:1013B000374C38BF184694F808E038BF002105FACA
:1013C0000EFC28BF20F01F001CF0670F4FD0314BE0
:1013D0005E68F64306F0670616EA0C0F47D04FF03A
:1013E00000092D4E101847EB010103EB0E0206EB2E
:1013F0000E1792F85420C7F82C950C2707FB0232E1
:10140000276882F814E0D760676817619A6842EA33
:101410000C029A60EFF31187202282F31288BFF347
:101420006F8F94F808C01D4A4FEA8C0C42F80C905C
:10143000227AC1F31301120102F1A04202F56222E5
:10144000C2F82005C2F8241587F31188BFF36F8F07
:10145000227A883305FA02F2D3E8EF0F1043C3E88B
:10146000E10F0029F8D1237A9D40C6F8245388F370
:101470001188BFF36F8FBDE8F0876FF0004489E7F4
:10148000C001002060010020F4230020C8010020DA
:10149000680100208000002000200E5000210E5026
:1014A000F8B5384E3468F368D4B1B468C4B10028D4
:1014B00060D000295ED001FB00F5B5FBF0F088425A
:1014C00058D1291D56D8AA070CD025F003020432A2
:1014D0001C4603E0616891424ED2A469002CF9D108
:1014E0002046F8BD2A46F3E7891A232904F120078C
:1014F0001CD80123A360D4E90523AAB19361A36991
:101500000BB162695A610023C4E905333369DB0713
:1015100003D5FFF7F7FD002831D12A4600213846D0
:101520003C4607F074F9DBE7F360E8E702F1200CD2
:1015300004EB0C032039C3E90110DC602169124877
:10154000196144F80C00A0F11020A0F1EF10D8614F
:1015500001B1CB6061695961A069986141B18B614A
:10156000996901B14B6101212361C4E90121CAE7F5
:10157000F360F5E70024B3E7A0680028B4D00120A9
:1015800005F0ACFBB822002055AA00FF70B5054657
:10159000002840D03B4E3368002B3CD0B268002A74
:1015A00039D0834203D872681344984202D3012091
:1015B00005F094FBA0F120042046FFF783FD0028EE
:1015C000F5D155F8183C012BF1D155F8143C45F8EC
:1015D000180C0BB39A68FAB955F81C2C02F12001CB
:1015E0005A680A445A6055E905321A6155F8145C84
:1015F0002B6903B1DD6020220021204607F007F9A6
:10160000286908B183684BB333699B0703D5FFF79B
:1016100079FD0028CBD170BD55F8100C00282AD0D8
:10162000836843BB42686368134420336360036983
:101630002361D4E905239AB9CBB94369636182690F
:10164000A261B3B19C61A36903B15C61236903B179
:10165000DC602022002107F0DAF8D5E72C46E1E72C
:101660009361A369002BE8D062695A61E5E7F360F2
:10167000F7E7F460E7E7F36845F8083C03B15C611D
:10168000F460C1E7B822002030B50468ACB1B4FA08
:1016900084F30122C3F11F03DBB29A4024EA020261
:1016A000D0E8EF5FA54204D1C0E8EC2FBCF1000FF9
:1016B000F6D1EAD102480B7030BD0248FCE700BF0A
:1016C0000000AD0B0200AD0B70B500251E4C1F4E87
:1016D000D4F80C3303B970BDB3FA83F3C3F11F031D
:1016E0009A0002F5807292B202F1A04202F58712CE
:1016F000156012680122D8B202FA03F3DBB2102B94
:10170000C4F8083311D0402B1BD0042B16D1D4F8C9
:101710004C14D4F84C14890710D1C4F84024C4F8F0
:1017200004332261D4F80C33D4E702237371C4F874
:101730001451D4F814312023C4F804333368984783
:10174000F0E77571FAE700BF00E01050F8230020C1
:10175000F7B5284B284CD3F82C6304F188070EB951
:1017600003B0F0BD96FAA6F00123B0FA80F08340F2
:10177000DA43224926EA0306231893F854508300DB
:1017800019440C2303FB0543DB6873B3D7E8EF3F31
:1017900003EA020CC7E8EECFBEF1000FF6D1C3405A
:1017A000DB0719D5020102F1A04202F56222D2F84C
:1017B0002435D2F82025D1F800C0BCF1000FCED0DE
:1017C0004FF0000CC1F800C00C2101FB0545296950
:1017D0000091E9688847C2E705F10C0304EBC30CEC
:1017E00054F83320DCF80430E5E70A68002AB6D064
:1017F0000B60B4E700200E508000002000210E5046
:1018000038B5044605F072FA25688DB94FF41272A6
:101810002946201D06F0FBFF084B28466360012384
:1018200084F848328023C4F8C4310523236038BDCE
:10183000204606F064FD6FF08800F8E76C8C00002D
:101840002DE9F04F8A4617461C46002595B00390B7
:10185000387808B9284673E325280AD05146039BF7
:1018600098470028C0F26C837B1C01350493049FC9
:10187000EEE7182200210EA806F0C9FF7B78252B81
:101880007DD0002398469E469C461E46781C014605
:1018900010F8012B2B2A00F0A18000F29880202A5A
:1018A00000F09F80232A00F09F802BB19DF84030EC
:1018B00043F040038DF84030B8F1000F05D09DF89B
:1018C000403043F020038DF84030BEF1000F05D0CA
:1018D0009DF8403043F010038DF84030BCF1000F0C
:1018E00005D09DF8403043F008038DF840302EB10C
:1018F0009DF8403043F004038DF840309DF84030AF
:1019000003F04400442803D16FF386138DF8403070
:101910009DF840302A2A43F080038DF840307FD173
:101920009DF841204B1C42F001028DF841201A78AD
:101930002E2A0CBF012100219DF8412061F34102B4
:101940008DF8412078D15A782A2A6ED000224FF0A3
:101950000A0C0133194611F8010BA0F13006092ECB
:1019600040F295809DF840101292C1F3400040EA89
:10197000D2700A4660F341028DF840205CE08DF899
:101980004330BB1C04939DF84130DA0740F12E81AF
:1019900054F8048BB8F1000F07DA9DF84020C8F125
:1019A000000842F004028DF840205E0740F12781D4
:1019B00054F804BBBBF1000F80F226819DF8413042
:1019C0006FF341038DF841304FF0FF3B1CE12D2AAE
:1019D0000DD0302A7FF469AF012358E74FF0010C96
:1019E00055E74FF0010E52E74FF001084FE701268F
:1019F0004DE703460EFB0262303A184610F8016BC1
:101A0000A6F1300CBCF1090FF3D999428FD09DF8A3
:101A100040101192D20F62F341018DF8401086E719
:101A20000B4600224FF00A0EE7E79DF841200233F3
:101A300042F004028DF841201A786C2A47D02BD846
:101A4000682A31D06A2A4BD04C2A51D01A4612F853
:101A5000013B782B04928DF843309DF8412000F231
:101A6000BE806D2B51D8692B00F2B980572B67D8F7
:101A7000412B03D0453B022B00F2B18004229DF89C
:101A8000423062F302038DF84230012373E00CFB15
:101A900002020B46303A5DE7742A25D07A2AD5D166
:101AA00006219DF841200CE05A78682A9DF84120D3
:101AB00006D1012161F3C6028DF841200233C5E74A
:101AC000022161F3C6028DF841200133BEE75A7846
:101AD0006C2A9DF8412001D10421EBE70321F0E7B6
:101AE00005219DF84120ECE707219DF84120E8E71A
:101AF000BDF8402022F4F04222F0020242F480427B
:101B000042F00202ADF84020DFE76E3BD9B201237C
:101B10008B4040F282410B4237D113F0240F51D158
:101B2000D8075CD503219DF8423061F302038DF89C
:101B3000423002F07803A3F140014B424B411AE0DE
:101B40000120A3F15801C9B200FA01F111F4624F6A
:101B500094D140F6010631421DD111F4043F3ED02C
:101B60009DF8423060F3020302F07802402A8DF8BB
:101B7000423034D000239DF84020C2F340010B4393
:101B800063F341028DF84020FDE602219DF84230CA
:101B900061F30203E8E702209DF8421002F07802A8
:101BA00060F30201402A8DF8421002BF9DF84010F8
:101BB00041F001018DF84010632BDBD1131E18BFDB
:101BC0000123D8E703219DF8423012F0780F61F32A
:101BD00002038DF8423014BF01230023CBE79DF8A8
:101BE000403043F001038DF84030C3E79DF94020B9
:101BF000002AACBF4FF0FF38DDF84480D5E69807E7
:101C00007FF5E2AEDDF848B000239DF84220CDE933
:101C1000113302F007029DF84130012AC3F3C303D8
:101C20002ED1DA1E042A04D8DFE802F00E43430E58
:101C30000E0054F8042B012B4FEAE271CDE90E217E
:101C400017D19DF9382001E054F8042BD117CDE9C4
:101C50000E219DF8402012F0030654D03A4651461A
:101C6000049B039805F097F80028C0F269810544A9
:101C7000FDE5022BEDD111B242F3C0320E912CE002
:101C8000022A30D1DA1E042A04D8DFE802F00E124C
:101C90001A222200002154F8042B012B0E920F91DE
:101CA0001DD0022BD5D192B21BE0002254F8041BA8
:101CB000E4E7073424F00704F4E80201CDE90E015B
:101CC000C7E7E21D22F007021446526854F8081BC9
:101CD000D4E754F8042B0E9200220F92B9E702F0D9
:101CE000FF020E92B5E7042A08D1073424F0070456
:101CF000D4E900010834CDE90E01AAE7032AA8D1EE
:101D000054F8042BEDE79DF8430078283FF6AFAD7B
:101D100062281ED825284FD058287FF4A8ADDDE9C9
:101D20000E010DF13603009310AA08AB04F0EBFF8F
:101D3000BBF1000F814680F2CB80B9F1000F3FF478
:101D400096AD0DF13607A7EB0900002E47D0013004
:101D500045E0633815283FF68AAD01A151F820F01F
:101D6000931E0000A71E00006F1800006F180000EF
:101D70006F1800006F180000A71E00006F18000009
:101D80006F1800006F1800006F180000F31E0000AD
:101D9000CB1E0000571E00006F1800006F180000D7
:101DA000C91D00006F180000CB1E00006F18000056
:101DB0006F180000CB1E00005146039B9847002877
:101DC000C0F2BE80013552E5BBF1000FDDF838905E
:101DD00039DB002019F800607EBB09EB00079DF895
:101DE000423013F01002069200F09E8002305B0633
:101DF000119A48BF129B104448BFC018B8F1000F99
:101E0000059240F3AA809DF84030A8EB00085807DF
:101E1000C3F3800B00F1A180590640F1948046B1D4
:101E200051463046039B98470028C0F289805E46A1
:101E30000135302388E00130CCE78345FBD109EB45
:101E400000070026CBE7484606F0BFFCB9F1000FBB
:101E50003FF40DADF3E70E9800285ED00DF1360784
:101E600008AB0021009710AA04F04DFFBDF84230E6
:101E7000BBF1000F03F0EF0343F4F04343F0100312
:101E80008146ADF8423022DA00283FF4F0AC381A2F
:101E9000D7E70E9B002601208DF820300DF1200998
:101EA0000DF121079BE711075ABFC2F3001256013B
:101EB0002B26DDE90E23002BBFF631AF524263EB38
:101EC00043032D26CDE90E2329E7002627E7002628
:101ED0009DF840100DF13603A3EB09036FF3861153
:101EE0009B458DF840107FF628AFABEB03031193B1
:101EF00023E70E9A072B3FF6BAACDFE803F00C0499
:101F0000060C08080C0C1570B1E41580AFE4EB1753
:101F1000C2E90053ABE41560A9E4DFF8C4900646BB
:101F200009F1050705205AE71A0748BF01305EE7A7
:101F3000184607935146039B98470028079B04DAED
:101F400015B0BDE8F08F2023C346594600290BF198
:101F5000FF3BEDDC4544D8466D1A36B1514630465C
:101F6000039B98470028EBDB01359DF84230DA06E9
:101F700001D41B0706D551463020039B9847002803
:101F8000DEDB0135069B3BB151469DF84300039BC8
:101F900098470028D4DB0135059E2E4406E05146C3
:101FA0003020039B98470028CADB0135731B002BA8
:101FB000F5DC3B464A465146039804F0ECFE002807
:101FC000BEDB0544A844A8EB0503002B7FF74FAC0C
:101FD00051462020039B98470028B1DB0135F2E7EA
:101FE000BEA100000FB41FB5002106AB53F8042BAF
:101FF000044800910393FFF723FC05B05DF804EB60
:1020000004B07047036D0000002310B50B4A14782C
:1020100084420AD001330B2B02F11002F7D16FF08A
:10202000010010BD00200A60FBE7D06804F005FF46
:102030000028F7D16FF01200F3E700BF588B0000C3
:1020400070B5454B06465B6800258AB0C3F30803AC
:1020500085F31188BFF36F8F02F07F40B0F17F4F9F
:1020600011D102F00C0008280DD010074CBF0E460D
:1020700001250022033B8DF80720032B05D8DFE85C
:1020800003F01D5B5F582E46F3E700249DF80730F0
:10209000002B5ED12022314602A806F0ADFB099B41
:1020A000002D51D0C3F3080222B96FEA53236FEA1F
:1020B00043230993204602A904F0CBFE264BDA6A9B
:1020C0009107E2D4DA6A002ADFDBDA6A5200DCD553
:1020D0005A69B16942F480725A61BFF34F8FBFF3FE
:1020E0006F8F5A6931F8021C22F480725A61BFF373
:1020F0004F8FBFF36F8F4DF60272914209D09A6AEB
:10210000D2B242B101200DF1070104F06BFA04468E
:10211000BCE73468BAE79A6A12F47F4F05D0012011
:102120000DF1070104F028FAF1E79B6AB3F5803F4F
:10213000ABD304F0F3F9EAE700200DF10701E4E77F
:1021400000200DF10701EDE723F4FF7323F00103F5
:10215000AFE70AB070BD00BF00ED00E010B572B689
:10216000002484F31388FEF7FFFB23464FF0FF3073
:102170000C4A03F120010133102B42F82100F8D161
:1021800000234FF0FF30074A03F160010133102BA9
:1021900042F82100F8D162B6BFF34F8FBFF36F8FC3
:1021A00010BD00BF00E100E0002807DB012341096A
:1021B000034A00F01F00834042F82130704700BFFF
:1021C00000E100E000280CDB01220649430900F091
:1021D0001F008240203341F82320BFF34F8FBFF30D
:1021E0006F8F704700E100E02DE9F843044606795F
:1021F00000681E4DC0F30830FFF7E4FF242373434B
:10220000EB5853B123681A4A06EBC601C3F80823FA
:10221000206805EB810105F036F8242707FB0657F7
:102220002368D3F80006D3F80486D3F80896BB7F5A
:10223000DB0714D405F0BAFB484605F0B7FB40466F
:1022400005F0B4FB386A05F0B1FB2368D3F80C063F
:10225000D3F8104605F0AAFB204605F0A7FB24237F
:1022600003FB065500232B77BDE8F883E02200200E
:102270000700F81F0028ACBF00F16040064B4FEA92
:102280004111C9B2ABBF00F5614000F00F0080F80A
:1022900000131954704700BF14ED00E0F8B5022197
:1022A000054640F20510FFF7E5FF174B1A7922BBF0
:1022B000164A1A6001221A71154B1B6A9B0603D439
:1022C00040F20510FFF770FF0024124BC3F84044A2
:1022D0002B69ABB11C222146184606F098FA01265C
:1022E0001C220D4F066407612D692146A81806F0CF
:1022F0008EFA2046EF62EE64F8BD6FF00400FBE753
:102300006FF01500F8E700BFF823002031770000D8
:1023100000E100E000E01050548C00002DE9F04195
:10232000466807463369002B3AD0782096F8148027
:10233000234D00FB085393F874408CBB184646228B
:102340002146103006F063FA317D1E4A336952F897
:1023500031C021468C4529D10024C3F84441D3F82B
:102360004421C3F30833581CFFF71EFF78230122D2
:1023700003FB085888F87420C8F86020327D1249A1
:1023800003FB02529160327D022103FB0255DB20E8
:10239000EC60FFF76FFF022140F20D10FFF76AFFBC
:1023A0003846BDE8F041094904F03FBECAB2920088
:1023B00002F58070442A04BF1C501A580131C9E745
:1023C00004230020208C00005D0B0000FD70000045
:1023D0002DE9F3410221E420FFF74CFFB54BB64C49
:1023E000D3F8182722F44032C3F818272278002A9D
:1023F00040F01981D3F81015072621F00201C3F827
:102400001015D3F8101541F00101C3F8101505217E
:10241000C3F8A4160421C3F8AC16672303F0010126
:102420000A44013ED2B24FEA5303F7D1052A40F0E5
:10243000FA8032464FF0010C9F4D00206721D7B241
:1024400004E00CFA03F321EA0301013091FAA1F34D
:102450005FFA80FEBE45B3FA83F3F2D301322B75E7
:10246000052A234483F8547005F10C05E5D10122B7
:1024700000209249B30802FA03F313F0670F18BF64
:1024800070500436302EF5D1E420FFF78DFE894BD5
:102490000027D3F8102503F5C07322F00202C3F819
:1024A000902340F6FF72C3F8A821854A1F60A3F568
:1024B0008071043393420F60F8D14FF001087D4DD5
:1024C000804EC5F8608030687F4BB0FBF3F05D2331
:1024D00058437E4B43EA0803984763687C4903EA04
:1024E000080301A8019384F80080FFF7CDF8794B29
:1024F000984240F09F80784B1F72636823F001037D
:102500006360A36843F00103A360D5F81035980712
:1025100000F18980D5F8103543F00203C5F8103575
:10252000D5F8482712F0010202BFD5F8483743F02A
:102530000103C5F848375F4BD3F84017D3F8441769
:102540004900F9D42AB9D3F8482722F00102C3F888
:1025500048275D4A3368B3FBF2F3564A03EB431353
:10256000002B60D0D2F84017D2F844174F005FD448
:10257000FEF720FB0122594B20F01F00C3E90001A8
:102580005749D1E8EF3FC1E8E02F0028F9D13BBB24
:1025900054498A608A684B6002F00302012ACB60CA
:1025A0001ED1CB608A68032A1AD8EFF31185202246
:1025B00082F31288BFF36F8F4FF6FF764A48848EFE
:1025C00004F00702C48EB4424DD0022A38D101343F
:1025D000C48685F31188BFF36F8F1C3004F0F2FBC3
:1025E000EFF3058018B9414B1B78002B40D1EFF376
:1025F0001180202383F31288BFF36F8F01213C4A9F
:102600003C4CD2F84C54D2F84C34ED0336D503F0A0
:102610000303012B32D1002947D080F31188BFF387
:102620006F8F002001E04FF0FF3002B0BDE8F08175
:10263000013B95E7304B9842F5D16FF00B00F4E782
:102640005124D440E6070ED50B60036A43B9C0E9B4
:10265000071142B92A4602212848FEF777F8BFE75A
:1026600019600162F5E785F31188BFF36F8FB7E753
:1026700004221F4B0146C3F80823C0E704F000FC06
:10268000D2F8403413F0FF03BBD1D2F80851002D2B
:10269000B7D0C2F80831D2F8083120250123C2F89A
:1026A0004034C4F8A0511361ABE70423C2F80433EB
:1026B000B7E700BF00200E508000002000210E5020
:1026C000B0210E507C01002040420F00008A000023
:1026D000940000200000AD0B68010020C001002024
:1026E000DC220020CC2200200024002070360020B4
:1026F00000E0105000E100E00200AD0B1C240020BF
:102700008FB58F4A8F4B22F07F029A60BFF34F8FB5
:10271000BFF36F8FD3F888208B4822F47002C3F880
:1027200088208A4A0021121A06F071F88848894ADE
:102730008949121A06F060F88848894A8949121AAC
:1027400006F05AF840F20F14002210B201210132B3
:10275000FFF790FDA242F8D10020FEF78BFC824BE0
:1027600083F30888E022774B804F83F822200022F1
:10277000DA771A765A769A7683F82020596A41F4E5
:10278000E021596283F82320596941F01001596111
:10279000596921F008015961102119614FF0FF3189
:1027A0009962D962D3F89010090A11F0FE0F29D06E
:1027B000BFF35F8F6E49C3F89420C3F8C0100221A5
:1027C0006C48C3F89820C3F89C10C3F8A0000120FF
:1027D000C3F8980000F10050C3F89C0000F57F306A
:1027E00000F2E230C3F8A0003970D3F89000C0F3D3
:1027F0000720814211DB0522C3F89420BFF34F8FDD
:10280000BFF36F8F5C493C784D68002D00F08180EC
:102810001F2D1ED86FF015047BE0C3F89810C3F885
:10282000A0200131E1E72046C3F89880D3F89C202E
:1028300025F01F0502F01F021543C3F89C5004F059
:1028400037FB62E04E45EED15FFA88F004F030FBD2
:102850005FE0EA06DED10A68D306DBD1104604F059
:102860001EFB154405F1FF398046484604F017FB6E
:102870008045CFD118F1160FCCD0A045CADA314B24
:10288000C3F89880D3F89C00C3F89880D3F8A06070
:1028900020F01F00824246F01F06D3D0013AC3F851
:1028A000988022F01F00D3F8A0204E4502F01F02AE
:1028B00042EA0002C3F8A0202046C0D004F0F8FA93
:1028C00010F1160FA6D01F4B013EC3F89880D3F825
:1028D0009C109DF80820013061F304028DF8082057
:1028E000D3F8A030009525F01F052E445B08D2B226
:1028F000A6EB090663F3471226F01F066946C0B22D
:102900008DF808200396FEF74DF810F1160F81D0D0
:10291000441C01203C70FEF7ADFB0220FEF7AAFB31
:10292000164C0023164D84F309880020154988476A
:10293000184619461A46A84713488047FEE700BFC5
:102940000000000000ED00E0C0010020743700200E
:1029500080000020BC01002048AC000040000020A6
:102960008000002008AC000078670020713600204D
:10297000AAFF4400E1CF1700608C0000785F0020C0
:10298000253C00003D7E00004B7E0000036803F004
:102990001F025F2B02604FEA53129ABF024B53F89B
:1029A00022000020704700BF308C00002DE9F34169
:1029B00004461746FEF7AAF90D46266800B32046DE
:1029C000FEF7B6F98046D8B92046FEF7C3F905B23E
:1029D000AD0005F5807246F802802168B25829449E
:1029E000D1F8102542F00102C1F810252FB10122C3
:1029F000216802FA00F3C1F8143302B0BDE8F08197
:102A0000D6F8143328469B035CBF4FF40033C6F856
:102A10001433FEF771F93C22237902FB03000F4BBC
:102A2000083033F81030C3F38203042B11D0052B88
:102A300011D001A80195FFF7A9FF019BC168D940FA
:102A400001F001010231284602B0BDE8F04105F075
:102A500004BA0321F7E70221F5E700BF04230020B1
:102A600078232DE9F04F6F4C0E460C1BB4FBF3F4AA
:102A7000D0F81413DFF8B0B1C9B28BB041F4003113
:102A80005BF83420009004F04FFB8103054638D5F5
:102A90000023E7000BEBC404CDE907330993636817
:102AA00007A819460193FEF7BFF93B1D03934FF0AA
:102AB000000A5E4B0DF11C090293029A12F8013BC9
:102AC0000292039A02EBD3021BF8022003F00703E1
:102AD00022FA03F3DA071AD40AF1010ABAF1030F52
:102AE00009F10409E9D14FF400310022009804F003
:102AF0001BFB019907A8FEF797F90028D7D125F409
:102B000000350124002D76D10BB0BDE8F08F484B85
:102B100053440493D9F800100029DDD091FAA1F1B3
:102B2000B1FA81F1049B1C7841EA44142046FEF777
:102B3000E3F8083036F81080C8084FEA9803059388
:102B4000012319F8002001F0070103FA01F122EA3C
:102B5000010209F8002006A80694FFF717FF069A5D
:102B6000059B203250F82220C8F382075B07B84645
:102B7000C2F3014223D53046D7B22146424604F083
:102B8000FAFA06A80694FFF701FF069B203350F8D7
:102B90002330C3F301439F4207D10021204605F0B3
:102BA0005CF93946204605F058F906A80694FFF767
:102BB000EDFE0122069B02FA03F30362AAE7022A52
:102BC0000DD10321204605F048F907F00503012B3C
:102BD000EBD142462146304604F0CDFAE5E702212A
:102BE0002046059205F039F9032FF2D0059A032A01
:102BF000DBD1022FECE795FAA5F3B3FA83F3009942
:102C000004FA03F225EA020503F5A27251F8222024
:102C100006EB43033046B3F86410C2F3014204F0FC
:102C2000AAFA6FE704230020208C000023A20000F2
:102C300023A2000001490248FFF712BF042300202D
:102C400000A00D5001490248FFF70ABF7C23002075
:102C500000C010502DE9F74F904604460846FEF795
:102C60004BF8D8F800900D4607462679B9F1000FC9
:102C700029D02046FEF75CF838B12046FEF746F82A
:102C800018B1684803B0BDE8F08F01A80195FFF7BF
:102C90007DFE019B99F8002000EB8300D0F8803086
:102CA000614923F00F0343EA8203C0F880303C23DC
:102CB00003FB0673083331F8132022F0020242F0BE
:102CC000010221F81320D8F80430C3B12946204668
:102CD00093F80090D3F804A0FEF72AF8A8B1BAF14F
:102CE000000FCED13C2303FB06764F4A083632F85C
:102CF000163023F01C0343EA890322F81630D8F873
:102D00000830002B50D14948BCE73C227243DFF821
:102D100018E102EB070C0CF1080C3EF81C3023F014
:102D20002003DB04DB0C2EF81C30BAF1000FD9D0E5
:102D3000B9F1030FA5D8D8F804102068496891F8B4
:102D400000A000EB8A00B9F1000F04D1C0F8109583
:102D5000C0F81095C6E7D0F810B552442BF0030B1D
:102D6000C0F810B5206843EA4A3300EB8A01D1F875
:102D700010050EEB420220F4473020F47C70C1F8BD
:102D8000100541F6F070D1F810B500EA051040EAE0
:102D9000094040EA0B0043F02003C1F81005A2F8F7
:102DA00064502EF81C309DE72946D3E90086204662
:102DB000FDF7E2FFB8F1000FA5D0782320791A4D76
:102DC0004343EA18EB58984504D153689E4201D119
:102DD00000220CE0782303FB005001A96030FEF7CD
:102DE00053FC124B98427FF44DAF9DF804203C21D8
:102DF0002379C3EB0313134445F833802379C3EBE2
:102E00000313134405EBC3035E60237901FB0373D3
:102E1000083335F8131041EA422242F4807225F853
:102E2000132070E70400AD0B042300200000AD0B5D
:102E3000F0B5456801F01F04287B87B044EA4014D0
:102E4000286900286FD0B2F5001F05F1100606D1E1
:102E50002146304605F014F8002007B0F0BD0027E9
:102E6000B2F5800F01A80197476033D1B3F1007F1D
:102E700014BF052304238DF804300023CDE9040397
:102E80000393AB68CB40D9073CD4B2F1A07F39D1D2
:102E900068460094FFF77AFD009B203350F82330FA
:102EA000DB072FD46A4621463046FDF79FFF214BB2
:102EB00098421AD0CDF808D02146304603AAFFF731
:102EC000C9FE1D4B984231D1012221463046FFF701
:102ED0006DFDC1E7B3F1C06F05D0B3F1007F14BF42
:102EE00001230223C7E70323C5E7144B287D694666
:102EF00003EB8000FEF7C8FB0F4B9842DAD06FF06F
:102F00000B00AAE76A4621463046FDF76FFF0A4BE1
:102F10009842D1D1287D094B9DF8001003EB800029
:102F2000FDF7CEFEC8E76FF0850096E76FF015005D
:102F300093E700BF0400AD0B0000AD0B740100204F
:102F40002DE9F04FD50640F2063548BF4FF0030893
:102F5000476802EA05053B7B58BFC2F3401889B0B9
:102F600001F01F06B5F5837F144646EA43168DF837
:102F70000A8042D00DD8062D41D005D8A5B1022D2A
:102F800012D06FF0150035E0B5F5807FF9D101253D
:102F90000AE040F202239D4233D0B5F5407F32D0A3
:102FA000B5F5007FEDD104250123200303FA01F1DB
:102FB0002BD57B6859603B6963BB05A80596FFF775
:102FC000E5FC059B84F4803100EB8300D0F8802081
:102FD000C1F30041C4F3404343EA410322F4706269
:102FE00043EA880322F00F0243EA05231343C0F8A3
:102FF0008030002009B0BDE8F08F0925D4E708250E
:10300000D2E70625D0E70525CEE7620344BF7B68FB
:103010009960D0E707F11008314640460DF10B02E8
:10302000FDF7E4FE14F4403982463FD13046FDF707
:1030300063FE3C223B7D514D02FB0303083335F810
:1030400013300446DB0725D5404604F019FF31460E
:103050004046FDF75BFE58B14046FDF77BFED7F8D2
:1030600010B000B20BEB8003C3F81095C3F81095B5
:1030700031464046FDF780FE3C223B7D304602FB58
:1030800003440023083425F8143001221946009324
:1030900003F0B0FB3A4B9A45ABD1387D394B9DF8E4
:1030A0000B1003EB8000FDF70BFEA2E7002303AA41
:1030B000CDE90623404605AACDE903330593FFF782
:1030C000C9FD2F4B814698427FF45BAF14F4003367
:1030D00047D03046FDF710FE3146814640469DF808
:1030E0000AB004F48034FDF723FE28B94046FDF70A
:1030F0000DFE00287FF445AF3C223B7D1F4902FBBB
:103100000393083331F8133013F01C0F02D0002C56
:103110003FF437AF05A80596FFF738FCB4FA84F4FE
:103120003C22059B640900EB8300D0F8803023F437
:10313000706323F00F0343EA8B0343EA440343EA3B
:10314000052343F00103C0F880303B7D02FB039967
:1031500009F1080931F8193043F0030321F8193057
:1031600098E7CDE9063331460DF10A03404605AA3A
:103170000593FFF76FFD48458CD002E7042300203C
:103180000000AD0B7401002010B5FDF775FDA8B16E
:103190001B4B9B7F180711D51A4BD3F80423D1077B
:1031A0000CD5D3F800214AB10022C3F80021D3F88E
:1031B0000011C3F8842C0122C3F808230421124A09
:1031C000104804F00CF8C8B10D4C206A421C04D021
:1031D000A37F9B070FD504F082FE637F1BB10849D4
:1031E000084804F050F8002323720848D4E900315D
:1031F000BDE81040184704F066FEEEE710BD00BFC2
:10320000E022002000A00450EC220020E822002050
:103210002DE9F04F046987B0A66AD0F804A0226BAC
:103220000190002E53D1002A00F0F980BAF83850EE
:10323000616A954228BF1546D4F82C80E06A676A17
:10324000002862D1A563002F6DD1002524229AF8B1
:103250000490744E02FB09F2B018447F09EBC90BCD
:103260004FEA8B0B5CBBB2580AB1012242770BF1DB
:103270000C02B150B018242202FB09621761C0F899
:103280000880106A9561431C04D0927F940754D53E
:1032900004F019FEDAF8004021B101F06043B3F107
:1032A000005F07D1B8F1000F4AD008F06043B3F1D6
:1032B000005F45D02423002203FB09635A776FF097
:1032C0000401019807B0BDE8F04F04F07BBB606AD1
:1032D000D4F82C800146BAF8385012B1964228BF73
:1032E0001646B54228BF35460028A7D000F06042F8
:1032F000B2F1005FA2D0082D28BF082501462A465A
:10330000206C05F079FA216C98E7226B4AB108F03D
:103310006042B2F1005F04D0082D28BF0825D4F820
:103320004480A5632FB1A76A002F18BF2F4600283D
:103330008BD0226B002A88D088E704F0D0FDA9E763
:103340000022C4F84C27C4F81427C4F83C17C4F86A
:103350004077C4F80487C4F80857C4F80821D4F8A3
:1033600008310723C4F80035CDE90217CDE90485FB
:10337000FDF782FC002837D0242303FB09F3F11862
:10338000897F080730D58221F358C4F8841C8BB399
:10339000C4F80021D4F800310123C4F80433012318
:1033A0002360242303FB09F3F258F1188ABBFDF7CD
:1033B00063FC20B18B7F190748BFC4F8842C2423F9
:1033C00003FB0969D9F82000421C05D099F81E308A
:1033D0009B071BD504F083FD204606EB0B0107B0CD
:1033E000BDE8F04F03F04FBF242303FB09F3F3586C
:1033F000002BD4D101232360D4F80831002BFBD05B
:103400000421204602AA03F0EAFECAE704F05BFDAD
:10341000E2E70423C4F8043307B0BDE8F08F114697
:103420004FE700BFE02200202DE9F04F046995B07E
:103430004568099394F83D30CDE907120390AA68D6
:103440001BB12368994200F04581079BB3F804B093
:103450001BF4006F05D06FF08506304615B0BDE84F
:10346000F08F1BF0090F02D06FF01506F5E7CBF3D4
:103470004513082BF8D1079BAF491B688B42F3D942
:103480009A4228BF1A46E9681BF0020F0B9129697E
:1034900090460C91696995F82F700D91A9690BF010
:1034A00004030591297F0691A97F119195F82610B3
:1034B0001291A96A0E9195F82C100F9195F82D1084
:1034C000109195F82E10049195F83010139100F09A
:1034D000AE81002B14BF4FF003094FF002092B6897
:1034E000D3F80006431C05D01BF0020F40F0A58165
:1034F00004F0F5FC94F83D302BB12846FEF774FE3D
:10350000002384F83D302B798C4A19460A932423F2
:1035100003FB01FE02EB0E0A9AF81C30002B40F070
:10352000AB812868DFF818C28649874E604518BF0E
:103530000E46B6FBF8F308FB1366B34240F29C81DB
:10354000DE0700F199817E2B00F29681604514BF61
:10355000022004208342C0F08F817C4B039842F804
:103560000E30109BCAF80400002B049B08BF0223F6
:10357000754804932B6814BF4FF0010A4FF0000AFE
:10358000634508BF01462E79B1FBF8F8FDF774FBDF
:10359000C0B1B8F1020F40F2538119F0010F40F0B1
:1035A0004F814FEA580304990133DBB28B4238BF95
:1035B0000B46D9B2242303FB0622937F049143F0E8
:1035C0000803937724225D4B02FB0631887F67F363
:1035D00000008877297902FB013306999A7F61F30D
:1035E00041029A771FBBB9F1010F94BF0023012359
:1035F0003A4601210B9805F0CFF83B463A460121A7
:103600000C9805F0C9F83B463946129A0D9805F01A
:10361000C3F8069B3A460121059883F0010305F0A3
:10362000BBF801233A4619460E9805F0B5F8242355
:10363000424FBAF1000F00F00C814FF0FF3203FB54
:103640000673DDF818A01A62139B2A689BB90B9BBE
:10365000C2F800360C9BC2F804360D9BC2F808363F
:103660000E9BC2F80C36059BC2F81036049BC2F8BC
:10367000B8A5C2F8B035119BB9F1020FC2F8C03538
:10368000C2F82C85CBF3001300F0F080B9F1030FE2
:1036900000F0EF80B9F1010F01D143F00203C2F84D
:1036A00054350F9BC2F8AC3524222B795343FB5879
:1036B00023B12868C0F30830FEF776FD24230A9A68
:1036C00003FB027700237B7701233B7784F83D30AF
:1036D000079B2360012384F83C302E6C731C42D07E
:1036E00005F1440731463846FDF710FB002800F08D
:1036F000C6803846FDF72EFB00B2800000F58070D2
:103700001FFA80F8002231463846FFF74FF90022B1
:10371000032311463046009203F06CF803F0F4FCEA
:1037200081466B6C53F8083093B903F0EDFCA0EBC5
:103730000900C728F5D90BE047E80100E022002086
:1037400000A004500024F4000020A107F77E000030
:103750003146384604F094FB0022012311463046DE
:10376000009203F047F8089B002B40F08B806361C8
:103770000023A36104F1280204F1180104F11400EC
:1037800004F07EFF099B6062002B40F08480E361BF
:103790000023236204F1300204F1200104F11C0033
:1037A00004F06EFF002601213246E06226612046C9
:1037B00003F082FD0398FFF72BFD32463346A069E4
:1037C000834271D100231946266AB14273D19A42CD
:1037D00038BF1A4626464FF4FA535A4356F80C3B64
:1037E0001B68B2FBF3F202F1C807C93273D1EFF3E1
:1037F0001180202383F31288BFF36F8F1A46D6E817
:10380000AF3F002B5ED00023E36080F31188BFF34D
:103810006F8F266916F1740F65D0002E3FF41DAE30
:103820000022039B1146186903F046FD15E6B3F12B
:10383000000918BF4FF0010951E604F044FB59E6B6
:103840002422374B02FB06339A7F6FF3C3029A7729
:10385000B8E603FB0676059B069A3362B37F62F3F4
:103860004103B3774FF0FF330593EDE643F00403D4
:1038700015E743F0060312E76FF00406EDE54FF499
:10388000A2783FE7089B1B686361002B3FF470AF91
:10389000089B5B686DE7099B1B68E361002B3FF4A5
:1038A00077AF099B5B6874E7616901EBC301496805
:1038B00001330A4484E7E06900EBC100406801314C
:1038C000034482E703F0DCFAEFF3118082F31288FD
:1038D000BFF36F8F93E7FDF78BF98046D6E8AF3FD4
:1038E0008BB1E368CBB900262846A663FEF77CFCC3
:1038F00084F83D606FF07301039804F063F8E660AC
:103900006FF07306A9E5FDF773F9A0EB08039F427A
:10391000E7D90120FDF7B4FAE0E70023E36078E798
:10392000E02200202DE9FF474368027A03EBC20240
:103930009A4204D86FF0010004B0BDE8F0875C79CA
:103940008C4200F090800833F2E73368C3F3C3225F
:10395000082AC3F3080400F283804C4508BF4FF0E7
:10396000FF34B3F1D05F18F802104FEA136210D29F
:10397000192A10D8DFE802F0121B3247353C470FF6
:103980000F0F0F0F0F0F0F0F0F0F0F0F0F0F4A57C4
:103990005A5D382A50D06FF08500CDE7C5F804464F
:1039A000621C3CD10436B742CFD10020C4E7C5F831
:1039B0000C46601CF6D04FF0000A50463368009168
:1039C00003F40042002A07BF0146524601220021AB
:1039D0002046C3F3412302F00DFFE3E7C5F810468C
:1039E000DEE7631CC5F80046DCD04FF0000A05E0B6
:1039F000601CC5F80446D5D04FF0010A204604F0FB
:103A00006EFA0120DAE7C5F80846D2E7C5F8604546
:103A1000621C3368C6D0C3F30043002BECD02046B1
:103A200004F051FA19E0C5F86445F1E7C5F86845B6
:103A3000EEE7C5F86C45EBE703A80394FEF7A6FF95
:103A4000039B00EB8300D0F8803023F0E04343F089
:103A50008043C0F88030631CA4D04FF0010AACE76B
:103A60006FF0150068E71E681F7940F2FF190568BE
:103A7000DFF8088006EB870795E700BF36A2000055
:103A80002DE9F0474468066905460021E06B86B0E1
:103A9000FFF748FF002835DBD4F84090B9F1FF3F2D
:103AA00033D001238DF8023002238DF804306B44AB
:103AB000039301AB0493002394F84800DFF8A4803B
:103AC0000DF1030108EB800005930291FDF7DCFD89
:103AD000254B0746984204F1440A02D06FF01200C9
:103AE00010E04946504603AAFFF7B4F8B8420CD09C
:103AF00094F848009DF8031008EB8000FDF7E0F80B
:103B00006FF0040006B0BDE8F087636B98477468F7
:103B10000834A4F10802D6E9013103EBC1039A424B
:103B20000BD330460122002103F0C6FB28460F4983
:103B300006B0BDE8F04703F078BA54F8080C03F07B
:103B40007CF90028CAD034F8022C54F8080C14F878
:103B5000041C42F4B01203F03AFA002804F10804FD
:103B6000D7DACFE7740100200000AD0BA97F000079
:103B700030B50D46816887B0102302AA103904467B
:103B800004F098F8002802DA012007B030BD1022B6
:103B9000204602A904F01AF900283FD1102220493A
:103BA00002A804F019FE00280CBF012302232B7089
:103BB000A1680123203921F00F0120460DF10702F1
:103BC000203904F077F80028DEDB9DF80730204626
:103BD00003F00F021B096A702B7101220DF107011E
:103BE00004F0F4F810B96B78042B03D901236B703F
:103BF00000232B71A2682046203A22F00F02103ACF
:103C0000A91C04F0F4F80028BED1A2682046203A8E
:103C100022F00F02E91C04F0EAF8B6E70323C6E736
:103C200090A10000012580B5AC4B88B003201D7029
:103C3000FDF720FA0420FDF71DFAA94C60220021AF
:103C4000204604F0E4FDA74B0520636204F1200147
:103C500003F580532365FEF7D7F9A0B9284604F190
:103C60004C01FEF7D1F970B94FF400760520626A75
:103C700004A9049604F017FD30B1012384F85830EC
:103C80008DF8173036E1FEE7049B2846226D04A923
:103C9000A362049604F007FD002800F0A38084F8D6
:103CA00058500021084602F0D9FC0028E5D1A66A48
:103CB000656DAE4202D06B1C9E42DED1B6F5007F30
:103CC000DBD800231F46626A216D043204319D4215
:103CD00040F09080236AD86803F0E5FFE36CD86871
:103CE00003F0E1FFAE4205D9636A03EBC5035B68ED
:103CF000BB42C2D10123049303F1012305930023A6
:103D00006946206ACDE90633FFF732FFE06C02A96D
:103D1000FFF72EFF9DF800209DF80830012A72D190
:103D20009DF80220032A6ED1012B6CD00223276A52
:103D300007933B7803F0FB03012B9ED1F868E56DF8
:103D400003F0B1FF40F2FF534FF4C0685FFA85F90A
:103D50004FF0FF35BE68503E03FB096608FB106656
:103D600001233146384602AA03F0A4FF0028C246C8
:103D700008F1FF3881DB0122384602A904F026F859
:103D800018B9B5F1FF3F08BF5546A6EB0906B8F1D3
:103D9000000FE5D16A1C08D0B5F5007F65DA40F266
:103DA000011301350495ADF81430B96801232039A9
:103DB00021F00F01384602AA203903F07BFF0028CA
:103DC0007FF45BAF0122384602A903F0FFFF10B178
:103DD00001238DF808309DF8083003F00F038DF8AB
:103DE000173012E0049B6365236AD86803F05BFF19
:103DF000E06556E752F8337051F8330087427FF49C
:103E00003CAF013363E70023079304A803F0D1FE1E
:103E100080F0010004A9C0B202F020FC00287FF469
:103E20002CAF04A803F0C5FE90BB04A802F072FDFD
:103E30009DF8173084F85830033B012B05D804F067
:103E400093FC10B1FF2384F858309DF81730023BE3
:103E5000022B05D804F071FC10B1FF2384F8583010
:103E600094F85830FF2B0ED1FEE70223A5F500751C
:103E70008DF815306B1005F0010501330135049301
:103E80008DF8145091E70021084602F0E7FBF4E6B4
:103E90009DF81760012E32D102F04EFC831E022BDA
:103EA000054610D8304604A902F074FEE0B9E8B225
:103EB00084F858008DF81700012830D81AD0FF2355
:103EC00084F8583016E0C0B2042884F858008DF801
:103ED0001700F1D905281FD0F1E700BF7036002088
:103EE0005422002054020020012810D184F85800E8
:103EF0008DF8170094F85830FF2B24D1FEE70120ED
:103F000004A902F047FE10B99DF81700DCE705236D
:103F100084F858308DF8173004F026FC0DE004A822
:103F200002F0F8FC94F85830DA1E012A08D804F0A0
:103F30001BFC0028C3D104F000FC0028DAD0BEE747
:103F4000022BD7D1F7E70021012B02910CD10021E0
:103F5000084602F01FFE054658B9029B0133029342
:103F6000029F012F0CD0FEE7084602F077FB0028E5
:103F7000EDD0102200210DEB020004F048FCFEE71A
:103F80001022236A01460DEB0200D3F8048004F0EE
:103F90003EFC644BD3F874250F2A00D0FEE7D3F81B
:103FA0006C250F2AFAD102F5F91202F6F672C3F85F
:103FB0006855C3F86C254FF4F842C3F870255A4A87
:103FC0005A4EC3F874252389AA464344DFF860811A
:103FD0003360D8F804406723E443DFF8589104F0D5
:103FE0006704C9F82833002C7AD14FF001094FF04B
:103FF000FF37E420FEF7E6F84E4B4F4DD3F8482745
:10400000C62022F00102C3F84827D3F8102522F079
:104010000102C3F81025D3F8102522F00202C3F8DC
:104020001025C3F86490C3F8689088F80040C5F87C
:104030000873FEF7C7F8C5F82C90C5F85041D5F8BD
:104040005031C5F84C41D5F84C31C5F82441D5F86C
:104050002431C5F8004505F578354FF48270C5F870
:104060000873FEF7AFF8C5F82C90C5F85041D5F8A5
:104070005031C5F84C41D5F84C31C5F82441D5F83C
:1040800024312E4BC5F80045C3F80873BFF36F8F7A
:1040900072B623462A4A03F120010133102B42F85D
:1040A0002170F8D14FF0FF3104F160030134102C7E
:1040B00042F82310F8D10024224BC3F80444FCF743
:1040C00053FC33681B6883F3088884F31488BFF3B8
:1040D0006F8FBFF36F8F336858681B4B9847FEE7AD
:1040E000D8F80830E9B207FA01F202EA030010F04A
:1040F000670F13D023EA0203C8F80830D8F8043059
:10410000DB4303F06703134208D009EB0113C3F844
:104110002CA5E30702D50D48FCF7D2FD6408013554
:1041200061E700BF00B0045005301500B422002044
:104130008000002000200E5000600C5000E0105065
:1041400000E100E0002008E04100002084000020A1
:1041500030B5816885B0103921F00F04054603F0B1
:10416000E1FD10220146684604F051FB102268462A
:10417000064904F041FB10236A462146284603F015
:10418000BBFD003818BF012005B030BD90A1000074
:10419000012208B53C4BC3F80028FCF76DFD10B1B7
:1041A0003A4BC3F80C243A48FCF770FD0830FCF792
:1041B0006DFD0830FCF76AFD0830FCF767FD00F57F
:1041C000F470FCF763FD334AD2F88C3043F440635B
:1041D000C2F88C300022D30003F57F0303F540437F
:1041E000D3F8001401310AD0D3F8001439B1D3F850
:1041F00000140132D3F80434402A0B60EBD1224B77
:10420000D3F84024002A3BD0FCF726FD48B1224BCE
:10421000D3F83423214B9A429EBF1B4B204AC3F84C
:104220004026FCF719FD18B11E4B1F4AC3F8AC27F6
:10423000FCF712FD48B13422134BC3F82426D3F8FF
:104240003C2622F40022C3F83C26FCF715FD40B1C1
:10425000164BD3F80026D20744BF6FF00102C3F813
:1042600000260323124A0B49C2F81835D1F88C30C6
:1042700043F44063C1F88C300023C2F8A03508BD78
:10428000C822C3F84024BFE7000012500030055098
:1042900000C50D5000ED00E000C0FF00001D0A1831
:1042A00040E0A91E00A0085078000A0400E0105069
:1042B00000B0045010B5034B0A461B6800210446A9
:1042C000984710BD8401002010B5044610B109B113
:1042D000FFF7F0FF024B2046BDE810401B6818476F
:1042E0005801002070B5446A05460E4644B9074B94
:1042F00001201B689847686228B12046AE6270BDF5
:104300006FF08A00FBE76FF08C00F8E75C0100209B
:10431000302817D00ED81238C0B2192807D8012378
:10432000214A83401A40002A3AD1DB0720D46FF09B
:104330008600704741282AD04228F8D1FF2928D189
:104340001A4B2AE0B1F5A07F2AD00BD821F0200328
:10435000C02B25D0B1F5807F0CBF6FF085006FF0CA
:1043600086007047B1F5C07F1AD0B1F5007FF3E742
:10437000B1F5807F14D003D821F02001C029EBE7EC
:10438000B1F5C07F0CD040F209239942E4E7FF2940
:1043900002D0B1F5E07FDFE7054B002013607047E6
:1043A0006FF08500704700BF20022102688E000078
:1043B0005C8E000010B51E4C4368B4EB132F4FEA1F
:1043C000132215D142691B4B9A420CD003F5FF43CF
:1043D0007D331344012B03D80388B3F5105F1DD040
:1043E0006FF0860019E047F2121302889A42F6E74E
:1043F000114B9A42F4D1028802F44F43B3F5824F35
:104400000ED1438844F21210073382424FEAD3039D
:1044100001D15B00013300200B6010BD0223FAE7DD
:10442000B2F5885FFAD143880733DB08F3E700BFB2
:10443000004E800001C0FF7F4B4E80000022074BE2
:10444000C3F81021C3F80C21C3F80021C3F80421DC
:10445000C3F80821C3F81421704700BF005004506E
:1044600008B5FFF7EBFF01230360104B0A6832B970
:10447000D3F80C211AB9D3F80821002AF6D00B681A
:104480007BB90B4B99420ED0A3F58473D3F8083156
:10449000002B0CBF4FF0FF306FF00200FFF7CEFF94
:1044A00008BD0020FAE74FF0FF30F7E70050045056
:1044B0000851045038B5064D0C46C5F800050549AD
:1044C0000548FFF7CDFF10B9D5F80835236038BD92
:1044D00000500450105104500C500450254B1B78D0
:1044E00043B1254B1A68002A38D019681A6800228F
:1044F0001A6031B9BFF35F8F4FF0A343996ABFF3DE
:104500005F8FBFF35F8F4FF0A343DA6BBFF35F8F13
:1045100011F0240F02F0230222D0BFF35F8FDA697B
:10452000BFF35F8FBFF35F8F10215963BFF35F8FBE
:10453000BFF35F8F00215963BFF35F8FBFF35F8FBE
:10454000D96BBFF35F8F4906F8D422B1BFF35F8FF9
:10455000DA61BFF35F8F6FF01F00704720BFC1E7C4
:104560004FF0FF302AB9BFF35F8F1863BFF35F8F3F
:10457000104670477036002058240020C36870B57C
:104580007BB9C36900F128021A60C369454A9A6081
:104590004368C269DB6843F48063D360C369103346
:1045A000C361836A9B052FD40368C268DD6800F18C
:1045B000EC04302D34BF082610261D6901366B1E11
:1045C0001340EB1AB34238BF5B191C44D50004F802
:1045D000015C03F1EB045209044400F1ED05A5422E
:1045E0005CD1802280F8EC20426AC469C432226027
:1045F000C26993604468C269E468D460C2691032D9
:10460000C26102691A4402610269C469D31C23F0C1
:1046100003039B1A54F8042C42EA032244F8042CA6
:10462000C26952F8084C234443F0005342F8083C56
:10463000026A0368DB6811600168026AC9680333B3
:104640009160026A23F0030302F110010162016824
:10465000C96899420BD0002111610168026AC968DA
:104660005B1A43F080439360036A10330362836AEA
:1046700013F4806311D102685169D26891420CD061
:10468000026A13600268016A5369D2689B1A43F098
:1046900080438B60036A1033036270BD04F8012D00
:1046A000120A9CE704000020BFF35F8F094A1368D9
:1046B000BFF35F8F43F48071BFF35F8F1160BFF36F
:1046C0005F8F23F48073BFF35F8F1360BFF35F8F3F
:1046D000704700BF00108051BFF35F8F4FF0A343BE
:1046E0000022DA61BFF35F8FBFF35F8F4FF0FF32BD
:1046F0001A63BFF35F8FBFF35F8F3422DA61BFF3BA
:104700005F8F0122014BC3F80423704700800450DF
:10471000174BD3F80021C2B1BFF35F8F4FF0A34115
:104720008A6ABFF35F8FBFF35F8F4FF0FF3008637C
:10473000BFF35F8F0021C3F80011D3F800310D4B98
:10474000196819680A431A607047D3F808110029DC
:10475000FAD00220084909688860C3F80821D3F814
:104760000831064B1A681A6842F00102EBE700BFF5
:104770000080045058240020642800205424002085
:104780000368DA68D203FCD4DB6824481840B0F52B
:10479000806F2FD017D840282ED008D810282DD0C1
:1047A00020282DD0003818BF012040007047B0F5F8
:1047B000807F27D0B0F5007F26D0802808BF0B204F
:1047C00018BF02207047B0F5804F1FD00AD8B0F54F
:1047D000805F1DD0B0F5005F1CD0B0F5006F08BF42
:1047E0000620EDE7B0F5004F16D0B0F5803F08BFCA
:1047F0000320E5E7112070470A2070470C2070471E
:104800000920704708207047072070471420704720
:1048100005207047042070470F207047F0FF01000B
:10482000144B4FF0010C1A6808209169C3E919C0B4
:10483000C1F30B02482A5A6528BF482211F4003FF1
:104840009A6508BF0022DA6511F4803208BFC3E917
:10485000152201F47002B2F5700F14BF00229A6D98
:1048600000299A65BCBF0022C3E9192201221A65FA
:10487000704700BF64280020F0B50388C76803F4C0
:104880004F42B2F5824F08BF1D4603F4E0441F4B70
:1048900018BF002500201A46EDB21E78AE4223D183
:1048A000D3E9026CD1F800E0B4F5804F08BF66464A
:1048B000BEF1000F0BD1202E09D1142303FB0022DF
:1048C00053680B60137CABB96FF08500F0BDD3F873
:1048D00004C0E64508D1202E02D06FF08600F5E72F
:1048E000142303FB0022EDE70130132803F1140326
:1048F000D3D1F2E7422D06D1054B9F4203D003F2FC
:104900000B139F42E9D10020E0E700BFB48C000008
:104910000008000602480B1A58425841704700BF71
:1049200000080006034BC3F80005D3F80024D207A3
:10493000FBD5704700B00450014608B50120FFF7D1
:10494000F1FF064B0648C3F800150649FFF788FD3E
:1049500001460020FFF7E6FF084608BD005004505E
:10496000085004500851045070B588B001AE1822A8
:1049700005460C463046002103F049FF012044EA79
:10498000052405900794FFF7CDFFBA2309480A498B
:10499000C0F80035C0F80465FFF762FD014600204D
:1049A000FFF7C0FF81420CBF08466FF0920008B0CD
:1049B00070BD00BF0050045000510450F8B51E4DAA
:1049C000064695F880350F467BB300242B462246D9
:1049D000197FD1B13CB9022905D1196A19B91979E0
:1049E000002918BF1C460132202A03F12C03EFD105
:1049F00014B96FF08C0006E0204603F050FB20460F
:104A000003F0F1FB10B100240DE01C46237F7BB9BD
:104A10000123237736B1094B651BAD105D4305F1CA
:104A20008045356000203C60F8BD6FF08800EAE703
:104A30006FF09600E7E700BFD4280020A38B2EBAC2
:104A40002DE9F04788B005460E46174603F0A8FB4F
:104A50000446B8B901460422684603F0D8FE9DF822
:104A600000306A6964F30303C2F3013161F3051393
:104A70008DF8003013F0300308D1A868800710D0FB
:104A80006FF08604204608B0BDE8F087102B08D1EF
:104A9000BDF8023023F4F87343F4A873ADF8023084
:104AA00070E0EC68754884424AD12A8802F44F408D
:104AB000B0F5824F47D1D0B2422844D1A86810F453
:104AC000A05F04D122F0FF02B2F5E24F3BD00A20F2
:104AD0009DF8022060F303028DF8022000244FF0BD
:104AE000010A2046A4469DF80320D5F808E0DFF827
:104AF0009081520858F8049B1EEA090F07D00AFA61
:104B00000CF42243012402F07F0240EA09000CF178
:104B1000010CBCF1070FEDD12CB19DF8034062F3FD
:104B200047048DF803403EEA00000CD16A88FF2A52
:104B300011D00BD8802A2CD0C02A04D102220BE03D
:104B4000D2B2F82ACAD06FF085049BE7B2F5807F15
:104B5000F9D1042200E003229DF8020062F306105E
:104B60008DF8020013B91EF0030F89D12B79022BA7
:104B70001CD010D8012B83D1BDF8022063F3C812DA
:104B8000ADF80220B9B103297FF47AAFDFF8F480E1
:104B900017E00122E0E7032B02D0FF2B7FF470AF78
:104BA0000222BDF8023062F3C81377E7BDF8023085
:104BB00043F4C07372E72B88B3F5105FC3D1DFF8FD
:104BC000C880304603F084FA10B96FF08A0459E7C0
:104BD000701C03F07DFA0028F7D002213046FFF761
:104BE000C3FE044600287FF44DAF01AD01461C22F0
:104BF000284603F00CFE6946042207A8CDF8188069
:104C000003F0FAFD2146DFF88490DFF884A0BDF8B8
:104C100002301022C3F3C11339442846059303F030
:104C2000EBFD01203119FFF77DFEC9F8001517488B
:104C30005146C9F80455FFF713FC01460020FFF761
:104C400071FE21B103F0ACFA6FF092041AE71C2157
:104C5000284603F031FA44B908F1100306934FF0E7
:104C6000FF33012410210793D1E7BA20FFF764FE38
:104C7000044600283FF406AFE6E700BF0008000640
:104C8000408E000000000020400081510050045080
:104C900000510450074A1368591C11604BB9064A69
:104CA0004820D2F8003443F00703C2F80034FDF77F
:104CB0007BBA70476028002000800450B1F5DE7F89
:104CC00038B5044624D303681D6815F0400522D189
:104CD000FFF7E0FF01212176FFF7FEFC0F4B28468E
:104CE000636023680E4A1B68C4E90355A36204F19C
:104CF0002C03236204F128036362E3671323C4E9EE
:104D0000212304F18C03E361064BA160636138BD8C
:104D10006FF02200FBE76FF00200F8E7308E000032
:104D2000040000207D45000038B5114D0446C5E95A
:104D30000415FFF7AFFF042200210E4BC3F8042334
:104D40000D4A2B68D868C0030AD403F580535B6A08
:104D500013F4A02304D1C4E90053204638BD20BF7A
:104D60001368002BFBD0136813681160E9E700BFDC
:104D700064280020008004505424002010B5124BF9
:104D80001C68013C1C60ECB94820FDF71BFA0722A7
:104D90000E4BC3F80823D3F8002422F00702C3F80F
:104DA0000024C3F80041D3F80021C3F80441D3F82C
:104DB00004214FF48072C3F80841D3F80831044B42
:104DC000C3F8882110BD00BF602800200080045077
:104DD00000E100E00422054B10B5C3F808230446A7
:104DE000FFF7CCFF00232361A36410BD00800450B3
:104DF0002DE9F04F90469B4642690369D0F84CA0DC
:104E00009D680446D0E901730E46D2F86C9085B0D7
:104E1000BAF1000F06D0FFF7DDFF1025284605B0D8
:104E2000BDE8F08F4F490A6D22B90193FFF7F8FCF6
:104E30004C49019B326810064CBFCA6D4A6D7068C0
:104E4000904204DD2046FFF7C5FF0D25E6E7226905
:104E5000E060B9F1000F02D0116948EA0108316839
:104E600012680138114341EA0021226841EA080131
:104E7000516022691268D10002D5E2689A1A17447B
:104E80009DBB336813F4700F3AD0B9F1000FC5D051
:104E900023691B69002BC1D0D9F8083048469847D0
:104EA000D4E90167CDE902012369E2681B6806EBDA
:104EB000071613F0805F42D0C1F3076100F03F0393
:104EC00041F0010143F020038DF80F10B01AA2F158
:104ED00008018DF8083003F0BEF9083E082230467C
:104EE0000DEB020103F0D4F998E7EA0748BF4BF84D
:104EF0002A704FEA650548BF0AF1010A1F44BFE75F
:104F00002369D6F808801B68D4E9017BDB0042BF27
:104F10007368ABEB0303FF18B8F1000FB5D04FF087
:104F2000000ABAF1060FB0D041463846726803F065
:104F3000AFF973685F4498440AF1010AF1E7C1F3DD
:104F4000056141F02001F61B40F001038DF80F10C0
:104F500006F10800A2F108018DF8083003F07BF992
:104F6000BCE700BF642800204FF4807310B592B0F6
:104F7000019301AB06931123204A2149CDE908236F
:104F80000AAB079340F611021E4BCDE90C120A93AF
:104F900020330E9321230EAA0B921B4A0290CDE9D7
:104FA00010230123CDE903320F9320230593FFF74C
:104FB00071FEFFF791FBBFF35F8F4FF0A34306AA8B
:104FC0001A60BFF35F8FBFF35F8F02AA1A61BFF34E
:104FD0005F8FBFF35F8F03225A63BFF35F8FBFF30F
:104FE0005F8F9A63BFF35F8FFFF778FA431C044625
:104FF000FAD0FFF7C3FE204612B010BD0400002017
:1050000020000020D0010020100000202DE9F043F6
:105010000446002793B00DF11F05DFF8748025F0DA
:105020001F05102201231B4911F8010D013A034409
:105030000B704FEA1323F7D1E819FFF795FFA94644
:10504000064600BBD8E90C321037013342F10002AA
:10505000302FC8E90C32E4D154B104F1300299F890
:10506000003014F8011B4B40A24209F8013BF6D175
:1050700020222946064803F0BFFB1022064805F10E
:10508000200103F0B9FB304613B0BDE8F08300BF48
:10509000D001002000020020F00100202C232DE987
:1050A000F3411E4D0F4603FB0055EB682E89D5F8E2
:1050B00020801E440423314640460DEB030202F0DB
:1050C000F9FD044620B10124204602B0BDE8F0817C
:1050D00046F60813BDF804206D899A421AD1BDF82E
:1050E00006309D4201D00324EEE7042340460DEB39
:1050F0000302A91902F0DEFD0028E4D146F60713E9
:10510000BDF804209A42EED1BDF806302B4433445A
:105110003B60D9E7002DF1D0E5E700BF5422002025
:105120001FB50A4B6A461C6A1023A1682046103935
:1051300002F0C0FD38B910226846054903F04CFB67
:10514000204604B010BD0024FAE700BF542200201E
:1051500090A100002DE9F84F06460F46904699466B
:105160000024DDF828A0DFF844B0A24501D80020D3
:105170000FE0AAEB0405B5F5806F28BF4FF48065FA
:1051800030462B46094A04EB080102F093FD10B1AA
:105190000120BDE8F88F2B465A46384604EB09013A
:1051A00002F0AAFD0028F3D12C44DEE75C240020A5
:1051B0002DE9F04107463025514CDFF84881202D7C
:1051C0002E46A8BF2026FFF765FDFFF76DFABFF357
:1051D0005F8FE368BFF35F8F9B08013BBFF35F8F77
:1051E000A360BFF35F8FBFF35F8F00232364BFF320
:1051F0005F8FBFF35F8FF1226264BFF35F8FBFF3F6
:105200005F8F4FF400726263BFF35F8FBFF35F8FF6
:10521000C4F80080BFF35F8F07E0FFF7AFFD6FF0CA
:105220003F052846BDE8F0810123BFF35F8F226B65
:10523000BFF35F8F5108C2F34202052A5CD011F020
:10524000060FF2D023BBBFF35F8F6268BFF35F8F9F
:10525000032AEAD92C4B2D4ABFF35F8FD4F8801074
:10526000BFF35F8FBFF35F8F43F8041BBFF35F8F04
:105270009342F1D1FFF718FABFF35F8F2368BFF3B2
:105280005F8F43F00103BFF35F8F2360BFF35F8F36
:105290003246BFF35F8FA368BFF35F8F0133B6EB76
:1052A000031FBAD8BFF35F8F6368BFF35F8FB6EB9E
:1052B000830FB9D8BFF35F8FD4F88030BFF35F8F0F
:1052C0003946081D01F8013B81424FEA132302F1E0
:1052D000FF3208D0002AF5D1FFF750FDAD1B37444F
:1052E0007FF46DAF9DE7002AF6D0BFF35F8FD4F84F
:1052F0008030BFF35F8FE4E7FFF740FD63E700BF57
:1053000000108051010004001010805120108051C5
:105310002DE9F04FA74CA1B062780DF17703022A76
:1053200023F01F08237801D1072B5AD013F0010571
:1053300041D1A14FA1493A688A4239D0FFF7AAFC6E
:105340009F4B01211D609F4B48201D60FCF792FF81
:105350009D4A9E4B9E4952F8040B43F8040B8B4226
:10536000F9D100239B4DEB669B4B2B6003F5C043AB
:105370006B602B6D0BB9FFF753FA6B6D1C22B3F505
:10538000007FCCBF4FF480634FF40073002103A86B
:10539000AB6003F03CFAF82002F09AFE38BBF9202B
:1053A00002F096FE18BBFFF7E9FC844B3B602378C4
:1053B00043F00103237023789D0706D40121874A17
:1053C00043F0020382F880152370627823781AB9BB
:1053D000D80744BF0222627059075CBF43F0040340
:1053E00023704FF0000B584621B0BDE8F08F7C4D84
:1053F000D5E90C3213432CD0D5E90C32023342F1FB
:105400000002B2F5803F7DD20AAE4FF0200AB146CD
:105410005146102928BF102101231022714810F88D
:1054200001CD013A634403704FEA1323F7D140469C
:105430000191FFF799FD834680BB0199BAF1000FF6
:1054400079D1D5E90C32013342F10002C5E90C32C1
:10545000DEE7AA6B644B9A42D6D000231A46EA5480
:105460000133402BFBD10AAE3046FFF7A1FE80B9D5
:105470003046FFF7CBFD002842D103460246F254E6
:105480000133302BFBD100230122C5E90C23564BFD
:10549000AB6302F043FF83460028ADD0FFF76EFCFC
:1054A0002278560700F1838042F0010222709207B1
:1054B00019D54A4D00262F464FF001094FF0030839
:1054C0002846C5F8209085F81C80013602F08BFE36
:1054D000202E05F12C05F3D1002287F880252278B3
:1054E00022F0020222700022042140486270FEF77E
:1054F000E1FE2278D30744BF22F00102227072E756
:105500000E20C6E70AAE3046FFF752FE80B930469D
:10551000FFF77CFD83460028C0D103460246F254C3
:105520000133302BFBD100220023C5E90C236BE7AC
:105530006FF0920BB2E74246731812F8010B06F8AF
:10554000010BB342F9D11E46D5E90C32013342F1C9
:105550000002BAEB010AC5E90C327FF459AF50469C
:10556000FFF754FD8346002898D14FF4807302A8BA
:10557000029302F08BFB029BDFF874E005931D4B56
:105580004A4606931C4BF821CDE903E31B4B03A8C5
:105590000893FFF755FA83462021484602F08CFD18
:1055A000FFF7ECFBBBF1000F7FF47AAFFDE622F0D2
:1055B000040279E7582E0020800100201173650055
:1055C0005824002054240020748E000000C0805114
:1055D0001CD380516428002000208051D428002052
:1055E000D001002000020020B4A5B4A55C2E00204C
:1055F000002400010010C004014B4E80F800FF7F22
:1056000040292DE9F04104460E462FD80378033394
:1056100003F00303012B21D86FF0210002F07EFE7E
:10562000054640B913493246204603F0E5F84021CB
:10563000104802F041FD2846BDE8F0816378384605
:105640002B44C8F80035FEF70BFF68B90135237805
:10565000C3F382039D42F1D30020DFE70025DFF88A
:1056600018800649064FF2E70220D7E76FF0890558
:10567000E1E700BF00000020005004500451045036
:10568000045004502DE9F7430E46694681461446FE
:1056900098460A9F02F018FE002852D1B9F1F8038B
:1056A00046F1FF36022B76F10006C0F0B48002F01E
:1056B00077FD002845D19DF8006016F00F0240F0FC
:1056C000AD80BDF80230C3F3C113013BDBB2022B46
:1056D00000F2A780594906F03006C95C584B102EDD
:1056E00043EA010363602FD1564B2360204601A992
:1056F000FEF760FE28BB019BBB4200F29B8044F298
:1057000012122188914204BF042208F8012B0B9A3F
:1057100008BF07F1FF3713609DF8003098F80020AC
:10572000C3F3011363F3010288F800209DF80220FF
:10573000C2F30212042A49D8012A4BD851D06FF083
:10574000980003B0BDE8F0839DF80310134610469F
:105750003D4A4908F9B9019001A802F097FA9DF86D
:105760000230019A03F00F010A29A2605FD147F2CB
:10577000421112F4A05F44F2421218BF0A46C3F36A
:1057800002132280314A013BE260032B0FD8DFE88D
:1057900003F00C16181ACD0704D5062B44D852F87E
:1057A0002350284349080133D4E7802363809DF8C0
:1057B000003013F0300F99D16FF09600C1E7C0238D
:1057C000F4E7FF23F2E74FF48073EFE7052AB6D141
:1057D000032206E044F2121322889A4214BF0222E6
:1057E0000422202E00D1023298F8003088F801906F
:1057F00062F3840388F80030238803F44F42B2F543
:10580000824F04D139464046FFF7FAFE99E7B3F5D7
:10581000885F96D1F6E76FF0860092E76FF0880018
:105820008FE76FF091008CE76FF0830089E76FF0EE
:10583000920086E76FF0890083E700BF81A3000034
:10584000004B4E8001108001408E000000080006D1
:1058500000232DE9F0417F4D0B6095F88025074628
:105860000E468CB0002A00F0EF8000F140421F2A63
:1058700066D82C2303FB02552B7F022B55D03146D3
:105880000020FFF79BF80446002870D101223368FE
:1058900001465F61336805A85A6035681C2202F032
:1058A000B6FF6F696C4A07F14043A3F580539342FA
:1058B000CDE9024400F2BF80684B9F425BD00133C8
:1058C0009F4258D0023B9F4255D0FFB2384604A9B0
:1058D00002F0FAFC0446002840F08580BDF8123042
:1058E000C3F3C113013BDBB2022B00F29E805C4A82
:1058F000D25C5C4B13436A690693DBB20A9203B92C
:105900000A900023CDE900443846194605AAFFF75E
:10591000B9FE10F18A0F044635D03068002C62D1F0
:1059200002F061FC6FF096042AE06B699842A6D100
:10593000284602F0B4FB0446B0B93560002416E0F6
:10594000002840F384802A46117F022902D1516940
:105950008F4205D00133202B02F12C02F4D18EE7C7
:105960002C2202FB0355E3E710F18C0F87D0204671
:105970000CB0BDE8F081306802F035FC6FF08504B2
:1059800000233360F3E7069B374A4FEA1328B2EB54
:10599000132F02D0354B984547D102A905A8FEF731
:1059A00009FD0446F8B928460299FEF79BFC044617
:1059B000C8B9D5E909322C49884502D04B31884510
:1059C00018D103A9CDE900213846002105AAFFF727
:1059D00059FE044688B1686A10B1A96AFEF774FCE2
:1059E0000023C5E90933306802F0FDFB14F18C0F88
:1059F000C6D123E06FF08B04EDE7039B05ACAB62EF
:105A00000FCC0FC594E8070085E807003068083020
:105A100002F03CF933681A7F012A12D0306802F094
:105A20003EFB0446002889D0AAE7306802F0DBFB81
:105A30006FF08604A4E7284602F0D5FB6FF08704D8
:105A40009EE702221A77E9E76FF088048FE76FF08C
:105A500087048CE7D4280020FFDFFF3F02C0FF7FD0
:105A600081A30000004B4E80004E80004B4E800012
:105A70002DE9F04F1746002295B0DDE91E890D464D
:105A8000064601889B46C9F80020C8F80020002B74
:105A90006AD04368444C1A0AB4EB132F24D102A9EC
:105AA000D0F814A0FEF786FC0446C8B9029B9B45BB
:105AB00074D35FFA8AFA2A4651463046FEF7C0FF91
:105AC000044668B921463B465046CDE900B803AAD2
:105AD000FFF7D8FD044618B9BDF80E30C9F80030FC
:105AE000204615B0BDE8F08F002A5AD121F0FF03FF
:105AF000B3F5E24F1ED14388BBF11F0F03934DD97D
:105B000003A9FEF7B9FE04460028E9D103466A1E40
:105B1000013F1F3512F8011F954207F8011F43EAA4
:105B20000103F7D103B3039BC9F800302023C8F861
:105B30000030D5E7B3F5824F33D1B0F800A04388E9
:105B40000AF44F41B1F5824F18BF4FF0000A691EA9
:105B5000029303A81F3511F8014F8D4200F8014B45
:105B600042EA0402F7D112B96FF08604B8E7BBF13C
:105B70001F0F13D9304602A9FEF77EFE0446002807
:105B8000AED15FFA8AF11229EED03029ECD0202272
:105B9000384603A902F030FE029BC5E76FF0890486
:105BA0009EE76FF085049BE74B4E80002DE9F041A6
:105BB0001E46124B0C4603604FF4DE7105469046BC
:105BC000069FFFF77BF8B8B9A8F1040804EB860636
:105BD000284658F8042F54F8041B02F036FC58B934
:105BE000B442F5D13946284602F05EFC20B9284679
:105BF000BDE8F04102F073BCBDE8F0816C8C0000A0
:105C00002DE9F0431D46324BADF50D7DCDE9070181
:105C1000CDE90535222120230DF13408CDE9091302
:105C2000CDE90B3207460323CDF800800AAA06A966
:105C30001DA8FFF7BBFF0446002843D1FE7FEB7F82
:105C4000F609DB0923494FEA467603A818BF46F058
:105C50008046FFF769F8DDE903949CBB324648466D
:105C60001D491DABFFF7C4F8044658BB202241462E
:105C70001D9802F00DFB20221E9815A902F008FBCA
:105C80001F9C20222046394602F002FB2022FB7F87
:105C9000A91803F07F03E377209802F0F9FA219C1A
:105CA00020222046294602F0F3FAEB7F484603F013
:105CB0007F03E37702F016FAFEF762FD04464846DA
:105CC000FFF788F820460DF50D7DBDE8F08300BF95
:105CD000880100208C8C0000688E00002DE9F04FB8
:105CE0000024ADF5617D02AFC7E9091007F5967094
:105CF000FBF786FDBB6ABA6A1B895289DFF804820A
:105D00001344BA6AD6681E44A64200F2BA8007F16C
:105D1000AC0107F5967001F0B0FE07F5967002F041
:105D2000EEFA7B6A002B00F0BD80BB6A786A1C89A2
:105D3000DB6807F596721C442146042301F0BAFF84
:105D40003861002840F0AE8046F60812B7F82C11F2
:105D5000BB6A91425B8940F0B580B7F82E11994239
:105D600040F0A0800423786A07F59672214401F080
:105D7000A1FF002840F0968046F60713B7F82C21C3
:105D80009A4240F08F80BB6A5F485B89C16D2344B3
:105D9000BB61BA69B7F82E3113447B60436A5A6815
:105DA0004FF4C06303FB012153424F311940836A12
:105DB000406D013B534342435B1A521A934228BF42
:105DC00013467A689A426DD8231D4FF0FF34264659
:105DD0003B627B683A6A934240F26583BB6A5B89A7
:105DE00023B1BB69934204BF04333B620423D7E968
:105DF000081007F5967201F05DFF002852D13A6A4B
:105E0000B7F82C31111DB7F82E21FA62BA698A420F
:105E100008D84FF6FF753D4830F8022BAA4241D012
:105E20009A42F9D1122B51D0242B73D0012B62D17D
:105E3000FB6A402B36D8786A07F16C0201F03AFF12
:105E400080BB07F59670FBF7DBFC2C22304907F589
:105E5000967002F05CFB07F1EC0107F5967001F01B
:105E60000CFE07F5967002F04AFAFA6A07F16C0127
:105E700007F1EC0002F0B0FC041E18BF01246442DC
:105E800039E0351BB5F5807F28BF4FF48075424659
:105E90002B462146786A01F00DFF58B107F5967040
:105EA00002F02DFA4FF0FF36304607F55F77BD461A
:105EB000BDE8F08F2A46414607F5967002F027FBB1
:105EC0002C4421E7002B3FF457AFEBE7FB6A402B54
